{
  "contractName": "Management",
  "abi": [
    {
      "inputs": [],
      "stateMutability": "nonpayable",
      "type": "constructor"
    },
    {
      "inputs": [
        {
          "internalType": "address",
          "name": "",
          "type": "address"
        },
        {
          "internalType": "uint256",
          "name": "",
          "type": "uint256"
        }
      ],
      "name": "users_ingridients",
      "outputs": [
        {
          "internalType": "bool",
          "name": "can_mint",
          "type": "bool"
        },
        {
          "internalType": "bool",
          "name": "can_transfer",
          "type": "bool"
        },
        {
          "internalType": "bool",
          "name": "can_receive",
          "type": "bool"
        },
        {
          "internalType": "bool",
          "name": "can_split",
          "type": "bool"
        },
        {
          "internalType": "bool",
          "name": "can_pack",
          "type": "bool"
        }
      ],
      "stateMutability": "view",
      "type": "function",
      "constant": true
    },
    {
      "inputs": [
        {
          "internalType": "address",
          "name": "_user",
          "type": "address"
        },
        {
          "internalType": "uint8",
          "name": "_ingridientID",
          "type": "uint8"
        },
        {
          "internalType": "bool",
          "name": "_can_mint",
          "type": "bool"
        },
        {
          "internalType": "bool",
          "name": "_can_transfer",
          "type": "bool"
        },
        {
          "internalType": "bool",
          "name": "_can_receive",
          "type": "bool"
        },
        {
          "internalType": "bool",
          "name": "_can_split",
          "type": "bool"
        },
        {
          "internalType": "bool",
          "name": "_can_pack",
          "type": "bool"
        }
      ],
      "name": "set_user_perms",
      "outputs": [],
      "stateMutability": "nonpayable",
      "type": "function"
    },
    {
      "inputs": [
        {
          "internalType": "address",
          "name": "_user",
          "type": "address"
        },
        {
          "internalType": "uint8",
          "name": "_ingridientID",
          "type": "uint8"
        }
      ],
      "name": "get_perm_mint",
      "outputs": [
        {
          "internalType": "bool",
          "name": "",
          "type": "bool"
        }
      ],
      "stateMutability": "view",
      "type": "function",
      "constant": true
    },
    {
      "inputs": [
        {
          "internalType": "address",
          "name": "_user",
          "type": "address"
        },
        {
          "internalType": "uint8",
          "name": "_ingridientID",
          "type": "uint8"
        }
      ],
      "name": "get_perm_transfer",
      "outputs": [
        {
          "internalType": "bool",
          "name": "",
          "type": "bool"
        }
      ],
      "stateMutability": "view",
      "type": "function",
      "constant": true
    },
    {
      "inputs": [
        {
          "internalType": "address",
          "name": "_user",
          "type": "address"
        },
        {
          "internalType": "uint8",
          "name": "_ingridientID",
          "type": "uint8"
        }
      ],
      "name": "get_perm_receive",
      "outputs": [
        {
          "internalType": "bool",
          "name": "",
          "type": "bool"
        }
      ],
      "stateMutability": "view",
      "type": "function",
      "constant": true
    },
    {
      "inputs": [
        {
          "internalType": "address",
          "name": "_user",
          "type": "address"
        },
        {
          "internalType": "uint8",
          "name": "_ingridientID",
          "type": "uint8"
        }
      ],
      "name": "get_perm_split",
      "outputs": [
        {
          "internalType": "bool",
          "name": "",
          "type": "bool"
        }
      ],
      "stateMutability": "view",
      "type": "function",
      "constant": true
    },
    {
      "inputs": [
        {
          "internalType": "address",
          "name": "_user",
          "type": "address"
        },
        {
          "internalType": "uint8",
          "name": "_ingridientID",
          "type": "uint8"
        }
      ],
      "name": "get_perm_pack",
      "outputs": [
        {
          "internalType": "bool",
          "name": "",
          "type": "bool"
        }
      ],
      "stateMutability": "view",
      "type": "function",
      "constant": true
    },
    {
      "inputs": [
        {
          "internalType": "address",
          "name": "_checkAddres",
          "type": "address"
        }
      ],
      "name": "isAdmin",
      "outputs": [
        {
          "internalType": "bool",
          "name": "",
          "type": "bool"
        }
      ],
      "stateMutability": "view",
      "type": "function",
      "constant": true
    },
    {
      "inputs": [],
      "name": "getIngredientIDs",
      "outputs": [
        {
          "internalType": "uint8[]",
          "name": "",
          "type": "uint8[]"
        }
      ],
      "stateMutability": "view",
      "type": "function",
      "constant": true
    },
    {
      "inputs": [
        {
          "internalType": "address",
          "name": "_user",
          "type": "address"
        }
      ],
      "name": "get_user_perms",
      "outputs": [
        {
          "internalType": "bool",
          "name": "canMint",
          "type": "bool"
        },
        {
          "internalType": "bool",
          "name": "canTransfer",
          "type": "bool"
        },
        {
          "internalType": "bool",
          "name": "canReceive",
          "type": "bool"
        },
        {
          "internalType": "bool",
          "name": "canSplit",
          "type": "bool"
        },
        {
          "internalType": "bool",
          "name": "canPack",
          "type": "bool"
        }
      ],
      "stateMutability": "view",
      "type": "function",
      "constant": true
    }
  ],
  "bytecode": "0x608060405234801561001057600080fd5b50336000806101000a81548173ffffffffffffffffffffffffffffffffffffffff021916908373ffffffffffffffffffffffffffffffffffffffff160217905550610e8a806100606000396000f3fe608060405234801561001057600080fd5b506004361061009e5760003560e01c80634fbb568e116100665780634fbb568e14610189578063a859e614146101b9578063cf872dc7146101e9578063e366927614610219578063ef426a49146102355761009e565b80630f3edd1c146100a357806319d80ee6146100d757806323ba78fe146100f557806324d7806c146101255780633f2ea1ff14610155575b600080fd5b6100bd60048036038101906100b89190610a13565b610265565b6040516100ce959493929190610a6e565b60405180910390f35b6100df6102e9565b6040516100ec9190610b8c565b60405180910390f35b61010f600480360381019061010a9190610bda565b610367565b60405161011c9190610c1a565b60405180910390f35b61013f600480360381019061013a9190610c35565b6103d5565b60405161014c9190610c1a565b60405180910390f35b61016f600480360381019061016a9190610c35565b61042d565b604051610180959493929190610a6e565b60405180910390f35b6101a3600480360381019061019e9190610bda565b610598565b6040516101b09190610c1a565b60405180910390f35b6101d360048036038101906101ce9190610bda565b610606565b6040516101e09190610c1a565b60405180910390f35b61020360048036038101906101fe9190610bda565b610674565b6040516102109190610c1a565b60405180910390f35b610233600480360381019061022e9190610c8e565b6106e2565b005b61024f600480360381019061024a9190610bda565b610866565b60405161025c9190610c1a565b60405180910390f35b6001602052816000526040600020602052806000526040600020600091509150508060000160009054906101000a900460ff16908060000160019054906101000a900460ff16908060000160029054906101000a900460ff16908060000160039054906101000a900460ff16908060000160049054906101000a900460ff16905085565b6060600280548060200260200160405190810160405280929190818152602001828054801561035d57602002820191906000526020600020906000905b82829054906101000a900460ff1660ff16815260200190600101906020826000010492830192600103820291508084116103265790505b5050505050905090565b6000600160008473ffffffffffffffffffffffffffffffffffffffff1673ffffffffffffffffffffffffffffffffffffffff16815260200190815260200160002060008360ff16815260200190815260200160002060000160039054906101000a900460ff16905092915050565b60008173ffffffffffffffffffffffffffffffffffffffff1660008054906101000a900473ffffffffffffffffffffffffffffffffffffffff1673ffffffffffffffffffffffffffffffffffffffff16149050919050565b60008060008060008061043e6102e9565b905060005b815181101561058d576000600160008a73ffffffffffffffffffffffffffffffffffffffff1673ffffffffffffffffffffffffffffffffffffffff16815260200190815260200160002060008484815181106104a2576104a1610d30565b5b602002602001015160ff16815260200190815260200160002090508060000160009054906101000a900460ff16156104d957600197505b8060000160019054906101000a900460ff16156104f557600196505b8060000160029054906101000a900460ff161561051157600195505b8060000160039054906101000a900460ff161561052d57600194505b8060000160049054906101000a900460ff161561054957600193505b8780156105535750865b801561055c5750855b80156105655750845b801561056e5750835b15610579575061058d565b50808061058590610d8e565b915050610443565b505091939590929450565b6000600160008473ffffffffffffffffffffffffffffffffffffffff1673ffffffffffffffffffffffffffffffffffffffff16815260200190815260200160002060008360ff16815260200190815260200160002060000160019054906101000a900460ff16905092915050565b6000600160008473ffffffffffffffffffffffffffffffffffffffff1673ffffffffffffffffffffffffffffffffffffffff16815260200190815260200160002060008360ff16815260200190815260200160002060000160009054906101000a900460ff16905092915050565b6000600160008473ffffffffffffffffffffffffffffffffffffffff1673ffffffffffffffffffffffffffffffffffffffff16815260200190815260200160002060008360ff16815260200190815260200160002060000160049054906101000a900460ff16905092915050565b60008054906101000a900473ffffffffffffffffffffffffffffffffffffffff1673ffffffffffffffffffffffffffffffffffffffff163373ffffffffffffffffffffffffffffffffffffffff1614610770576040517f08c379a000000000000000000000000000000000000000000000000000000000815260040161076790610e34565b60405180910390fd5b6000600160008973ffffffffffffffffffffffffffffffffffffffff1673ffffffffffffffffffffffffffffffffffffffff16815260200190815260200160002060008860ff1681526020019081526020016000209050858160000160006101000a81548160ff021916908315150217905550848160000160016101000a81548160ff021916908315150217905550838160000160026101000a81548160ff021916908315150217905550828160000160036101000a81548160ff021916908315150217905550818160000160046101000a81548160ff02191690831515021790555061085c876108d4565b5050505050505050565b6000600160008473ffffffffffffffffffffffffffffffffffffffff1673ffffffffffffffffffffffffffffffffffffffff16815260200190815260200160002060008360ff16815260200190815260200160002060000160029054906101000a900460ff16905092915050565b600360008260ff1660ff16815260200190815260200160002060009054906101000a900460ff166109775760028190806001815401808255809150506001900390600052602060002090602091828204019190069091909190916101000a81548160ff021916908360ff1602179055506001600360008360ff1660ff16815260200190815260200160002060006101000a81548160ff0219169083151502179055505b50565b600080fd5b600073ffffffffffffffffffffffffffffffffffffffff82169050919050565b60006109aa8261097f565b9050919050565b6109ba8161099f565b81146109c557600080fd5b50565b6000813590506109d7816109b1565b92915050565b6000819050919050565b6109f0816109dd565b81146109fb57600080fd5b50565b600081359050610a0d816109e7565b92915050565b60008060408385031215610a2a57610a2961097a565b5b6000610a38858286016109c8565b9250506020610a49858286016109fe565b9150509250929050565b60008115159050919050565b610a6881610a53565b82525050565b600060a082019050610a836000830188610a5f565b610a906020830187610a5f565b610a9d6040830186610a5f565b610aaa6060830185610a5f565b610ab76080830184610a5f565b9695505050505050565b600081519050919050565b600082825260208201905092915050565b6000819050602082019050919050565b600060ff82169050919050565b610b0381610aed565b82525050565b6000610b158383610afa565b60208301905092915050565b6000602082019050919050565b6000610b3982610ac1565b610b438185610acc565b9350610b4e83610add565b8060005b83811015610b7f578151610b668882610b09565b9750610b7183610b21565b925050600181019050610b52565b5085935050505092915050565b60006020820190508181036000830152610ba68184610b2e565b905092915050565b610bb781610aed565b8114610bc257600080fd5b50565b600081359050610bd481610bae565b92915050565b60008060408385031215610bf157610bf061097a565b5b6000610bff858286016109c8565b9250506020610c1085828601610bc5565b9150509250929050565b6000602082019050610c2f6000830184610a5f565b92915050565b600060208284031215610c4b57610c4a61097a565b5b6000610c59848285016109c8565b91505092915050565b610c6b81610a53565b8114610c7657600080fd5b50565b600081359050610c8881610c62565b92915050565b600080600080600080600060e0888a031215610cad57610cac61097a565b5b6000610cbb8a828b016109c8565b9750506020610ccc8a828b01610bc5565b9650506040610cdd8a828b01610c79565b9550506060610cee8a828b01610c79565b9450506080610cff8a828b01610c79565b93505060a0610d108a828b01610c79565b92505060c0610d218a828b01610c79565b91505092959891949750929550565b7f4e487b7100000000000000000000000000000000000000000000000000000000600052603260045260246000fd5b7f4e487b7100000000000000000000000000000000000000000000000000000000600052601160045260246000fd5b6000610d99826109dd565b91507fffffffffffffffffffffffffffffffffffffffffffffffffffffffffffffffff821415610dcc57610dcb610d5f565b5b600182019050919050565b600082825260208201905092915050565b7f4f6e6c792061646d696e2063616e20736574207065726d730000000000000000600082015250565b6000610e1e601883610dd7565b9150610e2982610de8565b602082019050919050565b60006020820190508181036000830152610e4d81610e11565b905091905056fea2646970667358221220afca6566d41ffe92f1c7ebfdb916cdd68a25611ff2bf80565e0fcebd02058db064736f6c634300080a0033",
  "immutableReferences": {},
  "source": "// SPDX-License-Identifier: GPL-3.0\n\npragma solidity >=0.7.0 <0.9.0;\n\n/**\n * @title FoodChainMonitoring\n * @dev Store & retrieve value in a variable\n */\ncontract Management {\n  struct Perms {\n    bool can_mint;\n    bool can_transfer;\n    bool can_receive;\n    bool can_split;\n    bool can_pack;\n  }\n\n  address admin;\n  mapping(address => mapping(uint => Perms)) public users_ingridients;\n  // A dynamic array to keep track of all unique ingredient IDs\n  uint8[] private ingredientIDs;\n  // A mapping to check if an ingredient ID is already added to avoid duplicates\n  mapping(uint8 => bool) private ingredientIDExists;\n\n  constructor() {\n    admin = msg.sender;\n  }\n\n  // Function to add a new ingredient ID to the tracking array\n  function addIngredientID(uint8 _ingridientID) private {\n    if (!ingredientIDExists[_ingridientID]) {\n      ingredientIDs.push(_ingridientID);\n      ingredientIDExists[_ingridientID] = true;\n    }\n  }\n\n  function set_user_perms(\n    address _user,\n    uint8 _ingridientID,\n    bool _can_mint,\n    bool _can_transfer,\n    bool _can_receive,\n    bool _can_split,\n    bool _can_pack\n  ) public {\n    require(msg.sender == admin, \"Only admin can set perms\");\n    Perms storage pms = users_ingridients[_user][_ingridientID];\n    pms.can_mint = _can_mint;\n    pms.can_transfer = _can_transfer;\n    pms.can_receive = _can_receive;\n    pms.can_split = _can_split;\n    pms.can_pack = _can_pack;\n    // Add the ingredient ID to the array if it's a new one\n    addIngredientID(_ingridientID);\n  }\n\n  function get_perm_mint(\n    address _user,\n    uint8 _ingridientID\n  ) public view returns (bool) {\n    return users_ingridients[_user][_ingridientID].can_mint;\n  }\n  function get_perm_transfer(\n    address _user,\n    uint8 _ingridientID\n  ) public view returns (bool) {\n    return users_ingridients[_user][_ingridientID].can_transfer;\n  }\n  function get_perm_receive(\n    address _user,\n    uint8 _ingridientID\n  ) public view returns (bool) {\n    return users_ingridients[_user][_ingridientID].can_receive;\n  }\n  function get_perm_split(\n    address _user,\n    uint8 _ingridientID\n  ) public view returns (bool) {\n    return users_ingridients[_user][_ingridientID].can_split;\n  }\n  function get_perm_pack(\n    address _user,\n    uint8 _ingridientID\n  ) public view returns (bool) {\n    return users_ingridients[_user][_ingridientID].can_pack;\n  }\n\n  function isAdmin(address _checkAddres) public view returns (bool) {\n    return admin == _checkAddres;\n  }\n\n  // Public view function to get all tracked ingredient IDs\n  function getIngredientIDs() public view returns (uint8[] memory) {\n    return ingredientIDs;\n  }\n\n  function get_user_perms(\n    address _user\n  )\n    public\n    view\n    returns (\n      bool canMint,\n      bool canTransfer,\n      bool canReceive,\n      bool canSplit,\n      bool canPack\n    )\n  {\n    uint8[] memory ingredientIDs = getIngredientIDs(); // This should return an array of all ingredient IDs you're interested in\n\n    for (uint i = 0; i < ingredientIDs.length; i++) {\n      Perms storage perms = users_ingridients[_user][ingredientIDs[i]];\n      if (perms.can_mint) {\n        canMint = true;\n      }\n      if (perms.can_transfer) {\n        canTransfer = true;\n      }\n      if (perms.can_receive) {\n        canReceive = true;\n      }\n      if (perms.can_split) {\n        canSplit = true;\n      }\n      if (perms.can_pack) {\n        canPack = true;\n      }\n\n      // If the user can perform all actions, no need to check further\n      if (canMint && canTransfer && canReceive && canSplit && canPack) {\n        break;\n      }\n    }\n\n    return (canMint, canTransfer, canReceive, canSplit, canPack);\n  }\n}\n",
  "sourcePath": "C:\\Users\\Orion\\Documents\\UNI\\smartcontract\\contracts\\Management.sol",
  "compiler": {
    "name": "solc",
    "version": "0.8.10+commit.fc410830.Emscripten.clang"
  },
  "schemaVersion": "3.4.16",
  "updatedAt": "2024-03-06T09:39:21.390Z",
  "networkType": "ethereum",
  "devdoc": {
    "details": "Store & retrieve value in a variable",
    "kind": "dev",
    "methods": {},
    "title": "FoodChainMonitoring",
    "version": 1
  },
  "userdoc": {
    "kind": "user",
    "methods": {},
    "version": 1
  }
}