{
  "contractName": "Management",
  "abi": [
    {
      "inputs": [],
      "stateMutability": "nonpayable",
      "type": "constructor"
    },
    {
      "inputs": [
        {
          "internalType": "address",
          "name": "",
          "type": "address"
        },
        {
          "internalType": "uint256",
          "name": "",
          "type": "uint256"
        }
      ],
      "name": "users_ingridients",
      "outputs": [
        {
          "internalType": "bool",
          "name": "can_mint",
          "type": "bool"
        },
        {
          "internalType": "bool",
          "name": "can_transfer",
          "type": "bool"
        },
        {
          "internalType": "bool",
          "name": "can_receive",
          "type": "bool"
        },
        {
          "internalType": "bool",
          "name": "can_split",
          "type": "bool"
        },
        {
          "internalType": "bool",
          "name": "can_pack",
          "type": "bool"
        }
      ],
      "stateMutability": "view",
      "type": "function",
      "constant": true
    },
    {
      "inputs": [
        {
          "internalType": "address",
          "name": "_user",
          "type": "address"
        },
        {
          "internalType": "uint8",
          "name": "_ingridientID",
          "type": "uint8"
        },
        {
          "internalType": "bool",
          "name": "_can_mint",
          "type": "bool"
        },
        {
          "internalType": "bool",
          "name": "_can_transfer",
          "type": "bool"
        },
        {
          "internalType": "bool",
          "name": "_can_receive",
          "type": "bool"
        },
        {
          "internalType": "bool",
          "name": "_can_split",
          "type": "bool"
        },
        {
          "internalType": "bool",
          "name": "_can_pack",
          "type": "bool"
        }
      ],
      "name": "set_user_perms",
      "outputs": [],
      "stateMutability": "nonpayable",
      "type": "function"
    },
    {
      "inputs": [
        {
          "internalType": "address",
          "name": "_user",
          "type": "address"
        },
        {
          "internalType": "uint8",
          "name": "_ingridientID",
          "type": "uint8"
        }
      ],
      "name": "get_perm_mint",
      "outputs": [
        {
          "internalType": "bool",
          "name": "",
          "type": "bool"
        }
      ],
      "stateMutability": "view",
      "type": "function",
      "constant": true
    },
    {
      "inputs": [
        {
          "internalType": "address",
          "name": "_user",
          "type": "address"
        },
        {
          "internalType": "uint8",
          "name": "_ingridientID",
          "type": "uint8"
        }
      ],
      "name": "get_perm_transfer",
      "outputs": [
        {
          "internalType": "bool",
          "name": "",
          "type": "bool"
        }
      ],
      "stateMutability": "view",
      "type": "function",
      "constant": true
    },
    {
      "inputs": [
        {
          "internalType": "address",
          "name": "_user",
          "type": "address"
        },
        {
          "internalType": "uint8",
          "name": "_ingridientID",
          "type": "uint8"
        }
      ],
      "name": "get_perm_receive",
      "outputs": [
        {
          "internalType": "bool",
          "name": "",
          "type": "bool"
        }
      ],
      "stateMutability": "view",
      "type": "function",
      "constant": true
    },
    {
      "inputs": [
        {
          "internalType": "address",
          "name": "_user",
          "type": "address"
        },
        {
          "internalType": "uint8",
          "name": "_ingridientID",
          "type": "uint8"
        }
      ],
      "name": "get_perm_split",
      "outputs": [
        {
          "internalType": "bool",
          "name": "",
          "type": "bool"
        }
      ],
      "stateMutability": "view",
      "type": "function",
      "constant": true
    },
    {
      "inputs": [
        {
          "internalType": "address",
          "name": "_user",
          "type": "address"
        },
        {
          "internalType": "uint8",
          "name": "_ingridientID",
          "type": "uint8"
        }
      ],
      "name": "get_perm_pack",
      "outputs": [
        {
          "internalType": "bool",
          "name": "",
          "type": "bool"
        }
      ],
      "stateMutability": "view",
      "type": "function",
      "constant": true
    },
    {
      "inputs": [
        {
          "internalType": "address",
          "name": "_checkAddres",
          "type": "address"
        }
      ],
      "name": "isAdmin",
      "outputs": [
        {
          "internalType": "bool",
          "name": "",
          "type": "bool"
        }
      ],
      "stateMutability": "view",
      "type": "function",
      "constant": true
    }
  ],
  "bytecode": "0x608060405234801561001057600080fd5b50336000806101000a81548173ffffffffffffffffffffffffffffffffffffffff021916908373ffffffffffffffffffffffffffffffffffffffff160217905550610a03806100606000396000f3fe608060405234801561001057600080fd5b50600436106100885760003560e01c8063a859e6141161005b578063a859e61414610151578063cf872dc714610181578063e3669276146101b1578063ef426a49146101cd57610088565b80630f3edd1c1461008d57806323ba78fe146100c157806324d7806c146100f15780634fbb568e14610121575b600080fd5b6100a760048036038101906100a29190610713565b6101fd565b6040516100b895949392919061076e565b60405180910390f35b6100db60048036038101906100d691906107fa565b610281565b6040516100e8919061083a565b60405180910390f35b61010b60048036038101906101069190610855565b6102ef565b604051610118919061083a565b60405180910390f35b61013b600480360381019061013691906107fa565b610347565b604051610148919061083a565b60405180910390f35b61016b600480360381019061016691906107fa565b6103b5565b604051610178919061083a565b60405180910390f35b61019b600480360381019061019691906107fa565b610423565b6040516101a8919061083a565b60405180910390f35b6101cb60048036038101906101c691906108ae565b610491565b005b6101e760048036038101906101e291906107fa565b61060c565b6040516101f4919061083a565b60405180910390f35b6001602052816000526040600020602052806000526040600020600091509150508060000160009054906101000a900460ff16908060000160019054906101000a900460ff16908060000160029054906101000a900460ff16908060000160039054906101000a900460ff16908060000160049054906101000a900460ff16905085565b6000600160008473ffffffffffffffffffffffffffffffffffffffff1673ffffffffffffffffffffffffffffffffffffffff16815260200190815260200160002060008360ff16815260200190815260200160002060000160039054906101000a900460ff16905092915050565b60008173ffffffffffffffffffffffffffffffffffffffff1660008054906101000a900473ffffffffffffffffffffffffffffffffffffffff1673ffffffffffffffffffffffffffffffffffffffff16149050919050565b6000600160008473ffffffffffffffffffffffffffffffffffffffff1673ffffffffffffffffffffffffffffffffffffffff16815260200190815260200160002060008360ff16815260200190815260200160002060000160019054906101000a900460ff16905092915050565b6000600160008473ffffffffffffffffffffffffffffffffffffffff1673ffffffffffffffffffffffffffffffffffffffff16815260200190815260200160002060008360ff16815260200190815260200160002060000160009054906101000a900460ff16905092915050565b6000600160008473ffffffffffffffffffffffffffffffffffffffff1673ffffffffffffffffffffffffffffffffffffffff16815260200190815260200160002060008360ff16815260200190815260200160002060000160049054906101000a900460ff16905092915050565b60008054906101000a900473ffffffffffffffffffffffffffffffffffffffff1673ffffffffffffffffffffffffffffffffffffffff163373ffffffffffffffffffffffffffffffffffffffff161461051f576040517f08c379a0000000000000000000000000000000000000000000000000000000008152600401610516906109ad565b60405180910390fd5b6000600160008973ffffffffffffffffffffffffffffffffffffffff1673ffffffffffffffffffffffffffffffffffffffff16815260200190815260200160002060008860ff1681526020019081526020016000209050858160000160006101000a81548160ff021916908315150217905550848160000160016101000a81548160ff021916908315150217905550838160000160026101000a81548160ff021916908315150217905550828160000160036101000a81548160ff021916908315150217905550818160000160046101000a81548160ff0219169083151502179055505050505050505050565b6000600160008473ffffffffffffffffffffffffffffffffffffffff1673ffffffffffffffffffffffffffffffffffffffff16815260200190815260200160002060008360ff16815260200190815260200160002060000160029054906101000a900460ff16905092915050565b600080fd5b600073ffffffffffffffffffffffffffffffffffffffff82169050919050565b60006106aa8261067f565b9050919050565b6106ba8161069f565b81146106c557600080fd5b50565b6000813590506106d7816106b1565b92915050565b6000819050919050565b6106f0816106dd565b81146106fb57600080fd5b50565b60008135905061070d816106e7565b92915050565b6000806040838503121561072a5761072961067a565b5b6000610738858286016106c8565b9250506020610749858286016106fe565b9150509250929050565b60008115159050919050565b61076881610753565b82525050565b600060a082019050610783600083018861075f565b610790602083018761075f565b61079d604083018661075f565b6107aa606083018561075f565b6107b7608083018461075f565b9695505050505050565b600060ff82169050919050565b6107d7816107c1565b81146107e257600080fd5b50565b6000813590506107f4816107ce565b92915050565b600080604083850312156108115761081061067a565b5b600061081f858286016106c8565b9250506020610830858286016107e5565b9150509250929050565b600060208201905061084f600083018461075f565b92915050565b60006020828403121561086b5761086a61067a565b5b6000610879848285016106c8565b91505092915050565b61088b81610753565b811461089657600080fd5b50565b6000813590506108a881610882565b92915050565b600080600080600080600060e0888a0312156108cd576108cc61067a565b5b60006108db8a828b016106c8565b97505060206108ec8a828b016107e5565b96505060406108fd8a828b01610899565b955050606061090e8a828b01610899565b945050608061091f8a828b01610899565b93505060a06109308a828b01610899565b92505060c06109418a828b01610899565b91505092959891949750929550565b600082825260208201905092915050565b7f4f6e6c792061646d696e2063616e20736574207065726d730000000000000000600082015250565b6000610997601883610950565b91506109a282610961565b602082019050919050565b600060208201905081810360008301526109c68161098a565b905091905056fea2646970667358221220231463a89aafa80e1228f2efc4b9f5280c4aecbc874504b68d274b9e838bbf7664736f6c634300080a0033",
  "immutableReferences": {},
  "source": "// SPDX-License-Identifier: GPL-3.0\n\npragma solidity >=0.7.0 <0.9.0;\n\n/**\n * @title FoodChainMonitoring\n * @dev Store & retrieve value in a variable\n */\ncontract Management {\n\n\tstruct Perms{\n\t\tbool can_mint;\n\t\tbool can_transfer;\n\t\tbool can_receive;\n\t\tbool can_split;\n\t\tbool can_pack;\n\t}\n\n    address admin;\n    mapping(address=>mapping(uint=>Perms)) public users_ingridients;\n\n    constructor() {\n    \tadmin = msg.sender;\n    }\n    \n    function set_user_perms(address _user, uint8 _ingridientID, bool _can_mint, bool _can_transfer, bool _can_receive, bool _can_split, bool _can_pack) public {\n    \trequire(msg.sender == admin,'Only admin can set perms');\n    \tPerms  storage pms = users_ingridients[_user][_ingridientID];\n    \tpms.can_mint = _can_mint;\n    \tpms.can_transfer = _can_transfer;\n    \tpms.can_receive = _can_receive;\n    \tpms.can_split = _can_split;\n    \tpms.can_pack = _can_pack;   \n    }\n\n\tfunction get_perm_mint(address _user,uint8 _ingridientID) public view returns (bool){\n\t\treturn users_ingridients[_user][_ingridientID].can_mint;\n\t}\n\tfunction get_perm_transfer(address _user,uint8 _ingridientID) public view returns (bool){\n\t\treturn users_ingridients[_user][_ingridientID].can_transfer;\n\t}\n\tfunction get_perm_receive(address _user,uint8 _ingridientID) public view returns (bool){\n\t\treturn users_ingridients[_user][_ingridientID].can_receive;\n\t}\n\tfunction get_perm_split(address _user,uint8 _ingridientID) public view returns (bool){\n\t\treturn users_ingridients[_user][_ingridientID].can_split;\n\t}\n\tfunction get_perm_pack(address _user,uint8 _ingridientID) public view returns (bool){\n\t\treturn users_ingridients[_user][_ingridientID].can_pack;\n\t}\n\n\tfunction isAdmin(address _checkAddres) public view returns (bool) {\n\t\treturn admin == _checkAddres;\n\t}\n}\n",
  "sourcePath": "E:\\MyWork\\AETHER\\blockchain_spathoulas_2021\\smartcontract\\contracts\\Management.sol",
  "compiler": {
    "name": "solc",
    "version": "0.8.10+commit.fc410830.Emscripten.clang"
  },
  "schemaVersion": "3.4.3",
  "updatedAt": "2022-02-22T12:51:03.849Z",
  "networkType": "ethereum",
  "devdoc": {
    "details": "Store & retrieve value in a variable",
    "kind": "dev",
    "methods": {},
    "title": "FoodChainMonitoring",
    "version": 1
  },
  "userdoc": {
    "kind": "user",
    "methods": {},
    "version": 1
  }
}