{
  "contractName": "Tracking",
  "abi": [
    {
      "inputs": [],
      "stateMutability": "nonpayable",
      "type": "constructor"
    },
    {
      "inputs": [
        {
          "internalType": "address",
          "name": "_msc",
          "type": "address"
        }
      ],
      "name": "set_management_sc",
      "outputs": [],
      "stateMutability": "nonpayable",
      "type": "function"
    },
    {
      "inputs": [],
      "name": "get_management_sc",
      "outputs": [
        {
          "internalType": "address",
          "name": "",
          "type": "address"
        }
      ],
      "stateMutability": "view",
      "type": "function",
      "constant": true
    },
    {
      "inputs": [
        {
          "internalType": "uint8",
          "name": "_ingridientID",
          "type": "uint8"
        },
        {
          "internalType": "uint256",
          "name": "_amount",
          "type": "uint256"
        }
      ],
      "name": "mint_token",
      "outputs": [
        {
          "internalType": "bytes32",
          "name": "",
          "type": "bytes32"
        }
      ],
      "stateMutability": "nonpayable",
      "type": "function"
    },
    {
      "inputs": [
        {
          "internalType": "bytes32",
          "name": "_tokenHash",
          "type": "bytes32"
        },
        {
          "internalType": "address",
          "name": "_receiver",
          "type": "address"
        }
      ],
      "name": "transfer_token",
      "outputs": [
        {
          "internalType": "bool",
          "name": "",
          "type": "bool"
        }
      ],
      "stateMutability": "nonpayable",
      "type": "function"
    },
    {
      "inputs": [
        {
          "internalType": "bytes32",
          "name": "_tokenHash",
          "type": "bytes32"
        }
      ],
      "name": "receive_token",
      "outputs": [
        {
          "internalType": "bool",
          "name": "",
          "type": "bool"
        }
      ],
      "stateMutability": "nonpayable",
      "type": "function"
    },
    {
      "inputs": [
        {
          "internalType": "bytes32[]",
          "name": "_tokenHash",
          "type": "bytes32[]"
        }
      ],
      "name": "receive_tokens",
      "outputs": [],
      "stateMutability": "payable",
      "type": "function",
      "payable": true
    },
    {
      "inputs": [
        {
          "internalType": "uint8",
          "name": "_ingridientID",
          "type": "uint8"
        },
        {
          "internalType": "bytes32",
          "name": "_tokenHash",
          "type": "bytes32"
        },
        {
          "internalType": "uint256",
          "name": "_amount",
          "type": "uint256"
        }
      ],
      "name": "split_token",
      "outputs": [
        {
          "internalType": "bytes32",
          "name": "",
          "type": "bytes32"
        }
      ],
      "stateMutability": "nonpayable",
      "type": "function"
    },
    {
      "inputs": [
        {
          "internalType": "bytes32",
          "name": "_tokenHash",
          "type": "bytes32"
        }
      ],
      "name": "getTokenData",
      "outputs": [
        {
          "internalType": "uint8",
          "name": "",
          "type": "uint8"
        },
        {
          "internalType": "uint8",
          "name": "",
          "type": "uint8"
        },
        {
          "internalType": "uint256",
          "name": "",
          "type": "uint256"
        },
        {
          "internalType": "address",
          "name": "",
          "type": "address"
        },
        {
          "internalType": "address",
          "name": "",
          "type": "address"
        },
        {
          "internalType": "uint256",
          "name": "",
          "type": "uint256"
        },
        {
          "internalType": "uint256",
          "name": "",
          "type": "uint256"
        }
      ],
      "stateMutability": "view",
      "type": "function",
      "constant": true
    },
    {
      "inputs": [
        {
          "internalType": "bytes32[]",
          "name": "_tokenHash",
          "type": "bytes32[]"
        },
        {
          "internalType": "address",
          "name": "_sender",
          "type": "address"
        }
      ],
      "name": "pack",
      "outputs": [
        {
          "internalType": "bytes32",
          "name": "",
          "type": "bytes32"
        }
      ],
      "stateMutability": "payable",
      "type": "function",
      "payable": true
    },
    {
      "inputs": [
        {
          "internalType": "bytes32",
          "name": "_packAddress",
          "type": "bytes32"
        }
      ],
      "name": "viewPack",
      "outputs": [
        {
          "internalType": "uint256",
          "name": "",
          "type": "uint256"
        },
        {
          "internalType": "bytes32[]",
          "name": "",
          "type": "bytes32[]"
        }
      ],
      "stateMutability": "view",
      "type": "function",
      "constant": true
    },
    {
      "inputs": [
        {
          "internalType": "address",
          "name": "_owner",
          "type": "address"
        }
      ],
      "name": "getUserPendingTokens",
      "outputs": [
        {
          "internalType": "bytes32[]",
          "name": "",
          "type": "bytes32[]"
        }
      ],
      "stateMutability": "view",
      "type": "function",
      "constant": true
    },
    {
      "inputs": [
        {
          "internalType": "address",
          "name": "_owner",
          "type": "address"
        }
      ],
      "name": "getUserTokens",
      "outputs": [
        {
          "internalType": "bytes32[]",
          "name": "",
          "type": "bytes32[]"
        }
      ],
      "stateMutability": "view",
      "type": "function",
      "constant": true
    },
    {
      "inputs": [
        {
          "internalType": "address",
          "name": "_owner",
          "type": "address"
        }
      ],
      "name": "getUserPacks",
      "outputs": [
        {
          "internalType": "bytes32[]",
          "name": "",
          "type": "bytes32[]"
        }
      ],
      "stateMutability": "view",
      "type": "function",
      "constant": true
    },
    {
      "inputs": [
        {
          "internalType": "bytes32",
          "name": "_tokenHash",
          "type": "bytes32"
        }
      ],
      "name": "getTokenPastHolders",
      "outputs": [
        {
          "internalType": "address[]",
          "name": "",
          "type": "address[]"
        }
      ],
      "stateMutability": "view",
      "type": "function",
      "constant": true
    }
  ],
  "bytecode": "0x608060405234801561001057600080fd5b5033600660006101000a81548173ffffffffffffffffffffffffffffffffffffffff021916908373ffffffffffffffffffffffffffffffffffffffff160217905550613061806100616000396000f3fe6080604052600436106100dd5760003560e01c80638f2fec081161007f5780639a124597116100595780639a12459714610317578063bb6a81e414610354578063c75eb83914610391578063e4b49bba146103ad576100dd565b80638f2fec081461027457806391c6bbc0146102b157806396277669146102ee576100dd565b8063509a7399116100bb578063509a739914610187578063519dc8d2146101b757806356e432b4146101f4578063755fa90814610237576100dd565b806321073597146100e257806325b716b21461010d57806349831dea1461014a575b600080fd5b3480156100ee57600080fd5b506100f76103eb565b60405161010491906121e8565b60405180910390f35b34801561011957600080fd5b50610134600480360381019061012f9190612243565b610415565b6040516101419190612338565b60405180910390f35b34801561015657600080fd5b50610171600480360381019061016c91906123c9565b6104ac565b60405161017e9190612418565b60405180910390f35b6101a1600480360381019061019c91906125b8565b6106f7565b6040516101ae9190612418565b60405180910390f35b3480156101c357600080fd5b506101de60048036038101906101d99190612243565b6109f2565b6040516101eb9190612338565b60405180910390f35b34801561020057600080fd5b5061021b60048036038101906102169190612614565b610a89565b60405161022e979695949392919061265f565b60405180910390f35b34801561024357600080fd5b5061025e600480360381019061025991906126ce565b610b97565b60405161026b9190612729565b60405180910390f35b34801561028057600080fd5b5061029b60048036038101906102969190612243565b610e38565b6040516102a89190612338565b60405180910390f35b3480156102bd57600080fd5b506102d860048036038101906102d39190612744565b610ecf565b6040516102e59190612418565b60405180910390f35b3480156102fa57600080fd5b5061031560048036038101906103109190612243565b611322565b005b34801561032357600080fd5b5061033e60048036038101906103399190612614565b6113f6565b60405161034b9190612729565b60405180910390f35b34801561036057600080fd5b5061037b60048036038101906103769190612614565b611969565b6040516103889190612855565b60405180910390f35b6103ab60048036038101906103a69190612877565b611adc565b005b3480156103b957600080fd5b506103d460048036038101906103cf9190612614565b611b23565b6040516103e29291906128c0565b60405180910390f35b6000600560009054906101000a900473ffffffffffffffffffffffffffffffffffffffff16905090565b6060600460008373ffffffffffffffffffffffffffffffffffffffff1673ffffffffffffffffffffffffffffffffffffffff1681526020019081526020016000208054806020026020016040519081016040528092919081815260200182805480156104a057602002820191906000526020600020905b81548152602001906001019080831161048c575b50505050509050919050565b600080600560009054906101000a900473ffffffffffffffffffffffffffffffffffffffff169050600115158173ffffffffffffffffffffffffffffffffffffffff1663a859e61433876040518363ffffffff1660e01b81526004016105139291906128f0565b602060405180830381865afa158015610530573d6000803e3d6000fd5b505050506040513d601f19601f820116820180604052508101906105549190612945565b151514610596576040517f08c379a000000000000000000000000000000000000000000000000000000000815260040161058d906129cf565b60405180910390fd5b60008460ff16426105a79190612a1e565b90506000816040516020016105bc9190612a74565b60405160208183030381529060405280519060200120905060008060008381526020019081526020016000209050858160010181905550868160000160006101000a81548160ff021916908360ff160217905550338160020160006101000a81548173ffffffffffffffffffffffffffffffffffffffff021916908373ffffffffffffffffffffffffffffffffffffffff16021790555060018160000160016101000a81548160ff021916908360ff16021790555042816003018190555060008160070181905550600160003373ffffffffffffffffffffffffffffffffffffffff1673ffffffffffffffffffffffffffffffffffffffff1681526020019081526020016000208290806001815401808255809150506001900390600052602060002001600090919091909150558194505050505092915050565b600080600090505b83518110156108355760008060008684815181106107205761071f612a8f565b5b6020026020010151815260200190815260200160002090508060020160009054906101000a900473ffffffffffffffffffffffffffffffffffffffff1673ffffffffffffffffffffffffffffffffffffffff168473ffffffffffffffffffffffffffffffffffffffff16146107ca576040517f08c379a00000000000000000000000000000000000000000000000000000000081526004016107c190612b30565b60405180910390fd5b60018160000160019054906101000a900460ff1660ff1614610821576040517f08c379a000000000000000000000000000000000000000000000000000000000815260040161081890612b9c565b60405180910390fd5b50808061082d90612bbc565b9150506106ff565b5060006001426108459190612a1e565b905060008160405160200161085a9190612a74565b6040516020818303038152906040528051906020012090506000600360008381526020019081526020016000209050848160000160006101000a81548173ffffffffffffffffffffffffffffffffffffffff021916908373ffffffffffffffffffffffffffffffffffffffff16021790555060005b865181101561097f5760008060008984815181106108f0576108ef612a8f565b5b60200260200101518152602001908152602001600020905060038160000160016101000a81548160ff021916908360ff1602179055508260010188838151811061093d5761093c612a8f565b5b6020026020010151908060018154018082558091505060019003906000526020600020016000909190919091505550808061097790612bbc565b9150506108cf565b50600460003373ffffffffffffffffffffffffffffffffffffffff1673ffffffffffffffffffffffffffffffffffffffff16815260200190815260200160002082908060018154018082558091505060019003906000526020600020016000909190919091505581935050505092915050565b6060600160008373ffffffffffffffffffffffffffffffffffffffff1673ffffffffffffffffffffffffffffffffffffffff168152602001908152602001600020805480602002602001604051908101604052809291908181526020018280548015610a7d57602002820191906000526020600020905b815481526020019060010190808311610a69575b50505050509050919050565b6000806000806000806000806000808a8152602001908152602001600020905060008160000160019054906101000a900460ff1660ff1611610b00576040517f08c379a0000000000000000000000000000000000000000000000000000000008152600401610af790612c51565b60405180910390fd5b8060000160009054906101000a900460ff168160000160019054906101000a900460ff1682600101548360020160009054906101000a900473ffffffffffffffffffffffffffffffffffffffff168460050160009054906101000a900473ffffffffffffffffffffffffffffffffffffffff1685600701548660030154975097509750975097509750975050919395979092949650565b600080600080858152602001908152602001600020905060008160000160019054906101000a900460ff1660ff1611610c05576040517f08c379a0000000000000000000000000000000000000000000000000000000008152600401610bfc90612c51565b60405180910390fd5b8060020160009054906101000a900473ffffffffffffffffffffffffffffffffffffffff1673ffffffffffffffffffffffffffffffffffffffff163373ffffffffffffffffffffffffffffffffffffffff1614610c97576040517f08c379a0000000000000000000000000000000000000000000000000000000008152600401610c8e90612cbd565b60405180910390fd5b8273ffffffffffffffffffffffffffffffffffffffff163373ffffffffffffffffffffffffffffffffffffffff161415610d06576040517f08c379a0000000000000000000000000000000000000000000000000000000008152600401610cfd90612cbd565b60405180910390fd5b60018160000160019054906101000a900460ff1660ff1614610d5d576040517f08c379a0000000000000000000000000000000000000000000000000000000008152600401610d5490612d29565b60405180910390fd5b828160050160006101000a81548173ffffffffffffffffffffffffffffffffffffffff021916908373ffffffffffffffffffffffffffffffffffffffff16021790555042816004018190555060028160000160016101000a81548160ff021916908360ff160217905550600260008473ffffffffffffffffffffffffffffffffffffffff1673ffffffffffffffffffffffffffffffffffffffff168152602001908152602001600020849080600181540180825580915050600190039060005260206000200160009091909190915055600191505092915050565b6060600260008373ffffffffffffffffffffffffffffffffffffffff1673ffffffffffffffffffffffffffffffffffffffff168152602001908152602001600020805480602002602001604051908101604052809291908181526020018280548015610ec357602002820191906000526020600020905b815481526020019060010190808311610eaf575b50505050509050919050565b600080600560009054906101000a900473ffffffffffffffffffffffffffffffffffffffff169050600115158173ffffffffffffffffffffffffffffffffffffffff166323ba78fe33886040518363ffffffff1660e01b8152600401610f369291906128f0565b602060405180830381865afa158015610f53573d6000803e3d6000fd5b505050506040513d601f19601f82011682018060405250810190610f779190612945565b151514610fb9576040517f08c379a0000000000000000000000000000000000000000000000000000000008152600401610fb090612d95565b60405180910390fd5b6000806000868152602001908152602001600020905060008160000160019054906101000a900460ff1660ff1611611026576040517f08c379a000000000000000000000000000000000000000000000000000000000815260040161101d90612c51565b60405180910390fd5b8060020160009054906101000a900473ffffffffffffffffffffffffffffffffffffffff1673ffffffffffffffffffffffffffffffffffffffff163373ffffffffffffffffffffffffffffffffffffffff16146110b8576040517f08c379a00000000000000000000000000000000000000000000000000000000081526004016110af90612e01565b60405180910390fd5b60018160000160019054906101000a900460ff1660ff161461110f576040517f08c379a000000000000000000000000000000000000000000000000000000000815260040161110690612d29565b60405180910390fd5b60008411611152576040517f08c379a000000000000000000000000000000000000000000000000000000000815260040161114990612e6d565b60405180910390fd5b80600101548410611198576040517f08c379a000000000000000000000000000000000000000000000000000000000815260040161118f90612e6d565b60405180910390fd5b8381600101546111a89190612e8d565b8160010181905550600060018760ff16426111c39190612a1e565b6111cd9190612a1e565b90506000816040516020016111e29190612a74565b60405160208183030381529060405280519060200120905060008060008381526020019081526020016000209050868160010181905550888160000160006101000a81548160ff021916908360ff160217905550338160020160006101000a81548173ffffffffffffffffffffffffffffffffffffffff021916908373ffffffffffffffffffffffffffffffffffffffff16021790555060018160000160016101000a81548160ff021916908360ff16021790555042816003018190555083600701548160070181905550600160003373ffffffffffffffffffffffffffffffffffffffff1673ffffffffffffffffffffffffffffffffffffffff16815260200190815260200160002082908060018154018082558091505060019003906000526020600020016000909190919091505581955050505050509392505050565b600660009054906101000a900473ffffffffffffffffffffffffffffffffffffffff1673ffffffffffffffffffffffffffffffffffffffff163373ffffffffffffffffffffffffffffffffffffffff16146113b2576040517f08c379a00000000000000000000000000000000000000000000000000000000081526004016113a990612f0d565b60405180910390fd5b80600560006101000a81548173ffffffffffffffffffffffffffffffffffffffff021916908373ffffffffffffffffffffffffffffffffffffffff16021790555050565b60008060008084815260200190815260200160002090508060050160009054906101000a900473ffffffffffffffffffffffffffffffffffffffff1673ffffffffffffffffffffffffffffffffffffffff163373ffffffffffffffffffffffffffffffffffffffff161461149f576040517f08c379a000000000000000000000000000000000000000000000000000000000815260040161149690612f9f565b60405180910390fd5b60028160000160019054906101000a900460ff1660ff16146114f6576040517f08c379a00000000000000000000000000000000000000000000000000000000081526004016114ed9061300b565b60405180910390fd5b600081600601600083600701600081548092919061151390612bbc565b91905055815260200190815260200160002090508160020160009054906101000a900473ffffffffffffffffffffffffffffffffffffffff168160000160006101000a81548173ffffffffffffffffffffffffffffffffffffffff021916908373ffffffffffffffffffffffffffffffffffffffff160217905550428160010181905550338260020160006101000a81548173ffffffffffffffffffffffffffffffffffffffff021916908373ffffffffffffffffffffffffffffffffffffffff16021790555060008260050160006101000a81548173ffffffffffffffffffffffffffffffffffffffff021916908373ffffffffffffffffffffffffffffffffffffffff16021790555060018260000160016101000a81548160ff021916908360ff16021790555060005b600260003373ffffffffffffffffffffffffffffffffffffffff1673ffffffffffffffffffffffffffffffffffffffff168152602001908152602001600020805490508110156117635784600260003373ffffffffffffffffffffffffffffffffffffffff1673ffffffffffffffffffffffffffffffffffffffff16815260200190815260200160002082815481106116db576116da612a8f565b5b9060005260206000200154141561175057600260003373ffffffffffffffffffffffffffffffffffffffff1673ffffffffffffffffffffffffffffffffffffffff168152602001908152602001600020818154811061173d5761173c612a8f565b5b9060005260206000200160009055611763565b808061175b90612bbc565b91505061163f565b5060005b600160008360000160009054906101000a900473ffffffffffffffffffffffffffffffffffffffff1673ffffffffffffffffffffffffffffffffffffffff1673ffffffffffffffffffffffffffffffffffffffff168152602001908152602001600020805490508110156118f75784600160008460000160009054906101000a900473ffffffffffffffffffffffffffffffffffffffff1673ffffffffffffffffffffffffffffffffffffffff1673ffffffffffffffffffffffffffffffffffffffff168152602001908152602001600020828154811061184b5761184a612a8f565b5b906000526020600020015414156118e457600160008360000160009054906101000a900473ffffffffffffffffffffffffffffffffffffffff1673ffffffffffffffffffffffffffffffffffffffff1673ffffffffffffffffffffffffffffffffffffffff16815260200190815260200160002081815481106118d1576118d0612a8f565b5b90600052602060002001600090556118f7565b80806118ef90612bbc565b915050611767565b50600160003373ffffffffffffffffffffffffffffffffffffffff1673ffffffffffffffffffffffffffffffffffffffff168152602001908152602001600020849080600181540180825580915050600190039060005260206000200160009091909190915055600192505050919050565b60606000806000848152602001908152602001600020905060008160000160019054906101000a900460ff1660ff16116119d8576040517f08c379a00000000000000000000000000000000000000000000000000000000081526004016119cf90612c51565b60405180910390fd5b6000816007015467ffffffffffffffff8111156119f8576119f7612449565b5b604051908082528060200260200182016040528015611a265781602001602082028036833780820191505090505b50905060005b8260070154811015611ad15782600601600082815260200190815260200160002060000160009054906101000a900473ffffffffffffffffffffffffffffffffffffffff16828281518110611a8457611a83612a8f565b5b602002602001019073ffffffffffffffffffffffffffffffffffffffff16908173ffffffffffffffffffffffffffffffffffffffff16815250508080611ac990612bbc565b915050611a2c565b508092505050919050565b60005b8151811015611b1f57611b0c828281518110611afe57611afd612a8f565b5b602002602001015133611c3a565b8080611b1790612bbc565b915050611adf565b5050565b600060606000600360008581526020019081526020016000209050600073ffffffffffffffffffffffffffffffffffffffff168160000160009054906101000a900473ffffffffffffffffffffffffffffffffffffffff1673ffffffffffffffffffffffffffffffffffffffff161415611bd2576040517f08c379a0000000000000000000000000000000000000000000000000000000008152600401611bc990612c51565b60405180910390fd5b80600101805490508160010180805480602002602001604051908101604052809291908181526020018280548015611c2957602002820191906000526020600020905b815481526020019060010190808311611c15575b505050505090509250925050915091565b600080600084815260200190815260200160002090508060050160009054906101000a900473ffffffffffffffffffffffffffffffffffffffff1673ffffffffffffffffffffffffffffffffffffffff168273ffffffffffffffffffffffffffffffffffffffff1614611ce2576040517f08c379a0000000000000000000000000000000000000000000000000000000008152600401611cd990612f9f565b60405180910390fd5b60028160000160019054906101000a900460ff1660ff1614611d39576040517f08c379a0000000000000000000000000000000000000000000000000000000008152600401611d309061300b565b60405180910390fd5b6000816006016000836007016000815480929190611d5690612bbc565b91905055815260200190815260200160002090508160020160009054906101000a900473ffffffffffffffffffffffffffffffffffffffff168160000160006101000a81548173ffffffffffffffffffffffffffffffffffffffff021916908373ffffffffffffffffffffffffffffffffffffffff160217905550428160010181905550338260020160006101000a81548173ffffffffffffffffffffffffffffffffffffffff021916908373ffffffffffffffffffffffffffffffffffffffff16021790555060008260050160006101000a81548173ffffffffffffffffffffffffffffffffffffffff021916908373ffffffffffffffffffffffffffffffffffffffff16021790555060018260000160016101000a81548160ff021916908360ff16021790555060005b600260003373ffffffffffffffffffffffffffffffffffffffff1673ffffffffffffffffffffffffffffffffffffffff16815260200190815260200160002080549050811015611fa65784600260003373ffffffffffffffffffffffffffffffffffffffff1673ffffffffffffffffffffffffffffffffffffffff1681526020019081526020016000208281548110611f1e57611f1d612a8f565b5b90600052602060002001541415611f9357600260003373ffffffffffffffffffffffffffffffffffffffff1673ffffffffffffffffffffffffffffffffffffffff1681526020019081526020016000208181548110611f8057611f7f612a8f565b5b9060005260206000200160009055611fa6565b8080611f9e90612bbc565b915050611e82565b5060005b600160008360000160009054906101000a900473ffffffffffffffffffffffffffffffffffffffff1673ffffffffffffffffffffffffffffffffffffffff1673ffffffffffffffffffffffffffffffffffffffff1681526020019081526020016000208054905081101561213a5784600160008460000160009054906101000a900473ffffffffffffffffffffffffffffffffffffffff1673ffffffffffffffffffffffffffffffffffffffff1673ffffffffffffffffffffffffffffffffffffffff168152602001908152602001600020828154811061208e5761208d612a8f565b5b9060005260206000200154141561212757600160008360000160009054906101000a900473ffffffffffffffffffffffffffffffffffffffff1673ffffffffffffffffffffffffffffffffffffffff1673ffffffffffffffffffffffffffffffffffffffff168152602001908152602001600020818154811061211457612113612a8f565b5b906000526020600020016000905561213a565b808061213290612bbc565b915050611faa565b50600160003373ffffffffffffffffffffffffffffffffffffffff1673ffffffffffffffffffffffffffffffffffffffff16815260200190815260200160002084908060018154018082558091505060019003906000526020600020016000909190919091505550505050565b600073ffffffffffffffffffffffffffffffffffffffff82169050919050565b60006121d2826121a7565b9050919050565b6121e2816121c7565b82525050565b60006020820190506121fd60008301846121d9565b92915050565b6000604051905090565b600080fd5b600080fd5b612220816121c7565b811461222b57600080fd5b50565b60008135905061223d81612217565b92915050565b6000602082840312156122595761225861220d565b5b60006122678482850161222e565b91505092915050565b600081519050919050565b600082825260208201905092915050565b6000819050602082019050919050565b6000819050919050565b6122af8161229c565b82525050565b60006122c183836122a6565b60208301905092915050565b6000602082019050919050565b60006122e582612270565b6122ef818561227b565b93506122fa8361228c565b8060005b8381101561232b57815161231288826122b5565b975061231d836122cd565b9250506001810190506122fe565b5085935050505092915050565b6000602082019050818103600083015261235281846122da565b905092915050565b600060ff82169050919050565b6123708161235a565b811461237b57600080fd5b50565b60008135905061238d81612367565b92915050565b6000819050919050565b6123a681612393565b81146123b157600080fd5b50565b6000813590506123c38161239d565b92915050565b600080604083850312156123e0576123df61220d565b5b60006123ee8582860161237e565b92505060206123ff858286016123b4565b9150509250929050565b6124128161229c565b82525050565b600060208201905061242d6000830184612409565b92915050565b600080fd5b6000601f19601f8301169050919050565b7f4e487b7100000000000000000000000000000000000000000000000000000000600052604160045260246000fd5b61248182612438565b810181811067ffffffffffffffff821117156124a05761249f612449565b5b80604052505050565b60006124b3612203565b90506124bf8282612478565b919050565b600067ffffffffffffffff8211156124df576124de612449565b5b602082029050602081019050919050565b600080fd5b6124fe8161229c565b811461250957600080fd5b50565b60008135905061251b816124f5565b92915050565b600061253461252f846124c4565b6124a9565b90508083825260208201905060208402830185811115612557576125566124f0565b5b835b81811015612580578061256c888261250c565b845260208401935050602081019050612559565b5050509392505050565b600082601f83011261259f5761259e612433565b5b81356125af848260208601612521565b91505092915050565b600080604083850312156125cf576125ce61220d565b5b600083013567ffffffffffffffff8111156125ed576125ec612212565b5b6125f98582860161258a565b925050602061260a8582860161222e565b9150509250929050565b60006020828403121561262a5761262961220d565b5b60006126388482850161250c565b91505092915050565b61264a8161235a565b82525050565b61265981612393565b82525050565b600060e082019050612674600083018a612641565b6126816020830189612641565b61268e6040830188612650565b61269b60608301876121d9565b6126a860808301866121d9565b6126b560a0830185612650565b6126c260c0830184612650565b98975050505050505050565b600080604083850312156126e5576126e461220d565b5b60006126f38582860161250c565b92505060206127048582860161222e565b9150509250929050565b60008115159050919050565b6127238161270e565b82525050565b600060208201905061273e600083018461271a565b92915050565b60008060006060848603121561275d5761275c61220d565b5b600061276b8682870161237e565b935050602061277c8682870161250c565b925050604061278d868287016123b4565b9150509250925092565b600081519050919050565b600082825260208201905092915050565b6000819050602082019050919050565b6127cc816121c7565b82525050565b60006127de83836127c3565b60208301905092915050565b6000602082019050919050565b600061280282612797565b61280c81856127a2565b9350612817836127b3565b8060005b8381101561284857815161282f88826127d2565b975061283a836127ea565b92505060018101905061281b565b5085935050505092915050565b6000602082019050818103600083015261286f81846127f7565b905092915050565b60006020828403121561288d5761288c61220d565b5b600082013567ffffffffffffffff8111156128ab576128aa612212565b5b6128b78482850161258a565b91505092915050565b60006040820190506128d56000830185612650565b81810360208301526128e781846122da565b90509392505050565b600060408201905061290560008301856121d9565b6129126020830184612641565b9392505050565b6129228161270e565b811461292d57600080fd5b50565b60008151905061293f81612919565b92915050565b60006020828403121561295b5761295a61220d565b5b600061296984828501612930565b91505092915050565b600082825260208201905092915050565b7f4e6f207065726d20746f206d696e740000000000000000000000000000000000600082015250565b60006129b9600f83612972565b91506129c482612983565b602082019050919050565b600060208201905081810360008301526129e8816129ac565b9050919050565b7f4e487b7100000000000000000000000000000000000000000000000000000000600052601160045260246000fd5b6000612a2982612393565b9150612a3483612393565b9250827fffffffffffffffffffffffffffffffffffffffffffffffffffffffffffffffff03821115612a6957612a686129ef565b5b828201905092915050565b6000602082019050612a896000830184612650565b92915050565b7f4e487b7100000000000000000000000000000000000000000000000000000000600052603260045260246000fd5b7f596f7520617265206e6f7420616c6c6f7765642c20646966666572656e74206860008201527f6f6c646572000000000000000000000000000000000000000000000000000000602082015250565b6000612b1a602583612972565b9150612b2582612abe565b604082019050919050565b60006020820190508181036000830152612b4981612b0d565b9050919050565b7f546f6b656e2068617320746f20626520617661696c61626c6500000000000000600082015250565b6000612b86601983612972565b9150612b9182612b50565b602082019050919050565b60006020820190508181036000830152612bb581612b79565b9050919050565b6000612bc782612393565b91507fffffffffffffffffffffffffffffffffffffffffffffffffffffffffffffffff821415612bfa57612bf96129ef565b5b600182019050919050565b7f4e6f6e206578697374656e7420746f6b656e0000000000000000000000000000600082015250565b6000612c3b601283612972565b9150612c4682612c05565b602082019050919050565b60006020820190508181036000830152612c6a81612c2e565b9050919050565b7f596f7520617265206e6f7420616c6c6f77656400000000000000000000000000600082015250565b6000612ca7601383612972565b9150612cb282612c71565b602082019050919050565b60006020820190508181036000830152612cd681612c9a565b9050919050565b7f546f6b656e20737461747573206e6f7420726561647900000000000000000000600082015250565b6000612d13601683612972565b9150612d1e82612cdd565b602082019050919050565b60006020820190508181036000830152612d4281612d06565b9050919050565b7f4e6f207065726d20746f2073706c697400000000000000000000000000000000600082015250565b6000612d7f601083612972565b9150612d8a82612d49565b602082019050919050565b60006020820190508181036000830152612dae81612d72565b9050919050565b7f596f7520617265206e6f7720616c6c6f77656400000000000000000000000000600082015250565b6000612deb601383612972565b9150612df682612db5565b602082019050919050565b60006020820190508181036000830152612e1a81612dde565b9050919050565b7f496e76616c69642073706c697420616d6f756e74000000000000000000000000600082015250565b6000612e57601483612972565b9150612e6282612e21565b602082019050919050565b60006020820190508181036000830152612e8681612e4a565b9050919050565b6000612e9882612393565b9150612ea383612393565b925082821015612eb657612eb56129ef565b5b828203905092915050565b7f4f6e6c792061646d696e2063616e20736574207065726d730000000000000000600082015250565b6000612ef7601883612972565b9150612f0282612ec1565b602082019050919050565b60006020820190508181036000830152612f2681612eea565b9050919050565b7f596f7520617265206e6f7420616c6c6f7765642c20646966666572656e74207360008201527f656e646572207468616e20686f6c646572000000000000000000000000000000602082015250565b6000612f89603183612972565b9150612f9482612f2d565b604082019050919050565b60006020820190508181036000830152612fb881612f7c565b9050919050565b7f546f6b656e20616c726561647920726563656976656400000000000000000000600082015250565b6000612ff5601683612972565b915061300082612fbf565b602082019050919050565b6000602082019050818103600083015261302481612fe8565b905091905056fea264697066735822122029e89c2399137523b72356e260422073182905e08cd06fc0987e648303c27fce64736f6c634300080a0033",
  "immutableReferences": {},
  "source": "// SPDX-License-Identifier: GPL-3.0\n\npragma solidity >=0.7.0 <0.9.0;\n\nimport \"./Management.sol\";\nimport \"./Database.sol\";\n\n/**\n * @title FoodChainMonitoring\n * @dev Store & retrieve value in a variable\n */\ncontract Tracking {\n    struct HoldersMapping {\n        address holderAddress;\n        uint256 timestamp;\n    }\n\n    struct FinalProductsMapping {\n        address _producer;\n        bytes32[] _tokens;\n    }\n\n    struct FCToken {\n        uint8 ingridientID;\n        uint8 status; // packed?\n        uint256 amount;\n        address holder;\n        uint256 minted_on;\n        uint256 transfered_on;\n        address pending_holder;\n        mapping(uint256 => HoldersMapping) past_holders;\n        uint256 past_holders_length;\n    }\n\n    mapping(bytes32 => FCToken) _universeTokens;\n    mapping(address => bytes32[]) _userTokens;\n    mapping(address => bytes32[]) _userPendingTokens;\n\n    // address of the Final Product -> struct of the product\n    mapping(bytes32 => FinalProductsMapping) _finalProducts;\n    mapping(address => bytes32[]) _userPacks;\n\n    address management_sc;\n    address admin;\n\n    constructor() {\n        admin = msg.sender;\n    }\n\n    function set_management_sc(address _msc) public {\n        require(msg.sender == admin, \"Only admin can set perms\");\n        management_sc = _msc;\n    }\n\n    function get_management_sc() public view returns (address) {\n        return management_sc;\n    }\n\n    function mint_token(uint8 _ingridientID, uint256 _amount)\n        public\n        returns (bytes32)\n    {\n        // create check method to verify the generation is valid\n        Management m = Management(management_sc);\n        require(\n            m.get_perm_mint(msg.sender, _ingridientID) == true,\n            \"No perm to mint\"\n        );\n\n        uint256 toHash = block.timestamp + _ingridientID;\n        bytes32 tokenHash = keccak256(abi.encode(toHash));\n        // FCToken storage theToken = tokens[_ingridientID][tokenHash];\n        FCToken storage theToken = _universeTokens[tokenHash];\n\n        theToken.amount = _amount;\n        theToken.ingridientID = _ingridientID;\n        theToken.holder = msg.sender;\n        theToken.status = 1; // 1 = ready, 2 = transfer_pending, 3 = packed\n        theToken.minted_on = block.timestamp;\n        theToken.past_holders_length = 0;\n\n        _userTokens[msg.sender].push(tokenHash);\n\n        return tokenHash; // hash has to be generated by ingridient ID, first holder and timestamp\n    }\n\n    function transfer_token(bytes32 _tokenHash, address _receiver)\n        public\n        returns (bool)\n    {\n        // FCToken storage tkn = tokens[_ingridientID][_tokenHash];\n        FCToken storage tkn = _universeTokens[_tokenHash];\n        require(tkn.status > 0, \"Non existent token\");\n        require(msg.sender == tkn.holder, \"You are not allowed\"); // Check that the tx.sender is the owner of the token\n        require(msg.sender != _receiver, \"You are not allowed\"); // Check that the tx.sender is the owner of the token\n        require(tkn.status == 1, \"Token status not ready\"); // check the state of the token (it has to be ready)\n        // check that the tx.sender can transfer such ingridient\n        // check that the tx.receiver can accept such ingridient\n\n        // set pending_holder to receiver\n        tkn.pending_holder = _receiver;\n        tkn.transfered_on = block.timestamp;\n        // set the status -> transfer_pending\n        tkn.status = 2;\n\n        _userPendingTokens[_receiver].push(_tokenHash);\n\n        return true;\n    }\n\n    function receive_token(bytes32 _tokenHash) public returns (bool) {\n        // FCToken storage tkn = tokens[_ingridientID][_tokenHash];\n        FCToken storage tkn = _universeTokens[_tokenHash];\n        require(\n            msg.sender == tkn.pending_holder,\n            \"You are not allowed, different sender than holder\"\n        );\n        require(tkn.status == 2, \"Token already received\");\n\n        HoldersMapping storage hmap = tkn.past_holders[\n            tkn.past_holders_length++\n        ]; // stupid syntax -> https://ethereum.stackexchange.com/questions/87451/solidity-error-struct-containing-a-nested-mapping-cannot-be-constructed\n        hmap.holderAddress = tkn.holder;\n        hmap.timestamp = block.timestamp;\n        tkn.holder = msg.sender;\n        tkn.pending_holder = address(0);\n        tkn.status = 1;\n\n        for (\n            uint256 index = 0;\n            index < _userPendingTokens[msg.sender].length;\n            index++\n        ) {\n            if (_userPendingTokens[msg.sender][index] == _tokenHash) {\n                delete _userPendingTokens[msg.sender][index];\n                break;\n            }\n        }\n\n        for (\n            uint256 index = 0;\n            index < _userTokens[hmap.holderAddress].length;\n            index++\n        ) {\n            if (_userTokens[hmap.holderAddress][index] == _tokenHash) {\n                delete _userTokens[hmap.holderAddress][index];\n                break;\n            }\n        }\n        _userTokens[msg.sender].push(_tokenHash);\n\n        return true;\n    }\n\n    function private_receive_token(bytes32 _tokenHash, address _sender)\n        private\n    {\n        // FCToken storage tkn = tokens[_ingridientID][_tokenHash];\n        FCToken storage tkn = _universeTokens[_tokenHash];\n        require(\n            _sender == tkn.pending_holder,\n            \"You are not allowed, different sender than holder\"\n        );\n        require(tkn.status == 2, \"Token already received\");\n\n        HoldersMapping storage hmap = tkn.past_holders[\n            tkn.past_holders_length++\n        ]; // stupid syntax -> https://ethereum.stackexchange.com/questions/87451/solidity-error-struct-containing-a-nested-mapping-cannot-be-constructed\n\n        // address currentHolder = tkn.holder;\n        hmap.holderAddress = tkn.holder;\n        hmap.timestamp = block.timestamp;\n        tkn.holder = msg.sender;\n        tkn.pending_holder = address(0);\n        tkn.status = 1;\n        // _userTokens[currentHolder][_tokenHash] = 0;\n        for (\n            uint256 index = 0;\n            index < _userPendingTokens[msg.sender].length;\n            index++\n        ) {\n            if (_userPendingTokens[msg.sender][index] == _tokenHash) {\n                delete _userPendingTokens[msg.sender][index];\n                break;\n            }\n        }\n\n        for (\n            uint256 index = 0;\n            index < _userTokens[hmap.holderAddress].length;\n            index++\n        ) {\n            if (_userTokens[hmap.holderAddress][index] == _tokenHash) {\n                delete _userTokens[hmap.holderAddress][index];\n                break;\n            }\n        }\n        _userTokens[msg.sender].push(_tokenHash);\n    }\n\n    function receive_tokens(bytes32[] memory _tokenHash) public payable {\n        for (uint256 i = 0; i < _tokenHash.length; i++) {\n            private_receive_token(_tokenHash[i], msg.sender);\n        }\n    }\n\n    function split_token(\n        uint8 _ingridientID,\n        bytes32 _tokenHash,\n        uint256 _amount\n    ) public returns (bytes32) {\n        Management m = Management(management_sc);\n        require(\n            m.get_perm_split(msg.sender, _ingridientID) == true,\n            \"No perm to split\"\n        ); // to be implemented\n        // FCToken storage tkn = tokens[_ingridientID][_tokenHash];\n        FCToken storage tkn = _universeTokens[_tokenHash];\n        require(tkn.status > 0, \"Non existent token\");\n        require(msg.sender == tkn.holder, \"You are now allowed\"); // Check that the tx.sender is the owner of the token\n        require(tkn.status == 1, \"Token status not ready\"); // check the state of the token (it has to be ready)\n        require(_amount > 0, \"Invalid split amount\");\n        require(_amount < tkn.amount, \"Invalid split amount\");\n        tkn.amount = tkn.amount - _amount;\n\n        uint256 toHash = block.timestamp + _ingridientID + 1; //block.timestamp + _ingridientID is the same in the same block\n        bytes32 tokenHash = keccak256(abi.encode(toHash));\n        // FCToken storage ntkn = tokens[_ingridientID][tokenHash];\n        FCToken storage ntkn = _universeTokens[tokenHash];\n\n        ntkn.amount = _amount;\n        ntkn.ingridientID = _ingridientID;\n        ntkn.holder = msg.sender;\n        ntkn.status = 1; // 1 = ready, 2 = transfer_pending, 3 = packed\n        ntkn.minted_on = block.timestamp;\n        ntkn.past_holders_length = tkn.past_holders_length;\n        //ntkn.past_holders = tkn.past_holders;\n        _userTokens[msg.sender].push(tokenHash);\n\n        return tokenHash;\n    }\n\n    function getTokenData(bytes32 _tokenHash)\n        public\n        view\n        returns (\n            uint8,\n            uint8,\n            uint256,\n            address,\n            address,\n            uint256,\n            uint256\n        )\n    {\n        // FCToken storage tkn = tokens[_ingridientID][_tokenHash];\n        FCToken storage tkn = _universeTokens[_tokenHash];\n        require(tkn.status > 0, \"Non existent token\");\n\n        return (\n            tkn.ingridientID,\n            tkn.status,\n            tkn.amount,\n            tkn.holder,\n            tkn.pending_holder,\n            tkn.past_holders_length,\n            tkn.minted_on\n        );\n    }\n\n    function pack(bytes32[] memory _tokenHash, address _sender)\n        public\n        payable\n        returns (bytes32)\n    {\n        // maybe dummy, but 2 loops, one to check permissions the other to alter the tokens\n        for (uint256 i = 0; i < _tokenHash.length; i++) {\n            // check for permissions and the status of the token\n            FCToken storage tkn = _universeTokens[_tokenHash[i]];\n\n            require(\n                _sender == tkn.holder,\n                \"You are not allowed, different holder\"\n            );\n            require(tkn.status == 1, \"Token has to be available\");\n        }\n\n        uint256 toHash = block.timestamp + 1; //block.timestamp + _ingridientID is the same in the same block\n        bytes32 packHash = keccak256(abi.encode(toHash));\n        FinalProductsMapping storage product = _finalProducts[packHash];\n\n        product._producer = _sender;\n        for (uint256 i = 0; i < _tokenHash.length; i++) {\n            FCToken storage tkn = _universeTokens[_tokenHash[i]];\n            tkn.status = 3;\n            product._tokens.push(_tokenHash[i]);\n        }\n\n        _userPacks[msg.sender].push(packHash);\n        return packHash;\n    }\n\n    function viewPack(bytes32 _packAddress)\n        public\n        view\n        returns (uint256, bytes32[] memory)\n    {\n        FinalProductsMapping storage product = _finalProducts[_packAddress];\n        require(product._producer != address(0), \"Non existent token\");\n\n        return (product._tokens.length, product._tokens);\n    }\n\n    function getUserPendingTokens(address _owner)\n        public\n        view\n        returns (bytes32[] memory)\n    {\n        return _userPendingTokens[_owner];\n    }\n\n    function getUserTokens(address _owner)\n        public\n        view\n        returns (bytes32[] memory)\n    {\n        return _userTokens[_owner];\n    }\n\n    function getUserPacks(address _owner)\n        public\n        view\n        returns (bytes32[] memory)\n    {\n        return _userPacks[_owner];\n    }\n\n    function getTokenPastHolders(bytes32 _tokenHash)\n        public\n        view\n        returns (address[] memory)\n    {\n        FCToken storage tkn = _universeTokens[_tokenHash];\n        require(tkn.status > 0, \"Non existent token\");\n\n        address[] memory ret = new address[](tkn.past_holders_length);\n        for (uint256 i = 0; i < tkn.past_holders_length; i++) {\n            ret[i] = tkn.past_holders[i].holderAddress;\n        }\n        return ret;\n    }\n}\n",
  "sourcePath": "C:\\Users\\Brion\\Documents\\work\\research\\Blockchain Agrifood\\smartcontract\\contracts\\Tracking.sol",
  "compiler": {
    "name": "solc",
    "version": "0.8.10+commit.fc410830.Emscripten.clang"
  },
  "schemaVersion": "3.4.10",
  "updatedAt": "2022-11-02T11:55:28.330Z",
  "networkType": "ethereum",
  "devdoc": {
    "details": "Store & retrieve value in a variable",
    "kind": "dev",
    "methods": {},
    "title": "FoodChainMonitoring",
    "version": 1
  },
  "userdoc": {
    "kind": "user",
    "methods": {},
    "version": 1
  }
}