{
  "contractName": "Tracking",
  "abi": [
    {
      "inputs": [],
      "stateMutability": "nonpayable",
      "type": "constructor"
    },
    {
      "anonymous": false,
      "inputs": [
        {
          "indexed": false,
          "internalType": "uint8",
          "name": "_ingridientID",
          "type": "uint8"
        },
        {
          "indexed": false,
          "internalType": "bytes32",
          "name": "_tokenHash",
          "type": "bytes32"
        },
        {
          "indexed": false,
          "internalType": "address",
          "name": "_receiver",
          "type": "address"
        }
      ],
      "name": "_eTransferToken",
      "type": "event"
    },
    {
      "anonymous": false,
      "inputs": [
        {
          "indexed": false,
          "internalType": "bytes32",
          "name": "tokenhash",
          "type": "bytes32"
        },
        {
          "indexed": false,
          "internalType": "address",
          "name": "owner",
          "type": "address"
        },
        {
          "indexed": false,
          "internalType": "uint8",
          "name": "_ingridientID",
          "type": "uint8"
        }
      ],
      "name": "_exposeMintedTokenHash",
      "type": "event"
    },
    {
      "anonymous": false,
      "inputs": [
        {
          "indexed": false,
          "internalType": "bytes32",
          "name": "packHash",
          "type": "bytes32"
        },
        {
          "indexed": false,
          "internalType": "address",
          "name": "owner",
          "type": "address"
        },
        {
          "indexed": false,
          "internalType": "bytes32[]",
          "name": "ingredients",
          "type": "bytes32[]"
        }
      ],
      "name": "_exposePackHash",
      "type": "event"
    },
    {
      "anonymous": false,
      "inputs": [
        {
          "indexed": true,
          "internalType": "uint8",
          "name": "value1",
          "type": "uint8"
        }
      ],
      "name": "test_uint8",
      "type": "event"
    },
    {
      "anonymous": false,
      "inputs": [
        {
          "indexed": true,
          "internalType": "address",
          "name": "value1",
          "type": "address"
        }
      ],
      "name": "test_value",
      "type": "event"
    },
    {
      "inputs": [
        {
          "internalType": "address",
          "name": "_msc",
          "type": "address"
        }
      ],
      "name": "set_management_sc",
      "outputs": [],
      "stateMutability": "nonpayable",
      "type": "function"
    },
    {
      "inputs": [],
      "name": "get_management_sc",
      "outputs": [
        {
          "internalType": "address",
          "name": "",
          "type": "address"
        }
      ],
      "stateMutability": "view",
      "type": "function",
      "constant": true
    },
    {
      "inputs": [
        {
          "internalType": "address",
          "name": "_msc",
          "type": "address"
        }
      ],
      "name": "set_database_sc",
      "outputs": [],
      "stateMutability": "nonpayable",
      "type": "function"
    },
    {
      "inputs": [],
      "name": "get_database_sc",
      "outputs": [
        {
          "internalType": "address",
          "name": "",
          "type": "address"
        }
      ],
      "stateMutability": "view",
      "type": "function",
      "constant": true
    },
    {
      "inputs": [
        {
          "internalType": "uint8",
          "name": "_ingridientID",
          "type": "uint8"
        },
        {
          "internalType": "uint8",
          "name": "_amount",
          "type": "uint8"
        }
      ],
      "name": "mint_token",
      "outputs": [
        {
          "internalType": "bytes32",
          "name": "",
          "type": "bytes32"
        }
      ],
      "stateMutability": "nonpayable",
      "type": "function"
    },
    {
      "inputs": [
        {
          "internalType": "uint8",
          "name": "_ingridientID",
          "type": "uint8"
        },
        {
          "internalType": "bytes32",
          "name": "_tokenHash",
          "type": "bytes32"
        },
        {
          "internalType": "address",
          "name": "_receiver",
          "type": "address"
        }
      ],
      "name": "transfer_token",
      "outputs": [
        {
          "internalType": "bool",
          "name": "",
          "type": "bool"
        }
      ],
      "stateMutability": "nonpayable",
      "type": "function"
    },
    {
      "inputs": [
        {
          "internalType": "uint8",
          "name": "_ingridientID",
          "type": "uint8"
        },
        {
          "internalType": "bytes32",
          "name": "_tokenHash",
          "type": "bytes32"
        }
      ],
      "name": "receive_token",
      "outputs": [
        {
          "internalType": "bool",
          "name": "",
          "type": "bool"
        }
      ],
      "stateMutability": "nonpayable",
      "type": "function"
    },
    {
      "inputs": [
        {
          "internalType": "uint8[]",
          "name": "_ingridientID",
          "type": "uint8[]"
        },
        {
          "internalType": "bytes32[]",
          "name": "_tokenHash",
          "type": "bytes32[]"
        }
      ],
      "name": "receive_tokens",
      "outputs": [],
      "stateMutability": "payable",
      "type": "function",
      "payable": true
    },
    {
      "inputs": [
        {
          "internalType": "uint8",
          "name": "_ingridientID",
          "type": "uint8"
        },
        {
          "internalType": "bytes32",
          "name": "_tokenHash",
          "type": "bytes32"
        },
        {
          "internalType": "uint8",
          "name": "_amount",
          "type": "uint8"
        }
      ],
      "name": "split_token",
      "outputs": [
        {
          "internalType": "bytes32",
          "name": "",
          "type": "bytes32"
        }
      ],
      "stateMutability": "nonpayable",
      "type": "function"
    },
    {
      "inputs": [
        {
          "internalType": "uint8",
          "name": "_ingridientID",
          "type": "uint8"
        },
        {
          "internalType": "bytes32",
          "name": "_tokenHash",
          "type": "bytes32"
        }
      ],
      "name": "getTokenData",
      "outputs": [
        {
          "internalType": "uint8",
          "name": "",
          "type": "uint8"
        },
        {
          "internalType": "uint8",
          "name": "",
          "type": "uint8"
        },
        {
          "internalType": "uint8",
          "name": "",
          "type": "uint8"
        },
        {
          "internalType": "address",
          "name": "",
          "type": "address"
        },
        {
          "internalType": "address",
          "name": "",
          "type": "address"
        },
        {
          "internalType": "uint8",
          "name": "",
          "type": "uint8"
        }
      ],
      "stateMutability": "view",
      "type": "function",
      "constant": true
    },
    {
      "inputs": [
        {
          "internalType": "bytes32[]",
          "name": "_tokenHash",
          "type": "bytes32[]"
        },
        {
          "internalType": "address",
          "name": "_sender",
          "type": "address"
        }
      ],
      "name": "pack",
      "outputs": [
        {
          "internalType": "bytes32",
          "name": "",
          "type": "bytes32"
        }
      ],
      "stateMutability": "payable",
      "type": "function",
      "payable": true
    },
    {
      "inputs": [
        {
          "internalType": "bytes32",
          "name": "_packAddress",
          "type": "bytes32"
        }
      ],
      "name": "viewPack",
      "outputs": [
        {
          "internalType": "uint256",
          "name": "",
          "type": "uint256"
        },
        {
          "internalType": "bytes32[]",
          "name": "",
          "type": "bytes32[]"
        }
      ],
      "stateMutability": "view",
      "type": "function",
      "constant": true
    },
    {
      "inputs": [
        {
          "internalType": "address",
          "name": "_owner",
          "type": "address"
        }
      ],
      "name": "getIngridients",
      "outputs": [
        {
          "internalType": "bytes32[]",
          "name": "",
          "type": "bytes32[]"
        }
      ],
      "stateMutability": "view",
      "type": "function",
      "constant": true
    }
  ],
  "bytecode": "0x608060405234801561001057600080fd5b5033600660006101000a81548173ffffffffffffffffffffffffffffffffffffffff021916908373ffffffffffffffffffffffffffffffffffffffff160217905550612cfe806100616000396000f3fe6080604052600436106100c25760003560e01c8063509a73991161007f578063aaabc4e811610059578063aaabc4e8146102a5578063df3b6c88146102d0578063e4b49bba14610312578063f20990be14610350576100c2565b8063509a73991461020f57806389ead6e21461023f578063962776691461027c576100c2565b806304ad0168146100c757806306dbcfad146101045780630cfac7391461012d5780630fb65c0f1461016a57806321073597146101a75780632aedd4c9146101d2575b600080fd5b3480156100d357600080fd5b506100ee60048036038101906100e99190611cdf565b61036c565b6040516100fb9190611dd4565b60405180910390f35b34801561011057600080fd5b5061012b60048036038101906101269190611cdf565b610403565b005b34801561013957600080fd5b50610154600480360381019061014f9190611e5b565b6104d7565b6040516101619190611eb6565b60405180910390f35b34801561017657600080fd5b50610191600480360381019061018c9190611ed1565b61078a565b60405161019e9190611f20565b60405180910390f35b3480156101b357600080fd5b506101bc610ac3565b6040516101c99190611f4a565b60405180910390f35b3480156101de57600080fd5b506101f960048036038101906101f49190611f65565b610aed565b6040516102069190611eb6565b60405180910390f35b61022960048036038101906102249190612111565b610dcb565b6040516102369190611f20565b60405180910390f35b34801561024b57600080fd5b506102666004803603810190610261919061216d565b611104565b6040516102739190611f20565b60405180910390f35b34801561028857600080fd5b506102a3600480360381019061029e9190611cdf565b6115c3565b005b3480156102b157600080fd5b506102ba611697565b6040516102c79190611f4a565b60405180910390f35b3480156102dc57600080fd5b506102f760048036038101906102f29190611e5b565b6116c1565b604051610309969594939291906121cf565b60405180910390f35b34801561031e57600080fd5b5061033960048036038101906103349190612230565b6117e0565b604051610347929190612276565b60405180910390f35b61036a60048036038101906103659190612369565b6118f7565b005b6060600160008373ffffffffffffffffffffffffffffffffffffffff1673ffffffffffffffffffffffffffffffffffffffff1681526020019081526020016000208054806020026020016040519081016040528092919081815260200182805480156103f757602002820191906000526020600020905b8154815260200190600101908083116103e3575b50505050509050919050565b600660009054906101000a900473ffffffffffffffffffffffffffffffffffffffff1673ffffffffffffffffffffffffffffffffffffffff163373ffffffffffffffffffffffffffffffffffffffff1614610493576040517f08c379a000000000000000000000000000000000000000000000000000000000815260040161048a9061243e565b60405180910390fd5b80600560006101000a81548173ffffffffffffffffffffffffffffffffffffffff021916908373ffffffffffffffffffffffffffffffffffffffff16021790555050565b60008060008084815260200190815260200160002090508060030160009054906101000a900473ffffffffffffffffffffffffffffffffffffffff1673ffffffffffffffffffffffffffffffffffffffff163373ffffffffffffffffffffffffffffffffffffffff1614610580576040517f08c379a0000000000000000000000000000000000000000000000000000000008152600401610577906124d0565b60405180910390fd5b60028160000160019054906101000a900460ff1660ff16146105d7576040517f08c379a00000000000000000000000000000000000000000000000000000000081526004016105ce9061253c565b60405180910390fd5b600081600401600083600501600081819054906101000a900460ff16809291906106009061258b565b91906101000a81548160ff021916908360ff16021790555060ff1660ff16815260200190815260200160002090508160000160039054906101000a900473ffffffffffffffffffffffffffffffffffffffff168160000160006101000a81548173ffffffffffffffffffffffffffffffffffffffff021916908373ffffffffffffffffffffffffffffffffffffffff160217905550428160010181905550338260000160036101000a81548173ffffffffffffffffffffffffffffffffffffffff021916908373ffffffffffffffffffffffffffffffffffffffff16021790555060008260030160006101000a81548173ffffffffffffffffffffffffffffffffffffffff021916908373ffffffffffffffffffffffffffffffffffffffff16021790555060018260000160016101000a81548160ff021916908360ff1602179055507f28c2fc82a315964355e85116aa4efe05be832fe8508d813e582bf94e9b826e9b843387604051610776939291906125b5565b60405180910390a160019250505092915050565b600080600460009054906101000a900473ffffffffffffffffffffffffffffffffffffffff169050600115158173ffffffffffffffffffffffffffffffffffffffff1663a859e61433876040518363ffffffff1660e01b81526004016107f19291906125ec565b602060405180830381865afa15801561080e573d6000803e3d6000fd5b505050506040513d601f19601f820116820180604052508101906108329190612641565b151514610874576040517f08c379a000000000000000000000000000000000000000000000000000000000815260040161086b906126ba565b60405180910390fd5b60008460ff164261088591906126da565b905060008160405160200161089a9190612730565b60405160208183030381529060405280519060200120905060008060008381526020019081526020016000209050858160000160026101000a81548160ff021916908360ff160217905550868160000160006101000a81548160ff021916908360ff160217905550338160000160036101000a81548173ffffffffffffffffffffffffffffffffffffffff021916908373ffffffffffffffffffffffffffffffffffffffff16021790555060018160000160016101000a81548160ff021916908360ff16021790555042816001018190555060008160050160006101000a81548160ff021916908360ff160217905550600160003373ffffffffffffffffffffffffffffffffffffffff1673ffffffffffffffffffffffffffffffffffffffff1681526020019081526020016000208290806001815401808255809150506001900390600052602060002001600090919091909150558060000160039054906101000a900473ffffffffffffffffffffffffffffffffffffffff1673ffffffffffffffffffffffffffffffffffffffff167fa6120a45ee5331fe09693a8428f603a571e8ff895fba6adc58b60331923ca6da60405160405180910390a27f28c2fc82a315964355e85116aa4efe05be832fe8508d813e582bf94e9b826e9b828260000160039054906101000a900473ffffffffffffffffffffffffffffffffffffffff1689604051610aae939291906125b5565b60405180910390a18194505050505092915050565b6000600460009054906101000a900473ffffffffffffffffffffffffffffffffffffffff16905090565b600080600080858152602001908152602001600020905060008160000160019054906101000a900460ff1660ff1611610b5b576040517f08c379a0000000000000000000000000000000000000000000000000000000008152600401610b5290612797565b60405180910390fd5b8060000160039054906101000a900473ffffffffffffffffffffffffffffffffffffffff1673ffffffffffffffffffffffffffffffffffffffff167fa6120a45ee5331fe09693a8428f603a571e8ff895fba6adc58b60331923ca6da60405160405180910390a28060000160039054906101000a900473ffffffffffffffffffffffffffffffffffffffff1673ffffffffffffffffffffffffffffffffffffffff163373ffffffffffffffffffffffffffffffffffffffff1614610c54576040517f08c379a0000000000000000000000000000000000000000000000000000000008152600401610c4b90612803565b60405180910390fd5b8273ffffffffffffffffffffffffffffffffffffffff163373ffffffffffffffffffffffffffffffffffffffff161415610cc3576040517f08c379a0000000000000000000000000000000000000000000000000000000008152600401610cba90612803565b60405180910390fd5b60018160000160019054906101000a900460ff1660ff1614610d1a576040517f08c379a0000000000000000000000000000000000000000000000000000000008152600401610d119061286f565b60405180910390fd5b828160030160006101000a81548173ffffffffffffffffffffffffffffffffffffffff021916908373ffffffffffffffffffffffffffffffffffffffff16021790555042816002018190555060028160000160016101000a81548160ff021916908360ff1602179055507f8cea5d2076b43b9c3ca802f2886a2c0deb90f51e2fe119ae2ac620db18bf23cd858585604051610db79392919061288f565b60405180910390a160019150509392505050565b600080600090505b8351811015610f09576000806000868481518110610df457610df36128c6565b5b6020026020010151815260200190815260200160002090508060000160039054906101000a900473ffffffffffffffffffffffffffffffffffffffff1673ffffffffffffffffffffffffffffffffffffffff168473ffffffffffffffffffffffffffffffffffffffff1614610e9e576040517f08c379a0000000000000000000000000000000000000000000000000000000008152600401610e9590612967565b60405180910390fd5b60018160000160019054906101000a900460ff1660ff1614610ef5576040517f08c379a0000000000000000000000000000000000000000000000000000000008152600401610eec906129d3565b60405180910390fd5b508080610f01906129f3565b915050610dd3565b506000600142610f1991906126da565b9050600081604051602001610f2e9190612730565b6040516020818303038152906040528051906020012090506000600260008381526020019081526020016000209050848160000160006101000a81548173ffffffffffffffffffffffffffffffffffffffff021916908373ffffffffffffffffffffffffffffffffffffffff16021790555060005b8651811015611053576000806000898481518110610fc457610fc36128c6565b5b60200260200101518152602001908152602001600020905060038160000160016101000a81548160ff021916908360ff16021790555082600101888381518110611011576110106128c6565b5b6020026020010151908060018154018082558091505060019003906000526020600020016000909190919091505550808061104b906129f3565b915050610fa3565b507ffb33afd887d48bd78fb1c5cc7796db9a8a71354c3e12e91f7c397dff2fa2b43f82868360010160405161108a93929190612b12565b60405180910390a1600360003373ffffffffffffffffffffffffffffffffffffffff1673ffffffffffffffffffffffffffffffffffffffff16815260200190815260200160002082908060018154018082558091505060019003906000526020600020016000909190919091505581935050505092915050565b600080600460009054906101000a900473ffffffffffffffffffffffffffffffffffffffff169050600115158173ffffffffffffffffffffffffffffffffffffffff166323ba78fe33886040518363ffffffff1660e01b815260040161116b9291906125ec565b602060405180830381865afa158015611188573d6000803e3d6000fd5b505050506040513d601f19601f820116820180604052508101906111ac9190612641565b1515146111ee576040517f08c379a00000000000000000000000000000000000000000000000000000000081526004016111e590612b9c565b60405180910390fd5b6000806000868152602001908152602001600020905060008160000160019054906101000a900460ff1660ff161161125b576040517f08c379a000000000000000000000000000000000000000000000000000000000815260040161125290612797565b60405180910390fd5b8060000160039054906101000a900473ffffffffffffffffffffffffffffffffffffffff1673ffffffffffffffffffffffffffffffffffffffff163373ffffffffffffffffffffffffffffffffffffffff16146112ed576040517f08c379a00000000000000000000000000000000000000000000000000000000081526004016112e490612c08565b60405180910390fd5b60018160000160019054906101000a900460ff1660ff1614611344576040517f08c379a000000000000000000000000000000000000000000000000000000000815260040161133b9061286f565b60405180910390fd5b60008460ff161161138a576040517f08c379a000000000000000000000000000000000000000000000000000000000815260040161138190612c74565b60405180910390fd5b8060000160029054906101000a900460ff1660ff168460ff16106113e3576040517f08c379a00000000000000000000000000000000000000000000000000000000081526004016113da90612c74565b60405180910390fd5b838160000160029054906101000a900460ff166114009190612c94565b8160000160026101000a81548160ff021916908360ff160217905550600060018760ff164261142f91906126da565b61143991906126da565b905060008160405160200161144e9190612730565b60405160208183030381529060405280519060200120905060008060008381526020019081526020016000209050868160000160026101000a81548160ff021916908360ff160217905550888160000160006101000a81548160ff021916908360ff160217905550338160000160036101000a81548173ffffffffffffffffffffffffffffffffffffffff021916908373ffffffffffffffffffffffffffffffffffffffff16021790555060018160000160016101000a81548160ff021916908360ff1602179055504281600101819055508360050160009054906101000a900460ff168160050160006101000a81548160ff021916908360ff160217905550600160003373ffffffffffffffffffffffffffffffffffffffff1673ffffffffffffffffffffffffffffffffffffffff16815260200190815260200160002082908060018154018082558091505060019003906000526020600020016000909190919091505581955050505050509392505050565b600660009054906101000a900473ffffffffffffffffffffffffffffffffffffffff1673ffffffffffffffffffffffffffffffffffffffff163373ffffffffffffffffffffffffffffffffffffffff1614611653576040517f08c379a000000000000000000000000000000000000000000000000000000000815260040161164a9061243e565b60405180910390fd5b80600460006101000a81548173ffffffffffffffffffffffffffffffffffffffff021916908373ffffffffffffffffffffffffffffffffffffffff16021790555050565b6000600560009054906101000a900473ffffffffffffffffffffffffffffffffffffffff16905090565b6000806000806000806000806000898152602001908152602001600020905060008160000160019054906101000a900460ff1660ff1611611737576040517f08c379a000000000000000000000000000000000000000000000000000000000815260040161172e90612797565b60405180910390fd5b8060000160009054906101000a900460ff168160000160019054906101000a900460ff168260000160029054906101000a900460ff168360000160039054906101000a900473ffffffffffffffffffffffffffffffffffffffff168460030160009054906101000a900473ffffffffffffffffffffffffffffffffffffffff168560050160009054906101000a900460ff16965096509650965096509650509295509295509295565b600060606000600260008581526020019081526020016000209050600073ffffffffffffffffffffffffffffffffffffffff168160000160009054906101000a900473ffffffffffffffffffffffffffffffffffffffff1673ffffffffffffffffffffffffffffffffffffffff16141561188f576040517f08c379a000000000000000000000000000000000000000000000000000000000815260040161188690612797565b60405180910390fd5b806001018054905081600101808054806020026020016040519081016040528092919081815260200182805480156118e657602002820191906000526020600020905b8154815260200190600101908083116118d2575b505050505090509250925050915091565b60005b825181101561195557611942838281518110611919576119186128c6565b5b6020026020010151838381518110611934576119336128c6565b5b60200260200101513361195a565b808061194d906129f3565b9150506118fa565b505050565b600080600084815260200190815260200160002090508060030160009054906101000a900473ffffffffffffffffffffffffffffffffffffffff1673ffffffffffffffffffffffffffffffffffffffff168273ffffffffffffffffffffffffffffffffffffffff1614611a02576040517f08c379a00000000000000000000000000000000000000000000000000000000081526004016119f9906124d0565b60405180910390fd5b60028160000160019054906101000a900460ff1660ff1614611a59576040517f08c379a0000000000000000000000000000000000000000000000000000000008152600401611a509061253c565b60405180910390fd5b600081600401600083600501600081819054906101000a900460ff1680929190611a829061258b565b91906101000a81548160ff021916908360ff16021790555060ff1660ff16815260200190815260200160002090508160000160039054906101000a900473ffffffffffffffffffffffffffffffffffffffff168160000160006101000a81548173ffffffffffffffffffffffffffffffffffffffff021916908373ffffffffffffffffffffffffffffffffffffffff160217905550428160010181905550338260000160036101000a81548173ffffffffffffffffffffffffffffffffffffffff021916908373ffffffffffffffffffffffffffffffffffffffff16021790555060008260030160006101000a81548173ffffffffffffffffffffffffffffffffffffffff021916908373ffffffffffffffffffffffffffffffffffffffff16021790555060018260000160016101000a81548160ff021916908360ff160217905550600160003373ffffffffffffffffffffffffffffffffffffffff1673ffffffffffffffffffffffffffffffffffffffff1681526020019081526020016000208490806001815401808255809150506001900390600052602060002001600090919091909150557f28c2fc82a315964355e85116aa4efe05be832fe8508d813e582bf94e9b826e9b843387604051611c5e939291906125b5565b60405180910390a15050505050565b6000604051905090565b600080fd5b600080fd5b600073ffffffffffffffffffffffffffffffffffffffff82169050919050565b6000611cac82611c81565b9050919050565b611cbc81611ca1565b8114611cc757600080fd5b50565b600081359050611cd981611cb3565b92915050565b600060208284031215611cf557611cf4611c77565b5b6000611d0384828501611cca565b91505092915050565b600081519050919050565b600082825260208201905092915050565b6000819050602082019050919050565b6000819050919050565b611d4b81611d38565b82525050565b6000611d5d8383611d42565b60208301905092915050565b6000602082019050919050565b6000611d8182611d0c565b611d8b8185611d17565b9350611d9683611d28565b8060005b83811015611dc7578151611dae8882611d51565b9750611db983611d69565b925050600181019050611d9a565b5085935050505092915050565b60006020820190508181036000830152611dee8184611d76565b905092915050565b600060ff82169050919050565b611e0c81611df6565b8114611e1757600080fd5b50565b600081359050611e2981611e03565b92915050565b611e3881611d38565b8114611e4357600080fd5b50565b600081359050611e5581611e2f565b92915050565b60008060408385031215611e7257611e71611c77565b5b6000611e8085828601611e1a565b9250506020611e9185828601611e46565b9150509250929050565b60008115159050919050565b611eb081611e9b565b82525050565b6000602082019050611ecb6000830184611ea7565b92915050565b60008060408385031215611ee857611ee7611c77565b5b6000611ef685828601611e1a565b9250506020611f0785828601611e1a565b9150509250929050565b611f1a81611d38565b82525050565b6000602082019050611f356000830184611f11565b92915050565b611f4481611ca1565b82525050565b6000602082019050611f5f6000830184611f3b565b92915050565b600080600060608486031215611f7e57611f7d611c77565b5b6000611f8c86828701611e1a565b9350506020611f9d86828701611e46565b9250506040611fae86828701611cca565b9150509250925092565b600080fd5b6000601f19601f8301169050919050565b7f4e487b7100000000000000000000000000000000000000000000000000000000600052604160045260246000fd5b61200682611fbd565b810181811067ffffffffffffffff8211171561202557612024611fce565b5b80604052505050565b6000612038611c6d565b90506120448282611ffd565b919050565b600067ffffffffffffffff82111561206457612063611fce565b5b602082029050602081019050919050565b600080fd5b600061208d61208884612049565b61202e565b905080838252602082019050602084028301858111156120b0576120af612075565b5b835b818110156120d957806120c58882611e46565b8452602084019350506020810190506120b2565b5050509392505050565b600082601f8301126120f8576120f7611fb8565b5b813561210884826020860161207a565b91505092915050565b6000806040838503121561212857612127611c77565b5b600083013567ffffffffffffffff81111561214657612145611c7c565b5b612152858286016120e3565b925050602061216385828601611cca565b9150509250929050565b60008060006060848603121561218657612185611c77565b5b600061219486828701611e1a565b93505060206121a586828701611e46565b92505060406121b686828701611e1a565b9150509250925092565b6121c981611df6565b82525050565b600060c0820190506121e460008301896121c0565b6121f160208301886121c0565b6121fe60408301876121c0565b61220b6060830186611f3b565b6122186080830185611f3b565b61222560a08301846121c0565b979650505050505050565b60006020828403121561224657612245611c77565b5b600061225484828501611e46565b91505092915050565b6000819050919050565b6122708161225d565b82525050565b600060408201905061228b6000830185612267565b818103602083015261229d8184611d76565b90509392505050565b600067ffffffffffffffff8211156122c1576122c0611fce565b5b602082029050602081019050919050565b60006122e56122e0846122a6565b61202e565b9050808382526020820190506020840283018581111561230857612307612075565b5b835b81811015612331578061231d8882611e1a565b84526020840193505060208101905061230a565b5050509392505050565b600082601f8301126123505761234f611fb8565b5b81356123608482602086016122d2565b91505092915050565b600080604083850312156123805761237f611c77565b5b600083013567ffffffffffffffff81111561239e5761239d611c7c565b5b6123aa8582860161233b565b925050602083013567ffffffffffffffff8111156123cb576123ca611c7c565b5b6123d7858286016120e3565b9150509250929050565b600082825260208201905092915050565b7f4f6e6c792061646d696e2063616e20736574207065726d730000000000000000600082015250565b60006124286018836123e1565b9150612433826123f2565b602082019050919050565b600060208201905081810360008301526124578161241b565b9050919050565b7f596f7520617265206e6f7420616c6c6f7765642c20646966666572656e74207360008201527f656e646572207468616e20686f6c646572000000000000000000000000000000602082015250565b60006124ba6031836123e1565b91506124c58261245e565b604082019050919050565b600060208201905081810360008301526124e9816124ad565b9050919050565b7f546f6b656e20616c726561647920726563656976656400000000000000000000600082015250565b60006125266016836123e1565b9150612531826124f0565b602082019050919050565b6000602082019050818103600083015261255581612519565b9050919050565b7f4e487b7100000000000000000000000000000000000000000000000000000000600052601160045260246000fd5b600061259682611df6565b915060ff8214156125aa576125a961255c565b5b600182019050919050565b60006060820190506125ca6000830186611f11565b6125d76020830185611f3b565b6125e460408301846121c0565b949350505050565b60006040820190506126016000830185611f3b565b61260e60208301846121c0565b9392505050565b61261e81611e9b565b811461262957600080fd5b50565b60008151905061263b81612615565b92915050565b60006020828403121561265757612656611c77565b5b60006126658482850161262c565b91505092915050565b7f4e6f207065726d20746f206d696e740000000000000000000000000000000000600082015250565b60006126a4600f836123e1565b91506126af8261266e565b602082019050919050565b600060208201905081810360008301526126d381612697565b9050919050565b60006126e58261225d565b91506126f08361225d565b9250827fffffffffffffffffffffffffffffffffffffffffffffffffffffffffffffffff038211156127255761272461255c565b5b828201905092915050565b60006020820190506127456000830184612267565b92915050565b7f4e6f6e206578697374656e7420746f6b656e0000000000000000000000000000600082015250565b60006127816012836123e1565b915061278c8261274b565b602082019050919050565b600060208201905081810360008301526127b081612774565b9050919050565b7f596f7520617265206e6f7420616c6c6f77656400000000000000000000000000600082015250565b60006127ed6013836123e1565b91506127f8826127b7565b602082019050919050565b6000602082019050818103600083015261281c816127e0565b9050919050565b7f546f6b656e20737461747573206e6f7420726561647900000000000000000000600082015250565b60006128596016836123e1565b915061286482612823565b602082019050919050565b600060208201905081810360008301526128888161284c565b9050919050565b60006060820190506128a460008301866121c0565b6128b16020830185611f11565b6128be6040830184611f3b565b949350505050565b7f4e487b7100000000000000000000000000000000000000000000000000000000600052603260045260246000fd5b7f596f7520617265206e6f7420616c6c6f7765642c20646966666572656e74206860008201527f6f6c646572000000000000000000000000000000000000000000000000000000602082015250565b60006129516025836123e1565b915061295c826128f5565b604082019050919050565b6000602082019050818103600083015261298081612944565b9050919050565b7f546f6b656e2068617320746f20626520617661696c61626c6500000000000000600082015250565b60006129bd6019836123e1565b91506129c882612987565b602082019050919050565b600060208201905081810360008301526129ec816129b0565b9050919050565b60006129fe8261225d565b91507fffffffffffffffffffffffffffffffffffffffffffffffffffffffffffffffff821415612a3157612a3061255c565b5b600182019050919050565b600081549050919050565b60008190508160005260206000209050919050565b60008160001c9050919050565b6000819050919050565b6000612a86612a8183612a5c565b612a69565b9050919050565b6000612a998254612a73565b9050919050565b6000600182019050919050565b6000612ab882612a3c565b612ac28185611d17565b9350612acd83612a47565b8060005b83811015612b0557612ae282612a8d565b612aec8882611d51565b9750612af783612aa0565b925050600181019050612ad1565b5085935050505092915050565b6000606082019050612b276000830186611f11565b612b346020830185611f3b565b8181036040830152612b468184612aad565b9050949350505050565b7f4e6f207065726d20746f2073706c697400000000000000000000000000000000600082015250565b6000612b866010836123e1565b9150612b9182612b50565b602082019050919050565b60006020820190508181036000830152612bb581612b79565b9050919050565b7f596f7520617265206e6f7720616c6c6f77656400000000000000000000000000600082015250565b6000612bf26013836123e1565b9150612bfd82612bbc565b602082019050919050565b60006020820190508181036000830152612c2181612be5565b9050919050565b7f496e76616c69642073706c697420616d6f756e74000000000000000000000000600082015250565b6000612c5e6014836123e1565b9150612c6982612c28565b602082019050919050565b60006020820190508181036000830152612c8d81612c51565b9050919050565b6000612c9f82611df6565b9150612caa83611df6565b925082821015612cbd57612cbc61255c565b5b82820390509291505056fea264697066735822122057230cb1cece76f538909987df7f687422b2fb3f20863ea0e71afd9f6919a21464736f6c634300080a0033",
  "immutableReferences": {},
  "source": "// SPDX-License-Identifier: GPL-3.0\n\npragma solidity >=0.7.0 <0.9.0;\n\nimport \"./Management.sol\";\nimport \"./Database.sol\";\n\n/**\n * @title FoodChainMonitoring\n * @dev Store & retrieve value in a variable\n */\ncontract Tracking {\n    // debug\n    event test_value(address indexed value1);\n    event test_uint8(uint8 indexed value1);\n    event _eTransferToken(\n        uint8 _ingridientID,\n        bytes32 _tokenHash,\n        address _receiver\n    );\n    event _exposeMintedTokenHash(\n        bytes32 tokenhash,\n        address owner,\n        uint8 _ingridientID\n    );\n\n    event _exposePackHash(\n        bytes32 packHash,\n        address owner,\n        bytes32[] ingredients\n    );\n\n    struct HoldersMapping {\n        address holderAddress;\n        uint256 timestamp;\n    }\n\n    struct FinalProductsMapping {\n        // bytes32 _productAddress;\n        address _producer;\n        bytes32[] _tokens;\n        // uint8 _tokensLength;\n    }\n\n    struct FCToken {\n        uint8 ingridientID;\n        uint8 status; // packed?\n        uint8 amount;\n        address holder;\n        uint256 minted_on;\n        uint256 transfered_on;\n        address pending_holder;\n        mapping(uint8 => HoldersMapping) past_holders;\n        uint8 past_holders_length;\n    }\n\n    mapping(bytes32 => FCToken) _universeTokens;\n    // mapping(address => bytes32) _userTokens;\n    mapping(address => bytes32[]) _userTokens;\n\n    // mapping(uint256 => mapping(bytes32 => FCToken)) public tokens;\n\n    // address of the Final Product -> struct of the product\n    mapping(bytes32 => FinalProductsMapping) _finalProducts;\n    mapping(address => bytes32[]) _userPacks;\n\n\n    address management_sc;\n    address database_sc;\n    address admin;\n\n    constructor() {\n        admin = msg.sender;\n    }\n\n    function set_management_sc(address _msc) public {\n        require(msg.sender == admin, \"Only admin can set perms\");\n        management_sc = _msc;\n    }\n\n    function get_management_sc() public view returns (address) {\n        return management_sc;\n    }\n\n    function set_database_sc(address _msc) public {\n        require(msg.sender == admin, \"Only admin can set perms\");\n        database_sc = _msc;\n    }\n\n    function get_database_sc() public view returns (address) {\n        return database_sc;\n    }\n\n    function mint_token(uint8 _ingridientID, uint8 _amount)\n        public\n        returns (bytes32)\n    {\n        // create check method to verify the generation is valid\n        Management m = Management(management_sc);\n        require(\n            m.get_perm_mint(msg.sender, _ingridientID) == true,\n            \"No perm to mint\"\n        );\n\n        uint256 toHash = block.timestamp + _ingridientID;\n        bytes32 tokenHash = keccak256(abi.encode(toHash));\n        // FCToken storage theToken = tokens[_ingridientID][tokenHash];\n        FCToken storage theToken = _universeTokens[tokenHash];\n\n        theToken.amount = _amount;\n        theToken.ingridientID = _ingridientID;\n        theToken.holder = msg.sender;\n        theToken.status = 1; // 1 = ready, 2 = transfer_pending, 3 = packed\n        theToken.minted_on = block.timestamp;\n        theToken.past_holders_length = 0;\n\n        _userTokens[msg.sender].push(tokenHash);\n        // ingridient_tokens[_ingridientID] = tokenHash;\n        // token_hashes[tokenHash] = theToken; while the init is on memory\n\n        emit test_value(theToken.holder);\n        emit _exposeMintedTokenHash(tokenHash, theToken.holder, _ingridientID);\n\n        return tokenHash; // hash has to be generated by ingridient ID, first holder and timestamp\n    }\n\n    function transfer_token(\n        uint8 _ingridientID,\n        bytes32 _tokenHash,\n        address _receiver\n    ) public returns (bool) {\n        // FCToken storage tkn = tokens[_ingridientID][_tokenHash];\n        FCToken storage tkn = _universeTokens[_tokenHash];\n        require(tkn.status > 0, \"Non existent token\");\n        emit test_value(tkn.holder);\n        require(msg.sender == tkn.holder, \"You are not allowed\"); // Check that the tx.sender is the owner of the token\n        require(msg.sender != _receiver, \"You are not allowed\"); // Check that the tx.sender is the owner of the token\n        require(tkn.status == 1, \"Token status not ready\"); // check the state of the token (it has to be ready)\n        // check that the tx.sender can transfer such ingridient\n\n        // set pending_holder to receiver\n        tkn.pending_holder = _receiver;\n        tkn.transfered_on = block.timestamp;\n        // set the status -> transfer_pending\n        tkn.status = 2;\n\n        // emit event to receiver\n        emit _eTransferToken(_ingridientID, _tokenHash, _receiver);\n\n        return true;\n    }\n\n    function receive_token(uint8 _ingridientID, bytes32 _tokenHash)\n        public\n        returns (bool)\n    {\n        // FCToken storage tkn = tokens[_ingridientID][_tokenHash];\n        FCToken storage tkn = _universeTokens[_tokenHash];\n        require(\n            msg.sender == tkn.pending_holder,\n            \"You are not allowed, different sender than holder\"\n        );\n        require(tkn.status == 2, \"Token already received\");\n\n        HoldersMapping storage hmap = tkn.past_holders[\n            tkn.past_holders_length++\n        ]; // stupid syntax -> https://ethereum.stackexchange.com/questions/87451/solidity-error-struct-containing-a-nested-mapping-cannot-be-constructed\n        hmap.holderAddress = tkn.holder;\n        hmap.timestamp = block.timestamp;\n        tkn.holder = msg.sender;\n        tkn.pending_holder = address(0);\n        tkn.status = 1;\n\n        emit _exposeMintedTokenHash(_tokenHash, msg.sender, _ingridientID);\n\n        return true;\n    }\n\n    function private_receive_token(\n        uint8 _ingridientID,\n        bytes32 _tokenHash,\n        address _sender\n    ) private {\n        // FCToken storage tkn = tokens[_ingridientID][_tokenHash];\n        FCToken storage tkn = _universeTokens[_tokenHash];\n        require(\n            _sender == tkn.pending_holder,\n            \"You are not allowed, different sender than holder\"\n        );\n        require(tkn.status == 2, \"Token already received\");\n\n        HoldersMapping storage hmap = tkn.past_holders[\n            tkn.past_holders_length++\n        ]; // stupid syntax -> https://ethereum.stackexchange.com/questions/87451/solidity-error-struct-containing-a-nested-mapping-cannot-be-constructed\n\n        // address currentHolder = tkn.holder;\n        hmap.holderAddress = tkn.holder;\n        hmap.timestamp = block.timestamp;\n        tkn.holder = msg.sender;\n        tkn.pending_holder = address(0);\n        tkn.status = 1;\n        // _userTokens[currentHolder][_tokenHash] = 0;\n        _userTokens[msg.sender].push(_tokenHash);\n        emit _exposeMintedTokenHash(_tokenHash, msg.sender, _ingridientID);\n    }\n\n    function receive_tokens(\n        uint8[] memory _ingridientID,\n        bytes32[] memory _tokenHash\n    ) public payable {\n        for (uint256 i = 0; i < _ingridientID.length; i++) {\n            private_receive_token(_ingridientID[i], _tokenHash[i], msg.sender);\n        }\n    }\n\n    function split_token(\n        uint8 _ingridientID,\n        bytes32 _tokenHash,\n        uint8 _amount\n    ) public returns (bytes32) {\n        Management m = Management(management_sc);\n        require(\n            m.get_perm_split(msg.sender, _ingridientID) == true,\n            \"No perm to split\"\n        ); // to be implemented\n        // FCToken storage tkn = tokens[_ingridientID][_tokenHash];\n        FCToken storage tkn = _universeTokens[_tokenHash];\n        require(tkn.status > 0, \"Non existent token\");\n        //emit test_value(tkn.holder);\n        require(msg.sender == tkn.holder, \"You are now allowed\"); // Check that the tx.sender is the owner of the token\n        require(tkn.status == 1, \"Token status not ready\"); // check the state of the token (it has to be ready)\n        require(_amount > 0, \"Invalid split amount\");\n        require(_amount < tkn.amount, \"Invalid split amount\");\n        tkn.amount = tkn.amount - _amount;\n\n        uint256 toHash = block.timestamp + _ingridientID + 1; //block.timestamp + _ingridientID is the same in the same block\n        bytes32 tokenHash = keccak256(abi.encode(toHash));\n        // FCToken storage ntkn = tokens[_ingridientID][tokenHash];\n        FCToken storage ntkn = _universeTokens[tokenHash];\n\n        ntkn.amount = _amount;\n        ntkn.ingridientID = _ingridientID;\n        ntkn.holder = msg.sender;\n        ntkn.status = 1; // 1 = ready, 2 = transfer_pending, 3 = packed\n        ntkn.minted_on = block.timestamp;\n        ntkn.past_holders_length = tkn.past_holders_length;\n        //ntkn.past_holders = tkn.past_holders;\n        _userTokens[msg.sender].push(tokenHash);\n\n        return tokenHash;\n    }\n\n    function getTokenData(uint8 _ingridientID, bytes32 _tokenHash)\n        public\n        view\n        returns (\n            uint8,\n            uint8,\n            uint8,\n            address,\n            address,\n            uint8\n        )\n    {\n        // FCToken storage tkn = tokens[_ingridientID][_tokenHash];\n        FCToken storage tkn = _universeTokens[_tokenHash];\n        require(tkn.status > 0, \"Non existent token\");\n\n        return (\n            tkn.ingridientID,\n            tkn.status,\n            tkn.amount,\n            tkn.holder,\n            tkn.pending_holder,\n            tkn.past_holders_length\n        );\n    }\n\n    function pack(bytes32[] memory _tokenHash, address _sender) public payable returns(bytes32) {\n        // maybe dummy, but 2 loops, one to check permissions the other to alter the tokens\n        for (uint256 i = 0; i < _tokenHash.length; i++) {\n            // check for permissions and the status of the token\n            FCToken storage tkn = _universeTokens[_tokenHash[i]];\n\n            require(\n                _sender == tkn.holder,\n                \"You are not allowed, different holder\"\n            );\n            require(tkn.status == 1, \"Token has to be available\");\n        }\n\n        uint256 toHash = block.timestamp + 1; //block.timestamp + _ingridientID is the same in the same block\n        bytes32 packHash = keccak256(abi.encode(toHash));\n        FinalProductsMapping storage product = _finalProducts[packHash];\n\n        product._producer = _sender;\n        for (uint256 i = 0; i < _tokenHash.length; i++) {\n\n            FCToken storage tkn = _universeTokens[_tokenHash[i]];\n            tkn.status = 3;\n            product._tokens.push(_tokenHash[i]);\n        }\n        emit _exposePackHash(packHash,_sender,product._tokens);\n        _userPacks[msg.sender].push(packHash);\n\n        return packHash;\n    }\n\n    function viewPack(bytes32 _packAddress)\n        public\n        view\n        returns (uint256, bytes32[] memory)\n    {\n        FinalProductsMapping storage product = _finalProducts[_packAddress];\n        require(product._producer != address(0), \"Non existent token\");\n\n        return (product._tokens.length, product._tokens);\n    }\n\n    function getIngridients(address _owner)\n        public\n        view\n        returns (bytes32[] memory)\n    {\n        return _userTokens[_owner];\n    }\n}\n",
  "sourcePath": "E:\\MyWork\\AETHER\\blockchain_spathoulas_2021\\smartcontract\\contracts\\Tracking.sol",
  "compiler": {
    "name": "solc",
    "version": "0.8.10+commit.fc410830.Emscripten.clang"
  },
  "schemaVersion": "3.4.3",
  "updatedAt": "2022-03-08T07:48:50.068Z",
  "networkType": "ethereum",
  "devdoc": {
    "details": "Store & retrieve value in a variable",
    "kind": "dev",
    "methods": {},
    "title": "FoodChainMonitoring",
    "version": 1
  },
  "userdoc": {
    "kind": "user",
    "methods": {},
    "version": 1
  }
}