{
  "contractName": "Tracking",
  "abi": [
    {
      "inputs": [],
      "stateMutability": "nonpayable",
      "type": "constructor"
    },
    {
      "anonymous": false,
      "inputs": [
        {
          "indexed": false,
          "internalType": "uint8",
          "name": "_ingridientID",
          "type": "uint8"
        },
        {
          "indexed": false,
          "internalType": "bytes32",
          "name": "_tokenHash",
          "type": "bytes32"
        },
        {
          "indexed": false,
          "internalType": "address",
          "name": "_receiver",
          "type": "address"
        }
      ],
      "name": "_eTransferToken",
      "type": "event"
    },
    {
      "anonymous": false,
      "inputs": [
        {
          "indexed": false,
          "internalType": "bytes32",
          "name": "tokenhash",
          "type": "bytes32"
        },
        {
          "indexed": false,
          "internalType": "address",
          "name": "owner",
          "type": "address"
        },
        {
          "indexed": false,
          "internalType": "uint8",
          "name": "_ingridientID",
          "type": "uint8"
        }
      ],
      "name": "_exposeMintedTokenHash",
      "type": "event"
    },
    {
      "anonymous": false,
      "inputs": [
        {
          "indexed": true,
          "internalType": "uint8",
          "name": "value1",
          "type": "uint8"
        }
      ],
      "name": "test_uint8",
      "type": "event"
    },
    {
      "anonymous": false,
      "inputs": [
        {
          "indexed": true,
          "internalType": "address",
          "name": "value1",
          "type": "address"
        }
      ],
      "name": "test_value",
      "type": "event"
    },
    {
      "inputs": [
        {
          "internalType": "uint256",
          "name": "",
          "type": "uint256"
        },
        {
          "internalType": "bytes32",
          "name": "",
          "type": "bytes32"
        }
      ],
      "name": "tokens",
      "outputs": [
        {
          "internalType": "uint8",
          "name": "ingridientID",
          "type": "uint8"
        },
        {
          "internalType": "uint8",
          "name": "status",
          "type": "uint8"
        },
        {
          "internalType": "uint8",
          "name": "amount",
          "type": "uint8"
        },
        {
          "internalType": "address",
          "name": "holder",
          "type": "address"
        },
        {
          "internalType": "uint256",
          "name": "minted_on",
          "type": "uint256"
        },
        {
          "internalType": "address",
          "name": "pending_holder",
          "type": "address"
        },
        {
          "internalType": "uint8",
          "name": "past_holders_length",
          "type": "uint8"
        }
      ],
      "stateMutability": "view",
      "type": "function",
      "constant": true
    },
    {
      "inputs": [
        {
          "internalType": "address",
          "name": "_msc",
          "type": "address"
        }
      ],
      "name": "set_management_sc",
      "outputs": [],
      "stateMutability": "nonpayable",
      "type": "function"
    },
    {
      "inputs": [],
      "name": "get_management_sc",
      "outputs": [
        {
          "internalType": "address",
          "name": "",
          "type": "address"
        }
      ],
      "stateMutability": "view",
      "type": "function",
      "constant": true
    },
    {
      "inputs": [
        {
          "internalType": "uint8",
          "name": "_ingridientID",
          "type": "uint8"
        },
        {
          "internalType": "uint8",
          "name": "_amount",
          "type": "uint8"
        }
      ],
      "name": "mint_token",
      "outputs": [
        {
          "internalType": "bytes32",
          "name": "",
          "type": "bytes32"
        }
      ],
      "stateMutability": "nonpayable",
      "type": "function"
    },
    {
      "inputs": [
        {
          "internalType": "uint8",
          "name": "_ingridientID",
          "type": "uint8"
        },
        {
          "internalType": "bytes32",
          "name": "_tokenHash",
          "type": "bytes32"
        },
        {
          "internalType": "address",
          "name": "_receiver",
          "type": "address"
        }
      ],
      "name": "transfer_token",
      "outputs": [
        {
          "internalType": "bool",
          "name": "",
          "type": "bool"
        }
      ],
      "stateMutability": "nonpayable",
      "type": "function"
    },
    {
      "inputs": [
        {
          "internalType": "uint8",
          "name": "_ingridientID",
          "type": "uint8"
        },
        {
          "internalType": "bytes32",
          "name": "_tokenHash",
          "type": "bytes32"
        }
      ],
      "name": "receive_token",
      "outputs": [
        {
          "internalType": "bool",
          "name": "",
          "type": "bool"
        }
      ],
      "stateMutability": "nonpayable",
      "type": "function"
    },
    {
      "inputs": [
        {
          "internalType": "uint8[]",
          "name": "_ingridientID",
          "type": "uint8[]"
        },
        {
          "internalType": "bytes32[]",
          "name": "_tokenHash",
          "type": "bytes32[]"
        }
      ],
      "name": "receive_tokens",
      "outputs": [],
      "stateMutability": "payable",
      "type": "function",
      "payable": true
    },
    {
      "inputs": [
        {
          "internalType": "uint8",
          "name": "_ingridientID",
          "type": "uint8"
        },
        {
          "internalType": "bytes32",
          "name": "_tokenHash",
          "type": "bytes32"
        },
        {
          "internalType": "uint8",
          "name": "_amount",
          "type": "uint8"
        }
      ],
      "name": "split_token",
      "outputs": [
        {
          "internalType": "bytes32",
          "name": "",
          "type": "bytes32"
        }
      ],
      "stateMutability": "nonpayable",
      "type": "function"
    },
    {
      "inputs": [
        {
          "internalType": "uint8",
          "name": "_ingridientID",
          "type": "uint8"
        },
        {
          "internalType": "bytes32",
          "name": "_tokenHash",
          "type": "bytes32"
        }
      ],
      "name": "getTokenData",
      "outputs": [
        {
          "internalType": "uint8",
          "name": "",
          "type": "uint8"
        },
        {
          "internalType": "uint8",
          "name": "",
          "type": "uint8"
        },
        {
          "internalType": "address",
          "name": "",
          "type": "address"
        },
        {
          "internalType": "address",
          "name": "",
          "type": "address"
        },
        {
          "internalType": "uint8",
          "name": "",
          "type": "uint8"
        }
      ],
      "stateMutability": "view",
      "type": "function",
      "constant": true
    }
  ],
  "bytecode": "0x608060405234801561001057600080fd5b5033600360006101000a81548173ffffffffffffffffffffffffffffffffffffffff021916908373ffffffffffffffffffffffffffffffffffffffff160217905550612361806100616000396000f3fe6080604052600436106100865760003560e01c806389e7bdd81161005957806389e7bdd81461016d57806389ead6e2146101b057806396277669146101ed578063df3b6c8814610216578063f20990be1461025757610086565b80630cfac7391461008b5780630fb65c0f146100c857806321073597146101055780632aedd4c914610130575b600080fd5b34801561009757600080fd5b506100b260048036038101906100ad9190611631565b610273565b6040516100bf919061168c565b60405180910390f35b3480156100d457600080fd5b506100ef60048036038101906100ea91906116a7565b61053b565b6040516100fc91906116f6565b60405180910390f35b34801561011157600080fd5b5061011a61083d565b6040516101279190611752565b60405180910390f35b34801561013c57600080fd5b5061015760048036038101906101529190611799565b610867565b604051610164919061168c565b60405180910390f35b34801561017957600080fd5b50610194600480360381019061018f9190611822565b610b51565b6040516101a79796959493929190611880565b60405180910390f35b3480156101bc57600080fd5b506101d760048036038101906101d291906118ef565b610c14565b6040516101e491906116f6565b60405180910390f35b3480156101f957600080fd5b50610214600480360381019061020f9190611942565b611097565b005b34801561022257600080fd5b5061023d60048036038101906102389190611631565b61116b565b60405161024e95949392919061196f565b60405180910390f35b610271600480360381019061026c9190611bde565b611289565b005b600080600160008560ff168152602001908152602001600020600084815260200190815260200160002090508060020160009054906101000a900473ffffffffffffffffffffffffffffffffffffffff1673ffffffffffffffffffffffffffffffffffffffff163373ffffffffffffffffffffffffffffffffffffffff1614610331576040517f08c379a000000000000000000000000000000000000000000000000000000000815260040161032890611cd9565b60405180910390fd5b60028160000160019054906101000a900460ff1660ff1614610388576040517f08c379a000000000000000000000000000000000000000000000000000000000815260040161037f90611d45565b60405180910390fd5b600081600301600083600401600081819054906101000a900460ff16809291906103b190611d94565b91906101000a81548160ff021916908360ff16021790555060ff1660ff16815260200190815260200160002090508160000160039054906101000a900473ffffffffffffffffffffffffffffffffffffffff168160000160006101000a81548173ffffffffffffffffffffffffffffffffffffffff021916908373ffffffffffffffffffffffffffffffffffffffff160217905550428160010181905550338260000160036101000a81548173ffffffffffffffffffffffffffffffffffffffff021916908373ffffffffffffffffffffffffffffffffffffffff16021790555060008260020160006101000a81548173ffffffffffffffffffffffffffffffffffffffff021916908373ffffffffffffffffffffffffffffffffffffffff16021790555060018260000160016101000a81548160ff021916908360ff1602179055507f28c2fc82a315964355e85116aa4efe05be832fe8508d813e582bf94e9b826e9b84338760405161052793929190611dbe565b60405180910390a160019250505092915050565b600080600260009054906101000a900473ffffffffffffffffffffffffffffffffffffffff169050600115158173ffffffffffffffffffffffffffffffffffffffff1663a859e61433876040518363ffffffff1660e01b81526004016105a2929190611df5565b602060405180830381865afa1580156105bf573d6000803e3d6000fd5b505050506040513d601f19601f820116820180604052508101906105e39190611e4a565b151514610625576040517f08c379a000000000000000000000000000000000000000000000000000000000815260040161061c90611ec3565b60405180910390fd5b60008460ff16426106369190611ee3565b905060008160405160200161064b9190611f39565b6040516020818303038152906040528051906020012090506000600160008860ff16815260200190815260200160002060008381526020019081526020016000209050858160000160026101000a81548160ff021916908360ff160217905550868160000160006101000a81548160ff021916908360ff160217905550338160000160036101000a81548173ffffffffffffffffffffffffffffffffffffffff021916908373ffffffffffffffffffffffffffffffffffffffff16021790555060018160000160016101000a81548160ff021916908360ff16021790555042816001018190555060008160040160006101000a81548160ff021916908360ff160217905550816000808960ff168152602001908152602001600020819055508060000160039054906101000a900473ffffffffffffffffffffffffffffffffffffffff1673ffffffffffffffffffffffffffffffffffffffff167fa6120a45ee5331fe09693a8428f603a571e8ff895fba6adc58b60331923ca6da60405160405180910390a27f28c2fc82a315964355e85116aa4efe05be832fe8508d813e582bf94e9b826e9b828260000160039054906101000a900473ffffffffffffffffffffffffffffffffffffffff168960405161082893929190611dbe565b60405180910390a18194505050505092915050565b6000600260009054906101000a900473ffffffffffffffffffffffffffffffffffffffff16905090565b600080600160008660ff1681526020019081526020016000206000858152602001908152602001600020905060008160000160019054906101000a900460ff1660ff16116108ea576040517f08c379a00000000000000000000000000000000000000000000000000000000081526004016108e190611fa0565b60405180910390fd5b8060000160039054906101000a900473ffffffffffffffffffffffffffffffffffffffff1673ffffffffffffffffffffffffffffffffffffffff167fa6120a45ee5331fe09693a8428f603a571e8ff895fba6adc58b60331923ca6da60405160405180910390a28060000160039054906101000a900473ffffffffffffffffffffffffffffffffffffffff1673ffffffffffffffffffffffffffffffffffffffff163373ffffffffffffffffffffffffffffffffffffffff16146109e3576040517f08c379a00000000000000000000000000000000000000000000000000000000081526004016109da9061200c565b60405180910390fd5b8273ffffffffffffffffffffffffffffffffffffffff163373ffffffffffffffffffffffffffffffffffffffff161415610a52576040517f08c379a0000000000000000000000000000000000000000000000000000000008152600401610a499061200c565b60405180910390fd5b60018160000160019054906101000a900460ff1660ff1614610aa9576040517f08c379a0000000000000000000000000000000000000000000000000000000008152600401610aa090612078565b60405180910390fd5b828160020160006101000a81548173ffffffffffffffffffffffffffffffffffffffff021916908373ffffffffffffffffffffffffffffffffffffffff16021790555060028160000160016101000a81548160ff021916908360ff1602179055507f8cea5d2076b43b9c3ca802f2886a2c0deb90f51e2fe119ae2ac620db18bf23cd858585604051610b3d93929190612098565b60405180910390a160019150509392505050565b6001602052816000526040600020602052806000526040600020600091509150508060000160009054906101000a900460ff16908060000160019054906101000a900460ff16908060000160029054906101000a900460ff16908060000160039054906101000a900473ffffffffffffffffffffffffffffffffffffffff16908060010154908060020160009054906101000a900473ffffffffffffffffffffffffffffffffffffffff16908060040160009054906101000a900460ff16905087565b600080600260009054906101000a900473ffffffffffffffffffffffffffffffffffffffff169050600115158173ffffffffffffffffffffffffffffffffffffffff166323ba78fe33886040518363ffffffff1660e01b8152600401610c7b929190611df5565b602060405180830381865afa158015610c98573d6000803e3d6000fd5b505050506040513d601f19601f82011682018060405250810190610cbc9190611e4a565b151514610cfe576040517f08c379a0000000000000000000000000000000000000000000000000000000008152600401610cf59061211b565b60405180910390fd5b6000600160008760ff1681526020019081526020016000206000868152602001908152602001600020905060008160000160019054906101000a900460ff1660ff1611610d80576040517f08c379a0000000000000000000000000000000000000000000000000000000008152600401610d7790611fa0565b60405180910390fd5b8060000160039054906101000a900473ffffffffffffffffffffffffffffffffffffffff1673ffffffffffffffffffffffffffffffffffffffff163373ffffffffffffffffffffffffffffffffffffffff1614610e12576040517f08c379a0000000000000000000000000000000000000000000000000000000008152600401610e0990612187565b60405180910390fd5b60018160000160019054906101000a900460ff1660ff1614610e69576040517f08c379a0000000000000000000000000000000000000000000000000000000008152600401610e6090612078565b60405180910390fd5b60008460ff1611610eaf576040517f08c379a0000000000000000000000000000000000000000000000000000000008152600401610ea6906121f3565b60405180910390fd5b8060000160029054906101000a900460ff1660ff168460ff1610610f08576040517f08c379a0000000000000000000000000000000000000000000000000000000008152600401610eff906121f3565b60405180910390fd5b838160000160029054906101000a900460ff16610f259190612213565b8160000160026101000a81548160ff021916908360ff160217905550600060018760ff1642610f549190611ee3565b610f5e9190611ee3565b9050600081604051602001610f739190611f39565b6040516020818303038152906040528051906020012090506000600160008a60ff16815260200190815260200160002060008381526020019081526020016000209050868160000160026101000a81548160ff021916908360ff160217905550888160000160006101000a81548160ff021916908360ff160217905550338160000160036101000a81548173ffffffffffffffffffffffffffffffffffffffff021916908373ffffffffffffffffffffffffffffffffffffffff16021790555060018160000160016101000a81548160ff021916908360ff1602179055504281600101819055508360040160009054906101000a900460ff168160040160006101000a81548160ff021916908360ff16021790555081955050505050509392505050565b600360009054906101000a900473ffffffffffffffffffffffffffffffffffffffff1673ffffffffffffffffffffffffffffffffffffffff163373ffffffffffffffffffffffffffffffffffffffff1614611127576040517f08c379a000000000000000000000000000000000000000000000000000000000815260040161111e90612293565b60405180910390fd5b80600260006101000a81548173ffffffffffffffffffffffffffffffffffffffff021916908373ffffffffffffffffffffffffffffffffffffffff16021790555050565b600080600080600080600160008960ff1681526020019081526020016000206000888152602001908152602001600020905060008160000160019054906101000a900460ff1660ff16116111f4576040517f08c379a00000000000000000000000000000000000000000000000000000000081526004016111eb90611fa0565b60405180910390fd5b8060000160019054906101000a900460ff168160000160029054906101000a900460ff168260000160039054906101000a900473ffffffffffffffffffffffffffffffffffffffff168360020160009054906101000a900473ffffffffffffffffffffffffffffffffffffffff168460040160009054906101000a900460ff1695509550955095509550509295509295909350565b60005b82518110156112e7576112d48382815181106112ab576112aa6122b3565b5b60200260200101518383815181106112c6576112c56122b3565b5b6020026020010151336112ec565b80806112df906122e2565b91505061128c565b505050565b6000600160008560ff168152602001908152602001600020600084815260200190815260200160002090508060020160009054906101000a900473ffffffffffffffffffffffffffffffffffffffff1673ffffffffffffffffffffffffffffffffffffffff168273ffffffffffffffffffffffffffffffffffffffff16146113a9576040517f08c379a00000000000000000000000000000000000000000000000000000000081526004016113a090611cd9565b60405180910390fd5b60028160000160019054906101000a900460ff1660ff1614611400576040517f08c379a00000000000000000000000000000000000000000000000000000000081526004016113f790611d45565b60405180910390fd5b600081600301600083600401600081819054906101000a900460ff168092919061142990611d94565b91906101000a81548160ff021916908360ff16021790555060ff1660ff16815260200190815260200160002090508160000160039054906101000a900473ffffffffffffffffffffffffffffffffffffffff168160000160006101000a81548173ffffffffffffffffffffffffffffffffffffffff021916908373ffffffffffffffffffffffffffffffffffffffff160217905550428160010181905550338260000160036101000a81548173ffffffffffffffffffffffffffffffffffffffff021916908373ffffffffffffffffffffffffffffffffffffffff16021790555060008260020160006101000a81548173ffffffffffffffffffffffffffffffffffffffff021916908373ffffffffffffffffffffffffffffffffffffffff16021790555060018260000160016101000a81548160ff021916908360ff1602179055507f28c2fc82a315964355e85116aa4efe05be832fe8508d813e582bf94e9b826e9b84338760405161159f93929190611dbe565b60405180910390a15050505050565b6000604051905090565b600080fd5b600080fd5b600060ff82169050919050565b6115d8816115c2565b81146115e357600080fd5b50565b6000813590506115f5816115cf565b92915050565b6000819050919050565b61160e816115fb565b811461161957600080fd5b50565b60008135905061162b81611605565b92915050565b60008060408385031215611648576116476115b8565b5b6000611656858286016115e6565b92505060206116678582860161161c565b9150509250929050565b60008115159050919050565b61168681611671565b82525050565b60006020820190506116a1600083018461167d565b92915050565b600080604083850312156116be576116bd6115b8565b5b60006116cc858286016115e6565b92505060206116dd858286016115e6565b9150509250929050565b6116f0816115fb565b82525050565b600060208201905061170b60008301846116e7565b92915050565b600073ffffffffffffffffffffffffffffffffffffffff82169050919050565b600061173c82611711565b9050919050565b61174c81611731565b82525050565b60006020820190506117676000830184611743565b92915050565b61177681611731565b811461178157600080fd5b50565b6000813590506117938161176d565b92915050565b6000806000606084860312156117b2576117b16115b8565b5b60006117c0868287016115e6565b93505060206117d18682870161161c565b92505060406117e286828701611784565b9150509250925092565b6000819050919050565b6117ff816117ec565b811461180a57600080fd5b50565b60008135905061181c816117f6565b92915050565b60008060408385031215611839576118386115b8565b5b60006118478582860161180d565b92505060206118588582860161161c565b9150509250929050565b61186b816115c2565b82525050565b61187a816117ec565b82525050565b600060e082019050611895600083018a611862565b6118a26020830189611862565b6118af6040830188611862565b6118bc6060830187611743565b6118c96080830186611871565b6118d660a0830185611743565b6118e360c0830184611862565b98975050505050505050565b600080600060608486031215611908576119076115b8565b5b6000611916868287016115e6565b93505060206119278682870161161c565b9250506040611938868287016115e6565b9150509250925092565b600060208284031215611958576119576115b8565b5b600061196684828501611784565b91505092915050565b600060a0820190506119846000830188611862565b6119916020830187611862565b61199e6040830186611743565b6119ab6060830185611743565b6119b86080830184611862565b9695505050505050565b600080fd5b6000601f19601f8301169050919050565b7f4e487b7100000000000000000000000000000000000000000000000000000000600052604160045260246000fd5b611a10826119c7565b810181811067ffffffffffffffff82111715611a2f57611a2e6119d8565b5b80604052505050565b6000611a426115ae565b9050611a4e8282611a07565b919050565b600067ffffffffffffffff821115611a6e57611a6d6119d8565b5b602082029050602081019050919050565b600080fd5b6000611a97611a9284611a53565b611a38565b90508083825260208201905060208402830185811115611aba57611ab9611a7f565b5b835b81811015611ae35780611acf88826115e6565b845260208401935050602081019050611abc565b5050509392505050565b600082601f830112611b0257611b016119c2565b5b8135611b12848260208601611a84565b91505092915050565b600067ffffffffffffffff821115611b3657611b356119d8565b5b602082029050602081019050919050565b6000611b5a611b5584611b1b565b611a38565b90508083825260208201905060208402830185811115611b7d57611b7c611a7f565b5b835b81811015611ba65780611b92888261161c565b845260208401935050602081019050611b7f565b5050509392505050565b600082601f830112611bc557611bc46119c2565b5b8135611bd5848260208601611b47565b91505092915050565b60008060408385031215611bf557611bf46115b8565b5b600083013567ffffffffffffffff811115611c1357611c126115bd565b5b611c1f85828601611aed565b925050602083013567ffffffffffffffff811115611c4057611c3f6115bd565b5b611c4c85828601611bb0565b9150509250929050565b600082825260208201905092915050565b7f596f7520617265206e6f7420616c6c6f7765642c20646966666572656e74207360008201527f656e646572207468616e20686f6c646572000000000000000000000000000000602082015250565b6000611cc3603183611c56565b9150611cce82611c67565b604082019050919050565b60006020820190508181036000830152611cf281611cb6565b9050919050565b7f546f6b656e20616c726561647920726563656976656400000000000000000000600082015250565b6000611d2f601683611c56565b9150611d3a82611cf9565b602082019050919050565b60006020820190508181036000830152611d5e81611d22565b9050919050565b7f4e487b7100000000000000000000000000000000000000000000000000000000600052601160045260246000fd5b6000611d9f826115c2565b915060ff821415611db357611db2611d65565b5b600182019050919050565b6000606082019050611dd360008301866116e7565b611de06020830185611743565b611ded6040830184611862565b949350505050565b6000604082019050611e0a6000830185611743565b611e176020830184611862565b9392505050565b611e2781611671565b8114611e3257600080fd5b50565b600081519050611e4481611e1e565b92915050565b600060208284031215611e6057611e5f6115b8565b5b6000611e6e84828501611e35565b91505092915050565b7f4e6f207065726d20746f206d696e740000000000000000000000000000000000600082015250565b6000611ead600f83611c56565b9150611eb882611e77565b602082019050919050565b60006020820190508181036000830152611edc81611ea0565b9050919050565b6000611eee826117ec565b9150611ef9836117ec565b9250827fffffffffffffffffffffffffffffffffffffffffffffffffffffffffffffffff03821115611f2e57611f2d611d65565b5b828201905092915050565b6000602082019050611f4e6000830184611871565b92915050565b7f4e6f6e206578697374656e7420746f6b656e0000000000000000000000000000600082015250565b6000611f8a601283611c56565b9150611f9582611f54565b602082019050919050565b60006020820190508181036000830152611fb981611f7d565b9050919050565b7f596f7520617265206e6f7420616c6c6f77656400000000000000000000000000600082015250565b6000611ff6601383611c56565b915061200182611fc0565b602082019050919050565b6000602082019050818103600083015261202581611fe9565b9050919050565b7f546f6b656e20737461747573206e6f7420726561647900000000000000000000600082015250565b6000612062601683611c56565b915061206d8261202c565b602082019050919050565b6000602082019050818103600083015261209181612055565b9050919050565b60006060820190506120ad6000830186611862565b6120ba60208301856116e7565b6120c76040830184611743565b949350505050565b7f4e6f207065726d20746f2073706c697400000000000000000000000000000000600082015250565b6000612105601083611c56565b9150612110826120cf565b602082019050919050565b60006020820190508181036000830152612134816120f8565b9050919050565b7f596f7520617265206e6f7720616c6c6f77656400000000000000000000000000600082015250565b6000612171601383611c56565b915061217c8261213b565b602082019050919050565b600060208201905081810360008301526121a081612164565b9050919050565b7f496e76616c69642073706c697420616d6f756e74000000000000000000000000600082015250565b60006121dd601483611c56565b91506121e8826121a7565b602082019050919050565b6000602082019050818103600083015261220c816121d0565b9050919050565b600061221e826115c2565b9150612229836115c2565b92508282101561223c5761223b611d65565b5b828203905092915050565b7f4f6e6c792061646d696e2063616e20736574207065726d730000000000000000600082015250565b600061227d601883611c56565b915061228882612247565b602082019050919050565b600060208201905081810360008301526122ac81612270565b9050919050565b7f4e487b7100000000000000000000000000000000000000000000000000000000600052603260045260246000fd5b60006122ed826117ec565b91507fffffffffffffffffffffffffffffffffffffffffffffffffffffffffffffffff8214156123205761231f611d65565b5b60018201905091905056fea26469706673582212209c860f31a9e3e2edda7cceb719a20477438d91effa12104e07082490c3f6338b64736f6c634300080a0033",
  "immutableReferences": {},
  "source": "// SPDX-License-Identifier: GPL-3.0\n\npragma solidity >=0.7.0 <0.9.0;\n\nimport \"./Management.sol\";\n\n/**\n * @title FoodChainMonitoring\n * @dev Store & retrieve value in a variable\n */\ncontract Tracking {\n    // debug\n    event test_value(address indexed value1);\n    event test_uint8(uint8 indexed value1);\n    event _eTransferToken(\n        uint8 _ingridientID,\n        bytes32 _tokenHash,\n        address _receiver\n    );\n    event _exposeMintedTokenHash(\n        bytes32 tokenhash,\n        address owner,\n        uint8 _ingridientID\n    );\n\n    struct HoldersMapping {\n        address holderAddress;\n        uint256 timestamp;\n    }\n\n    struct FCToken {\n        uint8 ingridientID;\n        uint8 status;\n        uint8 amount;\n        address holder;\n        uint256 minted_on;\n        address pending_holder;\n        mapping(uint8 => HoldersMapping) past_holders;\n        uint8 past_holders_length;\n    }\n\n    mapping(uint256 => bytes32) ingridient_tokens;\n    mapping(uint256 => mapping(bytes32 => FCToken)) public tokens;\n    address management_sc;\n    address admin;\n\n    constructor() {\n        admin = msg.sender;\n    }\n\n    function set_management_sc(address _msc) public {\n        require(msg.sender == admin, \"Only admin can set perms\");\n        management_sc = _msc;\n    }\n\n    function get_management_sc() public view returns (address) {\n        return management_sc;\n    }\n\n    function mint_token(uint8 _ingridientID, uint8 _amount)\n        public\n        returns (bytes32)\n    {\n        // create check method to verify the generation is valid\n        Management m = Management(management_sc);\n        require(\n            m.get_perm_mint(msg.sender, _ingridientID) == true,\n            \"No perm to mint\"\n        );\n\n        uint256 toHash = block.timestamp + _ingridientID;\n        bytes32 tokenHash = keccak256(abi.encode(toHash));\n        FCToken storage theToken = tokens[_ingridientID][tokenHash];\n\n        theToken.amount = _amount;\n        theToken.ingridientID = _ingridientID;\n        theToken.holder = msg.sender;\n        theToken.status = 1; // 1 = ready, 2 = transfer_pending, 3 = packed\n        theToken.minted_on = block.timestamp;\n        theToken.past_holders_length = 0;\n        ingridient_tokens[_ingridientID] = tokenHash;\n        // token_hashes[tokenHash] = theToken; while the init is on memory\n\n        emit test_value(theToken.holder);\n        emit _exposeMintedTokenHash(tokenHash, theToken.holder, _ingridientID);\n\n        return tokenHash; // hash has to be generated by ingridient ID, first holder and timestamp\n    }\n\n    function transfer_token(\n        uint8 _ingridientID,\n        bytes32 _tokenHash,\n        address _receiver\n    ) public returns (bool) {\n        FCToken storage tkn = tokens[_ingridientID][_tokenHash];\n        require(tkn.status > 0, \"Non existent token\");\n        emit test_value(tkn.holder);\n        require(msg.sender == tkn.holder, \"You are not allowed\"); // Check that the tx.sender is the owner of the token\n        require(msg.sender != _receiver, \"You are not allowed\"); // Check that the tx.sender is the owner of the token\n        require(tkn.status == 1, \"Token status not ready\"); // check the state of the token (it has to be ready)\n        // check that the tx.sender can transfer such ingridient\n\n        // set pending_holder to receiver\n        tkn.pending_holder = _receiver;\n\n        // set the status -> transfer_pending\n        tkn.status = 2;\n\n        // emit event to receiver\n        emit _eTransferToken(_ingridientID, _tokenHash, _receiver);\n\n        return true;\n    }\n\n    function receive_token(uint8 _ingridientID, bytes32 _tokenHash)\n        public\n        returns (bool)\n    {\n        FCToken storage tkn = tokens[_ingridientID][_tokenHash];\n        require(msg.sender == tkn.pending_holder, \"You are not allowed, different sender than holder\");\n        require(tkn.status == 2, \"Token already received\");\n\n        HoldersMapping storage hmap = tkn.past_holders[\n            tkn.past_holders_length++\n        ]; // stupid syntax -> https://ethereum.stackexchange.com/questions/87451/solidity-error-struct-containing-a-nested-mapping-cannot-be-constructed\n        hmap.holderAddress = tkn.holder;\n        hmap.timestamp = block.timestamp;\n        tkn.holder = msg.sender;\n        tkn.pending_holder = address(0);\n        tkn.status = 1;\n\n        emit _exposeMintedTokenHash(_tokenHash, msg.sender, _ingridientID);\n\n        return true;\n    }\n\n    function private_receive_token(uint8 _ingridientID, bytes32 _tokenHash, address _sender)\n        private\n    {\n        FCToken storage tkn = tokens[_ingridientID][_tokenHash];\n        require(_sender == tkn.pending_holder, \"You are not allowed, different sender than holder\");\n        require(tkn.status == 2, \"Token already received\");\n\n        HoldersMapping storage hmap = tkn.past_holders[\n            tkn.past_holders_length++\n        ]; // stupid syntax -> https://ethereum.stackexchange.com/questions/87451/solidity-error-struct-containing-a-nested-mapping-cannot-be-constructed\n        hmap.holderAddress = tkn.holder;\n        hmap.timestamp = block.timestamp;\n        tkn.holder = msg.sender;\n        tkn.pending_holder = address(0);\n        tkn.status = 1;\n\n        emit _exposeMintedTokenHash(_tokenHash, msg.sender, _ingridientID);\n    }\n\n    function receive_tokens(uint8[] memory _ingridientID, bytes32[] memory _tokenHash)\n        public\n        payable\n    {\n        for (uint256 i = 0; i < _ingridientID.length; i++) {\n            private_receive_token(_ingridientID[i], _tokenHash[i], msg.sender);\n        }\n    }\n\n    function split_token(\n        uint8 _ingridientID,\n        bytes32 _tokenHash,\n        uint8 _amount\n    ) public returns (bytes32) {\n        Management m = Management(management_sc);\n        require(\n            m.get_perm_split(msg.sender, _ingridientID) == true,\n            \"No perm to split\"\n        ); // to be implemented\n        FCToken storage tkn = tokens[_ingridientID][_tokenHash];\n        require(tkn.status > 0, \"Non existent token\");\n        //emit test_value(tkn.holder);\n        require(msg.sender == tkn.holder, \"You are now allowed\"); // Check that the tx.sender is the owner of the token\n        require(tkn.status == 1, \"Token status not ready\"); // check the state of the token (it has to be ready)\n        require(_amount > 0, \"Invalid split amount\");\n        require(_amount < tkn.amount, \"Invalid split amount\");\n        tkn.amount = tkn.amount - _amount;\n\n        uint256 toHash = block.timestamp + _ingridientID + 1; //block.timestamp + _ingridientID is the same in the same block\n        bytes32 tokenHash = keccak256(abi.encode(toHash));\n        FCToken storage ntkn = tokens[_ingridientID][tokenHash];\n\n        ntkn.amount = _amount;\n        ntkn.ingridientID = _ingridientID;\n        ntkn.holder = msg.sender;\n        ntkn.status = 1; // 1 = ready, 2 = transfer_pending, 3 = packed\n        ntkn.minted_on = block.timestamp;\n        ntkn.past_holders_length = tkn.past_holders_length;\n        //ntkn.past_holders = tkn.past_holders;\n\n        return tokenHash;\n    }\n\n    function getTokenData(uint8 _ingridientID, bytes32 _tokenHash)\n        public\n        view\n        returns (\n            uint8,\n            uint8,\n            address,\n            address,\n            uint8\n        )\n    {\n        FCToken storage tkn = tokens[_ingridientID][_tokenHash];\n        require(tkn.status > 0, \"Non existent token\");\n\n        return (\n            tkn.status,\n            tkn.amount,\n            tkn.holder,\n            tkn.pending_holder,\n            tkn.past_holders_length\n        );\n    }\n}\n",
  "sourcePath": "E:\\MyWork\\AETHER\\blockchain_spathoulas_2021\\smartcontract\\contracts\\Tracking.sol",
  "compiler": {
    "name": "solc",
    "version": "0.8.10+commit.fc410830.Emscripten.clang"
  },
  "schemaVersion": "3.4.3",
  "updatedAt": "2021-12-27T16:53:36.301Z",
  "networkType": "ethereum",
  "devdoc": {
    "details": "Store & retrieve value in a variable",
    "kind": "dev",
    "methods": {},
    "title": "FoodChainMonitoring",
    "version": 1
  },
  "userdoc": {
    "kind": "user",
    "methods": {},
    "version": 1
  }
}