{
  "contractName": "Tracking",
  "abi": [
    {
      "inputs": [],
      "stateMutability": "nonpayable",
      "type": "constructor"
    },
    {
      "anonymous": false,
      "inputs": [
        {
          "indexed": true,
          "internalType": "address",
          "name": "holder",
          "type": "address"
        },
        {
          "indexed": false,
          "internalType": "bytes32",
          "name": "packHash",
          "type": "bytes32"
        }
      ],
      "name": "PackCreated",
      "type": "event"
    },
    {
      "anonymous": false,
      "inputs": [
        {
          "indexed": true,
          "internalType": "address",
          "name": "holder",
          "type": "address"
        },
        {
          "indexed": false,
          "internalType": "bytes32",
          "name": "tokenHash",
          "type": "bytes32"
        },
        {
          "indexed": false,
          "internalType": "uint256",
          "name": "amount",
          "type": "uint256"
        },
        {
          "indexed": false,
          "internalType": "uint8",
          "name": "ingredientID",
          "type": "uint8"
        },
        {
          "indexed": false,
          "internalType": "uint256",
          "name": "mintedOn",
          "type": "uint256"
        }
      ],
      "name": "TokenMinted",
      "type": "event"
    },
    {
      "anonymous": false,
      "inputs": [
        {
          "indexed": true,
          "internalType": "bytes32",
          "name": "tokenHash",
          "type": "bytes32"
        },
        {
          "indexed": true,
          "internalType": "address",
          "name": "from",
          "type": "address"
        },
        {
          "indexed": true,
          "internalType": "address",
          "name": "to",
          "type": "address"
        },
        {
          "indexed": false,
          "internalType": "uint256",
          "name": "timestamp",
          "type": "uint256"
        }
      ],
      "name": "TokenTransferred",
      "type": "event"
    },
    {
      "inputs": [
        {
          "internalType": "address",
          "name": "_msc",
          "type": "address"
        }
      ],
      "name": "set_management_sc",
      "outputs": [],
      "stateMutability": "nonpayable",
      "type": "function"
    },
    {
      "inputs": [],
      "name": "get_management_sc",
      "outputs": [
        {
          "internalType": "address",
          "name": "",
          "type": "address"
        }
      ],
      "stateMutability": "view",
      "type": "function",
      "constant": true
    },
    {
      "inputs": [
        {
          "internalType": "uint8",
          "name": "_ingridientID",
          "type": "uint8"
        },
        {
          "internalType": "uint256",
          "name": "_amount",
          "type": "uint256"
        }
      ],
      "name": "mint_token",
      "outputs": [
        {
          "internalType": "bytes32",
          "name": "",
          "type": "bytes32"
        }
      ],
      "stateMutability": "nonpayable",
      "type": "function"
    },
    {
      "inputs": [
        {
          "internalType": "bytes32",
          "name": "_tokenHash",
          "type": "bytes32"
        },
        {
          "internalType": "address",
          "name": "_receiver",
          "type": "address"
        }
      ],
      "name": "transfer_token",
      "outputs": [
        {
          "internalType": "bool",
          "name": "",
          "type": "bool"
        }
      ],
      "stateMutability": "nonpayable",
      "type": "function"
    },
    {
      "inputs": [
        {
          "internalType": "bytes32",
          "name": "_tokenHash",
          "type": "bytes32"
        }
      ],
      "name": "receive_token",
      "outputs": [
        {
          "internalType": "bool",
          "name": "",
          "type": "bool"
        }
      ],
      "stateMutability": "nonpayable",
      "type": "function"
    },
    {
      "inputs": [
        {
          "internalType": "bytes32[]",
          "name": "_tokenHash",
          "type": "bytes32[]"
        }
      ],
      "name": "receive_tokens",
      "outputs": [],
      "stateMutability": "payable",
      "type": "function",
      "payable": true
    },
    {
      "inputs": [
        {
          "internalType": "uint8",
          "name": "_ingridientID",
          "type": "uint8"
        },
        {
          "internalType": "bytes32",
          "name": "_tokenHash",
          "type": "bytes32"
        },
        {
          "internalType": "uint256",
          "name": "_amount",
          "type": "uint256"
        }
      ],
      "name": "split_token",
      "outputs": [
        {
          "internalType": "bytes32",
          "name": "",
          "type": "bytes32"
        }
      ],
      "stateMutability": "nonpayable",
      "type": "function"
    },
    {
      "inputs": [
        {
          "internalType": "bytes32",
          "name": "_tokenHash",
          "type": "bytes32"
        }
      ],
      "name": "getTokenData",
      "outputs": [
        {
          "internalType": "uint8",
          "name": "",
          "type": "uint8"
        },
        {
          "internalType": "uint8",
          "name": "",
          "type": "uint8"
        },
        {
          "internalType": "uint256",
          "name": "",
          "type": "uint256"
        },
        {
          "internalType": "address",
          "name": "",
          "type": "address"
        },
        {
          "internalType": "address",
          "name": "",
          "type": "address"
        },
        {
          "internalType": "uint256",
          "name": "",
          "type": "uint256"
        },
        {
          "internalType": "uint256",
          "name": "",
          "type": "uint256"
        }
      ],
      "stateMutability": "view",
      "type": "function",
      "constant": true
    },
    {
      "inputs": [
        {
          "internalType": "bytes32[]",
          "name": "_tokenHash",
          "type": "bytes32[]"
        },
        {
          "internalType": "address",
          "name": "_sender",
          "type": "address"
        }
      ],
      "name": "pack",
      "outputs": [
        {
          "internalType": "bytes32",
          "name": "",
          "type": "bytes32"
        }
      ],
      "stateMutability": "payable",
      "type": "function",
      "payable": true
    },
    {
      "inputs": [
        {
          "internalType": "uint256",
          "name": "_totalPacks",
          "type": "uint256"
        },
        {
          "internalType": "bytes32[]",
          "name": "_tokenHashes",
          "type": "bytes32[]"
        },
        {
          "internalType": "uint256[]",
          "name": "_quantities",
          "type": "uint256[]"
        }
      ],
      "name": "createSuperPack",
      "outputs": [
        {
          "internalType": "bytes32[]",
          "name": "",
          "type": "bytes32[]"
        }
      ],
      "stateMutability": "payable",
      "type": "function",
      "payable": true
    },
    {
      "inputs": [
        {
          "internalType": "bytes32",
          "name": "_packAddress",
          "type": "bytes32"
        }
      ],
      "name": "viewPack",
      "outputs": [
        {
          "internalType": "uint256",
          "name": "",
          "type": "uint256"
        },
        {
          "internalType": "bytes32[]",
          "name": "",
          "type": "bytes32[]"
        }
      ],
      "stateMutability": "view",
      "type": "function",
      "constant": true
    },
    {
      "inputs": [
        {
          "internalType": "address",
          "name": "_owner",
          "type": "address"
        }
      ],
      "name": "getUserPendingTokens",
      "outputs": [
        {
          "internalType": "bytes32[]",
          "name": "",
          "type": "bytes32[]"
        }
      ],
      "stateMutability": "view",
      "type": "function",
      "constant": true
    },
    {
      "inputs": [
        {
          "internalType": "address",
          "name": "_owner",
          "type": "address"
        }
      ],
      "name": "getUserTokens",
      "outputs": [
        {
          "internalType": "bytes32[]",
          "name": "",
          "type": "bytes32[]"
        }
      ],
      "stateMutability": "view",
      "type": "function",
      "constant": true
    },
    {
      "inputs": [
        {
          "internalType": "address",
          "name": "_owner",
          "type": "address"
        }
      ],
      "name": "getUserPacks",
      "outputs": [
        {
          "internalType": "bytes32[]",
          "name": "",
          "type": "bytes32[]"
        }
      ],
      "stateMutability": "view",
      "type": "function",
      "constant": true
    },
    {
      "inputs": [
        {
          "internalType": "address",
          "name": "_owner",
          "type": "address"
        }
      ],
      "name": "getUserSuperPacks",
      "outputs": [
        {
          "internalType": "bytes32[]",
          "name": "",
          "type": "bytes32[]"
        }
      ],
      "stateMutability": "view",
      "type": "function",
      "constant": true
    },
    {
      "inputs": [
        {
          "internalType": "bytes32",
          "name": "_superPackHash",
          "type": "bytes32"
        }
      ],
      "name": "getSuperPackMapping",
      "outputs": [
        {
          "internalType": "bytes32[]",
          "name": "",
          "type": "bytes32[]"
        }
      ],
      "stateMutability": "view",
      "type": "function",
      "constant": true
    },
    {
      "inputs": [
        {
          "internalType": "bytes32",
          "name": "_tokenHash",
          "type": "bytes32"
        }
      ],
      "name": "getTokenPastHolders",
      "outputs": [
        {
          "internalType": "address[]",
          "name": "",
          "type": "address[]"
        }
      ],
      "stateMutability": "view",
      "type": "function",
      "constant": true
    }
  ],
  "bytecode": "0x608060405234801561001057600080fd5b5033600960006101000a81548173ffffffffffffffffffffffffffffffffffffffff021916908373ffffffffffffffffffffffffffffffffffffffff160217905550613e06806100616000396000f3fe6080604052600436106100fe5760003560e01c80638cb3a9a3116100955780639a124597116100645780639a124597146103b2578063bb6a81e4146103ef578063bced79291461042c578063c75eb8391461045c578063e4b49bba14610478576100fe565b80638cb3a9a3146102d25780638f2fec081461030f57806391c6bbc01461034c5780639627766914610389576100fe565b8063519dc8d2116100d1578063519dc8d2146101d857806356e432b4146102155780635a5dcd2314610258578063755fa90814610295576100fe565b8063210735971461010357806325b716b21461012e57806349831dea1461016b578063509a7399146101a8575b600080fd5b34801561010f57600080fd5b506101186104b6565b6040516101259190612c9f565b60405180910390f35b34801561013a57600080fd5b5061015560048036038101906101509190612cfa565b6104e0565b6040516101629190612def565b60405180910390f35b34801561017757600080fd5b50610192600480360381019061018d9190612e80565b610577565b60405161019f9190612ecf565b60405180910390f35b6101c260048036038101906101bd919061306f565b6108f1565b6040516101cf9190612ecf565b60405180910390f35b3480156101e457600080fd5b506101ff60048036038101906101fa9190612cfa565b610c84565b60405161020c9190612def565b60405180910390f35b34801561022157600080fd5b5061023c600480360381019061023791906130cb565b610d1b565b60405161024f9796959493929190613116565b60405180910390f35b34801561026457600080fd5b5061027f600480360381019061027a91906130cb565b610e29565b60405161028c9190612def565b60405180910390f35b3480156102a157600080fd5b506102bc60048036038101906102b79190613185565b610e94565b6040516102c991906131e0565b60405180910390f35b3480156102de57600080fd5b506102f960048036038101906102f49190612cfa565b61119b565b6040516103069190612def565b60405180910390f35b34801561031b57600080fd5b5061033660048036038101906103319190612cfa565b611232565b6040516103439190612def565b60405180910390f35b34801561035857600080fd5b50610373600480360381019061036e91906131fb565b6112c9565b6040516103809190612ecf565b60405180910390f35b34801561039557600080fd5b506103b060048036038101906103ab9190612cfa565b6117b4565b005b3480156103be57600080fd5b506103d960048036038101906103d491906130cb565b611888565b6040516103e691906131e0565b60405180910390f35b3480156103fb57600080fd5b50610416600480360381019061041191906130cb565b611e62565b604051610423919061330c565b60405180910390f35b610446600480360381019061044191906133f1565b611fd5565b6040516104539190612def565b60405180910390f35b6104766004803603810190610471919061347c565b612593565b005b34801561048457600080fd5b5061049f600480360381019061049a91906130cb565b6125da565b6040516104ad9291906134c5565b60405180910390f35b6000600860009054906101000a900473ffffffffffffffffffffffffffffffffffffffff16905090565b6060600460008373ffffffffffffffffffffffffffffffffffffffff1673ffffffffffffffffffffffffffffffffffffffff16815260200190815260200160002080548060200260200160405190810160405280929190818152602001828054801561056b57602002820191906000526020600020905b815481526020019060010190808311610557575b50505050509050919050565b600080600860009054906101000a900473ffffffffffffffffffffffffffffffffffffffff169050600115158173ffffffffffffffffffffffffffffffffffffffff1663a859e61433876040518363ffffffff1660e01b81526004016105de9291906134f5565b602060405180830381865afa1580156105fb573d6000803e3d6000fd5b505050506040513d601f19601f8201168201806040525081019061061f919061354a565b151514610661576040517f08c379a0000000000000000000000000000000000000000000000000000000008152600401610658906135d4565b60405180910390fd5b600760003373ffffffffffffffffffffffffffffffffffffffff1673ffffffffffffffffffffffffffffffffffffffff16815260200190815260200160002060008154809291906106b190613623565b919050555060008460ff16426106c7919061366c565b9050600033600760003373ffffffffffffffffffffffffffffffffffffffff1673ffffffffffffffffffffffffffffffffffffffff168152602001908152602001600020548360405160200161071f939291906136c2565b60405160208183030381529060405280519060200120905060008060008381526020019081526020016000209050858160010181905550868160000160006101000a81548160ff021916908360ff160217905550338160020160006101000a81548173ffffffffffffffffffffffffffffffffffffffff021916908373ffffffffffffffffffffffffffffffffffffffff160217905550338160030160006101000a81548173ffffffffffffffffffffffffffffffffffffffff021916908373ffffffffffffffffffffffffffffffffffffffff16021790555060018160000160016101000a81548160ff021916908360ff16021790555042816004018190555060008160080181905550600160003373ffffffffffffffffffffffffffffffffffffffff1673ffffffffffffffffffffffffffffffffffffffff1681526020019081526020016000208290806001815401808255809150506001900390600052602060002001600090919091909150553373ffffffffffffffffffffffffffffffffffffffff167f209445772d96edf9b06c44832f7e7bc8bd3a58851753d479d578b1d2681e58fd83888a426040516108dc94939291906136f9565b60405180910390a28194505050505092915050565b600080600090505b8351811015610a2f57600080600086848151811061091a5761091961373e565b5b6020026020010151815260200190815260200160002090508060020160009054906101000a900473ffffffffffffffffffffffffffffffffffffffff1673ffffffffffffffffffffffffffffffffffffffff168473ffffffffffffffffffffffffffffffffffffffff16146109c4576040517f08c379a00000000000000000000000000000000000000000000000000000000081526004016109bb906137df565b60405180910390fd5b60018160000160019054906101000a900460ff1660ff1614610a1b576040517f08c379a0000000000000000000000000000000000000000000000000000000008152600401610a129061384b565b60405180910390fd5b508080610a2790613623565b9150506108f9565b50600760003373ffffffffffffffffffffffffffffffffffffffff1673ffffffffffffffffffffffffffffffffffffffff1681526020019081526020016000206000815480929190610a8090613623565b91905055506000600142610a94919061366c565b9050600033600760003373ffffffffffffffffffffffffffffffffffffffff1673ffffffffffffffffffffffffffffffffffffffff1681526020019081526020016000205483604051602001610aec939291906136c2565b6040516020818303038152906040528051906020012090506000600360008381526020019081526020016000209050848160000160006101000a81548173ffffffffffffffffffffffffffffffffffffffff021916908373ffffffffffffffffffffffffffffffffffffffff16021790555060005b8651811015610c11576000806000898481518110610b8257610b8161373e565b5b60200260200101518152602001908152602001600020905060038160000160016101000a81548160ff021916908360ff16021790555082600101888381518110610bcf57610bce61373e565b5b60200260200101519080600181540180825580915050600190039060005260206000200160009091909190915055508080610c0990613623565b915050610b61565b50600460003373ffffffffffffffffffffffffffffffffffffffff1673ffffffffffffffffffffffffffffffffffffffff16815260200190815260200160002082908060018154018082558091505060019003906000526020600020016000909190919091505581935050505092915050565b6060600160008373ffffffffffffffffffffffffffffffffffffffff1673ffffffffffffffffffffffffffffffffffffffff168152602001908152602001600020805480602002602001604051908101604052809291908181526020018280548015610d0f57602002820191906000526020600020905b815481526020019060010190808311610cfb575b50505050509050919050565b6000806000806000806000806000808a8152602001908152602001600020905060008160000160019054906101000a900460ff1660ff1611610d92576040517f08c379a0000000000000000000000000000000000000000000000000000000008152600401610d89906138b7565b60405180910390fd5b8060000160009054906101000a900460ff168160000160019054906101000a900460ff1682600101548360020160009054906101000a900473ffffffffffffffffffffffffffffffffffffffff168460060160009054906101000a900473ffffffffffffffffffffffffffffffffffffffff1685600801548660040154975097509750975097509750975050919395979092949650565b606060066000838152602001908152602001600020805480602002602001604051908101604052809291908181526020018280548015610e8857602002820191906000526020600020905b815481526020019060010190808311610e74575b50505050509050919050565b600080600080858152602001908152602001600020905060008160000160019054906101000a900460ff1660ff1611610f02576040517f08c379a0000000000000000000000000000000000000000000000000000000008152600401610ef9906138b7565b60405180910390fd5b8060020160009054906101000a900473ffffffffffffffffffffffffffffffffffffffff1673ffffffffffffffffffffffffffffffffffffffff163373ffffffffffffffffffffffffffffffffffffffff1614610f94576040517f08c379a0000000000000000000000000000000000000000000000000000000008152600401610f8b90613923565b60405180910390fd5b8273ffffffffffffffffffffffffffffffffffffffff163373ffffffffffffffffffffffffffffffffffffffff161415611003576040517f08c379a0000000000000000000000000000000000000000000000000000000008152600401610ffa90613923565b60405180910390fd5b60018160000160019054906101000a900460ff1660ff161461105a576040517f08c379a00000000000000000000000000000000000000000000000000000000081526004016110519061398f565b60405180910390fd5b828160060160006101000a81548173ffffffffffffffffffffffffffffffffffffffff021916908373ffffffffffffffffffffffffffffffffffffffff16021790555042816005018190555060028160000160016101000a81548160ff021916908360ff160217905550600260008473ffffffffffffffffffffffffffffffffffffffff1673ffffffffffffffffffffffffffffffffffffffff1681526020019081526020016000208490806001815401808255809150506001900390600052602060002001600090919091909150558273ffffffffffffffffffffffffffffffffffffffff163373ffffffffffffffffffffffffffffffffffffffff16857fd5319d0fce8851aa7a99f3e68ed5af8cc2a0a97ee8a39dbdb989524457e0fd6d4260405161118891906139af565b60405180910390a4600191505092915050565b6060600560008373ffffffffffffffffffffffffffffffffffffffff1673ffffffffffffffffffffffffffffffffffffffff16815260200190815260200160002080548060200260200160405190810160405280929190818152602001828054801561122657602002820191906000526020600020905b815481526020019060010190808311611212575b50505050509050919050565b6060600260008373ffffffffffffffffffffffffffffffffffffffff1673ffffffffffffffffffffffffffffffffffffffff1681526020019081526020016000208054806020026020016040519081016040528092919081815260200182805480156112bd57602002820191906000526020600020905b8154815260200190600101908083116112a9575b50505050509050919050565b600080600860009054906101000a900473ffffffffffffffffffffffffffffffffffffffff169050600115158173ffffffffffffffffffffffffffffffffffffffff166323ba78fe33886040518363ffffffff1660e01b81526004016113309291906134f5565b602060405180830381865afa15801561134d573d6000803e3d6000fd5b505050506040513d601f19601f82011682018060405250810190611371919061354a565b1515146113b3576040517f08c379a00000000000000000000000000000000000000000000000000000000081526004016113aa90613a16565b60405180910390fd5b6000806000868152602001908152602001600020905060008160000160019054906101000a900460ff1660ff1611611420576040517f08c379a0000000000000000000000000000000000000000000000000000000008152600401611417906138b7565b60405180910390fd5b8060020160009054906101000a900473ffffffffffffffffffffffffffffffffffffffff1673ffffffffffffffffffffffffffffffffffffffff163373ffffffffffffffffffffffffffffffffffffffff16146114b2576040517f08c379a00000000000000000000000000000000000000000000000000000000081526004016114a990613a82565b60405180910390fd5b60018160000160019054906101000a900460ff1660ff1614611509576040517f08c379a00000000000000000000000000000000000000000000000000000000081526004016115009061398f565b60405180910390fd5b6000841161154c576040517f08c379a000000000000000000000000000000000000000000000000000000000815260040161154390613aee565b60405180910390fd5b80600101548410611592576040517f08c379a000000000000000000000000000000000000000000000000000000000815260040161158990613aee565b60405180910390fd5b8381600101546115a29190613b0e565b8160010181905550600760003373ffffffffffffffffffffffffffffffffffffffff1673ffffffffffffffffffffffffffffffffffffffff16815260200190815260200160002060008154809291906115fa90613623565b9190505550600060018760ff1642611612919061366c565b61161c919061366c565b9050600033600760003373ffffffffffffffffffffffffffffffffffffffff1673ffffffffffffffffffffffffffffffffffffffff1681526020019081526020016000205483604051602001611674939291906136c2565b60405160208183030381529060405280519060200120905060008060008381526020019081526020016000209050868160010181905550888160000160006101000a81548160ff021916908360ff160217905550338160020160006101000a81548173ffffffffffffffffffffffffffffffffffffffff021916908373ffffffffffffffffffffffffffffffffffffffff16021790555060018160000160016101000a81548160ff021916908360ff16021790555042816004018190555083600801548160080181905550600160003373ffffffffffffffffffffffffffffffffffffffff1673ffffffffffffffffffffffffffffffffffffffff16815260200190815260200160002082908060018154018082558091505060019003906000526020600020016000909190919091505581955050505050509392505050565b600960009054906101000a900473ffffffffffffffffffffffffffffffffffffffff1673ffffffffffffffffffffffffffffffffffffffff163373ffffffffffffffffffffffffffffffffffffffff1614611844576040517f08c379a000000000000000000000000000000000000000000000000000000000815260040161183b90613b8e565b60405180910390fd5b80600860006101000a81548173ffffffffffffffffffffffffffffffffffffffff021916908373ffffffffffffffffffffffffffffffffffffffff16021790555050565b60008060008084815260200190815260200160002090508060060160009054906101000a900473ffffffffffffffffffffffffffffffffffffffff1673ffffffffffffffffffffffffffffffffffffffff163373ffffffffffffffffffffffffffffffffffffffff1614611931576040517f08c379a000000000000000000000000000000000000000000000000000000000815260040161192890613c20565b60405180910390fd5b60028160000160019054906101000a900460ff1660ff1614611988576040517f08c379a000000000000000000000000000000000000000000000000000000000815260040161197f90613c8c565b60405180910390fd5b60008160070160008360080160008154809291906119a590613623565b91905055815260200190815260200160002090508160020160009054906101000a900473ffffffffffffffffffffffffffffffffffffffff168160000160006101000a81548173ffffffffffffffffffffffffffffffffffffffff021916908373ffffffffffffffffffffffffffffffffffffffff1602179055504281600101819055508160020160009054906101000a900473ffffffffffffffffffffffffffffffffffffffff168260030160006101000a81548173ffffffffffffffffffffffffffffffffffffffff021916908373ffffffffffffffffffffffffffffffffffffffff160217905550338260020160006101000a81548173ffffffffffffffffffffffffffffffffffffffff021916908373ffffffffffffffffffffffffffffffffffffffff16021790555060008260060160006101000a81548173ffffffffffffffffffffffffffffffffffffffff021916908373ffffffffffffffffffffffffffffffffffffffff16021790555060018260000160016101000a81548160ff021916908360ff16021790555060005b600260003373ffffffffffffffffffffffffffffffffffffffff1673ffffffffffffffffffffffffffffffffffffffff16815260200190815260200160002080549050811015611c5c5784600260003373ffffffffffffffffffffffffffffffffffffffff1673ffffffffffffffffffffffffffffffffffffffff1681526020019081526020016000208281548110611bd457611bd361373e565b5b90600052602060002001541415611c4957600260003373ffffffffffffffffffffffffffffffffffffffff1673ffffffffffffffffffffffffffffffffffffffff1681526020019081526020016000208181548110611c3657611c3561373e565b5b9060005260206000200160009055611c5c565b8080611c5490613623565b915050611b38565b5060005b600160008360000160009054906101000a900473ffffffffffffffffffffffffffffffffffffffff1673ffffffffffffffffffffffffffffffffffffffff1673ffffffffffffffffffffffffffffffffffffffff16815260200190815260200160002080549050811015611df05784600160008460000160009054906101000a900473ffffffffffffffffffffffffffffffffffffffff1673ffffffffffffffffffffffffffffffffffffffff1673ffffffffffffffffffffffffffffffffffffffff1681526020019081526020016000208281548110611d4457611d4361373e565b5b90600052602060002001541415611ddd57600160008360000160009054906101000a900473ffffffffffffffffffffffffffffffffffffffff1673ffffffffffffffffffffffffffffffffffffffff1673ffffffffffffffffffffffffffffffffffffffff1681526020019081526020016000208181548110611dca57611dc961373e565b5b9060005260206000200160009055611df0565b8080611de890613623565b915050611c60565b50600160003373ffffffffffffffffffffffffffffffffffffffff1673ffffffffffffffffffffffffffffffffffffffff168152602001908152602001600020849080600181540180825580915050600190039060005260206000200160009091909190915055600192505050919050565b60606000806000848152602001908152602001600020905060008160000160019054906101000a900460ff1660ff1611611ed1576040517f08c379a0000000000000000000000000000000000000000000000000000000008152600401611ec8906138b7565b60405180910390fd5b6000816008015467ffffffffffffffff811115611ef157611ef0612f00565b5b604051908082528060200260200182016040528015611f1f5781602001602082028036833780820191505090505b50905060005b8260080154811015611fca5782600701600082815260200190815260200160002060000160009054906101000a900473ffffffffffffffffffffffffffffffffffffffff16828281518110611f7d57611f7c61373e565b5b602002602001019073ffffffffffffffffffffffffffffffffffffffff16908173ffffffffffffffffffffffffffffffffffffffff16815250508080611fc290613623565b915050611f25565b508092505050919050565b6060815183511461201b576040517f08c379a000000000000000000000000000000000000000000000000000000000815260040161201290613d1e565b60405180910390fd5b60005b835181101561215457600080600086848151811061203f5761203e61373e565b5b6020026020010151815260200190815260200160002090508060020160009054906101000a900473ffffffffffffffffffffffffffffffffffffffff1673ffffffffffffffffffffffffffffffffffffffff163373ffffffffffffffffffffffffffffffffffffffff16146120e9576040517f08c379a00000000000000000000000000000000000000000000000000000000081526004016120e0906137df565b60405180910390fd5b60018160000160019054906101000a900460ff1660ff1614612140576040517f08c379a00000000000000000000000000000000000000000000000000000000081526004016121379061384b565b60405180910390fd5b50808061214c90613623565b91505061201e565b5060008467ffffffffffffffff81111561217157612170612f00565b5b60405190808252806020026020018201604052801561219f5781602001602082028036833780820191505090505b509050600760003373ffffffffffffffffffffffffffffffffffffffff1673ffffffffffffffffffffffffffffffffffffffff16815260200190815260200160002060008154809291906121f290613623565b91905055506000600142612206919061366c565b9050600033600760003373ffffffffffffffffffffffffffffffffffffffff1673ffffffffffffffffffffffffffffffffffffffff168152602001908152602001600020548360405160200161225e939291906136c2565b604051602081830303815290604052805190602001209050600560003373ffffffffffffffffffffffffffffffffffffffff1673ffffffffffffffffffffffffffffffffffffffff16815260200190815260200160002081908060018154018082558091505060019003906000526020600020016000909190919091505560005b87811015612585576000875167ffffffffffffffff81111561230457612303612f00565b5b6040519080825280602002602001820160405280156123325781602001602082028036833780820191505090505b50905060005b88518110156124b95760008060008b84815181106123595761235861373e565b5b6020026020010151815260200190815260200160002090508882815181106123845761238361373e565b5b602002602001015181600101541461246a5780600101548983815181106123ae576123ad61373e565b5b6020026020010151106123f6576040517f08c379a00000000000000000000000000000000000000000000000000000000081526004016123ed90613db0565b60405180910390fd5b6124468160000160009054906101000a900460ff168b848151811061241e5761241d61373e565b5b60200260200101518b85815181106124395761243861373e565b5b60200260200101516112c9565b8383815181106124595761245861373e565b5b6020026020010181815250506124a5565b89828151811061247d5761247c61373e565b5b60200260200101518383815181106124985761249761373e565b5b6020026020010181815250505b5080806124b190613623565b915050612338565b5060006124c682336108f1565b9050808684815181106124dc576124db61373e565b5b602002602001018181525050600660008581526020019081526020016000208190806001815401808255809150506001900390600052602060002001600090919091909150553373ffffffffffffffffffffffffffffffffffffffff167f8402e11ddc254f3089edb56851166369395d334e91903888ebcf4f494a65e256826040516125689190612ecf565b60405180910390a25050808061257d90613623565b9150506122df565b508293505050509392505050565b60005b81518110156125d6576125c38282815181106125b5576125b461373e565b5b6020026020010151336126f1565b80806125ce90613623565b915050612596565b5050565b600060606000600360008581526020019081526020016000209050600073ffffffffffffffffffffffffffffffffffffffff168160000160009054906101000a900473ffffffffffffffffffffffffffffffffffffffff1673ffffffffffffffffffffffffffffffffffffffff161415612689576040517f08c379a0000000000000000000000000000000000000000000000000000000008152600401612680906138b7565b60405180910390fd5b806001018054905081600101808054806020026020016040519081016040528092919081815260200182805480156126e057602002820191906000526020600020905b8154815260200190600101908083116126cc575b505050505090509250925050915091565b600080600084815260200190815260200160002090508060060160009054906101000a900473ffffffffffffffffffffffffffffffffffffffff1673ffffffffffffffffffffffffffffffffffffffff168273ffffffffffffffffffffffffffffffffffffffff1614612799576040517f08c379a000000000000000000000000000000000000000000000000000000000815260040161279090613c20565b60405180910390fd5b60028160000160019054906101000a900460ff1660ff16146127f0576040517f08c379a00000000000000000000000000000000000000000000000000000000081526004016127e790613c8c565b60405180910390fd5b600081600701600083600801600081548092919061280d90613623565b91905055815260200190815260200160002090508160020160009054906101000a900473ffffffffffffffffffffffffffffffffffffffff168160000160006101000a81548173ffffffffffffffffffffffffffffffffffffffff021916908373ffffffffffffffffffffffffffffffffffffffff160217905550428160010181905550338260020160006101000a81548173ffffffffffffffffffffffffffffffffffffffff021916908373ffffffffffffffffffffffffffffffffffffffff16021790555060008260060160006101000a81548173ffffffffffffffffffffffffffffffffffffffff021916908373ffffffffffffffffffffffffffffffffffffffff16021790555060018260000160016101000a81548160ff021916908360ff16021790555060005b600260003373ffffffffffffffffffffffffffffffffffffffff1673ffffffffffffffffffffffffffffffffffffffff16815260200190815260200160002080549050811015612a5d5784600260003373ffffffffffffffffffffffffffffffffffffffff1673ffffffffffffffffffffffffffffffffffffffff16815260200190815260200160002082815481106129d5576129d461373e565b5b90600052602060002001541415612a4a57600260003373ffffffffffffffffffffffffffffffffffffffff1673ffffffffffffffffffffffffffffffffffffffff1681526020019081526020016000208181548110612a3757612a3661373e565b5b9060005260206000200160009055612a5d565b8080612a5590613623565b915050612939565b5060005b600160008360000160009054906101000a900473ffffffffffffffffffffffffffffffffffffffff1673ffffffffffffffffffffffffffffffffffffffff1673ffffffffffffffffffffffffffffffffffffffff16815260200190815260200160002080549050811015612bf15784600160008460000160009054906101000a900473ffffffffffffffffffffffffffffffffffffffff1673ffffffffffffffffffffffffffffffffffffffff1673ffffffffffffffffffffffffffffffffffffffff1681526020019081526020016000208281548110612b4557612b4461373e565b5b90600052602060002001541415612bde57600160008360000160009054906101000a900473ffffffffffffffffffffffffffffffffffffffff1673ffffffffffffffffffffffffffffffffffffffff1673ffffffffffffffffffffffffffffffffffffffff1681526020019081526020016000208181548110612bcb57612bca61373e565b5b9060005260206000200160009055612bf1565b8080612be990613623565b915050612a61565b50600160003373ffffffffffffffffffffffffffffffffffffffff1673ffffffffffffffffffffffffffffffffffffffff16815260200190815260200160002084908060018154018082558091505060019003906000526020600020016000909190919091505550505050565b600073ffffffffffffffffffffffffffffffffffffffff82169050919050565b6000612c8982612c5e565b9050919050565b612c9981612c7e565b82525050565b6000602082019050612cb46000830184612c90565b92915050565b6000604051905090565b600080fd5b600080fd5b612cd781612c7e565b8114612ce257600080fd5b50565b600081359050612cf481612cce565b92915050565b600060208284031215612d1057612d0f612cc4565b5b6000612d1e84828501612ce5565b91505092915050565b600081519050919050565b600082825260208201905092915050565b6000819050602082019050919050565b6000819050919050565b612d6681612d53565b82525050565b6000612d788383612d5d565b60208301905092915050565b6000602082019050919050565b6000612d9c82612d27565b612da68185612d32565b9350612db183612d43565b8060005b83811015612de2578151612dc98882612d6c565b9750612dd483612d84565b925050600181019050612db5565b5085935050505092915050565b60006020820190508181036000830152612e098184612d91565b905092915050565b600060ff82169050919050565b612e2781612e11565b8114612e3257600080fd5b50565b600081359050612e4481612e1e565b92915050565b6000819050919050565b612e5d81612e4a565b8114612e6857600080fd5b50565b600081359050612e7a81612e54565b92915050565b60008060408385031215612e9757612e96612cc4565b5b6000612ea585828601612e35565b9250506020612eb685828601612e6b565b9150509250929050565b612ec981612d53565b82525050565b6000602082019050612ee46000830184612ec0565b92915050565b600080fd5b6000601f19601f8301169050919050565b7f4e487b7100000000000000000000000000000000000000000000000000000000600052604160045260246000fd5b612f3882612eef565b810181811067ffffffffffffffff82111715612f5757612f56612f00565b5b80604052505050565b6000612f6a612cba565b9050612f768282612f2f565b919050565b600067ffffffffffffffff821115612f9657612f95612f00565b5b602082029050602081019050919050565b600080fd5b612fb581612d53565b8114612fc057600080fd5b50565b600081359050612fd281612fac565b92915050565b6000612feb612fe684612f7b565b612f60565b9050808382526020820190506020840283018581111561300e5761300d612fa7565b5b835b8181101561303757806130238882612fc3565b845260208401935050602081019050613010565b5050509392505050565b600082601f83011261305657613055612eea565b5b8135613066848260208601612fd8565b91505092915050565b6000806040838503121561308657613085612cc4565b5b600083013567ffffffffffffffff8111156130a4576130a3612cc9565b5b6130b085828601613041565b92505060206130c185828601612ce5565b9150509250929050565b6000602082840312156130e1576130e0612cc4565b5b60006130ef84828501612fc3565b91505092915050565b61310181612e11565b82525050565b61311081612e4a565b82525050565b600060e08201905061312b600083018a6130f8565b61313860208301896130f8565b6131456040830188613107565b6131526060830187612c90565b61315f6080830186612c90565b61316c60a0830185613107565b61317960c0830184613107565b98975050505050505050565b6000806040838503121561319c5761319b612cc4565b5b60006131aa85828601612fc3565b92505060206131bb85828601612ce5565b9150509250929050565b60008115159050919050565b6131da816131c5565b82525050565b60006020820190506131f560008301846131d1565b92915050565b60008060006060848603121561321457613213612cc4565b5b600061322286828701612e35565b935050602061323386828701612fc3565b925050604061324486828701612e6b565b9150509250925092565b600081519050919050565b600082825260208201905092915050565b6000819050602082019050919050565b61328381612c7e565b82525050565b6000613295838361327a565b60208301905092915050565b6000602082019050919050565b60006132b98261324e565b6132c38185613259565b93506132ce8361326a565b8060005b838110156132ff5781516132e68882613289565b97506132f1836132a1565b9250506001810190506132d2565b5085935050505092915050565b6000602082019050818103600083015261332681846132ae565b905092915050565b600067ffffffffffffffff82111561334957613348612f00565b5b602082029050602081019050919050565b600061336d6133688461332e565b612f60565b905080838252602082019050602084028301858111156133905761338f612fa7565b5b835b818110156133b957806133a58882612e6b565b845260208401935050602081019050613392565b5050509392505050565b600082601f8301126133d8576133d7612eea565b5b81356133e884826020860161335a565b91505092915050565b60008060006060848603121561340a57613409612cc4565b5b600061341886828701612e6b565b935050602084013567ffffffffffffffff81111561343957613438612cc9565b5b61344586828701613041565b925050604084013567ffffffffffffffff81111561346657613465612cc9565b5b613472868287016133c3565b9150509250925092565b60006020828403121561349257613491612cc4565b5b600082013567ffffffffffffffff8111156134b0576134af612cc9565b5b6134bc84828501613041565b91505092915050565b60006040820190506134da6000830185613107565b81810360208301526134ec8184612d91565b90509392505050565b600060408201905061350a6000830185612c90565b61351760208301846130f8565b9392505050565b613527816131c5565b811461353257600080fd5b50565b6000815190506135448161351e565b92915050565b6000602082840312156135605761355f612cc4565b5b600061356e84828501613535565b91505092915050565b600082825260208201905092915050565b7f4e6f207065726d20746f206d696e740000000000000000000000000000000000600082015250565b60006135be600f83613577565b91506135c982613588565b602082019050919050565b600060208201905081810360008301526135ed816135b1565b9050919050565b7f4e487b7100000000000000000000000000000000000000000000000000000000600052601160045260246000fd5b600061362e82612e4a565b91507fffffffffffffffffffffffffffffffffffffffffffffffffffffffffffffffff821415613661576136606135f4565b5b600182019050919050565b600061367782612e4a565b915061368283612e4a565b9250827fffffffffffffffffffffffffffffffffffffffffffffffffffffffffffffffff038211156136b7576136b66135f4565b5b828201905092915050565b60006060820190506136d76000830186612c90565b6136e46020830185613107565b6136f16040830184613107565b949350505050565b600060808201905061370e6000830187612ec0565b61371b6020830186613107565b61372860408301856130f8565b6137356060830184613107565b95945050505050565b7f4e487b7100000000000000000000000000000000000000000000000000000000600052603260045260246000fd5b7f596f7520617265206e6f7420616c6c6f7765642c20646966666572656e74206860008201527f6f6c646572000000000000000000000000000000000000000000000000000000602082015250565b60006137c9602583613577565b91506137d48261376d565b604082019050919050565b600060208201905081810360008301526137f8816137bc565b9050919050565b7f546f6b656e2068617320746f20626520617661696c61626c6500000000000000600082015250565b6000613835601983613577565b9150613840826137ff565b602082019050919050565b6000602082019050818103600083015261386481613828565b9050919050565b7f4e6f6e206578697374656e7420746f6b656e0000000000000000000000000000600082015250565b60006138a1601283613577565b91506138ac8261386b565b602082019050919050565b600060208201905081810360008301526138d081613894565b9050919050565b7f596f7520617265206e6f7420616c6c6f77656400000000000000000000000000600082015250565b600061390d601383613577565b9150613918826138d7565b602082019050919050565b6000602082019050818103600083015261393c81613900565b9050919050565b7f546f6b656e20737461747573206e6f7420726561647900000000000000000000600082015250565b6000613979601683613577565b915061398482613943565b602082019050919050565b600060208201905081810360008301526139a88161396c565b9050919050565b60006020820190506139c46000830184613107565b92915050565b7f4e6f207065726d20746f2073706c697400000000000000000000000000000000600082015250565b6000613a00601083613577565b9150613a0b826139ca565b602082019050919050565b60006020820190508181036000830152613a2f816139f3565b9050919050565b7f596f7520617265206e6f7720616c6c6f77656400000000000000000000000000600082015250565b6000613a6c601383613577565b9150613a7782613a36565b602082019050919050565b60006020820190508181036000830152613a9b81613a5f565b9050919050565b7f496e76616c69642073706c697420616d6f756e74000000000000000000000000600082015250565b6000613ad8601483613577565b9150613ae382613aa2565b602082019050919050565b60006020820190508181036000830152613b0781613acb565b9050919050565b6000613b1982612e4a565b9150613b2483612e4a565b925082821015613b3757613b366135f4565b5b828203905092915050565b7f4f6e6c792061646d696e2063616e20736574207065726d730000000000000000600082015250565b6000613b78601883613577565b9150613b8382613b42565b602082019050919050565b60006020820190508181036000830152613ba781613b6b565b9050919050565b7f596f7520617265206e6f7420616c6c6f7765642c20646966666572656e74207360008201527f656e646572207468616e20686f6c646572000000000000000000000000000000602082015250565b6000613c0a603183613577565b9150613c1582613bae565b604082019050919050565b60006020820190508181036000830152613c3981613bfd565b9050919050565b7f546f6b656e20616c726561647920726563656976656400000000000000000000600082015250565b6000613c76601683613577565b9150613c8182613c40565b602082019050919050565b60006020820190508181036000830152613ca581613c69565b9050919050565b7f546f6b656e7320616e64207175616e746974696573206c656e677468206d697360008201527f6d61746368000000000000000000000000000000000000000000000000000000602082015250565b6000613d08602583613577565b9150613d1382613cac565b604082019050919050565b60006020820190508181036000830152613d3781613cfb565b9050919050565b7f5175616e74697479206578636565647320617661696c61626c6520746f6b656e60008201527f20616d6f756e7400000000000000000000000000000000000000000000000000602082015250565b6000613d9a602783613577565b9150613da582613d3e565b604082019050919050565b60006020820190508181036000830152613dc981613d8d565b905091905056fea2646970667358221220fb732507e05a3f311df555de7971e02bf1b110b1bd5c655b8544a55c115cd56264736f6c634300080a0033",
  "immutableReferences": {},
  "source": "// SPDX-License-Identifier: GPL-3.0\n\npragma solidity >=0.7.0 <0.9.0;\n\nimport \"./Management.sol\";\nimport \"./Database.sol\";\n\n/**\n * @title FoodChainMonitoring\n * @dev Store & retrieve value in a variable\n */\ncontract Tracking {\n  event TokenMinted(\n    address indexed holder,\n    bytes32 tokenHash,\n    uint256 amount,\n    uint8 ingredientID,\n    uint256 mintedOn\n  );\n\n  event TokenTransferred(\n    bytes32 indexed tokenHash,\n    address indexed from,\n    address indexed to,\n    uint256 timestamp\n  );\n\n  // Event to emit the hash of a created pack\n  event PackCreated(address indexed holder, bytes32 packHash);\n\n  struct HoldersMapping {\n    address holderAddress;\n    uint256 timestamp;\n  }\n\n  struct FinalProductsMapping {\n    address _producer;\n    bytes32[] _tokens;\n  }\n\n  struct FCToken {\n    uint8 ingridientID;\n    uint8 status; // packed?\n    uint256 amount;\n    address holder;\n    address producer; // set address to the first who minted this token\n    uint256 minted_on;\n    uint256 transfered_on;\n    address pending_holder;\n    mapping(uint256 => HoldersMapping) past_holders;\n    uint256 past_holders_length;\n  }\n\n  mapping(bytes32 => FCToken) _universeTokens;\n  mapping(address => bytes32[]) _userTokens;\n  mapping(address => bytes32[]) _userPendingTokens;\n\n  // address of the Final Product -> struct of the product\n  mapping(bytes32 => FinalProductsMapping) _finalProducts;\n  mapping(address => bytes32[]) _userPacks;\n\n  mapping(address => bytes32[]) _userSuperPacks;\n  mapping(bytes32 => bytes32[]) _superPacksMapping; //SuperPack to Pack\n\n  // Mapping from user address to nonce\n  mapping(address => uint256) private userNonces;\n\n  address management_sc;\n  address admin;\n\n  constructor() {\n    admin = msg.sender;\n  }\n\n  function set_management_sc(address _msc) public {\n    require(msg.sender == admin, \"Only admin can set perms\");\n    management_sc = _msc;\n  }\n\n  function get_management_sc() public view returns (address) {\n    return management_sc;\n  }\n\n  function mint_token(\n    uint8 _ingridientID,\n    uint256 _amount\n  ) public returns (bytes32) {\n    // create check method to verify the generation is valid\n    Management m = Management(management_sc);\n    require(\n      m.get_perm_mint(msg.sender, _ingridientID) == true,\n      \"No perm to mint\"\n    );\n\n    // Increment user's nonce\n    userNonces[msg.sender]++;\n    uint256 toHash = block.timestamp + _ingridientID;\n    bytes32 tokenHash = keccak256(\n      abi.encode(msg.sender, userNonces[msg.sender], toHash)\n    );\n    // FCToken storage theToken = tokens[_ingridientID][tokenHash];\n    FCToken storage theToken = _universeTokens[tokenHash];\n\n    theToken.amount = _amount;\n    theToken.ingridientID = _ingridientID;\n    theToken.holder = msg.sender;\n    theToken.producer = msg.sender;\n    theToken.status = 1; // 1 = ready, 2 = transfer_pending, 3 = packed\n    theToken.minted_on = block.timestamp;\n    theToken.past_holders_length = 0;\n\n    _userTokens[msg.sender].push(tokenHash);\n    emit TokenMinted(\n      msg.sender,\n      tokenHash,\n      _amount,\n      _ingridientID,\n      block.timestamp\n    );\n\n    return tokenHash; // hash has to be generated by ingridient ID, first holder and timestamp\n  }\n\n  function transfer_token(\n    bytes32 _tokenHash,\n    address _receiver\n  ) public returns (bool) {\n    // FCToken storage tkn = tokens[_ingridientID][_tokenHash];\n    FCToken storage tkn = _universeTokens[_tokenHash];\n    require(tkn.status > 0, \"Non existent token\");\n    require(msg.sender == tkn.holder, \"You are not allowed\"); // Check that the tx.sender is the owner of the token\n    require(msg.sender != _receiver, \"You are not allowed\"); // Check that the tx.sender is the owner of the token\n    require(tkn.status == 1, \"Token status not ready\"); // check the state of the token (it has to be ready)\n    // check that the tx.sender can transfer such ingridient\n    // check that the tx.receiver can accept such ingridient\n\n    // set pending_holder to receiver\n    tkn.pending_holder = _receiver;\n    tkn.transfered_on = block.timestamp;\n    // set the status -> transfer_pending\n    tkn.status = 2;\n\n    _userPendingTokens[_receiver].push(_tokenHash);\n\n    // Emit the TokenTransferred event\n    emit TokenTransferred(_tokenHash, msg.sender, _receiver, block.timestamp);\n\n    return true;\n  }\n\n  function receive_token(bytes32 _tokenHash) public returns (bool) {\n    // FCToken storage tkn = tokens[_ingridientID][_tokenHash];\n    FCToken storage tkn = _universeTokens[_tokenHash];\n    require(\n      msg.sender == tkn.pending_holder,\n      \"You are not allowed, different sender than holder\"\n    );\n    require(tkn.status == 2, \"Token already received\");\n\n    HoldersMapping storage hmap = tkn.past_holders[tkn.past_holders_length++]; // stupid syntax -> https://ethereum.stackexchange.com/questions/87451/solidity-error-struct-containing-a-nested-mapping-cannot-be-constructed\n    hmap.holderAddress = tkn.holder;\n    hmap.timestamp = block.timestamp;\n    tkn.producer = tkn.holder;\n    tkn.holder = msg.sender;\n    tkn.pending_holder = address(0);\n    tkn.status = 1;\n\n    for (\n      uint256 index = 0;\n      index < _userPendingTokens[msg.sender].length;\n      index++\n    ) {\n      if (_userPendingTokens[msg.sender][index] == _tokenHash) {\n        delete _userPendingTokens[msg.sender][index];\n        break;\n      }\n    }\n\n    for (\n      uint256 index = 0;\n      index < _userTokens[hmap.holderAddress].length;\n      index++\n    ) {\n      if (_userTokens[hmap.holderAddress][index] == _tokenHash) {\n        delete _userTokens[hmap.holderAddress][index];\n        break;\n      }\n    }\n    _userTokens[msg.sender].push(_tokenHash);\n\n    return true;\n  }\n\n  function private_receive_token(bytes32 _tokenHash, address _sender) private {\n    // FCToken storage tkn = tokens[_ingridientID][_tokenHash];\n    FCToken storage tkn = _universeTokens[_tokenHash];\n    require(\n      _sender == tkn.pending_holder,\n      \"You are not allowed, different sender than holder\"\n    );\n    require(tkn.status == 2, \"Token already received\");\n\n    HoldersMapping storage hmap = tkn.past_holders[tkn.past_holders_length++]; // stupid syntax -> https://ethereum.stackexchange.com/questions/87451/solidity-error-struct-containing-a-nested-mapping-cannot-be-constructed\n\n    // address currentHolder = tkn.holder;\n    hmap.holderAddress = tkn.holder;\n    hmap.timestamp = block.timestamp;\n    tkn.holder = msg.sender;\n    tkn.pending_holder = address(0);\n    tkn.status = 1;\n    // _userTokens[currentHolder][_tokenHash] = 0;\n    for (\n      uint256 index = 0;\n      index < _userPendingTokens[msg.sender].length;\n      index++\n    ) {\n      if (_userPendingTokens[msg.sender][index] == _tokenHash) {\n        delete _userPendingTokens[msg.sender][index];\n        break;\n      }\n    }\n\n    for (\n      uint256 index = 0;\n      index < _userTokens[hmap.holderAddress].length;\n      index++\n    ) {\n      if (_userTokens[hmap.holderAddress][index] == _tokenHash) {\n        delete _userTokens[hmap.holderAddress][index];\n        break;\n      }\n    }\n    _userTokens[msg.sender].push(_tokenHash);\n  }\n\n  function receive_tokens(bytes32[] memory _tokenHash) public payable {\n    for (uint256 i = 0; i < _tokenHash.length; i++) {\n      private_receive_token(_tokenHash[i], msg.sender);\n    }\n  }\n\n  function split_token(\n    uint8 _ingridientID,\n    bytes32 _tokenHash,\n    uint256 _amount\n  ) public returns (bytes32) {\n    Management m = Management(management_sc);\n    require(\n      m.get_perm_split(msg.sender, _ingridientID) == true,\n      \"No perm to split\"\n    ); // to be implemented\n    // FCToken storage tkn = tokens[_ingridientID][_tokenHash];\n    FCToken storage tkn = _universeTokens[_tokenHash];\n    require(tkn.status > 0, \"Non existent token\");\n    require(msg.sender == tkn.holder, \"You are now allowed\"); // Check that the tx.sender is the owner of the token\n    require(tkn.status == 1, \"Token status not ready\"); // check the state of the token (it has to be ready)\n    require(_amount > 0, \"Invalid split amount\");\n    require(_amount < tkn.amount, \"Invalid split amount\");\n    tkn.amount = tkn.amount - _amount;\n\n    // uint256 toHash = block.timestamp + _ingridientID + 1; //block.timestamp + _ingridientID is the same in the same block\n    // bytes32 tokenHash = keccak256(abi.encode(toHash));\n\n    // Increment user's nonce\n    userNonces[msg.sender]++;\n    uint256 toHash = block.timestamp + _ingridientID + 1;\n    bytes32 tokenHash = keccak256(\n      abi.encode(msg.sender, userNonces[msg.sender], toHash)\n    );\n    // FCToken storage ntkn = tokens[_ingridientID][tokenHash];\n    FCToken storage ntkn = _universeTokens[tokenHash];\n\n    ntkn.amount = _amount;\n    ntkn.ingridientID = _ingridientID;\n    ntkn.holder = msg.sender;\n    ntkn.status = 1; // 1 = ready, 2 = transfer_pending, 3 = packed\n    ntkn.minted_on = block.timestamp;\n    ntkn.past_holders_length = tkn.past_holders_length;\n    //ntkn.past_holders = tkn.past_holders;\n    _userTokens[msg.sender].push(tokenHash);\n\n    return tokenHash;\n  }\n\n  function getTokenData(\n    bytes32 _tokenHash\n  )\n    public\n    view\n    returns (uint8, uint8, uint256, address, address, uint256, uint256)\n  {\n    // FCToken storage tkn = tokens[_ingridientID][_tokenHash];\n    FCToken storage tkn = _universeTokens[_tokenHash];\n    require(tkn.status > 0, \"Non existent token\");\n\n    return (\n      tkn.ingridientID,\n      tkn.status,\n      tkn.amount,\n      tkn.holder,\n      tkn.pending_holder,\n      tkn.past_holders_length,\n      tkn.minted_on\n    );\n  }\n\n  function pack(\n    bytes32[] memory _tokenHash,\n    address _sender\n  ) public payable returns (bytes32) {\n    // maybe dummy, but 2 loops, one to check permissions the other to alter the tokens\n    for (uint256 i = 0; i < _tokenHash.length; i++) {\n      // check for permissions and the status of the token\n      FCToken storage tkn = _universeTokens[_tokenHash[i]];\n\n      require(_sender == tkn.holder, \"You are not allowed, different holder\");\n      require(tkn.status == 1, \"Token has to be available\");\n    }\n\n    // uint256 toHash = block.timestamp + 1; //block.timestamp + _ingridientID is the same in the same block\n    // bytes32 packHash = keccak256(abi.encode(toHash));\n\n    // Increment user's nonce\n    userNonces[msg.sender]++;\n    uint256 toHash = block.timestamp + 1;\n    bytes32 packHash = keccak256(\n      abi.encode(msg.sender, userNonces[msg.sender], toHash)\n    );\n\n    FinalProductsMapping storage product = _finalProducts[packHash];\n\n    product._producer = _sender;\n    for (uint256 i = 0; i < _tokenHash.length; i++) {\n      FCToken storage tkn = _universeTokens[_tokenHash[i]];\n      tkn.status = 3;\n      product._tokens.push(_tokenHash[i]);\n    }\n\n    _userPacks[msg.sender].push(packHash);\n    return packHash;\n  }\n\n  function createSuperPack(\n    uint256 _totalPacks,\n    bytes32[] memory _tokenHashes,\n    uint256[] memory _quantities\n  ) public payable returns (bytes32[] memory) {\n    require(\n      _tokenHashes.length == _quantities.length,\n      \"Tokens and quantities length mismatch\"\n    );\n    for (uint256 i = 0; i < _tokenHashes.length; i++) {\n      // check for permissions and the status of the token\n      FCToken storage tkn = _universeTokens[_tokenHashes[i]];\n\n      require(\n        msg.sender == tkn.holder,\n        \"You are not allowed, different holder\"\n      );\n      require(tkn.status == 1, \"Token has to be available\");\n    }\n\n    // Temporary storage for new or original token hashes to be packed\n\n    bytes32[] memory allPackHashes = new bytes32[](_totalPacks);\n\n    // uint256 toHash = block.timestamp + 1; //block.timestamp + _ingridientID is the same in the same block\n    // bytes32 superPackHash = keccak256(abi.encode(toHash));\n\n    // Increment user's nonce\n    userNonces[msg.sender]++;\n    uint256 toHash = block.timestamp + 1;\n    bytes32 superPackHash = keccak256(\n      abi.encode(msg.sender, userNonces[msg.sender], toHash)\n    );\n\n    _userSuperPacks[msg.sender].push(superPackHash);\n    for (uint256 packIndex = 0; packIndex < _totalPacks; packIndex++) {\n      // Temporary storage for new or original token hashes to be packed for this iteration\n      bytes32[] memory tokensToPack = new bytes32[](_tokenHashes.length);\n\n      for (uint256 i = 0; i < _tokenHashes.length; i++) {\n        // Process each token as before\n        // (uint8 ingridientID, , uint256 amount, , , , ) = getTokenData(\n        //   _tokenHashes[i]\n        // );\n        FCToken storage tkn = _universeTokens[_tokenHashes[i]];\n\n        if (tkn.amount != _quantities[i]) {\n          // block execution if requested quantity is greater than the token current amount\n          require(\n            _quantities[i] < tkn.amount,\n            \"Quantity exceeds available token amount\"\n          );\n          tokensToPack[i] = split_token(\n            tkn.ingridientID,\n            _tokenHashes[i],\n            _quantities[i]\n          );\n        } else {\n          tokensToPack[i] = _tokenHashes[i];\n        }\n      }\n\n      // Pack the tokens and store the pack hash\n      bytes32 packHash = pack(tokensToPack, msg.sender);\n      allPackHashes[packIndex] = packHash;\n      _superPacksMapping[superPackHash].push(packHash);\n      // Emit an event with the pack hash\n      emit PackCreated(msg.sender, packHash);\n    }\n\n    return allPackHashes;\n  }\n\n  function viewPack(\n    bytes32 _packAddress\n  ) public view returns (uint256, bytes32[] memory) {\n    FinalProductsMapping storage product = _finalProducts[_packAddress];\n    require(product._producer != address(0), \"Non existent token\");\n\n    return (product._tokens.length, product._tokens);\n  }\n\n  function getUserPendingTokens(\n    address _owner\n  ) public view returns (bytes32[] memory) {\n    return _userPendingTokens[_owner];\n  }\n\n  function getUserTokens(\n    address _owner\n  ) public view returns (bytes32[] memory) {\n    return _userTokens[_owner];\n  }\n\n  function getUserPacks(address _owner) public view returns (bytes32[] memory) {\n    return _userPacks[_owner];\n  }\n\n  function getUserSuperPacks(\n    address _owner\n  ) public view returns (bytes32[] memory) {\n    return _userSuperPacks[_owner];\n  }\n\n  function getSuperPackMapping(\n    bytes32 _superPackHash\n  ) public view returns (bytes32[] memory) {\n    return _superPacksMapping[_superPackHash];\n  }\n\n  function getTokenPastHolders(\n    bytes32 _tokenHash\n  ) public view returns (address[] memory) {\n    FCToken storage tkn = _universeTokens[_tokenHash];\n    require(tkn.status > 0, \"Non existent token\");\n\n    address[] memory ret = new address[](tkn.past_holders_length);\n    for (uint256 i = 0; i < tkn.past_holders_length; i++) {\n      ret[i] = tkn.past_holders[i].holderAddress;\n    }\n    return ret;\n  }\n}\n",
  "sourcePath": "C:\\Users\\Orion\\Documents\\UNI\\smartcontract\\contracts\\Tracking.sol",
  "compiler": {
    "name": "solc",
    "version": "0.8.10+commit.fc410830.Emscripten.clang"
  },
  "schemaVersion": "3.4.16",
  "updatedAt": "2024-03-04T00:33:52.105Z",
  "networkType": "ethereum",
  "devdoc": {
    "details": "Store & retrieve value in a variable",
    "kind": "dev",
    "methods": {},
    "title": "FoodChainMonitoring",
    "version": 1
  },
  "userdoc": {
    "kind": "user",
    "methods": {},
    "version": 1
  }
}