{
  "contractName": "Tracking",
  "abi": [
    {
      "inputs": [],
      "stateMutability": "nonpayable",
      "type": "constructor"
    },
    {
      "anonymous": false,
      "inputs": [
        {
          "indexed": false,
          "internalType": "uint8",
          "name": "_ingridientID",
          "type": "uint8"
        },
        {
          "indexed": false,
          "internalType": "bytes32",
          "name": "_tokenHash",
          "type": "bytes32"
        },
        {
          "indexed": false,
          "internalType": "address",
          "name": "_receiver",
          "type": "address"
        }
      ],
      "name": "_eTransferToken",
      "type": "event"
    },
    {
      "anonymous": false,
      "inputs": [
        {
          "indexed": false,
          "internalType": "bytes32",
          "name": "tokenhash",
          "type": "bytes32"
        },
        {
          "indexed": false,
          "internalType": "address",
          "name": "owner",
          "type": "address"
        },
        {
          "indexed": false,
          "internalType": "uint8",
          "name": "_ingridientID",
          "type": "uint8"
        }
      ],
      "name": "_exposeMintedTokenHash",
      "type": "event"
    },
    {
      "anonymous": false,
      "inputs": [
        {
          "indexed": true,
          "internalType": "uint8",
          "name": "value1",
          "type": "uint8"
        }
      ],
      "name": "test_uint8",
      "type": "event"
    },
    {
      "anonymous": false,
      "inputs": [
        {
          "indexed": true,
          "internalType": "address",
          "name": "value1",
          "type": "address"
        }
      ],
      "name": "test_value",
      "type": "event"
    },
    {
      "inputs": [
        {
          "internalType": "uint256",
          "name": "",
          "type": "uint256"
        },
        {
          "internalType": "bytes32",
          "name": "",
          "type": "bytes32"
        }
      ],
      "name": "tokens",
      "outputs": [
        {
          "internalType": "uint8",
          "name": "ingridientID",
          "type": "uint8"
        },
        {
          "internalType": "uint8",
          "name": "status",
          "type": "uint8"
        },
        {
          "internalType": "uint8",
          "name": "amount",
          "type": "uint8"
        },
        {
          "internalType": "address",
          "name": "holder",
          "type": "address"
        },
        {
          "internalType": "uint256",
          "name": "minted_on",
          "type": "uint256"
        },
        {
          "internalType": "address",
          "name": "pending_holder",
          "type": "address"
        },
        {
          "internalType": "uint8",
          "name": "past_holders_length",
          "type": "uint8"
        }
      ],
      "stateMutability": "view",
      "type": "function",
      "constant": true
    },
    {
      "inputs": [
        {
          "internalType": "address",
          "name": "_msc",
          "type": "address"
        }
      ],
      "name": "set_management_sc",
      "outputs": [],
      "stateMutability": "nonpayable",
      "type": "function"
    },
    {
      "inputs": [],
      "name": "get_management_sc",
      "outputs": [
        {
          "internalType": "address",
          "name": "",
          "type": "address"
        }
      ],
      "stateMutability": "view",
      "type": "function",
      "constant": true
    },
    {
      "inputs": [
        {
          "internalType": "uint8",
          "name": "_ingridientID",
          "type": "uint8"
        },
        {
          "internalType": "uint8",
          "name": "_amount",
          "type": "uint8"
        }
      ],
      "name": "mint_token",
      "outputs": [
        {
          "internalType": "bytes32",
          "name": "",
          "type": "bytes32"
        }
      ],
      "stateMutability": "nonpayable",
      "type": "function"
    },
    {
      "inputs": [
        {
          "internalType": "uint8",
          "name": "_ingridientID",
          "type": "uint8"
        },
        {
          "internalType": "bytes32",
          "name": "_tokenHash",
          "type": "bytes32"
        },
        {
          "internalType": "address",
          "name": "_receiver",
          "type": "address"
        }
      ],
      "name": "transfer_token",
      "outputs": [
        {
          "internalType": "bool",
          "name": "",
          "type": "bool"
        }
      ],
      "stateMutability": "nonpayable",
      "type": "function"
    },
    {
      "inputs": [
        {
          "internalType": "uint8",
          "name": "_ingridientID",
          "type": "uint8"
        },
        {
          "internalType": "bytes32",
          "name": "_tokenHash",
          "type": "bytes32"
        }
      ],
      "name": "receive_token",
      "outputs": [
        {
          "internalType": "bool",
          "name": "",
          "type": "bool"
        }
      ],
      "stateMutability": "nonpayable",
      "type": "function"
    },
    {
      "inputs": [
        {
          "internalType": "uint8[]",
          "name": "_ingridientID",
          "type": "uint8[]"
        },
        {
          "internalType": "bytes32[]",
          "name": "_tokenHash",
          "type": "bytes32[]"
        }
      ],
      "name": "receive_tokens",
      "outputs": [
        {
          "internalType": "bool",
          "name": "",
          "type": "bool"
        }
      ],
      "stateMutability": "payable",
      "type": "function",
      "payable": true
    },
    {
      "inputs": [
        {
          "internalType": "uint8",
          "name": "_ingridientID",
          "type": "uint8"
        },
        {
          "internalType": "bytes32",
          "name": "_tokenHash",
          "type": "bytes32"
        },
        {
          "internalType": "uint8",
          "name": "_amount",
          "type": "uint8"
        }
      ],
      "name": "split_token",
      "outputs": [
        {
          "internalType": "bytes32",
          "name": "",
          "type": "bytes32"
        }
      ],
      "stateMutability": "nonpayable",
      "type": "function"
    },
    {
      "inputs": [
        {
          "internalType": "uint8",
          "name": "_ingridientID",
          "type": "uint8"
        },
        {
          "internalType": "bytes32",
          "name": "_tokenHash",
          "type": "bytes32"
        }
      ],
      "name": "getTokenData",
      "outputs": [
        {
          "internalType": "uint8",
          "name": "",
          "type": "uint8"
        },
        {
          "internalType": "uint8",
          "name": "",
          "type": "uint8"
        },
        {
          "internalType": "address",
          "name": "",
          "type": "address"
        },
        {
          "internalType": "address",
          "name": "",
          "type": "address"
        },
        {
          "internalType": "uint8",
          "name": "",
          "type": "uint8"
        }
      ],
      "stateMutability": "view",
      "type": "function",
      "constant": true
    }
  ],
  "bytecode": "0x608060405234801561001057600080fd5b5033600360006101000a81548173ffffffffffffffffffffffffffffffffffffffff021916908373ffffffffffffffffffffffffffffffffffffffff1602179055506122ee806100616000396000f3fe6080604052600436106100865760003560e01c806389e7bdd81161005957806389e7bdd81461016d57806389ead6e2146101b057806396277669146101ed578063df3b6c8814610216578063f20990be1461025757610086565b80630cfac7391461008b5780630fb65c0f146100c857806321073597146101055780632aedd4c914610130575b600080fd5b34801561009757600080fd5b506100b260048036038101906100ad9190611650565b610287565b6040516100bf91906116ab565b60405180910390f35b3480156100d457600080fd5b506100ef60048036038101906100ea91906116c6565b61054f565b6040516100fc9190611715565b60405180910390f35b34801561011157600080fd5b5061011a610851565b6040516101279190611771565b60405180910390f35b34801561013c57600080fd5b50610157600480360381019061015291906117b8565b61087b565b60405161016491906116ab565b60405180910390f35b34801561017957600080fd5b50610194600480360381019061018f9190611841565b610b65565b6040516101a7979695949392919061189f565b60405180910390f35b3480156101bc57600080fd5b506101d760048036038101906101d2919061190e565b610c28565b6040516101e49190611715565b60405180910390f35b3480156101f957600080fd5b50610214600480360381019061020f9190611961565b6110ab565b005b34801561022257600080fd5b5061023d60048036038101906102389190611650565b61117f565b60405161024e95949392919061198e565b60405180910390f35b610271600480360381019061026c9190611bfd565b61129d565b60405161027e91906116ab565b60405180910390f35b600080600160008560ff168152602001908152602001600020600084815260200190815260200160002090508060020160009054906101000a900473ffffffffffffffffffffffffffffffffffffffff1673ffffffffffffffffffffffffffffffffffffffff163373ffffffffffffffffffffffffffffffffffffffff1614610345576040517f08c379a000000000000000000000000000000000000000000000000000000000815260040161033c90611cd2565b60405180910390fd5b60028160000160019054906101000a900460ff1660ff161461039c576040517f08c379a000000000000000000000000000000000000000000000000000000000815260040161039390611d3e565b60405180910390fd5b600081600301600083600401600081819054906101000a900460ff16809291906103c590611d8d565b91906101000a81548160ff021916908360ff16021790555060ff1660ff16815260200190815260200160002090508160000160039054906101000a900473ffffffffffffffffffffffffffffffffffffffff168160000160006101000a81548173ffffffffffffffffffffffffffffffffffffffff021916908373ffffffffffffffffffffffffffffffffffffffff160217905550428160010181905550338260000160036101000a81548173ffffffffffffffffffffffffffffffffffffffff021916908373ffffffffffffffffffffffffffffffffffffffff16021790555060008260020160006101000a81548173ffffffffffffffffffffffffffffffffffffffff021916908373ffffffffffffffffffffffffffffffffffffffff16021790555060018260000160016101000a81548160ff021916908360ff1602179055507f28c2fc82a315964355e85116aa4efe05be832fe8508d813e582bf94e9b826e9b84338760405161053b93929190611db7565b60405180910390a160019250505092915050565b600080600260009054906101000a900473ffffffffffffffffffffffffffffffffffffffff169050600115158173ffffffffffffffffffffffffffffffffffffffff1663a859e61433876040518363ffffffff1660e01b81526004016105b6929190611dee565b602060405180830381865afa1580156105d3573d6000803e3d6000fd5b505050506040513d601f19601f820116820180604052508101906105f79190611e43565b151514610639576040517f08c379a000000000000000000000000000000000000000000000000000000000815260040161063090611ebc565b60405180910390fd5b60008460ff164261064a9190611edc565b905060008160405160200161065f9190611f32565b6040516020818303038152906040528051906020012090506000600160008860ff16815260200190815260200160002060008381526020019081526020016000209050858160000160026101000a81548160ff021916908360ff160217905550868160000160006101000a81548160ff021916908360ff160217905550338160000160036101000a81548173ffffffffffffffffffffffffffffffffffffffff021916908373ffffffffffffffffffffffffffffffffffffffff16021790555060018160000160016101000a81548160ff021916908360ff16021790555042816001018190555060008160040160006101000a81548160ff021916908360ff160217905550816000808960ff168152602001908152602001600020819055508060000160039054906101000a900473ffffffffffffffffffffffffffffffffffffffff1673ffffffffffffffffffffffffffffffffffffffff167fa6120a45ee5331fe09693a8428f603a571e8ff895fba6adc58b60331923ca6da60405160405180910390a27f28c2fc82a315964355e85116aa4efe05be832fe8508d813e582bf94e9b826e9b828260000160039054906101000a900473ffffffffffffffffffffffffffffffffffffffff168960405161083c93929190611db7565b60405180910390a18194505050505092915050565b6000600260009054906101000a900473ffffffffffffffffffffffffffffffffffffffff16905090565b600080600160008660ff1681526020019081526020016000206000858152602001908152602001600020905060008160000160019054906101000a900460ff1660ff16116108fe576040517f08c379a00000000000000000000000000000000000000000000000000000000081526004016108f590611f99565b60405180910390fd5b8060000160039054906101000a900473ffffffffffffffffffffffffffffffffffffffff1673ffffffffffffffffffffffffffffffffffffffff167fa6120a45ee5331fe09693a8428f603a571e8ff895fba6adc58b60331923ca6da60405160405180910390a28060000160039054906101000a900473ffffffffffffffffffffffffffffffffffffffff1673ffffffffffffffffffffffffffffffffffffffff163373ffffffffffffffffffffffffffffffffffffffff16146109f7576040517f08c379a00000000000000000000000000000000000000000000000000000000081526004016109ee90611cd2565b60405180910390fd5b8273ffffffffffffffffffffffffffffffffffffffff163373ffffffffffffffffffffffffffffffffffffffff161415610a66576040517f08c379a0000000000000000000000000000000000000000000000000000000008152600401610a5d90611cd2565b60405180910390fd5b60018160000160019054906101000a900460ff1660ff1614610abd576040517f08c379a0000000000000000000000000000000000000000000000000000000008152600401610ab490612005565b60405180910390fd5b828160020160006101000a81548173ffffffffffffffffffffffffffffffffffffffff021916908373ffffffffffffffffffffffffffffffffffffffff16021790555060028160000160016101000a81548160ff021916908360ff1602179055507f8cea5d2076b43b9c3ca802f2886a2c0deb90f51e2fe119ae2ac620db18bf23cd858585604051610b5193929190612025565b60405180910390a160019150509392505050565b6001602052816000526040600020602052806000526040600020600091509150508060000160009054906101000a900460ff16908060000160019054906101000a900460ff16908060000160029054906101000a900460ff16908060000160039054906101000a900473ffffffffffffffffffffffffffffffffffffffff16908060010154908060020160009054906101000a900473ffffffffffffffffffffffffffffffffffffffff16908060040160009054906101000a900460ff16905087565b600080600260009054906101000a900473ffffffffffffffffffffffffffffffffffffffff169050600115158173ffffffffffffffffffffffffffffffffffffffff166323ba78fe33886040518363ffffffff1660e01b8152600401610c8f929190611dee565b602060405180830381865afa158015610cac573d6000803e3d6000fd5b505050506040513d601f19601f82011682018060405250810190610cd09190611e43565b151514610d12576040517f08c379a0000000000000000000000000000000000000000000000000000000008152600401610d09906120a8565b60405180910390fd5b6000600160008760ff1681526020019081526020016000206000868152602001908152602001600020905060008160000160019054906101000a900460ff1660ff1611610d94576040517f08c379a0000000000000000000000000000000000000000000000000000000008152600401610d8b90611f99565b60405180910390fd5b8060000160039054906101000a900473ffffffffffffffffffffffffffffffffffffffff1673ffffffffffffffffffffffffffffffffffffffff163373ffffffffffffffffffffffffffffffffffffffff1614610e26576040517f08c379a0000000000000000000000000000000000000000000000000000000008152600401610e1d90612114565b60405180910390fd5b60018160000160019054906101000a900460ff1660ff1614610e7d576040517f08c379a0000000000000000000000000000000000000000000000000000000008152600401610e7490612005565b60405180910390fd5b60008460ff1611610ec3576040517f08c379a0000000000000000000000000000000000000000000000000000000008152600401610eba90612180565b60405180910390fd5b8060000160029054906101000a900460ff1660ff168460ff1610610f1c576040517f08c379a0000000000000000000000000000000000000000000000000000000008152600401610f1390612180565b60405180910390fd5b838160000160029054906101000a900460ff16610f3991906121a0565b8160000160026101000a81548160ff021916908360ff160217905550600060018760ff1642610f689190611edc565b610f729190611edc565b9050600081604051602001610f879190611f32565b6040516020818303038152906040528051906020012090506000600160008a60ff16815260200190815260200160002060008381526020019081526020016000209050868160000160026101000a81548160ff021916908360ff160217905550888160000160006101000a81548160ff021916908360ff160217905550338160000160036101000a81548173ffffffffffffffffffffffffffffffffffffffff021916908373ffffffffffffffffffffffffffffffffffffffff16021790555060018160000160016101000a81548160ff021916908360ff1602179055504281600101819055508360040160009054906101000a900460ff168160040160006101000a81548160ff021916908360ff16021790555081955050505050509392505050565b600360009054906101000a900473ffffffffffffffffffffffffffffffffffffffff1673ffffffffffffffffffffffffffffffffffffffff163373ffffffffffffffffffffffffffffffffffffffff161461113b576040517f08c379a000000000000000000000000000000000000000000000000000000000815260040161113290612220565b60405180910390fd5b80600260006101000a81548173ffffffffffffffffffffffffffffffffffffffff021916908373ffffffffffffffffffffffffffffffffffffffff16021790555050565b600080600080600080600160008960ff1681526020019081526020016000206000888152602001908152602001600020905060008160000160019054906101000a900460ff1660ff1611611208576040517f08c379a00000000000000000000000000000000000000000000000000000000081526004016111ff90611f99565b60405180910390fd5b8060000160019054906101000a900460ff168160000160029054906101000a900460ff168260000160039054906101000a900473ffffffffffffffffffffffffffffffffffffffff168360020160009054906101000a900473ffffffffffffffffffffffffffffffffffffffff168460040160009054906101000a900460ff1695509550955095509550509295509295909350565b600080600090505b8351811015611300576112ed8482815181106112c4576112c3612240565b5b60200260200101518483815181106112df576112de612240565b5b60200260200101513361130b565b80806112f89061226f565b9150506112a5565b506001905092915050565b6000600160008560ff168152602001908152602001600020600084815260200190815260200160002090508060020160009054906101000a900473ffffffffffffffffffffffffffffffffffffffff1673ffffffffffffffffffffffffffffffffffffffff168273ffffffffffffffffffffffffffffffffffffffff16146113c8576040517f08c379a00000000000000000000000000000000000000000000000000000000081526004016113bf90611cd2565b60405180910390fd5b60028160000160019054906101000a900460ff1660ff161461141f576040517f08c379a000000000000000000000000000000000000000000000000000000000815260040161141690611d3e565b60405180910390fd5b600081600301600083600401600081819054906101000a900460ff168092919061144890611d8d565b91906101000a81548160ff021916908360ff16021790555060ff1660ff16815260200190815260200160002090508160000160039054906101000a900473ffffffffffffffffffffffffffffffffffffffff168160000160006101000a81548173ffffffffffffffffffffffffffffffffffffffff021916908373ffffffffffffffffffffffffffffffffffffffff160217905550428160010181905550338260000160036101000a81548173ffffffffffffffffffffffffffffffffffffffff021916908373ffffffffffffffffffffffffffffffffffffffff16021790555060008260020160006101000a81548173ffffffffffffffffffffffffffffffffffffffff021916908373ffffffffffffffffffffffffffffffffffffffff16021790555060018260000160016101000a81548160ff021916908360ff1602179055507f28c2fc82a315964355e85116aa4efe05be832fe8508d813e582bf94e9b826e9b8433876040516115be93929190611db7565b60405180910390a15050505050565b6000604051905090565b600080fd5b600080fd5b600060ff82169050919050565b6115f7816115e1565b811461160257600080fd5b50565b600081359050611614816115ee565b92915050565b6000819050919050565b61162d8161161a565b811461163857600080fd5b50565b60008135905061164a81611624565b92915050565b60008060408385031215611667576116666115d7565b5b600061167585828601611605565b92505060206116868582860161163b565b9150509250929050565b60008115159050919050565b6116a581611690565b82525050565b60006020820190506116c0600083018461169c565b92915050565b600080604083850312156116dd576116dc6115d7565b5b60006116eb85828601611605565b92505060206116fc85828601611605565b9150509250929050565b61170f8161161a565b82525050565b600060208201905061172a6000830184611706565b92915050565b600073ffffffffffffffffffffffffffffffffffffffff82169050919050565b600061175b82611730565b9050919050565b61176b81611750565b82525050565b60006020820190506117866000830184611762565b92915050565b61179581611750565b81146117a057600080fd5b50565b6000813590506117b28161178c565b92915050565b6000806000606084860312156117d1576117d06115d7565b5b60006117df86828701611605565b93505060206117f08682870161163b565b9250506040611801868287016117a3565b9150509250925092565b6000819050919050565b61181e8161180b565b811461182957600080fd5b50565b60008135905061183b81611815565b92915050565b60008060408385031215611858576118576115d7565b5b60006118668582860161182c565b92505060206118778582860161163b565b9150509250929050565b61188a816115e1565b82525050565b6118998161180b565b82525050565b600060e0820190506118b4600083018a611881565b6118c16020830189611881565b6118ce6040830188611881565b6118db6060830187611762565b6118e86080830186611890565b6118f560a0830185611762565b61190260c0830184611881565b98975050505050505050565b600080600060608486031215611927576119266115d7565b5b600061193586828701611605565b93505060206119468682870161163b565b925050604061195786828701611605565b9150509250925092565b600060208284031215611977576119766115d7565b5b6000611985848285016117a3565b91505092915050565b600060a0820190506119a36000830188611881565b6119b06020830187611881565b6119bd6040830186611762565b6119ca6060830185611762565b6119d76080830184611881565b9695505050505050565b600080fd5b6000601f19601f8301169050919050565b7f4e487b7100000000000000000000000000000000000000000000000000000000600052604160045260246000fd5b611a2f826119e6565b810181811067ffffffffffffffff82111715611a4e57611a4d6119f7565b5b80604052505050565b6000611a616115cd565b9050611a6d8282611a26565b919050565b600067ffffffffffffffff821115611a8d57611a8c6119f7565b5b602082029050602081019050919050565b600080fd5b6000611ab6611ab184611a72565b611a57565b90508083825260208201905060208402830185811115611ad957611ad8611a9e565b5b835b81811015611b025780611aee8882611605565b845260208401935050602081019050611adb565b5050509392505050565b600082601f830112611b2157611b206119e1565b5b8135611b31848260208601611aa3565b91505092915050565b600067ffffffffffffffff821115611b5557611b546119f7565b5b602082029050602081019050919050565b6000611b79611b7484611b3a565b611a57565b90508083825260208201905060208402830185811115611b9c57611b9b611a9e565b5b835b81811015611bc55780611bb1888261163b565b845260208401935050602081019050611b9e565b5050509392505050565b600082601f830112611be457611be36119e1565b5b8135611bf4848260208601611b66565b91505092915050565b60008060408385031215611c1457611c136115d7565b5b600083013567ffffffffffffffff811115611c3257611c316115dc565b5b611c3e85828601611b0c565b925050602083013567ffffffffffffffff811115611c5f57611c5e6115dc565b5b611c6b85828601611bcf565b9150509250929050565b600082825260208201905092915050565b7f596f7520617265206e6f7420616c6c6f77656400000000000000000000000000600082015250565b6000611cbc601383611c75565b9150611cc782611c86565b602082019050919050565b60006020820190508181036000830152611ceb81611caf565b9050919050565b7f546f6b656e20616c726561647920726563656976656400000000000000000000600082015250565b6000611d28601683611c75565b9150611d3382611cf2565b602082019050919050565b60006020820190508181036000830152611d5781611d1b565b9050919050565b7f4e487b7100000000000000000000000000000000000000000000000000000000600052601160045260246000fd5b6000611d98826115e1565b915060ff821415611dac57611dab611d5e565b5b600182019050919050565b6000606082019050611dcc6000830186611706565b611dd96020830185611762565b611de66040830184611881565b949350505050565b6000604082019050611e036000830185611762565b611e106020830184611881565b9392505050565b611e2081611690565b8114611e2b57600080fd5b50565b600081519050611e3d81611e17565b92915050565b600060208284031215611e5957611e586115d7565b5b6000611e6784828501611e2e565b91505092915050565b7f4e6f207065726d20746f206d696e740000000000000000000000000000000000600082015250565b6000611ea6600f83611c75565b9150611eb182611e70565b602082019050919050565b60006020820190508181036000830152611ed581611e99565b9050919050565b6000611ee78261180b565b9150611ef28361180b565b9250827fffffffffffffffffffffffffffffffffffffffffffffffffffffffffffffffff03821115611f2757611f26611d5e565b5b828201905092915050565b6000602082019050611f476000830184611890565b92915050565b7f4e6f6e206578697374656e7420746f6b656e0000000000000000000000000000600082015250565b6000611f83601283611c75565b9150611f8e82611f4d565b602082019050919050565b60006020820190508181036000830152611fb281611f76565b9050919050565b7f546f6b656e20737461747573206e6f7420726561647900000000000000000000600082015250565b6000611fef601683611c75565b9150611ffa82611fb9565b602082019050919050565b6000602082019050818103600083015261201e81611fe2565b9050919050565b600060608201905061203a6000830186611881565b6120476020830185611706565b6120546040830184611762565b949350505050565b7f4e6f207065726d20746f2073706c697400000000000000000000000000000000600082015250565b6000612092601083611c75565b915061209d8261205c565b602082019050919050565b600060208201905081810360008301526120c181612085565b9050919050565b7f596f7520617265206e6f7720616c6c6f77656400000000000000000000000000600082015250565b60006120fe601383611c75565b9150612109826120c8565b602082019050919050565b6000602082019050818103600083015261212d816120f1565b9050919050565b7f496e76616c69642073706c697420616d6f756e74000000000000000000000000600082015250565b600061216a601483611c75565b915061217582612134565b602082019050919050565b600060208201905081810360008301526121998161215d565b9050919050565b60006121ab826115e1565b91506121b6836115e1565b9250828210156121c9576121c8611d5e565b5b828203905092915050565b7f4f6e6c792061646d696e2063616e20736574207065726d730000000000000000600082015250565b600061220a601883611c75565b9150612215826121d4565b602082019050919050565b60006020820190508181036000830152612239816121fd565b9050919050565b7f4e487b7100000000000000000000000000000000000000000000000000000000600052603260045260246000fd5b600061227a8261180b565b91507fffffffffffffffffffffffffffffffffffffffffffffffffffffffffffffffff8214156122ad576122ac611d5e565b5b60018201905091905056fea2646970667358221220f86cb8bf707c7af8eb21f3016635961ba22e7328df33e9b8ece89ce862317fef64736f6c634300080a0033",
  "immutableReferences": {},
  "source": "// SPDX-License-Identifier: GPL-3.0\n\npragma solidity >=0.7.0 <0.9.0;\n\nimport \"./Management.sol\";\n\n/**\n * @title FoodChainMonitoring\n * @dev Store & retrieve value in a variable\n */\ncontract Tracking {\n    // debug\n    event test_value(address indexed value1);\n    event test_uint8(uint8 indexed value1);\n    event _eTransferToken(\n        uint8 _ingridientID,\n        bytes32 _tokenHash,\n        address _receiver\n    );\n    event _exposeMintedTokenHash(\n        bytes32 tokenhash,\n        address owner,\n        uint8 _ingridientID\n    );\n\n    struct HoldersMapping {\n        address holderAddress;\n        uint256 timestamp;\n    }\n\n    struct FCToken {\n        uint8 ingridientID;\n        uint8 status;\n        uint8 amount;\n        address holder;\n        uint256 minted_on;\n        address pending_holder;\n        mapping(uint8 => HoldersMapping) past_holders;\n        uint8 past_holders_length;\n    }\n\n    mapping(uint256 => bytes32) ingridient_tokens;\n    mapping(uint256 => mapping(bytes32 => FCToken)) public tokens;\n    address management_sc;\n    address admin;\n\n    constructor() {\n        admin = msg.sender;\n    }\n\n    function set_management_sc(address _msc) public {\n        require(msg.sender == admin, \"Only admin can set perms\");\n        management_sc = _msc;\n    }\n\n    function get_management_sc() public view returns (address) {\n        return management_sc;\n    }\n\n    function mint_token(uint8 _ingridientID, uint8 _amount)\n        public\n        returns (bytes32)\n    {\n        // create check method to verify the generation is valid\n        Management m = Management(management_sc);\n        require(\n            m.get_perm_mint(msg.sender, _ingridientID) == true,\n            \"No perm to mint\"\n        );\n\n        uint256 toHash = block.timestamp + _ingridientID;\n        bytes32 tokenHash = keccak256(abi.encode(toHash));\n        FCToken storage theToken = tokens[_ingridientID][tokenHash];\n\n        theToken.amount = _amount;\n        theToken.ingridientID = _ingridientID;\n        theToken.holder = msg.sender;\n        theToken.status = 1; // 1 = ready, 2 = transfer_pending, 3 = packed\n        theToken.minted_on = block.timestamp;\n        theToken.past_holders_length = 0;\n        ingridient_tokens[_ingridientID] = tokenHash;\n        // token_hashes[tokenHash] = theToken; while the init is on memory\n\n        emit test_value(theToken.holder);\n        emit _exposeMintedTokenHash(tokenHash, theToken.holder, _ingridientID);\n\n        return tokenHash; // hash has to be generated by ingridient ID, first holder and timestamp\n    }\n\n    function transfer_token(\n        uint8 _ingridientID,\n        bytes32 _tokenHash,\n        address _receiver\n    ) public returns (bool) {\n        FCToken storage tkn = tokens[_ingridientID][_tokenHash];\n        require(tkn.status > 0, \"Non existent token\");\n        emit test_value(tkn.holder);\n        require(msg.sender == tkn.holder, \"You are not allowed\"); // Check that the tx.sender is the owner of the token\n        require(msg.sender != _receiver, \"You are not allowed\"); // Check that the tx.sender is the owner of the token\n        require(tkn.status == 1, \"Token status not ready\"); // check the state of the token (it has to be ready)\n        // check that the tx.sender can transfer such ingridient\n\n        // set pending_holder to receiver\n        tkn.pending_holder = _receiver;\n\n        // set the status -> transfer_pending\n        tkn.status = 2;\n\n        // emit event to receiver\n        emit _eTransferToken(_ingridientID, _tokenHash, _receiver);\n\n        return true;\n    }\n\n    function receive_token(uint8 _ingridientID, bytes32 _tokenHash)\n        public\n        returns (bool)\n    {\n        FCToken storage tkn = tokens[_ingridientID][_tokenHash];\n        require(msg.sender == tkn.pending_holder, \"You are not allowed\");\n        require(tkn.status == 2, \"Token already received\");\n\n        HoldersMapping storage hmap = tkn.past_holders[\n            tkn.past_holders_length++\n        ]; // stupid syntax -> https://ethereum.stackexchange.com/questions/87451/solidity-error-struct-containing-a-nested-mapping-cannot-be-constructed\n        hmap.holderAddress = tkn.holder;\n        hmap.timestamp = block.timestamp;\n        tkn.holder = msg.sender;\n        tkn.pending_holder = address(0);\n        tkn.status = 1;\n\n        emit _exposeMintedTokenHash(_tokenHash, msg.sender, _ingridientID);\n\n        return true;\n    }\n\n    function private_receive_token(uint8 _ingridientID, bytes32 _tokenHash, address _sender)\n        private\n    {\n        FCToken storage tkn = tokens[_ingridientID][_tokenHash];\n        require(_sender == tkn.pending_holder, \"You are not allowed\");\n        require(tkn.status == 2, \"Token already received\");\n\n        HoldersMapping storage hmap = tkn.past_holders[\n            tkn.past_holders_length++\n        ]; // stupid syntax -> https://ethereum.stackexchange.com/questions/87451/solidity-error-struct-containing-a-nested-mapping-cannot-be-constructed\n        hmap.holderAddress = tkn.holder;\n        hmap.timestamp = block.timestamp;\n        tkn.holder = msg.sender;\n        tkn.pending_holder = address(0);\n        tkn.status = 1;\n\n        emit _exposeMintedTokenHash(_tokenHash, msg.sender, _ingridientID);\n    }\n\n    function receive_tokens(uint8[] memory _ingridientID, bytes32[] memory _tokenHash)\n        public\n        payable\n        returns (bool)\n    {\n        for (uint256 i = 0; i < _ingridientID.length; i++) {\n            private_receive_token(_ingridientID[i], _tokenHash[i], msg.sender);\n        }\n\n        return true;\n    }\n\n    function split_token(\n        uint8 _ingridientID,\n        bytes32 _tokenHash,\n        uint8 _amount\n    ) public returns (bytes32) {\n        Management m = Management(management_sc);\n        require(\n            m.get_perm_split(msg.sender, _ingridientID) == true,\n            \"No perm to split\"\n        ); // to be implemented\n        FCToken storage tkn = tokens[_ingridientID][_tokenHash];\n        require(tkn.status > 0, \"Non existent token\");\n        //emit test_value(tkn.holder);\n        require(msg.sender == tkn.holder, \"You are now allowed\"); // Check that the tx.sender is the owner of the token\n        require(tkn.status == 1, \"Token status not ready\"); // check the state of the token (it has to be ready)\n        require(_amount > 0, \"Invalid split amount\");\n        require(_amount < tkn.amount, \"Invalid split amount\");\n        tkn.amount = tkn.amount - _amount;\n\n        uint256 toHash = block.timestamp + _ingridientID + 1; //block.timestamp + _ingridientID is the same in the same block\n        bytes32 tokenHash = keccak256(abi.encode(toHash));\n        FCToken storage ntkn = tokens[_ingridientID][tokenHash];\n\n        ntkn.amount = _amount;\n        ntkn.ingridientID = _ingridientID;\n        ntkn.holder = msg.sender;\n        ntkn.status = 1; // 1 = ready, 2 = transfer_pending, 3 = packed\n        ntkn.minted_on = block.timestamp;\n        ntkn.past_holders_length = tkn.past_holders_length;\n        //ntkn.past_holders = tkn.past_holders;\n\n        return tokenHash;\n    }\n\n    function getTokenData(uint8 _ingridientID, bytes32 _tokenHash)\n        public\n        view\n        returns (\n            uint8,\n            uint8,\n            address,\n            address,\n            uint8\n        )\n    {\n        FCToken storage tkn = tokens[_ingridientID][_tokenHash];\n        require(tkn.status > 0, \"Non existent token\");\n\n        return (\n            tkn.status,\n            tkn.amount,\n            tkn.holder,\n            tkn.pending_holder,\n            tkn.past_holders_length\n        );\n    }\n}\n",
  "sourcePath": "E:\\MyWork\\AETHER\\blockchain_spathoulas_2021\\smartcontract\\contracts\\Tracking.sol",
  "compiler": {
    "name": "solc",
    "version": "0.8.10+commit.fc410830.Emscripten.clang"
  },
  "schemaVersion": "3.4.3",
  "updatedAt": "2021-12-26T23:39:41.458Z",
  "networkType": "ethereum",
  "devdoc": {
    "details": "Store & retrieve value in a variable",
    "kind": "dev",
    "methods": {},
    "title": "FoodChainMonitoring",
    "version": 1
  },
  "userdoc": {
    "kind": "user",
    "methods": {},
    "version": 1
  }
}