{
  "contractName": "Tracking",
  "abi": [
    {
      "inputs": [],
      "stateMutability": "nonpayable",
      "type": "constructor"
    },
    {
      "anonymous": false,
      "inputs": [
        {
          "indexed": true,
          "internalType": "address",
          "name": "holder",
          "type": "address"
        },
        {
          "indexed": false,
          "internalType": "bytes32",
          "name": "tokenHash",
          "type": "bytes32"
        },
        {
          "indexed": false,
          "internalType": "uint256",
          "name": "amount",
          "type": "uint256"
        },
        {
          "indexed": false,
          "internalType": "uint8",
          "name": "ingredientID",
          "type": "uint8"
        },
        {
          "indexed": false,
          "internalType": "uint256",
          "name": "mintedOn",
          "type": "uint256"
        }
      ],
      "name": "TokenMinted",
      "type": "event"
    },
    {
      "anonymous": false,
      "inputs": [
        {
          "indexed": true,
          "internalType": "bytes32",
          "name": "tokenHash",
          "type": "bytes32"
        },
        {
          "indexed": true,
          "internalType": "address",
          "name": "from",
          "type": "address"
        },
        {
          "indexed": true,
          "internalType": "address",
          "name": "to",
          "type": "address"
        },
        {
          "indexed": false,
          "internalType": "uint256",
          "name": "timestamp",
          "type": "uint256"
        }
      ],
      "name": "TokenTransferred",
      "type": "event"
    },
    {
      "inputs": [
        {
          "internalType": "address",
          "name": "_msc",
          "type": "address"
        }
      ],
      "name": "set_management_sc",
      "outputs": [],
      "stateMutability": "nonpayable",
      "type": "function"
    },
    {
      "inputs": [],
      "name": "get_management_sc",
      "outputs": [
        {
          "internalType": "address",
          "name": "",
          "type": "address"
        }
      ],
      "stateMutability": "view",
      "type": "function",
      "constant": true
    },
    {
      "inputs": [
        {
          "internalType": "uint8",
          "name": "_ingridientID",
          "type": "uint8"
        },
        {
          "internalType": "uint256",
          "name": "_amount",
          "type": "uint256"
        }
      ],
      "name": "mint_token",
      "outputs": [
        {
          "internalType": "bytes32",
          "name": "",
          "type": "bytes32"
        }
      ],
      "stateMutability": "nonpayable",
      "type": "function"
    },
    {
      "inputs": [
        {
          "internalType": "bytes32",
          "name": "_tokenHash",
          "type": "bytes32"
        },
        {
          "internalType": "address",
          "name": "_receiver",
          "type": "address"
        }
      ],
      "name": "transfer_token",
      "outputs": [
        {
          "internalType": "bool",
          "name": "",
          "type": "bool"
        }
      ],
      "stateMutability": "nonpayable",
      "type": "function"
    },
    {
      "inputs": [
        {
          "internalType": "bytes32",
          "name": "_tokenHash",
          "type": "bytes32"
        }
      ],
      "name": "receive_token",
      "outputs": [
        {
          "internalType": "bool",
          "name": "",
          "type": "bool"
        }
      ],
      "stateMutability": "nonpayable",
      "type": "function"
    },
    {
      "inputs": [
        {
          "internalType": "bytes32[]",
          "name": "_tokenHash",
          "type": "bytes32[]"
        }
      ],
      "name": "receive_tokens",
      "outputs": [],
      "stateMutability": "payable",
      "type": "function",
      "payable": true
    },
    {
      "inputs": [
        {
          "internalType": "uint8",
          "name": "_ingridientID",
          "type": "uint8"
        },
        {
          "internalType": "bytes32",
          "name": "_tokenHash",
          "type": "bytes32"
        },
        {
          "internalType": "uint256",
          "name": "_amount",
          "type": "uint256"
        }
      ],
      "name": "split_token",
      "outputs": [
        {
          "internalType": "bytes32",
          "name": "",
          "type": "bytes32"
        }
      ],
      "stateMutability": "nonpayable",
      "type": "function"
    },
    {
      "inputs": [
        {
          "internalType": "bytes32",
          "name": "_tokenHash",
          "type": "bytes32"
        }
      ],
      "name": "getTokenData",
      "outputs": [
        {
          "internalType": "uint8",
          "name": "",
          "type": "uint8"
        },
        {
          "internalType": "uint8",
          "name": "",
          "type": "uint8"
        },
        {
          "internalType": "uint256",
          "name": "",
          "type": "uint256"
        },
        {
          "internalType": "address",
          "name": "",
          "type": "address"
        },
        {
          "internalType": "address",
          "name": "",
          "type": "address"
        },
        {
          "internalType": "uint256",
          "name": "",
          "type": "uint256"
        },
        {
          "internalType": "uint256",
          "name": "",
          "type": "uint256"
        }
      ],
      "stateMutability": "view",
      "type": "function",
      "constant": true
    },
    {
      "inputs": [
        {
          "internalType": "bytes32[]",
          "name": "_tokenHash",
          "type": "bytes32[]"
        },
        {
          "internalType": "address",
          "name": "_sender",
          "type": "address"
        }
      ],
      "name": "pack",
      "outputs": [
        {
          "internalType": "bytes32",
          "name": "",
          "type": "bytes32"
        }
      ],
      "stateMutability": "payable",
      "type": "function",
      "payable": true
    },
    {
      "inputs": [
        {
          "internalType": "bytes32",
          "name": "_packAddress",
          "type": "bytes32"
        }
      ],
      "name": "viewPack",
      "outputs": [
        {
          "internalType": "uint256",
          "name": "",
          "type": "uint256"
        },
        {
          "internalType": "bytes32[]",
          "name": "",
          "type": "bytes32[]"
        }
      ],
      "stateMutability": "view",
      "type": "function",
      "constant": true
    },
    {
      "inputs": [
        {
          "internalType": "address",
          "name": "_owner",
          "type": "address"
        }
      ],
      "name": "getUserPendingTokens",
      "outputs": [
        {
          "internalType": "bytes32[]",
          "name": "",
          "type": "bytes32[]"
        }
      ],
      "stateMutability": "view",
      "type": "function",
      "constant": true
    },
    {
      "inputs": [
        {
          "internalType": "address",
          "name": "_owner",
          "type": "address"
        }
      ],
      "name": "getUserTokens",
      "outputs": [
        {
          "internalType": "bytes32[]",
          "name": "",
          "type": "bytes32[]"
        }
      ],
      "stateMutability": "view",
      "type": "function",
      "constant": true
    },
    {
      "inputs": [
        {
          "internalType": "address",
          "name": "_owner",
          "type": "address"
        }
      ],
      "name": "getUserPacks",
      "outputs": [
        {
          "internalType": "bytes32[]",
          "name": "",
          "type": "bytes32[]"
        }
      ],
      "stateMutability": "view",
      "type": "function",
      "constant": true
    },
    {
      "inputs": [
        {
          "internalType": "bytes32",
          "name": "_tokenHash",
          "type": "bytes32"
        }
      ],
      "name": "getTokenPastHolders",
      "outputs": [
        {
          "internalType": "address[]",
          "name": "",
          "type": "address[]"
        }
      ],
      "stateMutability": "view",
      "type": "function",
      "constant": true
    }
  ],
  "bytecode": "0x608060405234801561001057600080fd5b5033600660006101000a81548173ffffffffffffffffffffffffffffffffffffffff021916908373ffffffffffffffffffffffffffffffffffffffff1602179055506131a3806100616000396000f3fe6080604052600436106100dd5760003560e01c80638f2fec081161007f5780639a124597116100595780639a12459714610317578063bb6a81e414610354578063c75eb83914610391578063e4b49bba146103ad576100dd565b80638f2fec081461027457806391c6bbc0146102b157806396277669146102ee576100dd565b8063509a7399116100bb578063509a739914610187578063519dc8d2146101b757806356e432b4146101f4578063755fa90814610237576100dd565b806321073597146100e257806325b716b21461010d57806349831dea1461014a575b600080fd5b3480156100ee57600080fd5b506100f76103eb565b60405161010491906122e5565b60405180910390f35b34801561011957600080fd5b50610134600480360381019061012f9190612340565b610415565b6040516101419190612435565b60405180910390f35b34801561015657600080fd5b50610171600480360381019061016c91906124c6565b6104ac565b60405161017e9190612515565b60405180910390f35b6101a1600480360381019061019c91906126b5565b61078e565b6040516101ae9190612515565b60405180910390f35b3480156101c357600080fd5b506101de60048036038101906101d99190612340565b610a89565b6040516101eb9190612435565b60405180910390f35b34801561020057600080fd5b5061021b60048036038101906102169190612711565b610b20565b60405161022e979695949392919061275c565b60405180910390f35b34801561024357600080fd5b5061025e600480360381019061025991906127cb565b610c2e565b60405161026b9190612826565b60405180910390f35b34801561028057600080fd5b5061029b60048036038101906102969190612340565b610f35565b6040516102a89190612435565b60405180910390f35b3480156102bd57600080fd5b506102d860048036038101906102d39190612841565b610fcc565b6040516102e59190612515565b60405180910390f35b3480156102fa57600080fd5b5061031560048036038101906103109190612340565b61141f565b005b34801561032357600080fd5b5061033e60048036038101906103399190612711565b6114f3565b60405161034b9190612826565b60405180910390f35b34801561036057600080fd5b5061037b60048036038101906103769190612711565b611a66565b6040516103889190612952565b60405180910390f35b6103ab60048036038101906103a69190612974565b611bd9565b005b3480156103b957600080fd5b506103d460048036038101906103cf9190612711565b611c20565b6040516103e29291906129bd565b60405180910390f35b6000600560009054906101000a900473ffffffffffffffffffffffffffffffffffffffff16905090565b6060600460008373ffffffffffffffffffffffffffffffffffffffff1673ffffffffffffffffffffffffffffffffffffffff1681526020019081526020016000208054806020026020016040519081016040528092919081815260200182805480156104a057602002820191906000526020600020905b81548152602001906001019080831161048c575b50505050509050919050565b600080600560009054906101000a900473ffffffffffffffffffffffffffffffffffffffff169050600115158173ffffffffffffffffffffffffffffffffffffffff1663a859e61433876040518363ffffffff1660e01b81526004016105139291906129ed565b602060405180830381865afa158015610530573d6000803e3d6000fd5b505050506040513d601f19601f820116820180604052508101906105549190612a42565b151514610596576040517f08c379a000000000000000000000000000000000000000000000000000000000815260040161058d90612acc565b60405180910390fd5b60008460ff16426105a79190612b1b565b90506000816040516020016105bc9190612b71565b60405160208183030381529060405280519060200120905060008060008381526020019081526020016000209050858160010181905550868160000160006101000a81548160ff021916908360ff160217905550338160020160006101000a81548173ffffffffffffffffffffffffffffffffffffffff021916908373ffffffffffffffffffffffffffffffffffffffff160217905550338160030160006101000a81548173ffffffffffffffffffffffffffffffffffffffff021916908373ffffffffffffffffffffffffffffffffffffffff16021790555060018160000160016101000a81548160ff021916908360ff16021790555042816004018190555060008160080181905550600160003373ffffffffffffffffffffffffffffffffffffffff1673ffffffffffffffffffffffffffffffffffffffff1681526020019081526020016000208290806001815401808255809150506001900390600052602060002001600090919091909150553373ffffffffffffffffffffffffffffffffffffffff167f209445772d96edf9b06c44832f7e7bc8bd3a58851753d479d578b1d2681e58fd83888a426040516107799493929190612b8c565b60405180910390a28194505050505092915050565b600080600090505b83518110156108cc5760008060008684815181106107b7576107b6612bd1565b5b6020026020010151815260200190815260200160002090508060020160009054906101000a900473ffffffffffffffffffffffffffffffffffffffff1673ffffffffffffffffffffffffffffffffffffffff168473ffffffffffffffffffffffffffffffffffffffff1614610861576040517f08c379a000000000000000000000000000000000000000000000000000000000815260040161085890612c72565b60405180910390fd5b60018160000160019054906101000a900460ff1660ff16146108b8576040517f08c379a00000000000000000000000000000000000000000000000000000000081526004016108af90612cde565b60405180910390fd5b5080806108c490612cfe565b915050610796565b5060006001426108dc9190612b1b565b90506000816040516020016108f19190612b71565b6040516020818303038152906040528051906020012090506000600360008381526020019081526020016000209050848160000160006101000a81548173ffffffffffffffffffffffffffffffffffffffff021916908373ffffffffffffffffffffffffffffffffffffffff16021790555060005b8651811015610a1657600080600089848151811061098757610986612bd1565b5b60200260200101518152602001908152602001600020905060038160000160016101000a81548160ff021916908360ff160217905550826001018883815181106109d4576109d3612bd1565b5b60200260200101519080600181540180825580915050600190039060005260206000200160009091909190915055508080610a0e90612cfe565b915050610966565b50600460003373ffffffffffffffffffffffffffffffffffffffff1673ffffffffffffffffffffffffffffffffffffffff16815260200190815260200160002082908060018154018082558091505060019003906000526020600020016000909190919091505581935050505092915050565b6060600160008373ffffffffffffffffffffffffffffffffffffffff1673ffffffffffffffffffffffffffffffffffffffff168152602001908152602001600020805480602002602001604051908101604052809291908181526020018280548015610b1457602002820191906000526020600020905b815481526020019060010190808311610b00575b50505050509050919050565b6000806000806000806000806000808a8152602001908152602001600020905060008160000160019054906101000a900460ff1660ff1611610b97576040517f08c379a0000000000000000000000000000000000000000000000000000000008152600401610b8e90612d93565b60405180910390fd5b8060000160009054906101000a900460ff168160000160019054906101000a900460ff1682600101548360020160009054906101000a900473ffffffffffffffffffffffffffffffffffffffff168460060160009054906101000a900473ffffffffffffffffffffffffffffffffffffffff1685600801548660040154975097509750975097509750975050919395979092949650565b600080600080858152602001908152602001600020905060008160000160019054906101000a900460ff1660ff1611610c9c576040517f08c379a0000000000000000000000000000000000000000000000000000000008152600401610c9390612d93565b60405180910390fd5b8060020160009054906101000a900473ffffffffffffffffffffffffffffffffffffffff1673ffffffffffffffffffffffffffffffffffffffff163373ffffffffffffffffffffffffffffffffffffffff1614610d2e576040517f08c379a0000000000000000000000000000000000000000000000000000000008152600401610d2590612dff565b60405180910390fd5b8273ffffffffffffffffffffffffffffffffffffffff163373ffffffffffffffffffffffffffffffffffffffff161415610d9d576040517f08c379a0000000000000000000000000000000000000000000000000000000008152600401610d9490612dff565b60405180910390fd5b60018160000160019054906101000a900460ff1660ff1614610df4576040517f08c379a0000000000000000000000000000000000000000000000000000000008152600401610deb90612e6b565b60405180910390fd5b828160060160006101000a81548173ffffffffffffffffffffffffffffffffffffffff021916908373ffffffffffffffffffffffffffffffffffffffff16021790555042816005018190555060028160000160016101000a81548160ff021916908360ff160217905550600260008473ffffffffffffffffffffffffffffffffffffffff1673ffffffffffffffffffffffffffffffffffffffff1681526020019081526020016000208490806001815401808255809150506001900390600052602060002001600090919091909150558273ffffffffffffffffffffffffffffffffffffffff163373ffffffffffffffffffffffffffffffffffffffff16857fd5319d0fce8851aa7a99f3e68ed5af8cc2a0a97ee8a39dbdb989524457e0fd6d42604051610f229190612b71565b60405180910390a4600191505092915050565b6060600260008373ffffffffffffffffffffffffffffffffffffffff1673ffffffffffffffffffffffffffffffffffffffff168152602001908152602001600020805480602002602001604051908101604052809291908181526020018280548015610fc057602002820191906000526020600020905b815481526020019060010190808311610fac575b50505050509050919050565b600080600560009054906101000a900473ffffffffffffffffffffffffffffffffffffffff169050600115158173ffffffffffffffffffffffffffffffffffffffff166323ba78fe33886040518363ffffffff1660e01b81526004016110339291906129ed565b602060405180830381865afa158015611050573d6000803e3d6000fd5b505050506040513d601f19601f820116820180604052508101906110749190612a42565b1515146110b6576040517f08c379a00000000000000000000000000000000000000000000000000000000081526004016110ad90612ed7565b60405180910390fd5b6000806000868152602001908152602001600020905060008160000160019054906101000a900460ff1660ff1611611123576040517f08c379a000000000000000000000000000000000000000000000000000000000815260040161111a90612d93565b60405180910390fd5b8060020160009054906101000a900473ffffffffffffffffffffffffffffffffffffffff1673ffffffffffffffffffffffffffffffffffffffff163373ffffffffffffffffffffffffffffffffffffffff16146111b5576040517f08c379a00000000000000000000000000000000000000000000000000000000081526004016111ac90612f43565b60405180910390fd5b60018160000160019054906101000a900460ff1660ff161461120c576040517f08c379a000000000000000000000000000000000000000000000000000000000815260040161120390612e6b565b60405180910390fd5b6000841161124f576040517f08c379a000000000000000000000000000000000000000000000000000000000815260040161124690612faf565b60405180910390fd5b80600101548410611295576040517f08c379a000000000000000000000000000000000000000000000000000000000815260040161128c90612faf565b60405180910390fd5b8381600101546112a59190612fcf565b8160010181905550600060018760ff16426112c09190612b1b565b6112ca9190612b1b565b90506000816040516020016112df9190612b71565b60405160208183030381529060405280519060200120905060008060008381526020019081526020016000209050868160010181905550888160000160006101000a81548160ff021916908360ff160217905550338160020160006101000a81548173ffffffffffffffffffffffffffffffffffffffff021916908373ffffffffffffffffffffffffffffffffffffffff16021790555060018160000160016101000a81548160ff021916908360ff16021790555042816004018190555083600801548160080181905550600160003373ffffffffffffffffffffffffffffffffffffffff1673ffffffffffffffffffffffffffffffffffffffff16815260200190815260200160002082908060018154018082558091505060019003906000526020600020016000909190919091505581955050505050509392505050565b600660009054906101000a900473ffffffffffffffffffffffffffffffffffffffff1673ffffffffffffffffffffffffffffffffffffffff163373ffffffffffffffffffffffffffffffffffffffff16146114af576040517f08c379a00000000000000000000000000000000000000000000000000000000081526004016114a69061304f565b60405180910390fd5b80600560006101000a81548173ffffffffffffffffffffffffffffffffffffffff021916908373ffffffffffffffffffffffffffffffffffffffff16021790555050565b60008060008084815260200190815260200160002090508060060160009054906101000a900473ffffffffffffffffffffffffffffffffffffffff1673ffffffffffffffffffffffffffffffffffffffff163373ffffffffffffffffffffffffffffffffffffffff161461159c576040517f08c379a0000000000000000000000000000000000000000000000000000000008152600401611593906130e1565b60405180910390fd5b60028160000160019054906101000a900460ff1660ff16146115f3576040517f08c379a00000000000000000000000000000000000000000000000000000000081526004016115ea9061314d565b60405180910390fd5b600081600701600083600801600081548092919061161090612cfe565b91905055815260200190815260200160002090508160020160009054906101000a900473ffffffffffffffffffffffffffffffffffffffff168160000160006101000a81548173ffffffffffffffffffffffffffffffffffffffff021916908373ffffffffffffffffffffffffffffffffffffffff160217905550428160010181905550338260020160006101000a81548173ffffffffffffffffffffffffffffffffffffffff021916908373ffffffffffffffffffffffffffffffffffffffff16021790555060008260060160006101000a81548173ffffffffffffffffffffffffffffffffffffffff021916908373ffffffffffffffffffffffffffffffffffffffff16021790555060018260000160016101000a81548160ff021916908360ff16021790555060005b600260003373ffffffffffffffffffffffffffffffffffffffff1673ffffffffffffffffffffffffffffffffffffffff168152602001908152602001600020805490508110156118605784600260003373ffffffffffffffffffffffffffffffffffffffff1673ffffffffffffffffffffffffffffffffffffffff16815260200190815260200160002082815481106117d8576117d7612bd1565b5b9060005260206000200154141561184d57600260003373ffffffffffffffffffffffffffffffffffffffff1673ffffffffffffffffffffffffffffffffffffffff168152602001908152602001600020818154811061183a57611839612bd1565b5b9060005260206000200160009055611860565b808061185890612cfe565b91505061173c565b5060005b600160008360000160009054906101000a900473ffffffffffffffffffffffffffffffffffffffff1673ffffffffffffffffffffffffffffffffffffffff1673ffffffffffffffffffffffffffffffffffffffff168152602001908152602001600020805490508110156119f45784600160008460000160009054906101000a900473ffffffffffffffffffffffffffffffffffffffff1673ffffffffffffffffffffffffffffffffffffffff1673ffffffffffffffffffffffffffffffffffffffff168152602001908152602001600020828154811061194857611947612bd1565b5b906000526020600020015414156119e157600160008360000160009054906101000a900473ffffffffffffffffffffffffffffffffffffffff1673ffffffffffffffffffffffffffffffffffffffff1673ffffffffffffffffffffffffffffffffffffffff16815260200190815260200160002081815481106119ce576119cd612bd1565b5b90600052602060002001600090556119f4565b80806119ec90612cfe565b915050611864565b50600160003373ffffffffffffffffffffffffffffffffffffffff1673ffffffffffffffffffffffffffffffffffffffff168152602001908152602001600020849080600181540180825580915050600190039060005260206000200160009091909190915055600192505050919050565b60606000806000848152602001908152602001600020905060008160000160019054906101000a900460ff1660ff1611611ad5576040517f08c379a0000000000000000000000000000000000000000000000000000000008152600401611acc90612d93565b60405180910390fd5b6000816008015467ffffffffffffffff811115611af557611af4612546565b5b604051908082528060200260200182016040528015611b235781602001602082028036833780820191505090505b50905060005b8260080154811015611bce5782600701600082815260200190815260200160002060000160009054906101000a900473ffffffffffffffffffffffffffffffffffffffff16828281518110611b8157611b80612bd1565b5b602002602001019073ffffffffffffffffffffffffffffffffffffffff16908173ffffffffffffffffffffffffffffffffffffffff16815250508080611bc690612cfe565b915050611b29565b508092505050919050565b60005b8151811015611c1c57611c09828281518110611bfb57611bfa612bd1565b5b602002602001015133611d37565b8080611c1490612cfe565b915050611bdc565b5050565b600060606000600360008581526020019081526020016000209050600073ffffffffffffffffffffffffffffffffffffffff168160000160009054906101000a900473ffffffffffffffffffffffffffffffffffffffff1673ffffffffffffffffffffffffffffffffffffffff161415611ccf576040517f08c379a0000000000000000000000000000000000000000000000000000000008152600401611cc690612d93565b60405180910390fd5b80600101805490508160010180805480602002602001604051908101604052809291908181526020018280548015611d2657602002820191906000526020600020905b815481526020019060010190808311611d12575b505050505090509250925050915091565b600080600084815260200190815260200160002090508060060160009054906101000a900473ffffffffffffffffffffffffffffffffffffffff1673ffffffffffffffffffffffffffffffffffffffff168273ffffffffffffffffffffffffffffffffffffffff1614611ddf576040517f08c379a0000000000000000000000000000000000000000000000000000000008152600401611dd6906130e1565b60405180910390fd5b60028160000160019054906101000a900460ff1660ff1614611e36576040517f08c379a0000000000000000000000000000000000000000000000000000000008152600401611e2d9061314d565b60405180910390fd5b6000816007016000836008016000815480929190611e5390612cfe565b91905055815260200190815260200160002090508160020160009054906101000a900473ffffffffffffffffffffffffffffffffffffffff168160000160006101000a81548173ffffffffffffffffffffffffffffffffffffffff021916908373ffffffffffffffffffffffffffffffffffffffff160217905550428160010181905550338260020160006101000a81548173ffffffffffffffffffffffffffffffffffffffff021916908373ffffffffffffffffffffffffffffffffffffffff16021790555060008260060160006101000a81548173ffffffffffffffffffffffffffffffffffffffff021916908373ffffffffffffffffffffffffffffffffffffffff16021790555060018260000160016101000a81548160ff021916908360ff16021790555060005b600260003373ffffffffffffffffffffffffffffffffffffffff1673ffffffffffffffffffffffffffffffffffffffff168152602001908152602001600020805490508110156120a35784600260003373ffffffffffffffffffffffffffffffffffffffff1673ffffffffffffffffffffffffffffffffffffffff168152602001908152602001600020828154811061201b5761201a612bd1565b5b9060005260206000200154141561209057600260003373ffffffffffffffffffffffffffffffffffffffff1673ffffffffffffffffffffffffffffffffffffffff168152602001908152602001600020818154811061207d5761207c612bd1565b5b90600052602060002001600090556120a3565b808061209b90612cfe565b915050611f7f565b5060005b600160008360000160009054906101000a900473ffffffffffffffffffffffffffffffffffffffff1673ffffffffffffffffffffffffffffffffffffffff1673ffffffffffffffffffffffffffffffffffffffff168152602001908152602001600020805490508110156122375784600160008460000160009054906101000a900473ffffffffffffffffffffffffffffffffffffffff1673ffffffffffffffffffffffffffffffffffffffff1673ffffffffffffffffffffffffffffffffffffffff168152602001908152602001600020828154811061218b5761218a612bd1565b5b9060005260206000200154141561222457600160008360000160009054906101000a900473ffffffffffffffffffffffffffffffffffffffff1673ffffffffffffffffffffffffffffffffffffffff1673ffffffffffffffffffffffffffffffffffffffff168152602001908152602001600020818154811061221157612210612bd1565b5b9060005260206000200160009055612237565b808061222f90612cfe565b9150506120a7565b50600160003373ffffffffffffffffffffffffffffffffffffffff1673ffffffffffffffffffffffffffffffffffffffff16815260200190815260200160002084908060018154018082558091505060019003906000526020600020016000909190919091505550505050565b600073ffffffffffffffffffffffffffffffffffffffff82169050919050565b60006122cf826122a4565b9050919050565b6122df816122c4565b82525050565b60006020820190506122fa60008301846122d6565b92915050565b6000604051905090565b600080fd5b600080fd5b61231d816122c4565b811461232857600080fd5b50565b60008135905061233a81612314565b92915050565b6000602082840312156123565761235561230a565b5b60006123648482850161232b565b91505092915050565b600081519050919050565b600082825260208201905092915050565b6000819050602082019050919050565b6000819050919050565b6123ac81612399565b82525050565b60006123be83836123a3565b60208301905092915050565b6000602082019050919050565b60006123e28261236d565b6123ec8185612378565b93506123f783612389565b8060005b8381101561242857815161240f88826123b2565b975061241a836123ca565b9250506001810190506123fb565b5085935050505092915050565b6000602082019050818103600083015261244f81846123d7565b905092915050565b600060ff82169050919050565b61246d81612457565b811461247857600080fd5b50565b60008135905061248a81612464565b92915050565b6000819050919050565b6124a381612490565b81146124ae57600080fd5b50565b6000813590506124c08161249a565b92915050565b600080604083850312156124dd576124dc61230a565b5b60006124eb8582860161247b565b92505060206124fc858286016124b1565b9150509250929050565b61250f81612399565b82525050565b600060208201905061252a6000830184612506565b92915050565b600080fd5b6000601f19601f8301169050919050565b7f4e487b7100000000000000000000000000000000000000000000000000000000600052604160045260246000fd5b61257e82612535565b810181811067ffffffffffffffff8211171561259d5761259c612546565b5b80604052505050565b60006125b0612300565b90506125bc8282612575565b919050565b600067ffffffffffffffff8211156125dc576125db612546565b5b602082029050602081019050919050565b600080fd5b6125fb81612399565b811461260657600080fd5b50565b600081359050612618816125f2565b92915050565b600061263161262c846125c1565b6125a6565b90508083825260208201905060208402830185811115612654576126536125ed565b5b835b8181101561267d57806126698882612609565b845260208401935050602081019050612656565b5050509392505050565b600082601f83011261269c5761269b612530565b5b81356126ac84826020860161261e565b91505092915050565b600080604083850312156126cc576126cb61230a565b5b600083013567ffffffffffffffff8111156126ea576126e961230f565b5b6126f685828601612687565b92505060206127078582860161232b565b9150509250929050565b6000602082840312156127275761272661230a565b5b600061273584828501612609565b91505092915050565b61274781612457565b82525050565b61275681612490565b82525050565b600060e082019050612771600083018a61273e565b61277e602083018961273e565b61278b604083018861274d565b61279860608301876122d6565b6127a560808301866122d6565b6127b260a083018561274d565b6127bf60c083018461274d565b98975050505050505050565b600080604083850312156127e2576127e161230a565b5b60006127f085828601612609565b92505060206128018582860161232b565b9150509250929050565b60008115159050919050565b6128208161280b565b82525050565b600060208201905061283b6000830184612817565b92915050565b60008060006060848603121561285a5761285961230a565b5b60006128688682870161247b565b935050602061287986828701612609565b925050604061288a868287016124b1565b9150509250925092565b600081519050919050565b600082825260208201905092915050565b6000819050602082019050919050565b6128c9816122c4565b82525050565b60006128db83836128c0565b60208301905092915050565b6000602082019050919050565b60006128ff82612894565b612909818561289f565b9350612914836128b0565b8060005b8381101561294557815161292c88826128cf565b9750612937836128e7565b925050600181019050612918565b5085935050505092915050565b6000602082019050818103600083015261296c81846128f4565b905092915050565b60006020828403121561298a5761298961230a565b5b600082013567ffffffffffffffff8111156129a8576129a761230f565b5b6129b484828501612687565b91505092915050565b60006040820190506129d2600083018561274d565b81810360208301526129e481846123d7565b90509392505050565b6000604082019050612a0260008301856122d6565b612a0f602083018461273e565b9392505050565b612a1f8161280b565b8114612a2a57600080fd5b50565b600081519050612a3c81612a16565b92915050565b600060208284031215612a5857612a5761230a565b5b6000612a6684828501612a2d565b91505092915050565b600082825260208201905092915050565b7f4e6f207065726d20746f206d696e740000000000000000000000000000000000600082015250565b6000612ab6600f83612a6f565b9150612ac182612a80565b602082019050919050565b60006020820190508181036000830152612ae581612aa9565b9050919050565b7f4e487b7100000000000000000000000000000000000000000000000000000000600052601160045260246000fd5b6000612b2682612490565b9150612b3183612490565b9250827fffffffffffffffffffffffffffffffffffffffffffffffffffffffffffffffff03821115612b6657612b65612aec565b5b828201905092915050565b6000602082019050612b86600083018461274d565b92915050565b6000608082019050612ba16000830187612506565b612bae602083018661274d565b612bbb604083018561273e565b612bc8606083018461274d565b95945050505050565b7f4e487b7100000000000000000000000000000000000000000000000000000000600052603260045260246000fd5b7f596f7520617265206e6f7420616c6c6f7765642c20646966666572656e74206860008201527f6f6c646572000000000000000000000000000000000000000000000000000000602082015250565b6000612c5c602583612a6f565b9150612c6782612c00565b604082019050919050565b60006020820190508181036000830152612c8b81612c4f565b9050919050565b7f546f6b656e2068617320746f20626520617661696c61626c6500000000000000600082015250565b6000612cc8601983612a6f565b9150612cd382612c92565b602082019050919050565b60006020820190508181036000830152612cf781612cbb565b9050919050565b6000612d0982612490565b91507fffffffffffffffffffffffffffffffffffffffffffffffffffffffffffffffff821415612d3c57612d3b612aec565b5b600182019050919050565b7f4e6f6e206578697374656e7420746f6b656e0000000000000000000000000000600082015250565b6000612d7d601283612a6f565b9150612d8882612d47565b602082019050919050565b60006020820190508181036000830152612dac81612d70565b9050919050565b7f596f7520617265206e6f7420616c6c6f77656400000000000000000000000000600082015250565b6000612de9601383612a6f565b9150612df482612db3565b602082019050919050565b60006020820190508181036000830152612e1881612ddc565b9050919050565b7f546f6b656e20737461747573206e6f7420726561647900000000000000000000600082015250565b6000612e55601683612a6f565b9150612e6082612e1f565b602082019050919050565b60006020820190508181036000830152612e8481612e48565b9050919050565b7f4e6f207065726d20746f2073706c697400000000000000000000000000000000600082015250565b6000612ec1601083612a6f565b9150612ecc82612e8b565b602082019050919050565b60006020820190508181036000830152612ef081612eb4565b9050919050565b7f596f7520617265206e6f7720616c6c6f77656400000000000000000000000000600082015250565b6000612f2d601383612a6f565b9150612f3882612ef7565b602082019050919050565b60006020820190508181036000830152612f5c81612f20565b9050919050565b7f496e76616c69642073706c697420616d6f756e74000000000000000000000000600082015250565b6000612f99601483612a6f565b9150612fa482612f63565b602082019050919050565b60006020820190508181036000830152612fc881612f8c565b9050919050565b6000612fda82612490565b9150612fe583612490565b925082821015612ff857612ff7612aec565b5b828203905092915050565b7f4f6e6c792061646d696e2063616e20736574207065726d730000000000000000600082015250565b6000613039601883612a6f565b915061304482613003565b602082019050919050565b600060208201905081810360008301526130688161302c565b9050919050565b7f596f7520617265206e6f7420616c6c6f7765642c20646966666572656e74207360008201527f656e646572207468616e20686f6c646572000000000000000000000000000000602082015250565b60006130cb603183612a6f565b91506130d68261306f565b604082019050919050565b600060208201905081810360008301526130fa816130be565b9050919050565b7f546f6b656e20616c726561647920726563656976656400000000000000000000600082015250565b6000613137601683612a6f565b915061314282613101565b602082019050919050565b600060208201905081810360008301526131668161312a565b905091905056fea26469706673582212205c83a6dadf66ba78bdc7986ce774646f99e7af99a0d0a735ce5387dd8882932164736f6c634300080a0033",
  "immutableReferences": {},
  "source": "// SPDX-License-Identifier: GPL-3.0\n\npragma solidity >=0.7.0 <0.9.0;\n\nimport \"./Management.sol\";\nimport \"./Database.sol\";\n\n/**\n * @title FoodChainMonitoring\n * @dev Store & retrieve value in a variable\n */\ncontract Tracking {\n  event TokenMinted(\n    address indexed holder,\n    bytes32 tokenHash,\n    uint256 amount,\n    uint8 ingredientID,\n    uint256 mintedOn\n  );\n\n  event TokenTransferred(\n    bytes32 indexed tokenHash,\n    address indexed from,\n    address indexed to,\n    uint256 timestamp\n  );\n\n  struct HoldersMapping {\n    address holderAddress;\n    uint256 timestamp;\n  }\n\n  struct FinalProductsMapping {\n    address _producer;\n    bytes32[] _tokens;\n  }\n\n  struct FCToken {\n    uint8 ingridientID;\n    uint8 status; // packed?\n    uint256 amount;\n    address holder;\n    address producer; // set address to the first who minted this token\n    uint256 minted_on;\n    uint256 transfered_on;\n    address pending_holder;\n    mapping(uint256 => HoldersMapping) past_holders;\n    uint256 past_holders_length;\n  }\n\n  mapping(bytes32 => FCToken) _universeTokens;\n  mapping(address => bytes32[]) _userTokens;\n  mapping(address => bytes32[]) _userPendingTokens;\n\n  // address of the Final Product -> struct of the product\n  mapping(bytes32 => FinalProductsMapping) _finalProducts;\n  mapping(address => bytes32[]) _userPacks;\n\n  address management_sc;\n  address admin;\n\n  constructor() {\n    admin = msg.sender;\n  }\n\n  function set_management_sc(address _msc) public {\n    require(msg.sender == admin, \"Only admin can set perms\");\n    management_sc = _msc;\n  }\n\n  function get_management_sc() public view returns (address) {\n    return management_sc;\n  }\n\n  function mint_token(\n    uint8 _ingridientID,\n    uint256 _amount\n  ) public returns (bytes32) {\n    // create check method to verify the generation is valid\n    Management m = Management(management_sc);\n    require(\n      m.get_perm_mint(msg.sender, _ingridientID) == true,\n      \"No perm to mint\"\n    );\n\n    uint256 toHash = block.timestamp + _ingridientID;\n    bytes32 tokenHash = keccak256(abi.encode(toHash));\n    // FCToken storage theToken = tokens[_ingridientID][tokenHash];\n    FCToken storage theToken = _universeTokens[tokenHash];\n\n    theToken.amount = _amount;\n    theToken.ingridientID = _ingridientID;\n    theToken.holder = msg.sender;\n    theToken.producer = msg.sender;\n    theToken.status = 1; // 1 = ready, 2 = transfer_pending, 3 = packed\n    theToken.minted_on = block.timestamp;\n    theToken.past_holders_length = 0;\n\n    _userTokens[msg.sender].push(tokenHash);\n    emit TokenMinted(\n      msg.sender,\n      tokenHash,\n      _amount,\n      _ingridientID,\n      block.timestamp\n    );\n\n    return tokenHash; // hash has to be generated by ingridient ID, first holder and timestamp\n  }\n\n  function transfer_token(\n    bytes32 _tokenHash,\n    address _receiver\n  ) public returns (bool) {\n    // FCToken storage tkn = tokens[_ingridientID][_tokenHash];\n    FCToken storage tkn = _universeTokens[_tokenHash];\n    require(tkn.status > 0, \"Non existent token\");\n    require(msg.sender == tkn.holder, \"You are not allowed\"); // Check that the tx.sender is the owner of the token\n    require(msg.sender != _receiver, \"You are not allowed\"); // Check that the tx.sender is the owner of the token\n    require(tkn.status == 1, \"Token status not ready\"); // check the state of the token (it has to be ready)\n    // check that the tx.sender can transfer such ingridient\n    // check that the tx.receiver can accept such ingridient\n\n    // set pending_holder to receiver\n    tkn.pending_holder = _receiver;\n    tkn.transfered_on = block.timestamp;\n    // set the status -> transfer_pending\n    tkn.status = 2;\n\n    _userPendingTokens[_receiver].push(_tokenHash);\n\n    // Emit the TokenTransferred event\n    emit TokenTransferred(_tokenHash, msg.sender, _receiver, block.timestamp);\n\n    return true;\n  }\n\n  function receive_token(bytes32 _tokenHash) public returns (bool) {\n    // FCToken storage tkn = tokens[_ingridientID][_tokenHash];\n    FCToken storage tkn = _universeTokens[_tokenHash];\n    require(\n      msg.sender == tkn.pending_holder,\n      \"You are not allowed, different sender than holder\"\n    );\n    require(tkn.status == 2, \"Token already received\");\n\n    HoldersMapping storage hmap = tkn.past_holders[tkn.past_holders_length++]; // stupid syntax -> https://ethereum.stackexchange.com/questions/87451/solidity-error-struct-containing-a-nested-mapping-cannot-be-constructed\n    hmap.holderAddress = tkn.holder;\n    hmap.timestamp = block.timestamp;\n    tkn.holder = msg.sender;\n    tkn.pending_holder = address(0);\n    tkn.status = 1;\n\n    for (\n      uint256 index = 0;\n      index < _userPendingTokens[msg.sender].length;\n      index++\n    ) {\n      if (_userPendingTokens[msg.sender][index] == _tokenHash) {\n        delete _userPendingTokens[msg.sender][index];\n        break;\n      }\n    }\n\n    for (\n      uint256 index = 0;\n      index < _userTokens[hmap.holderAddress].length;\n      index++\n    ) {\n      if (_userTokens[hmap.holderAddress][index] == _tokenHash) {\n        delete _userTokens[hmap.holderAddress][index];\n        break;\n      }\n    }\n    _userTokens[msg.sender].push(_tokenHash);\n\n    return true;\n  }\n\n  function private_receive_token(bytes32 _tokenHash, address _sender) private {\n    // FCToken storage tkn = tokens[_ingridientID][_tokenHash];\n    FCToken storage tkn = _universeTokens[_tokenHash];\n    require(\n      _sender == tkn.pending_holder,\n      \"You are not allowed, different sender than holder\"\n    );\n    require(tkn.status == 2, \"Token already received\");\n\n    HoldersMapping storage hmap = tkn.past_holders[tkn.past_holders_length++]; // stupid syntax -> https://ethereum.stackexchange.com/questions/87451/solidity-error-struct-containing-a-nested-mapping-cannot-be-constructed\n\n    // address currentHolder = tkn.holder;\n    hmap.holderAddress = tkn.holder;\n    hmap.timestamp = block.timestamp;\n    tkn.holder = msg.sender;\n    tkn.pending_holder = address(0);\n    tkn.status = 1;\n    // _userTokens[currentHolder][_tokenHash] = 0;\n    for (\n      uint256 index = 0;\n      index < _userPendingTokens[msg.sender].length;\n      index++\n    ) {\n      if (_userPendingTokens[msg.sender][index] == _tokenHash) {\n        delete _userPendingTokens[msg.sender][index];\n        break;\n      }\n    }\n\n    for (\n      uint256 index = 0;\n      index < _userTokens[hmap.holderAddress].length;\n      index++\n    ) {\n      if (_userTokens[hmap.holderAddress][index] == _tokenHash) {\n        delete _userTokens[hmap.holderAddress][index];\n        break;\n      }\n    }\n    _userTokens[msg.sender].push(_tokenHash);\n  }\n\n  function receive_tokens(bytes32[] memory _tokenHash) public payable {\n    for (uint256 i = 0; i < _tokenHash.length; i++) {\n      private_receive_token(_tokenHash[i], msg.sender);\n    }\n  }\n\n  function split_token(\n    uint8 _ingridientID,\n    bytes32 _tokenHash,\n    uint256 _amount\n  ) public returns (bytes32) {\n    Management m = Management(management_sc);\n    require(\n      m.get_perm_split(msg.sender, _ingridientID) == true,\n      \"No perm to split\"\n    ); // to be implemented\n    // FCToken storage tkn = tokens[_ingridientID][_tokenHash];\n    FCToken storage tkn = _universeTokens[_tokenHash];\n    require(tkn.status > 0, \"Non existent token\");\n    require(msg.sender == tkn.holder, \"You are now allowed\"); // Check that the tx.sender is the owner of the token\n    require(tkn.status == 1, \"Token status not ready\"); // check the state of the token (it has to be ready)\n    require(_amount > 0, \"Invalid split amount\");\n    require(_amount < tkn.amount, \"Invalid split amount\");\n    tkn.amount = tkn.amount - _amount;\n\n    uint256 toHash = block.timestamp + _ingridientID + 1; //block.timestamp + _ingridientID is the same in the same block\n    bytes32 tokenHash = keccak256(abi.encode(toHash));\n    // FCToken storage ntkn = tokens[_ingridientID][tokenHash];\n    FCToken storage ntkn = _universeTokens[tokenHash];\n\n    ntkn.amount = _amount;\n    ntkn.ingridientID = _ingridientID;\n    ntkn.holder = msg.sender;\n    ntkn.status = 1; // 1 = ready, 2 = transfer_pending, 3 = packed\n    ntkn.minted_on = block.timestamp;\n    ntkn.past_holders_length = tkn.past_holders_length;\n    //ntkn.past_holders = tkn.past_holders;\n    _userTokens[msg.sender].push(tokenHash);\n\n    return tokenHash;\n  }\n\n  function getTokenData(\n    bytes32 _tokenHash\n  )\n    public\n    view\n    returns (uint8, uint8, uint256, address, address, uint256, uint256)\n  {\n    // FCToken storage tkn = tokens[_ingridientID][_tokenHash];\n    FCToken storage tkn = _universeTokens[_tokenHash];\n    require(tkn.status > 0, \"Non existent token\");\n\n    return (\n      tkn.ingridientID,\n      tkn.status,\n      tkn.amount,\n      tkn.holder,\n      tkn.pending_holder,\n      tkn.past_holders_length,\n      tkn.minted_on\n    );\n  }\n\n  function pack(\n    bytes32[] memory _tokenHash,\n    address _sender\n  ) public payable returns (bytes32) {\n    // maybe dummy, but 2 loops, one to check permissions the other to alter the tokens\n    for (uint256 i = 0; i < _tokenHash.length; i++) {\n      // check for permissions and the status of the token\n      FCToken storage tkn = _universeTokens[_tokenHash[i]];\n\n      require(_sender == tkn.holder, \"You are not allowed, different holder\");\n      require(tkn.status == 1, \"Token has to be available\");\n    }\n\n    uint256 toHash = block.timestamp + 1; //block.timestamp + _ingridientID is the same in the same block\n    bytes32 packHash = keccak256(abi.encode(toHash));\n    FinalProductsMapping storage product = _finalProducts[packHash];\n\n    product._producer = _sender;\n    for (uint256 i = 0; i < _tokenHash.length; i++) {\n      FCToken storage tkn = _universeTokens[_tokenHash[i]];\n      tkn.status = 3;\n      product._tokens.push(_tokenHash[i]);\n    }\n\n    _userPacks[msg.sender].push(packHash);\n    return packHash;\n  }\n\n  function viewPack(\n    bytes32 _packAddress\n  ) public view returns (uint256, bytes32[] memory) {\n    FinalProductsMapping storage product = _finalProducts[_packAddress];\n    require(product._producer != address(0), \"Non existent token\");\n\n    return (product._tokens.length, product._tokens);\n  }\n\n  function getUserPendingTokens(\n    address _owner\n  ) public view returns (bytes32[] memory) {\n    return _userPendingTokens[_owner];\n  }\n\n  function getUserTokens(\n    address _owner\n  ) public view returns (bytes32[] memory) {\n    return _userTokens[_owner];\n  }\n\n  function getUserPacks(address _owner) public view returns (bytes32[] memory) {\n    return _userPacks[_owner];\n  }\n\n  function getTokenPastHolders(\n    bytes32 _tokenHash\n  ) public view returns (address[] memory) {\n    FCToken storage tkn = _universeTokens[_tokenHash];\n    require(tkn.status > 0, \"Non existent token\");\n\n    address[] memory ret = new address[](tkn.past_holders_length);\n    for (uint256 i = 0; i < tkn.past_holders_length; i++) {\n      ret[i] = tkn.past_holders[i].holderAddress;\n    }\n    return ret;\n  }\n}\n",
  "sourcePath": "C:\\Users\\Orion\\Documents\\UNI\\smartcontract\\contracts\\Tracking.sol",
  "compiler": {
    "name": "solc",
    "version": "0.8.10+commit.fc410830.Emscripten.clang"
  },
  "schemaVersion": "3.4.16",
  "updatedAt": "2024-03-02T17:37:46.104Z",
  "networkType": "ethereum",
  "devdoc": {
    "details": "Store & retrieve value in a variable",
    "kind": "dev",
    "methods": {},
    "title": "FoodChainMonitoring",
    "version": 1
  },
  "userdoc": {
    "kind": "user",
    "methods": {},
    "version": 1
  }
}