{
  "contractName": "Tracking",
  "abi": [
    {
      "inputs": [],
      "stateMutability": "nonpayable",
      "type": "constructor"
    },
    {
      "anonymous": false,
      "inputs": [
        {
          "indexed": true,
          "internalType": "address",
          "name": "holder",
          "type": "address"
        },
        {
          "indexed": false,
          "internalType": "bytes32",
          "name": "packHash",
          "type": "bytes32"
        }
      ],
      "name": "PackCreated",
      "type": "event"
    },
    {
      "anonymous": false,
      "inputs": [
        {
          "indexed": true,
          "internalType": "address",
          "name": "holder",
          "type": "address"
        },
        {
          "indexed": false,
          "internalType": "bytes32",
          "name": "tokenHash",
          "type": "bytes32"
        },
        {
          "indexed": false,
          "internalType": "uint256",
          "name": "amount",
          "type": "uint256"
        },
        {
          "indexed": false,
          "internalType": "uint8",
          "name": "ingredientID",
          "type": "uint8"
        },
        {
          "indexed": false,
          "internalType": "uint256",
          "name": "mintedOn",
          "type": "uint256"
        }
      ],
      "name": "TokenMinted",
      "type": "event"
    },
    {
      "anonymous": false,
      "inputs": [
        {
          "indexed": true,
          "internalType": "bytes32",
          "name": "tokenHash",
          "type": "bytes32"
        },
        {
          "indexed": true,
          "internalType": "address",
          "name": "from",
          "type": "address"
        },
        {
          "indexed": true,
          "internalType": "address",
          "name": "to",
          "type": "address"
        },
        {
          "indexed": false,
          "internalType": "uint256",
          "name": "timestamp",
          "type": "uint256"
        }
      ],
      "name": "TokenTransferred",
      "type": "event"
    },
    {
      "inputs": [
        {
          "internalType": "address",
          "name": "_msc",
          "type": "address"
        }
      ],
      "name": "set_management_sc",
      "outputs": [],
      "stateMutability": "nonpayable",
      "type": "function"
    },
    {
      "inputs": [],
      "name": "get_management_sc",
      "outputs": [
        {
          "internalType": "address",
          "name": "",
          "type": "address"
        }
      ],
      "stateMutability": "view",
      "type": "function",
      "constant": true
    },
    {
      "inputs": [
        {
          "internalType": "uint8",
          "name": "_ingridientID",
          "type": "uint8"
        },
        {
          "internalType": "uint256",
          "name": "_amount",
          "type": "uint256"
        }
      ],
      "name": "mint_token",
      "outputs": [
        {
          "internalType": "bytes32",
          "name": "",
          "type": "bytes32"
        }
      ],
      "stateMutability": "nonpayable",
      "type": "function"
    },
    {
      "inputs": [
        {
          "internalType": "bytes32",
          "name": "_tokenHash",
          "type": "bytes32"
        },
        {
          "internalType": "address",
          "name": "_receiver",
          "type": "address"
        }
      ],
      "name": "transfer_token",
      "outputs": [
        {
          "internalType": "bool",
          "name": "",
          "type": "bool"
        }
      ],
      "stateMutability": "nonpayable",
      "type": "function"
    },
    {
      "inputs": [
        {
          "internalType": "bytes32[]",
          "name": "_tokenHash",
          "type": "bytes32[]"
        }
      ],
      "name": "receive_tokens",
      "outputs": [],
      "stateMutability": "payable",
      "type": "function",
      "payable": true
    },
    {
      "inputs": [
        {
          "internalType": "uint8",
          "name": "_ingridientID",
          "type": "uint8"
        },
        {
          "internalType": "bytes32",
          "name": "_tokenHash",
          "type": "bytes32"
        },
        {
          "internalType": "uint256",
          "name": "_amount",
          "type": "uint256"
        }
      ],
      "name": "split_token",
      "outputs": [
        {
          "internalType": "bytes32",
          "name": "",
          "type": "bytes32"
        }
      ],
      "stateMutability": "nonpayable",
      "type": "function"
    },
    {
      "inputs": [
        {
          "internalType": "bytes32",
          "name": "_tokenHash",
          "type": "bytes32"
        }
      ],
      "name": "getTokenData",
      "outputs": [
        {
          "internalType": "uint8",
          "name": "",
          "type": "uint8"
        },
        {
          "internalType": "uint8",
          "name": "",
          "type": "uint8"
        },
        {
          "internalType": "uint256",
          "name": "",
          "type": "uint256"
        },
        {
          "internalType": "address",
          "name": "",
          "type": "address"
        },
        {
          "internalType": "address",
          "name": "",
          "type": "address"
        },
        {
          "internalType": "uint256",
          "name": "",
          "type": "uint256"
        },
        {
          "internalType": "bytes32",
          "name": "",
          "type": "bytes32"
        }
      ],
      "stateMutability": "view",
      "type": "function",
      "constant": true
    },
    {
      "inputs": [
        {
          "internalType": "uint256",
          "name": "_totalPacks",
          "type": "uint256"
        },
        {
          "internalType": "bytes32[]",
          "name": "_tokenHashes",
          "type": "bytes32[]"
        },
        {
          "internalType": "uint256[]",
          "name": "_quantities",
          "type": "uint256[]"
        }
      ],
      "name": "createSuperPack",
      "outputs": [
        {
          "internalType": "bytes32[]",
          "name": "",
          "type": "bytes32[]"
        }
      ],
      "stateMutability": "payable",
      "type": "function",
      "payable": true
    },
    {
      "inputs": [
        {
          "internalType": "bytes32",
          "name": "_packAddress",
          "type": "bytes32"
        }
      ],
      "name": "viewPack",
      "outputs": [
        {
          "internalType": "uint256",
          "name": "",
          "type": "uint256"
        },
        {
          "internalType": "bytes32[]",
          "name": "",
          "type": "bytes32[]"
        },
        {
          "internalType": "uint256",
          "name": "",
          "type": "uint256"
        },
        {
          "internalType": "uint256",
          "name": "",
          "type": "uint256"
        }
      ],
      "stateMutability": "view",
      "type": "function",
      "constant": true
    },
    {
      "inputs": [
        {
          "internalType": "address",
          "name": "_owner",
          "type": "address"
        }
      ],
      "name": "getUserPendingTokens",
      "outputs": [
        {
          "internalType": "bytes32[]",
          "name": "",
          "type": "bytes32[]"
        }
      ],
      "stateMutability": "view",
      "type": "function",
      "constant": true
    },
    {
      "inputs": [
        {
          "internalType": "address",
          "name": "_owner",
          "type": "address"
        }
      ],
      "name": "getUserTokens",
      "outputs": [
        {
          "internalType": "bytes32[]",
          "name": "",
          "type": "bytes32[]"
        }
      ],
      "stateMutability": "view",
      "type": "function",
      "constant": true
    },
    {
      "inputs": [
        {
          "internalType": "address",
          "name": "_owner",
          "type": "address"
        }
      ],
      "name": "getUserPacks",
      "outputs": [
        {
          "internalType": "bytes32[]",
          "name": "",
          "type": "bytes32[]"
        }
      ],
      "stateMutability": "view",
      "type": "function",
      "constant": true
    },
    {
      "inputs": [
        {
          "internalType": "address",
          "name": "_owner",
          "type": "address"
        }
      ],
      "name": "getUserSuperPacks",
      "outputs": [
        {
          "internalType": "bytes32[]",
          "name": "",
          "type": "bytes32[]"
        }
      ],
      "stateMutability": "view",
      "type": "function",
      "constant": true
    },
    {
      "inputs": [
        {
          "internalType": "bytes32",
          "name": "_superPackHash",
          "type": "bytes32"
        }
      ],
      "name": "getSuperPackMapping",
      "outputs": [
        {
          "internalType": "bytes32[]",
          "name": "",
          "type": "bytes32[]"
        }
      ],
      "stateMutability": "view",
      "type": "function",
      "constant": true
    },
    {
      "inputs": [
        {
          "internalType": "bytes32",
          "name": "_tokenHash",
          "type": "bytes32"
        }
      ],
      "name": "getTokenPastHolders",
      "outputs": [
        {
          "internalType": "bytes32[]",
          "name": "",
          "type": "bytes32[]"
        }
      ],
      "stateMutability": "view",
      "type": "function",
      "constant": true
    },
    {
      "inputs": [
        {
          "internalType": "bytes32",
          "name": "_holderHash",
          "type": "bytes32"
        }
      ],
      "name": "getTokenPastHolderData",
      "outputs": [
        {
          "internalType": "address",
          "name": "",
          "type": "address"
        },
        {
          "internalType": "uint256",
          "name": "",
          "type": "uint256"
        }
      ],
      "stateMutability": "view",
      "type": "function",
      "constant": true
    }
  ],
  "bytecode": "0x608060405234801561001057600080fd5b5033600b60006101000a81548173ffffffffffffffffffffffffffffffffffffffff021916908373ffffffffffffffffffffffffffffffffffffffff160217905550613926806100616000396000f3fe6080604052600436106100f35760003560e01c80638f2fec081161008a578063bced792911610059578063bced7929146103b4578063c75eb839146103e4578063dcf7ad2014610400578063e4b49bba1461043e576100f3565b80638f2fec08146102d457806391c6bbc014610311578063962776691461034e578063bb6a81e414610377576100f3565b806356e432b4116100c657806356e432b4146101da5780635a5dcd231461021d578063755fa9081461025a5780638cb3a9a314610297576100f3565b806321073597146100f857806325b716b21461012357806349831dea14610160578063519dc8d21461019d575b600080fd5b34801561010457600080fd5b5061010d61047e565b60405161011a91906127ab565b60405180910390f35b34801561012f57600080fd5b5061014a60048036038101906101459190612806565b6104a8565b60405161015791906128fb565b60405180910390f35b34801561016c57600080fd5b506101876004803603810190610182919061298c565b61053f565b60405161019491906129db565b60405180910390f35b3480156101a957600080fd5b506101c460048036038101906101bf9190612806565b6108c0565b6040516101d191906128fb565b60405180910390f35b3480156101e657600080fd5b5061020160048036038101906101fc9190612a22565b610957565b6040516102149796959493929190612a6d565b60405180910390f35b34801561022957600080fd5b50610244600480360381019061023f9190612a22565b610a66565b60405161025191906128fb565b60405180910390f35b34801561026657600080fd5b50610281600480360381019061027c9190612adc565b610ad1565b60405161028e9190612b37565b60405180910390f35b3480156102a357600080fd5b506102be60048036038101906102b99190612806565b610dd9565b6040516102cb91906128fb565b60405180910390f35b3480156102e057600080fd5b506102fb60048036038101906102f69190612806565b610e70565b60405161030891906128fb565b60405180910390f35b34801561031d57600080fd5b5061033860048036038101906103339190612b52565b610f07565b60405161034591906129db565b60405180910390f35b34801561035a57600080fd5b5061037560048036038101906103709190612806565b6113fb565b005b34801561038357600080fd5b5061039e60048036038101906103999190612a22565b6114cf565b6040516103ab91906128fb565b60405180910390f35b6103ce60048036038101906103c99190612dc1565b6115a9565b6040516103db91906128fb565b60405180910390f35b6103fe60048036038101906103f99190612e4c565b611b6c565b005b34801561040c57600080fd5b5061042760048036038101906104229190612a22565b611bb3565b604051610435929190612e95565b60405180910390f35b34801561044a57600080fd5b5061046560048036038101906104609190612a22565b611c48565b6040516104759493929190612ebe565b60405180910390f35b6000600a60009054906101000a900473ffffffffffffffffffffffffffffffffffffffff16905090565b6060600760008373ffffffffffffffffffffffffffffffffffffffff1673ffffffffffffffffffffffffffffffffffffffff16815260200190815260200160002080548060200260200160405190810160405280929190818152602001828054801561053357602002820191906000526020600020905b81548152602001906001019080831161051f575b50505050509050919050565b600080600a60009054906101000a900473ffffffffffffffffffffffffffffffffffffffff169050600115158173ffffffffffffffffffffffffffffffffffffffff1663a859e61433876040518363ffffffff1660e01b81526004016105a6929190612f0a565b602060405180830381865afa1580156105c3573d6000803e3d6000fd5b505050506040513d601f19601f820116820180604052508101906105e79190612f5f565b151514610629576040517f08c379a000000000000000000000000000000000000000000000000000000000815260040161062090612fe9565b60405180910390fd5b6000803373ffffffffffffffffffffffffffffffffffffffff1673ffffffffffffffffffffffffffffffffffffffff168152602001908152602001600020600081548092919061067890613038565b919050555060008460ff164261068e9190613081565b90506000336000803373ffffffffffffffffffffffffffffffffffffffff1673ffffffffffffffffffffffffffffffffffffffff16815260200190815260200160002054836040516020016106e5939291906130d7565b6040516020818303038152906040528051906020012090506000600160008381526020019081526020016000209050858160010181905550868160000160006101000a81548160ff021916908360ff160217905550338160020160006101000a81548173ffffffffffffffffffffffffffffffffffffffff021916908373ffffffffffffffffffffffffffffffffffffffff160217905550338160030160006101000a81548173ffffffffffffffffffffffffffffffffffffffff021916908373ffffffffffffffffffffffffffffffffffffffff16021790555060018160000160016101000a81548160ff021916908360ff160217905550428160040181905550818160070181905550818160080181905550600260003373ffffffffffffffffffffffffffffffffffffffff1673ffffffffffffffffffffffffffffffffffffffff1681526020019081526020016000208290806001815401808255809150506001900390600052602060002001600090919091909150553373ffffffffffffffffffffffffffffffffffffffff167f209445772d96edf9b06c44832f7e7bc8bd3a58851753d479d578b1d2681e58fd83888a426040516108ab949392919061310e565b60405180910390a28194505050505092915050565b6060600260008373ffffffffffffffffffffffffffffffffffffffff1673ffffffffffffffffffffffffffffffffffffffff16815260200190815260200160002080548060200260200160405190810160405280929190818152602001828054801561094b57602002820191906000526020600020905b815481526020019060010190808311610937575b50505050509050919050565b600080600080600080600080600160008a8152602001908152602001600020905060008160000160019054906101000a900460ff1660ff16116109cf576040517f08c379a00000000000000000000000000000000000000000000000000000000081526004016109c69061319f565b60405180910390fd5b8060000160009054906101000a900460ff168160000160019054906101000a900460ff1682600101548360020160009054906101000a900473ffffffffffffffffffffffffffffffffffffffff168460060160009054906101000a900473ffffffffffffffffffffffffffffffffffffffff1685600401548660070154975097509750975097509750975050919395979092949650565b606060096000838152602001908152602001600020805480602002602001604051908101604052809291908181526020018280548015610ac557602002820191906000526020600020905b815481526020019060010190808311610ab1575b50505050509050919050565b60008060016000858152602001908152602001600020905060008160000160019054906101000a900460ff1660ff1611610b40576040517f08c379a0000000000000000000000000000000000000000000000000000000008152600401610b379061319f565b60405180910390fd5b8060020160009054906101000a900473ffffffffffffffffffffffffffffffffffffffff1673ffffffffffffffffffffffffffffffffffffffff163373ffffffffffffffffffffffffffffffffffffffff1614610bd2576040517f08c379a0000000000000000000000000000000000000000000000000000000008152600401610bc99061320b565b60405180910390fd5b8273ffffffffffffffffffffffffffffffffffffffff163373ffffffffffffffffffffffffffffffffffffffff161415610c41576040517f08c379a0000000000000000000000000000000000000000000000000000000008152600401610c389061320b565b60405180910390fd5b60018160000160019054906101000a900460ff1660ff1614610c98576040517f08c379a0000000000000000000000000000000000000000000000000000000008152600401610c8f90613277565b60405180910390fd5b828160060160006101000a81548173ffffffffffffffffffffffffffffffffffffffff021916908373ffffffffffffffffffffffffffffffffffffffff16021790555042816005018190555060028160000160016101000a81548160ff021916908360ff160217905550600360008473ffffffffffffffffffffffffffffffffffffffff1673ffffffffffffffffffffffffffffffffffffffff1681526020019081526020016000208490806001815401808255809150506001900390600052602060002001600090919091909150558273ffffffffffffffffffffffffffffffffffffffff163373ffffffffffffffffffffffffffffffffffffffff16857fd5319d0fce8851aa7a99f3e68ed5af8cc2a0a97ee8a39dbdb989524457e0fd6d42604051610dc69190613297565b60405180910390a4600191505092915050565b6060600860008373ffffffffffffffffffffffffffffffffffffffff1673ffffffffffffffffffffffffffffffffffffffff168152602001908152602001600020805480602002602001604051908101604052809291908181526020018280548015610e6457602002820191906000526020600020905b815481526020019060010190808311610e50575b50505050509050919050565b6060600360008373ffffffffffffffffffffffffffffffffffffffff1673ffffffffffffffffffffffffffffffffffffffff168152602001908152602001600020805480602002602001604051908101604052809291908181526020018280548015610efb57602002820191906000526020600020905b815481526020019060010190808311610ee7575b50505050509050919050565b600080600a60009054906101000a900473ffffffffffffffffffffffffffffffffffffffff169050600115158173ffffffffffffffffffffffffffffffffffffffff166323ba78fe33886040518363ffffffff1660e01b8152600401610f6e929190612f0a565b602060405180830381865afa158015610f8b573d6000803e3d6000fd5b505050506040513d601f19601f82011682018060405250810190610faf9190612f5f565b151514610ff1576040517f08c379a0000000000000000000000000000000000000000000000000000000008152600401610fe8906132fe565b60405180910390fd5b600060016000868152602001908152602001600020905060008160000160019054906101000a900460ff1660ff161161105f576040517f08c379a00000000000000000000000000000000000000000000000000000000081526004016110569061319f565b60405180910390fd5b8060020160009054906101000a900473ffffffffffffffffffffffffffffffffffffffff1673ffffffffffffffffffffffffffffffffffffffff163373ffffffffffffffffffffffffffffffffffffffff16146110f1576040517f08c379a00000000000000000000000000000000000000000000000000000000081526004016110e89061336a565b60405180910390fd5b60018160000160019054906101000a900460ff1660ff1614611148576040517f08c379a000000000000000000000000000000000000000000000000000000000815260040161113f90613277565b60405180910390fd5b6000841161118b576040517f08c379a0000000000000000000000000000000000000000000000000000000008152600401611182906133d6565b60405180910390fd5b806001015484106111d1576040517f08c379a00000000000000000000000000000000000000000000000000000000081526004016111c8906133d6565b60405180910390fd5b8381600101546111e191906133f6565b81600101819055506000803373ffffffffffffffffffffffffffffffffffffffff1673ffffffffffffffffffffffffffffffffffffffff168152602001908152602001600020600081548092919061123890613038565b9190505550600060018760ff16426112509190613081565b61125a9190613081565b90506000336000803373ffffffffffffffffffffffffffffffffffffffff1673ffffffffffffffffffffffffffffffffffffffff16815260200190815260200160002054836040516020016112b1939291906130d7565b6040516020818303038152906040528051906020012090506000600160008381526020019081526020016000209050868160010181905550888160000160006101000a81548160ff021916908360ff160217905550338160020160006101000a81548173ffffffffffffffffffffffffffffffffffffffff021916908373ffffffffffffffffffffffffffffffffffffffff16021790555060018160000160016101000a81548160ff021916908360ff16021790555042816004018190555087816007018190555083600801548160080181905550600260003373ffffffffffffffffffffffffffffffffffffffff1673ffffffffffffffffffffffffffffffffffffffff16815260200190815260200160002082908060018154018082558091505060019003906000526020600020016000909190919091505581955050505050509392505050565b600b60009054906101000a900473ffffffffffffffffffffffffffffffffffffffff1673ffffffffffffffffffffffffffffffffffffffff163373ffffffffffffffffffffffffffffffffffffffff161461148b576040517f08c379a000000000000000000000000000000000000000000000000000000000815260040161148290613476565b60405180910390fd5b80600a60006101000a81548173ffffffffffffffffffffffffffffffffffffffff021916908373ffffffffffffffffffffffffffffffffffffffff16021790555050565b6060600060016000848152602001908152602001600020905060008160000160019054906101000a900460ff1660ff161161153f576040517f08c379a00000000000000000000000000000000000000000000000000000000081526004016115369061319f565b60405180910390fd5b6005600084815260200190815260200160002080548060200260200160405190810160405280929190818152602001828054801561159c57602002820191906000526020600020905b815481526020019060010190808311611588575b5050505050915050919050565b606081518351146115ef576040517f08c379a00000000000000000000000000000000000000000000000000000000081526004016115e690613508565b60405180910390fd5b60005b83518110156117295760006001600086848151811061161457611613613528565b5b6020026020010151815260200190815260200160002090508060020160009054906101000a900473ffffffffffffffffffffffffffffffffffffffff1673ffffffffffffffffffffffffffffffffffffffff163373ffffffffffffffffffffffffffffffffffffffff16146116be576040517f08c379a00000000000000000000000000000000000000000000000000000000081526004016116b5906135c9565b60405180910390fd5b60018160000160019054906101000a900460ff1660ff1614611715576040517f08c379a000000000000000000000000000000000000000000000000000000000815260040161170c90613635565b60405180910390fd5b50808061172190613038565b9150506115f2565b506000600167ffffffffffffffff81111561174757611746612bbb565b5b6040519080825280602002602001820160405280156117755781602001602082028036833780820191505090505b5090506000803373ffffffffffffffffffffffffffffffffffffffff1673ffffffffffffffffffffffffffffffffffffffff16815260200190815260200160002060008154809291906117c790613038565b919050555060006001426117db9190613081565b90506000336000803373ffffffffffffffffffffffffffffffffffffffff1673ffffffffffffffffffffffffffffffffffffffff1681526020019081526020016000205483604051602001611832939291906130d7565b604051602081830303815290604052805190602001209050600860003373ffffffffffffffffffffffffffffffffffffffff1673ffffffffffffffffffffffffffffffffffffffff1681526020019081526020016000208190806001815401808255809150506001900390600052602060002001600090919091909150556000865167ffffffffffffffff8111156118cd576118cc612bbb565b5b6040519080825280602002602001820160405280156118fb5781602001602082028036833780820191505090505b50905060005b8751811015611aa4576000600160008a848151811061192357611922613528565b5b6020026020010151815260200190815260200160002090508988838151811061194f5761194e613528565b5b60200260200101516119619190613655565b816001015414611a555780600101548a89848151811061198457611983613528565b5b60200260200101516119969190613655565b106119d6576040517f08c379a00000000000000000000000000000000000000000000000000000000081526004016119cd90613721565b60405180910390fd5b611a318160000160009054906101000a900460ff168a84815181106119fe576119fd613528565b5b60200260200101518c8b8681518110611a1a57611a19613528565b5b6020026020010151611a2c9190613655565b610f07565b838381518110611a4457611a43613528565b5b602002602001018181525050611a90565b888281518110611a6857611a67613528565b5b6020026020010151838381518110611a8357611a82613528565b5b6020026020010181815250505b508080611a9c90613038565b915050611901565b506000611ab2898333611d72565b90508085600081518110611ac957611ac8613528565b5b602002602001018181525050600960008481526020019081526020016000208190806001815401808255809150506001900390600052602060002001600090919091909150553373ffffffffffffffffffffffffffffffffffffffff167f8402e11ddc254f3089edb56851166369395d334e91903888ebcf4f494a65e25682604051611b5591906129db565b60405180910390a284955050505050509392505050565b60005b8151811015611baf57611b9c828281518110611b8e57611b8d613528565b5b602002602001015133612118565b8080611ba790613038565b915050611b6f565b5050565b60008060006004600085815260200190815260200160002090506000816001015411611c14576040517f08c379a0000000000000000000000000000000000000000000000000000000008152600401611c0b9061378d565b60405180910390fd5b8060000160009054906101000a900473ffffffffffffffffffffffffffffffffffffffff1681600101549250925050915091565b600060606000806000600660008781526020019081526020016000209050600073ffffffffffffffffffffffffffffffffffffffff168160000160009054906101000a900473ffffffffffffffffffffffffffffffffffffffff1673ffffffffffffffffffffffffffffffffffffffff161415611cfa576040517f08c379a0000000000000000000000000000000000000000000000000000000008152600401611cf19061319f565b60405180910390fd5b8060010180549050816001018260020154836003015482805480602002602001604051908101604052809291908181526020018280548015611d5b57602002820191906000526020600020905b815481526020019060010190808311611d47575b505050505092509450945094509450509193509193565b600080600090505b8351811015611eb157600060016000868481518110611d9c57611d9b613528565b5b6020026020010151815260200190815260200160002090508060020160009054906101000a900473ffffffffffffffffffffffffffffffffffffffff1673ffffffffffffffffffffffffffffffffffffffff168473ffffffffffffffffffffffffffffffffffffffff1614611e46576040517f08c379a0000000000000000000000000000000000000000000000000000000008152600401611e3d906135c9565b60405180910390fd5b60018160000160019054906101000a900460ff1660ff1614611e9d576040517f08c379a0000000000000000000000000000000000000000000000000000000008152600401611e9490613635565b60405180910390fd5b508080611ea990613038565b915050611d7a565b506000803373ffffffffffffffffffffffffffffffffffffffff1673ffffffffffffffffffffffffffffffffffffffff1681526020019081526020016000206000815480929190611f0190613038565b91905055506000600142611f159190613081565b90506000336000803373ffffffffffffffffffffffffffffffffffffffff1673ffffffffffffffffffffffffffffffffffffffff1681526020019081526020016000205483604051602001611f6c939291906130d7565b6040516020818303038152906040528051906020012090506000600660008381526020019081526020016000209050868160030181905550848160000160006101000a81548173ffffffffffffffffffffffffffffffffffffffff021916908373ffffffffffffffffffffffffffffffffffffffff16021790555042816002018190555060005b86518110156120a45760006001600089848151811061201557612014613528565b5b60200260200101518152602001908152602001600020905060038160000160016101000a81548160ff021916908360ff1602179055508260010188838151811061206257612061613528565b5b6020026020010151908060018154018082558091505060019003906000526020600020016000909190919091505550808061209c90613038565b915050611ff3565b50600760003373ffffffffffffffffffffffffffffffffffffffff1673ffffffffffffffffffffffffffffffffffffffff1681526020019081526020016000208290806001815401808255809150506001900390600052602060002001600090919091909150558193505050509392505050565b60006001600084815260200190815260200160002090508060060160009054906101000a900473ffffffffffffffffffffffffffffffffffffffff1673ffffffffffffffffffffffffffffffffffffffff168273ffffffffffffffffffffffffffffffffffffffff16146121c1576040517f08c379a00000000000000000000000000000000000000000000000000000000081526004016121b89061381f565b60405180910390fd5b60028160000160019054906101000a900460ff1660ff1614612218576040517f08c379a000000000000000000000000000000000000000000000000000000000815260040161220f9061388b565b60405180910390fd5b6000808373ffffffffffffffffffffffffffffffffffffffff1673ffffffffffffffffffffffffffffffffffffffff168152602001908152602001600020600081548092919061226790613038565b91905055506000826000808573ffffffffffffffffffffffffffffffffffffffff1673ffffffffffffffffffffffffffffffffffffffff1681526020019081526020016000205442866040516020016122c394939291906138ab565b60405160208183030381529060405280519060200120905060006004600083815260200190815260200160002090508260020160009054906101000a900473ffffffffffffffffffffffffffffffffffffffff168160000160006101000a81548173ffffffffffffffffffffffffffffffffffffffff021916908373ffffffffffffffffffffffffffffffffffffffff160217905550428160010181905550338360020160006101000a81548173ffffffffffffffffffffffffffffffffffffffff021916908373ffffffffffffffffffffffffffffffffffffffff16021790555060008360060160006101000a81548173ffffffffffffffffffffffffffffffffffffffff021916908373ffffffffffffffffffffffffffffffffffffffff16021790555060018360000160016101000a81548160ff021916908360ff16021790555060005b600360003373ffffffffffffffffffffffffffffffffffffffff1673ffffffffffffffffffffffffffffffffffffffff1681526020019081526020016000208054905081101561252e5785600360003373ffffffffffffffffffffffffffffffffffffffff1673ffffffffffffffffffffffffffffffffffffffff16815260200190815260200160002082815481106124a6576124a5613528565b5b9060005260206000200154141561251b57600360003373ffffffffffffffffffffffffffffffffffffffff1673ffffffffffffffffffffffffffffffffffffffff168152602001908152602001600020818154811061250857612507613528565b5b906000526020600020016000905561252e565b808061252690613038565b91505061240a565b5060005b600260008360000160009054906101000a900473ffffffffffffffffffffffffffffffffffffffff1673ffffffffffffffffffffffffffffffffffffffff1673ffffffffffffffffffffffffffffffffffffffff168152602001908152602001600020805490508110156126c25785600260008460000160009054906101000a900473ffffffffffffffffffffffffffffffffffffffff1673ffffffffffffffffffffffffffffffffffffffff1673ffffffffffffffffffffffffffffffffffffffff168152602001908152602001600020828154811061261657612615613528565b5b906000526020600020015414156126af57600260008360000160009054906101000a900473ffffffffffffffffffffffffffffffffffffffff1673ffffffffffffffffffffffffffffffffffffffff1673ffffffffffffffffffffffffffffffffffffffff168152602001908152602001600020818154811061269c5761269b613528565b5b90600052602060002001600090556126c2565b80806126ba90613038565b915050612532565b50600260003373ffffffffffffffffffffffffffffffffffffffff1673ffffffffffffffffffffffffffffffffffffffff168152602001908152602001600020859080600181540180825580915050600190039060005260206000200160009091909190915055600560008681526020019081526020016000208290806001815401808255809150506001900390600052602060002001600090919091909150555050505050565b600073ffffffffffffffffffffffffffffffffffffffff82169050919050565b60006127958261276a565b9050919050565b6127a58161278a565b82525050565b60006020820190506127c0600083018461279c565b92915050565b6000604051905090565b600080fd5b600080fd5b6127e38161278a565b81146127ee57600080fd5b50565b600081359050612800816127da565b92915050565b60006020828403121561281c5761281b6127d0565b5b600061282a848285016127f1565b91505092915050565b600081519050919050565b600082825260208201905092915050565b6000819050602082019050919050565b6000819050919050565b6128728161285f565b82525050565b60006128848383612869565b60208301905092915050565b6000602082019050919050565b60006128a882612833565b6128b2818561283e565b93506128bd8361284f565b8060005b838110156128ee5781516128d58882612878565b97506128e083612890565b9250506001810190506128c1565b5085935050505092915050565b60006020820190508181036000830152612915818461289d565b905092915050565b600060ff82169050919050565b6129338161291d565b811461293e57600080fd5b50565b6000813590506129508161292a565b92915050565b6000819050919050565b61296981612956565b811461297457600080fd5b50565b60008135905061298681612960565b92915050565b600080604083850312156129a3576129a26127d0565b5b60006129b185828601612941565b92505060206129c285828601612977565b9150509250929050565b6129d58161285f565b82525050565b60006020820190506129f060008301846129cc565b92915050565b6129ff8161285f565b8114612a0a57600080fd5b50565b600081359050612a1c816129f6565b92915050565b600060208284031215612a3857612a376127d0565b5b6000612a4684828501612a0d565b91505092915050565b612a588161291d565b82525050565b612a6781612956565b82525050565b600060e082019050612a82600083018a612a4f565b612a8f6020830189612a4f565b612a9c6040830188612a5e565b612aa9606083018761279c565b612ab6608083018661279c565b612ac360a0830185612a5e565b612ad060c08301846129cc565b98975050505050505050565b60008060408385031215612af357612af26127d0565b5b6000612b0185828601612a0d565b9250506020612b12858286016127f1565b9150509250929050565b60008115159050919050565b612b3181612b1c565b82525050565b6000602082019050612b4c6000830184612b28565b92915050565b600080600060608486031215612b6b57612b6a6127d0565b5b6000612b7986828701612941565b9350506020612b8a86828701612a0d565b9250506040612b9b86828701612977565b9150509250925092565b600080fd5b6000601f19601f8301169050919050565b7f4e487b7100000000000000000000000000000000000000000000000000000000600052604160045260246000fd5b612bf382612baa565b810181811067ffffffffffffffff82111715612c1257612c11612bbb565b5b80604052505050565b6000612c256127c6565b9050612c318282612bea565b919050565b600067ffffffffffffffff821115612c5157612c50612bbb565b5b602082029050602081019050919050565b600080fd5b6000612c7a612c7584612c36565b612c1b565b90508083825260208201905060208402830185811115612c9d57612c9c612c62565b5b835b81811015612cc65780612cb28882612a0d565b845260208401935050602081019050612c9f565b5050509392505050565b600082601f830112612ce557612ce4612ba5565b5b8135612cf5848260208601612c67565b91505092915050565b600067ffffffffffffffff821115612d1957612d18612bbb565b5b602082029050602081019050919050565b6000612d3d612d3884612cfe565b612c1b565b90508083825260208201905060208402830185811115612d6057612d5f612c62565b5b835b81811015612d895780612d758882612977565b845260208401935050602081019050612d62565b5050509392505050565b600082601f830112612da857612da7612ba5565b5b8135612db8848260208601612d2a565b91505092915050565b600080600060608486031215612dda57612dd96127d0565b5b6000612de886828701612977565b935050602084013567ffffffffffffffff811115612e0957612e086127d5565b5b612e1586828701612cd0565b925050604084013567ffffffffffffffff811115612e3657612e356127d5565b5b612e4286828701612d93565b9150509250925092565b600060208284031215612e6257612e616127d0565b5b600082013567ffffffffffffffff811115612e8057612e7f6127d5565b5b612e8c84828501612cd0565b91505092915050565b6000604082019050612eaa600083018561279c565b612eb76020830184612a5e565b9392505050565b6000608082019050612ed36000830187612a5e565b8181036020830152612ee5818661289d565b9050612ef46040830185612a5e565b612f016060830184612a5e565b95945050505050565b6000604082019050612f1f600083018561279c565b612f2c6020830184612a4f565b9392505050565b612f3c81612b1c565b8114612f4757600080fd5b50565b600081519050612f5981612f33565b92915050565b600060208284031215612f7557612f746127d0565b5b6000612f8384828501612f4a565b91505092915050565b600082825260208201905092915050565b7f4e6f207065726d20746f206d696e740000000000000000000000000000000000600082015250565b6000612fd3600f83612f8c565b9150612fde82612f9d565b602082019050919050565b6000602082019050818103600083015261300281612fc6565b9050919050565b7f4e487b7100000000000000000000000000000000000000000000000000000000600052601160045260246000fd5b600061304382612956565b91507fffffffffffffffffffffffffffffffffffffffffffffffffffffffffffffffff82141561307657613075613009565b5b600182019050919050565b600061308c82612956565b915061309783612956565b9250827fffffffffffffffffffffffffffffffffffffffffffffffffffffffffffffffff038211156130cc576130cb613009565b5b828201905092915050565b60006060820190506130ec600083018661279c565b6130f96020830185612a5e565b6131066040830184612a5e565b949350505050565b600060808201905061312360008301876129cc565b6131306020830186612a5e565b61313d6040830185612a4f565b61314a6060830184612a5e565b95945050505050565b7f4e6f6e206578697374656e7420746f6b656e0000000000000000000000000000600082015250565b6000613189601283612f8c565b915061319482613153565b602082019050919050565b600060208201905081810360008301526131b88161317c565b9050919050565b7f596f7520617265206e6f7420616c6c6f77656400000000000000000000000000600082015250565b60006131f5601383612f8c565b9150613200826131bf565b602082019050919050565b60006020820190508181036000830152613224816131e8565b9050919050565b7f546f6b656e20737461747573206e6f7420726561647900000000000000000000600082015250565b6000613261601683612f8c565b915061326c8261322b565b602082019050919050565b6000602082019050818103600083015261329081613254565b9050919050565b60006020820190506132ac6000830184612a5e565b92915050565b7f4e6f207065726d20746f2073706c697400000000000000000000000000000000600082015250565b60006132e8601083612f8c565b91506132f3826132b2565b602082019050919050565b60006020820190508181036000830152613317816132db565b9050919050565b7f596f7520617265206e6f7720616c6c6f77656400000000000000000000000000600082015250565b6000613354601383612f8c565b915061335f8261331e565b602082019050919050565b6000602082019050818103600083015261338381613347565b9050919050565b7f496e76616c69642073706c697420616d6f756e74000000000000000000000000600082015250565b60006133c0601483612f8c565b91506133cb8261338a565b602082019050919050565b600060208201905081810360008301526133ef816133b3565b9050919050565b600061340182612956565b915061340c83612956565b92508282101561341f5761341e613009565b5b828203905092915050565b7f4f6e6c792061646d696e2063616e20736574207065726d730000000000000000600082015250565b6000613460601883612f8c565b915061346b8261342a565b602082019050919050565b6000602082019050818103600083015261348f81613453565b9050919050565b7f546f6b656e7320616e64207175616e746974696573206c656e677468206d697360008201527f6d61746368000000000000000000000000000000000000000000000000000000602082015250565b60006134f2602583612f8c565b91506134fd82613496565b604082019050919050565b60006020820190508181036000830152613521816134e5565b9050919050565b7f4e487b7100000000000000000000000000000000000000000000000000000000600052603260045260246000fd5b7f596f7520617265206e6f7420616c6c6f7765642c20646966666572656e74206860008201527f6f6c646572000000000000000000000000000000000000000000000000000000602082015250565b60006135b3602583612f8c565b91506135be82613557565b604082019050919050565b600060208201905081810360008301526135e2816135a6565b9050919050565b7f546f6b656e2068617320746f20626520617661696c61626c6500000000000000600082015250565b600061361f601983612f8c565b915061362a826135e9565b602082019050919050565b6000602082019050818103600083015261364e81613612565b9050919050565b600061366082612956565b915061366b83612956565b9250817fffffffffffffffffffffffffffffffffffffffffffffffffffffffffffffffff04831182151516156136a4576136a3613009565b5b828202905092915050565b7f5175616e74697479206578636565647320617661696c61626c6520746f6b656e60008201527f20616d6f756e7400000000000000000000000000000000000000000000000000602082015250565b600061370b602783612f8c565b9150613716826136af565b604082019050919050565b6000602082019050818103600083015261373a816136fe565b9050919050565b7f4e6f6e206578697374656e7420686f6c64657200000000000000000000000000600082015250565b6000613777601383612f8c565b915061378282613741565b602082019050919050565b600060208201905081810360008301526137a68161376a565b9050919050565b7f596f7520617265206e6f7420616c6c6f7765642c20646966666572656e74207360008201527f656e646572207468616e20686f6c646572000000000000000000000000000000602082015250565b6000613809603183612f8c565b9150613814826137ad565b604082019050919050565b60006020820190508181036000830152613838816137fc565b9050919050565b7f546f6b656e20616c726561647920726563656976656400000000000000000000600082015250565b6000613875601683612f8c565b91506138808261383f565b602082019050919050565b600060208201905081810360008301526138a481613868565b9050919050565b60006080820190506138c0600083018761279c565b6138cd6020830186612a5e565b6138da6040830185612a5e565b6138e760608301846129cc565b9594505050505056fea2646970667358221220f6e6f96555795b12fd7851db5556ceba2b24c367d5b789a4573ac8848752d5b064736f6c634300080a0033",
  "immutableReferences": {},
  "source": "// SPDX-License-Identifier: GPL-3.0\n\npragma solidity >=0.7.0 <0.9.0;\n\nimport \"./Management.sol\";\nimport \"./Database.sol\";\n\n/**\n * @title FoodChainMonitoring\n * @dev Store & retrieve value in a variable\n */\ncontract Tracking {\n  event TokenMinted(\n    address indexed holder,\n    bytes32 tokenHash,\n    uint256 amount,\n    uint8 ingredientID,\n    uint256 mintedOn\n  );\n\n  event TokenTransferred(\n    bytes32 indexed tokenHash,\n    address indexed from,\n    address indexed to,\n    uint256 timestamp\n  );\n\n  // Event to emit the hash of a created pack\n  event PackCreated(address indexed holder, bytes32 packHash);\n\n  struct HoldersMapping {\n    address holderAddress;\n    uint256 timestamp; // when accepted from the next user\n  }\n\n  struct FinalProductsMapping {\n    address _producer;\n    bytes32[] _tokens;\n    uint256 created_on;\n    uint256 totalPacks;\n  }\n\n  struct FCToken {\n    uint8 ingridientID;\n    uint8 status; // packed?\n    uint256 amount;\n    address holder;\n    address producer; // set address to the first who minted this token\n    uint256 minted_on;\n    uint256 transfered_on;\n    address pending_holder;\n    bytes32 parent_token; // to be used by split to point to parent\n    bytes32 _tokenHash; // to be used by split and to read the content (need a stopper for the parent_token)\n  }\n\n  // Mapping from user address to nonce\n  mapping(address => uint256) private userNonces;\n\n  mapping(bytes32 => FCToken) _universeTokens;\n  mapping(address => bytes32[]) _userTokens;\n  mapping(address => bytes32[]) _userPendingTokens;\n\n  mapping(bytes32 => HoldersMapping) _universeHolders;\n  mapping(bytes32 => bytes32[]) _tokenHolders;\n\n  // address of the Final Product -> struct of the product\n  mapping(bytes32 => FinalProductsMapping) _finalProducts;\n  mapping(address => bytes32[]) _userPacks;\n\n  mapping(address => bytes32[]) _userSuperPacks;\n  mapping(bytes32 => bytes32[]) _superPacksMapping; //SuperPack to Pack\n\n  address management_sc;\n  address admin;\n\n  constructor() {\n    admin = msg.sender;\n  }\n\n  function set_management_sc(address _msc) public {\n    require(msg.sender == admin, \"Only admin can set perms\");\n    management_sc = _msc;\n  }\n\n  function get_management_sc() public view returns (address) {\n    return management_sc;\n  }\n\n  function mint_token(\n    uint8 _ingridientID,\n    uint256 _amount\n  ) public returns (bytes32) {\n    // create check method to verify the generation is valid\n    Management m = Management(management_sc);\n    require(\n      m.get_perm_mint(msg.sender, _ingridientID) == true,\n      \"No perm to mint\"\n    );\n\n    // Increment user's nonce\n    userNonces[msg.sender]++;\n    uint256 toHash = block.timestamp + _ingridientID;\n    bytes32 tokenHash = keccak256(\n      abi.encode(msg.sender, userNonces[msg.sender], toHash)\n    );\n\n    FCToken storage theToken = _universeTokens[tokenHash];\n\n    theToken.amount = _amount;\n    theToken.ingridientID = _ingridientID;\n    theToken.holder = msg.sender;\n    theToken.producer = msg.sender;\n    theToken.status = 1; // 1 = ready, 2 = transfer_pending, 3 = packed\n    theToken.minted_on = block.timestamp;\n    theToken.parent_token = tokenHash;\n    theToken._tokenHash = tokenHash;\n\n    _userTokens[msg.sender].push(tokenHash);\n    emit TokenMinted(\n      msg.sender,\n      tokenHash,\n      _amount,\n      _ingridientID,\n      block.timestamp\n    );\n\n    return tokenHash; // hash has to be generated by ingridient ID, first holder and timestamp\n  }\n\n  function transfer_token(\n    bytes32 _tokenHash,\n    address _receiver\n  ) public returns (bool) {\n    // FCToken storage tkn = tokens[_ingridientID][_tokenHash];\n    FCToken storage tkn = _universeTokens[_tokenHash];\n    require(tkn.status > 0, \"Non existent token\");\n    require(msg.sender == tkn.holder, \"You are not allowed\"); // Check that the tx.sender is the owner of the token\n    require(msg.sender != _receiver, \"You are not allowed\"); // Check that the tx.sender is the owner of the token\n    require(tkn.status == 1, \"Token status not ready\"); // check the state of the token (it has to be ready)\n    // check that the tx.sender can transfer such ingridient\n    // check that the tx.receiver can accept such ingridient\n\n    // set pending_holder to receiver\n    tkn.pending_holder = _receiver;\n    tkn.transfered_on = block.timestamp;\n    // set the status -> transfer_pending\n    tkn.status = 2;\n\n    _userPendingTokens[_receiver].push(_tokenHash);\n\n    // Emit the TokenTransferred event\n    emit TokenTransferred(_tokenHash, msg.sender, _receiver, block.timestamp);\n\n    return true;\n  }\n\n  function private_receive_token(bytes32 _tokenHash, address _sender) private {\n    // FCToken storage tkn = tokens[_ingridientID][_tokenHash];\n    FCToken storage tkn = _universeTokens[_tokenHash];\n    require(\n      _sender == tkn.pending_holder,\n      \"You are not allowed, different sender than holder\"\n    );\n    require(tkn.status == 2, \"Token already received\");\n\n    userNonces[_sender]++;\n    bytes32 holderHash = keccak256(\n      abi.encode(_sender, userNonces[_sender], block.timestamp, _tokenHash)\n    );\n\n    HoldersMapping storage holder = _universeHolders[holderHash];\n    holder.holderAddress = tkn.holder;\n    holder.timestamp = block.timestamp;\n\n    tkn.holder = msg.sender;\n    tkn.pending_holder = address(0);\n    tkn.status = 1;\n\n    // remove from pending tokens\n    for (\n      uint256 index = 0;\n      index < _userPendingTokens[msg.sender].length;\n      index++\n    ) {\n      if (_userPendingTokens[msg.sender][index] == _tokenHash) {\n        delete _userPendingTokens[msg.sender][index];\n        break;\n      }\n    }\n\n    // remove from past user tokens\n    for (\n      uint256 index = 0;\n      index < _userTokens[holder.holderAddress].length;\n      index++\n    ) {\n      if (_userTokens[holder.holderAddress][index] == _tokenHash) {\n        delete _userTokens[holder.holderAddress][index];\n        break;\n      }\n    }\n\n    _userTokens[msg.sender].push(_tokenHash);\n    _tokenHolders[_tokenHash].push(holderHash);\n  }\n\n  function receive_tokens(bytes32[] memory _tokenHash) public payable {\n    for (uint256 i = 0; i < _tokenHash.length; i++) {\n      private_receive_token(_tokenHash[i], msg.sender);\n    }\n  }\n\n  function split_token(\n    uint8 _ingridientID,\n    bytes32 _tokenHash,\n    uint256 _amount\n  ) public returns (bytes32) {\n    Management m = Management(management_sc);\n    require(\n      m.get_perm_split(msg.sender, _ingridientID) == true,\n      \"No perm to split\"\n    ); // to be implemented\n    // FCToken storage tkn = tokens[_ingridientID][_tokenHash];\n    FCToken storage tkn = _universeTokens[_tokenHash];\n    require(tkn.status > 0, \"Non existent token\");\n    require(msg.sender == tkn.holder, \"You are now allowed\"); // Check that the tx.sender is the owner of the token\n    require(tkn.status == 1, \"Token status not ready\"); // check the state of the token (it has to be ready)\n    require(_amount > 0, \"Invalid split amount\");\n    require(_amount < tkn.amount, \"Invalid split amount\");\n    tkn.amount = tkn.amount - _amount;\n\n    // Increment user's nonce\n    userNonces[msg.sender]++;\n    uint256 toHash = block.timestamp + _ingridientID + 1;\n    bytes32 tokenHash = keccak256(\n      abi.encode(msg.sender, userNonces[msg.sender], toHash)\n    );\n    // FCToken storage ntkn = tokens[_ingridientID][tokenHash];\n    FCToken storage ntkn = _universeTokens[tokenHash];\n\n    ntkn.amount = _amount;\n    ntkn.ingridientID = _ingridientID;\n    ntkn.holder = msg.sender;\n    ntkn.status = 1; // 1 = ready, 2 = transfer_pending, 3 = packed\n    ntkn.minted_on = block.timestamp;\n\n    ntkn.parent_token = _tokenHash; // point to parent to trace back the\n    ntkn._tokenHash = tkn._tokenHash; // point to parent to trace back the\n    _userTokens[msg.sender].push(tokenHash);\n\n    return tokenHash;\n  }\n\n  function getTokenData(\n    bytes32 _tokenHash\n  )\n    public\n    view\n    returns (uint8, uint8, uint256, address, address, uint256, bytes32)\n  {\n    FCToken storage tkn = _universeTokens[_tokenHash];\n    require(tkn.status > 0, \"Non existent token\");\n\n    return (\n      tkn.ingridientID,\n      tkn.status,\n      tkn.amount,\n      tkn.holder,\n      tkn.pending_holder,\n      tkn.minted_on,\n      tkn.parent_token\n    );\n  }\n\n  function pack(\n    uint256 _totalPacks,\n    bytes32[] memory _tokenHash,\n    address _sender\n  ) private returns (bytes32) {\n    // maybe dummy, but 2 loops, one to check permissions the other to alter the tokens\n    for (uint256 i = 0; i < _tokenHash.length; i++) {\n      // check for permissions and the status of the token\n      FCToken storage tkn = _universeTokens[_tokenHash[i]];\n\n      require(_sender == tkn.holder, \"You are not allowed, different holder\");\n      require(tkn.status == 1, \"Token has to be available\");\n    }\n\n    // Increment user's nonce\n    userNonces[msg.sender]++;\n    uint256 toHash = block.timestamp + 1;\n    bytes32 packHash = keccak256(\n      abi.encode(msg.sender, userNonces[msg.sender], toHash)\n    );\n\n    FinalProductsMapping storage product = _finalProducts[packHash];\n    product.totalPacks = _totalPacks;\n    product._producer = _sender;\n    product.created_on = block.timestamp;\n    for (uint256 i = 0; i < _tokenHash.length; i++) {\n      FCToken storage tkn = _universeTokens[_tokenHash[i]];\n      tkn.status = 3;\n      product._tokens.push(_tokenHash[i]);\n    }\n\n    _userPacks[msg.sender].push(packHash);\n    return packHash;\n  }\n\n  function createSuperPack(\n    uint256 _totalPacks,\n    bytes32[] memory _tokenHashes,\n    uint256[] memory _quantities\n  ) public payable returns (bytes32[] memory) {\n    require(\n      _tokenHashes.length == _quantities.length,\n      \"Tokens and quantities length mismatch\"\n    );\n    for (uint256 i = 0; i < _tokenHashes.length; i++) {\n      // check for permissions and the status of the token\n      FCToken storage tkn = _universeTokens[_tokenHashes[i]];\n\n      require(\n        msg.sender == tkn.holder,\n        \"You are not allowed, different holder\"\n      );\n      require(tkn.status == 1, \"Token has to be available\");\n    }\n\n    // Temporary storage for new or original token hashes to be packed\n    bytes32[] memory allPackHashes = new bytes32[](1);\n\n    // Increment user's nonce\n    userNonces[msg.sender]++;\n    uint256 toHash = block.timestamp + 1;\n    bytes32 superPackHash = keccak256(\n      abi.encode(msg.sender, userNonces[msg.sender], toHash)\n    );\n\n    _userSuperPacks[msg.sender].push(superPackHash);\n\n    // Temporary storage for new or original token hashes to be packed for this iteration\n    bytes32[] memory tokensToPack = new bytes32[](_tokenHashes.length);\n\n    for (uint256 i = 0; i < _tokenHashes.length; i++) {\n      FCToken storage tkn = _universeTokens[_tokenHashes[i]];\n\n      if (tkn.amount != (_quantities[i] * _totalPacks)) {\n        // block execution if requested quantity is greater than the token current amount\n        require(\n          (_quantities[i] * _totalPacks) < tkn.amount,\n          \"Quantity exceeds available token amount\"\n        );\n        tokensToPack[i] = split_token(\n          tkn.ingridientID,\n          _tokenHashes[i],\n          _quantities[i] * _totalPacks\n        );\n      } else {\n        tokensToPack[i] = _tokenHashes[i];\n      }\n    }\n\n    // Pack the tokens and store the pack hash\n    bytes32 packHash = pack(_totalPacks, tokensToPack, msg.sender);\n    allPackHashes[0] = packHash;\n    _superPacksMapping[superPackHash].push(packHash);\n    // Emit an event with the pack hash\n    emit PackCreated(msg.sender, packHash);\n\n    return allPackHashes;\n  }\n\n  function viewPack(\n    bytes32 _packAddress\n  ) public view returns (uint256, bytes32[] memory, uint256, uint256) {\n    FinalProductsMapping storage product = _finalProducts[_packAddress];\n    require(product._producer != address(0), \"Non existent token\");\n\n    return (\n      product._tokens.length,\n      product._tokens,\n      product.created_on,\n      product.totalPacks\n    );\n  }\n\n  function getUserPendingTokens(\n    address _owner\n  ) public view returns (bytes32[] memory) {\n    return _userPendingTokens[_owner];\n  }\n\n  function getUserTokens(\n    address _owner\n  ) public view returns (bytes32[] memory) {\n    return _userTokens[_owner];\n  }\n\n  function getUserPacks(address _owner) public view returns (bytes32[] memory) {\n    return _userPacks[_owner];\n  }\n\n  function getUserSuperPacks(\n    address _owner\n  ) public view returns (bytes32[] memory) {\n    return _userSuperPacks[_owner];\n  }\n\n  function getSuperPackMapping(\n    bytes32 _superPackHash\n  ) public view returns (bytes32[] memory) {\n    return _superPacksMapping[_superPackHash];\n  }\n\n  function getTokenPastHolders(\n    bytes32 _tokenHash\n  ) public view returns (bytes32[] memory) {\n    FCToken storage tkn = _universeTokens[_tokenHash];\n    require(tkn.status > 0, \"Non existent token\");\n\n    return _tokenHolders[_tokenHash];\n  }\n\n\n  function getTokenPastHolderData(\n    bytes32 _holderHash\n  ) public view returns (address, uint256) {\n    HoldersMapping storage holder = _universeHolders[_holderHash];\n    require(holder.timestamp > 0, \"Non existent holder\");\n\n    return (holder.holderAddress, holder.timestamp);\n  }\n}\n",
  "sourcePath": "C:\\Users\\Orion\\Documents\\UNI\\smartcontract\\contracts\\Tracking.sol",
  "compiler": {
    "name": "solc",
    "version": "0.8.10+commit.fc410830.Emscripten.clang"
  },
  "schemaVersion": "3.4.16",
  "updatedAt": "2024-03-05T19:08:56.571Z",
  "networkType": "ethereum",
  "devdoc": {
    "details": "Store & retrieve value in a variable",
    "kind": "dev",
    "methods": {},
    "title": "FoodChainMonitoring",
    "version": 1
  },
  "userdoc": {
    "kind": "user",
    "methods": {},
    "version": 1
  }
}