{
  "contractName": "Tracking",
  "abi": [
    {
      "inputs": [],
      "stateMutability": "nonpayable",
      "type": "constructor"
    },
    {
      "anonymous": false,
      "inputs": [
        {
          "indexed": false,
          "internalType": "uint8",
          "name": "_ingridientID",
          "type": "uint8"
        },
        {
          "indexed": false,
          "internalType": "bytes32",
          "name": "_tokenHash",
          "type": "bytes32"
        },
        {
          "indexed": false,
          "internalType": "address",
          "name": "_receiver",
          "type": "address"
        }
      ],
      "name": "_eTransferToken",
      "type": "event"
    },
    {
      "anonymous": false,
      "inputs": [
        {
          "indexed": false,
          "internalType": "bytes32",
          "name": "tokenhash",
          "type": "bytes32"
        },
        {
          "indexed": false,
          "internalType": "address",
          "name": "owner",
          "type": "address"
        },
        {
          "indexed": false,
          "internalType": "uint8",
          "name": "_ingridientID",
          "type": "uint8"
        }
      ],
      "name": "_exposeMintedTokenHash",
      "type": "event"
    },
    {
      "anonymous": false,
      "inputs": [
        {
          "indexed": true,
          "internalType": "uint8",
          "name": "value1",
          "type": "uint8"
        }
      ],
      "name": "test_uint8",
      "type": "event"
    },
    {
      "anonymous": false,
      "inputs": [
        {
          "indexed": true,
          "internalType": "address",
          "name": "value1",
          "type": "address"
        }
      ],
      "name": "test_value",
      "type": "event"
    },
    {
      "inputs": [
        {
          "internalType": "address",
          "name": "_msc",
          "type": "address"
        }
      ],
      "name": "set_management_sc",
      "outputs": [],
      "stateMutability": "nonpayable",
      "type": "function"
    },
    {
      "inputs": [],
      "name": "get_management_sc",
      "outputs": [
        {
          "internalType": "address",
          "name": "",
          "type": "address"
        }
      ],
      "stateMutability": "view",
      "type": "function",
      "constant": true
    },
    {
      "inputs": [
        {
          "internalType": "address",
          "name": "_msc",
          "type": "address"
        }
      ],
      "name": "set_database_sc",
      "outputs": [],
      "stateMutability": "nonpayable",
      "type": "function"
    },
    {
      "inputs": [],
      "name": "get_database_sc",
      "outputs": [
        {
          "internalType": "address",
          "name": "",
          "type": "address"
        }
      ],
      "stateMutability": "view",
      "type": "function",
      "constant": true
    },
    {
      "inputs": [
        {
          "internalType": "uint8",
          "name": "_ingridientID",
          "type": "uint8"
        },
        {
          "internalType": "uint8",
          "name": "_amount",
          "type": "uint8"
        }
      ],
      "name": "mint_token",
      "outputs": [
        {
          "internalType": "bytes32",
          "name": "",
          "type": "bytes32"
        }
      ],
      "stateMutability": "nonpayable",
      "type": "function"
    },
    {
      "inputs": [
        {
          "internalType": "uint8",
          "name": "_ingridientID",
          "type": "uint8"
        },
        {
          "internalType": "bytes32",
          "name": "_tokenHash",
          "type": "bytes32"
        },
        {
          "internalType": "address",
          "name": "_receiver",
          "type": "address"
        }
      ],
      "name": "transfer_token",
      "outputs": [
        {
          "internalType": "bool",
          "name": "",
          "type": "bool"
        }
      ],
      "stateMutability": "nonpayable",
      "type": "function"
    },
    {
      "inputs": [
        {
          "internalType": "uint8",
          "name": "_ingridientID",
          "type": "uint8"
        },
        {
          "internalType": "bytes32",
          "name": "_tokenHash",
          "type": "bytes32"
        }
      ],
      "name": "receive_token",
      "outputs": [
        {
          "internalType": "bool",
          "name": "",
          "type": "bool"
        }
      ],
      "stateMutability": "nonpayable",
      "type": "function"
    },
    {
      "inputs": [
        {
          "internalType": "uint8[]",
          "name": "_ingridientID",
          "type": "uint8[]"
        },
        {
          "internalType": "bytes32[]",
          "name": "_tokenHash",
          "type": "bytes32[]"
        }
      ],
      "name": "receive_tokens",
      "outputs": [],
      "stateMutability": "payable",
      "type": "function",
      "payable": true
    },
    {
      "inputs": [
        {
          "internalType": "uint8",
          "name": "_ingridientID",
          "type": "uint8"
        },
        {
          "internalType": "bytes32",
          "name": "_tokenHash",
          "type": "bytes32"
        },
        {
          "internalType": "uint8",
          "name": "_amount",
          "type": "uint8"
        }
      ],
      "name": "split_token",
      "outputs": [
        {
          "internalType": "bytes32",
          "name": "",
          "type": "bytes32"
        }
      ],
      "stateMutability": "nonpayable",
      "type": "function"
    },
    {
      "inputs": [
        {
          "internalType": "uint8",
          "name": "_ingridientID",
          "type": "uint8"
        },
        {
          "internalType": "bytes32",
          "name": "_tokenHash",
          "type": "bytes32"
        }
      ],
      "name": "getTokenData",
      "outputs": [
        {
          "internalType": "uint8",
          "name": "",
          "type": "uint8"
        },
        {
          "internalType": "uint8",
          "name": "",
          "type": "uint8"
        },
        {
          "internalType": "uint8",
          "name": "",
          "type": "uint8"
        },
        {
          "internalType": "address",
          "name": "",
          "type": "address"
        },
        {
          "internalType": "address",
          "name": "",
          "type": "address"
        },
        {
          "internalType": "uint8",
          "name": "",
          "type": "uint8"
        }
      ],
      "stateMutability": "view",
      "type": "function",
      "constant": true
    },
    {
      "inputs": [
        {
          "internalType": "bytes32[]",
          "name": "_tokenHash",
          "type": "bytes32[]"
        },
        {
          "internalType": "address",
          "name": "_sender",
          "type": "address"
        }
      ],
      "name": "pack",
      "outputs": [],
      "stateMutability": "payable",
      "type": "function",
      "payable": true
    },
    {
      "inputs": [
        {
          "internalType": "bytes32",
          "name": "_packAddress",
          "type": "bytes32"
        }
      ],
      "name": "viewPack",
      "outputs": [
        {
          "internalType": "uint256",
          "name": "",
          "type": "uint256"
        },
        {
          "internalType": "bytes32[]",
          "name": "",
          "type": "bytes32[]"
        }
      ],
      "stateMutability": "view",
      "type": "function",
      "constant": true
    }
  ],
  "bytecode": "0x608060405234801561001057600080fd5b5033600560006101000a81548173ffffffffffffffffffffffffffffffffffffffff021916908373ffffffffffffffffffffffffffffffffffffffff1602179055506129cc806100616000396000f3fe6080604052600436106100a75760003560e01c806389ead6e21161006457806389ead6e2146101d35780639627766914610210578063aaabc4e814610239578063df3b6c8814610264578063e4b49bba146102a6578063f20990be146102e4576100a7565b806306dbcfad146100ac5780630cfac739146100d55780630fb65c0f14610112578063210735971461014f5780632aedd4c91461017a578063509a7399146101b7575b600080fd5b3480156100b857600080fd5b506100d360048036038101906100ce9190611ae3565b610300565b005b3480156100e157600080fd5b506100fc60048036038101906100f79190611b7f565b6103d4565b6040516101099190611bda565b60405180910390f35b34801561011e57600080fd5b5061013960048036038101906101349190611bf5565b610687565b6040516101469190611c44565b60405180910390f35b34801561015b57600080fd5b5061016461099e565b6040516101719190611c6e565b60405180910390f35b34801561018657600080fd5b506101a1600480360381019061019c9190611c89565b6109c8565b6040516101ae9190611bda565b60405180910390f35b6101d160048036038101906101cc9190611e35565b610ca6565b005b3480156101df57600080fd5b506101fa60048036038101906101f59190611e91565b610e29565b6040516102079190611c44565b60405180910390f35b34801561021c57600080fd5b5061023760048036038101906102329190611ae3565b6112c6565b005b34801561024557600080fd5b5061024e61139a565b60405161025b9190611c6e565b60405180910390f35b34801561027057600080fd5b5061028b60048036038101906102869190611b7f565b6113c4565b60405161029d96959493929190611ef3565b60405180910390f35b3480156102b257600080fd5b506102cd60048036038101906102c89190611f54565b6114e3565b6040516102db929190612058565b60405180910390f35b6102fe60048036038101906102f9919061214b565b6115fa565b005b600560009054906101000a900473ffffffffffffffffffffffffffffffffffffffff1673ffffffffffffffffffffffffffffffffffffffff163373ffffffffffffffffffffffffffffffffffffffff1614610390576040517f08c379a000000000000000000000000000000000000000000000000000000000815260040161038790612220565b60405180910390fd5b80600460006101000a81548173ffffffffffffffffffffffffffffffffffffffff021916908373ffffffffffffffffffffffffffffffffffffffff16021790555050565b60008060008084815260200190815260200160002090508060030160009054906101000a900473ffffffffffffffffffffffffffffffffffffffff1673ffffffffffffffffffffffffffffffffffffffff163373ffffffffffffffffffffffffffffffffffffffff161461047d576040517f08c379a0000000000000000000000000000000000000000000000000000000008152600401610474906122b2565b60405180910390fd5b60028160000160019054906101000a900460ff1660ff16146104d4576040517f08c379a00000000000000000000000000000000000000000000000000000000081526004016104cb9061231e565b60405180910390fd5b600081600401600083600501600081819054906101000a900460ff16809291906104fd9061236d565b91906101000a81548160ff021916908360ff16021790555060ff1660ff16815260200190815260200160002090508160000160039054906101000a900473ffffffffffffffffffffffffffffffffffffffff168160000160006101000a81548173ffffffffffffffffffffffffffffffffffffffff021916908373ffffffffffffffffffffffffffffffffffffffff160217905550428160010181905550338260000160036101000a81548173ffffffffffffffffffffffffffffffffffffffff021916908373ffffffffffffffffffffffffffffffffffffffff16021790555060008260030160006101000a81548173ffffffffffffffffffffffffffffffffffffffff021916908373ffffffffffffffffffffffffffffffffffffffff16021790555060018260000160016101000a81548160ff021916908360ff1602179055507f28c2fc82a315964355e85116aa4efe05be832fe8508d813e582bf94e9b826e9b84338760405161067393929190612397565b60405180910390a160019250505092915050565b600080600360009054906101000a900473ffffffffffffffffffffffffffffffffffffffff169050600115158173ffffffffffffffffffffffffffffffffffffffff1663a859e61433876040518363ffffffff1660e01b81526004016106ee9291906123ce565b602060405180830381865afa15801561070b573d6000803e3d6000fd5b505050506040513d601f19601f8201168201806040525081019061072f9190612423565b151514610771576040517f08c379a00000000000000000000000000000000000000000000000000000000081526004016107689061249c565b60405180910390fd5b60008460ff164261078291906124bc565b90506000816040516020016107979190612512565b60405160208183030381529060405280519060200120905060008060008381526020019081526020016000209050858160000160026101000a81548160ff021916908360ff160217905550868160000160006101000a81548160ff021916908360ff160217905550338160000160036101000a81548173ffffffffffffffffffffffffffffffffffffffff021916908373ffffffffffffffffffffffffffffffffffffffff16021790555060018160000160016101000a81548160ff021916908360ff16021790555042816001018190555060008160050160006101000a81548160ff021916908360ff16021790555081600160003373ffffffffffffffffffffffffffffffffffffffff1673ffffffffffffffffffffffffffffffffffffffff168152602001908152602001600020819055508060000160039054906101000a900473ffffffffffffffffffffffffffffffffffffffff1673ffffffffffffffffffffffffffffffffffffffff167fa6120a45ee5331fe09693a8428f603a571e8ff895fba6adc58b60331923ca6da60405160405180910390a27f28c2fc82a315964355e85116aa4efe05be832fe8508d813e582bf94e9b826e9b828260000160039054906101000a900473ffffffffffffffffffffffffffffffffffffffff168960405161098993929190612397565b60405180910390a18194505050505092915050565b6000600360009054906101000a900473ffffffffffffffffffffffffffffffffffffffff16905090565b600080600080858152602001908152602001600020905060008160000160019054906101000a900460ff1660ff1611610a36576040517f08c379a0000000000000000000000000000000000000000000000000000000008152600401610a2d90612579565b60405180910390fd5b8060000160039054906101000a900473ffffffffffffffffffffffffffffffffffffffff1673ffffffffffffffffffffffffffffffffffffffff167fa6120a45ee5331fe09693a8428f603a571e8ff895fba6adc58b60331923ca6da60405160405180910390a28060000160039054906101000a900473ffffffffffffffffffffffffffffffffffffffff1673ffffffffffffffffffffffffffffffffffffffff163373ffffffffffffffffffffffffffffffffffffffff1614610b2f576040517f08c379a0000000000000000000000000000000000000000000000000000000008152600401610b26906125e5565b60405180910390fd5b8273ffffffffffffffffffffffffffffffffffffffff163373ffffffffffffffffffffffffffffffffffffffff161415610b9e576040517f08c379a0000000000000000000000000000000000000000000000000000000008152600401610b95906125e5565b60405180910390fd5b60018160000160019054906101000a900460ff1660ff1614610bf5576040517f08c379a0000000000000000000000000000000000000000000000000000000008152600401610bec90612651565b60405180910390fd5b828160030160006101000a81548173ffffffffffffffffffffffffffffffffffffffff021916908373ffffffffffffffffffffffffffffffffffffffff16021790555042816002018190555060028160000160016101000a81548160ff021916908360ff1602179055507f8cea5d2076b43b9c3ca802f2886a2c0deb90f51e2fe119ae2ac620db18bf23cd858585604051610c9293929190612671565b60405180910390a160019150509392505050565b60005b8251811015610ddf576000806000858481518110610cca57610cc96126a8565b5b6020026020010151815260200190815260200160002090508060000160039054906101000a900473ffffffffffffffffffffffffffffffffffffffff1673ffffffffffffffffffffffffffffffffffffffff168373ffffffffffffffffffffffffffffffffffffffff1614610d74576040517f08c379a0000000000000000000000000000000000000000000000000000000008152600401610d6b90612749565b60405180910390fd5b60038160000160019054906101000a900460ff1660ff1614610dcb576040517f08c379a0000000000000000000000000000000000000000000000000000000008152600401610dc2906127b5565b60405180910390fd5b508080610dd7906127d5565b915050610ca9565b5060005b8251811015610e2457610e10838281518110610e0257610e016126a8565b5b60200260200101518361165d565b508080610e1c906127d5565b915050610de3565b505050565b600080600360009054906101000a900473ffffffffffffffffffffffffffffffffffffffff169050600115158173ffffffffffffffffffffffffffffffffffffffff166323ba78fe33886040518363ffffffff1660e01b8152600401610e909291906123ce565b602060405180830381865afa158015610ead573d6000803e3d6000fd5b505050506040513d601f19601f82011682018060405250810190610ed19190612423565b151514610f13576040517f08c379a0000000000000000000000000000000000000000000000000000000008152600401610f0a9061286a565b60405180910390fd5b6000806000868152602001908152602001600020905060008160000160019054906101000a900460ff1660ff1611610f80576040517f08c379a0000000000000000000000000000000000000000000000000000000008152600401610f7790612579565b60405180910390fd5b8060000160039054906101000a900473ffffffffffffffffffffffffffffffffffffffff1673ffffffffffffffffffffffffffffffffffffffff163373ffffffffffffffffffffffffffffffffffffffff1614611012576040517f08c379a0000000000000000000000000000000000000000000000000000000008152600401611009906128d6565b60405180910390fd5b60018160000160019054906101000a900460ff1660ff1614611069576040517f08c379a000000000000000000000000000000000000000000000000000000000815260040161106090612651565b60405180910390fd5b60008460ff16116110af576040517f08c379a00000000000000000000000000000000000000000000000000000000081526004016110a690612942565b60405180910390fd5b8060000160029054906101000a900460ff1660ff168460ff1610611108576040517f08c379a00000000000000000000000000000000000000000000000000000000081526004016110ff90612942565b60405180910390fd5b838160000160029054906101000a900460ff166111259190612962565b8160000160026101000a81548160ff021916908360ff160217905550600060018760ff164261115491906124bc565b61115e91906124bc565b90506000816040516020016111739190612512565b60405160208183030381529060405280519060200120905060008060008381526020019081526020016000209050868160000160026101000a81548160ff021916908360ff160217905550888160000160006101000a81548160ff021916908360ff160217905550338160000160036101000a81548173ffffffffffffffffffffffffffffffffffffffff021916908373ffffffffffffffffffffffffffffffffffffffff16021790555060018160000160016101000a81548160ff021916908360ff1602179055504281600101819055508360050160009054906101000a900460ff168160050160006101000a81548160ff021916908360ff16021790555081600160003373ffffffffffffffffffffffffffffffffffffffff1673ffffffffffffffffffffffffffffffffffffffff1681526020019081526020016000208190555081955050505050509392505050565b600560009054906101000a900473ffffffffffffffffffffffffffffffffffffffff1673ffffffffffffffffffffffffffffffffffffffff163373ffffffffffffffffffffffffffffffffffffffff1614611356576040517f08c379a000000000000000000000000000000000000000000000000000000000815260040161134d90612220565b60405180910390fd5b80600360006101000a81548173ffffffffffffffffffffffffffffffffffffffff021916908373ffffffffffffffffffffffffffffffffffffffff16021790555050565b6000600460009054906101000a900473ffffffffffffffffffffffffffffffffffffffff16905090565b6000806000806000806000806000898152602001908152602001600020905060008160000160019054906101000a900460ff1660ff161161143a576040517f08c379a000000000000000000000000000000000000000000000000000000000815260040161143190612579565b60405180910390fd5b8060000160009054906101000a900460ff168160000160019054906101000a900460ff168260000160029054906101000a900460ff168360000160039054906101000a900473ffffffffffffffffffffffffffffffffffffffff168460030160009054906101000a900473ffffffffffffffffffffffffffffffffffffffff168560050160009054906101000a900460ff16965096509650965096509650509295509295509295565b600060606000600260008581526020019081526020016000209050600073ffffffffffffffffffffffffffffffffffffffff168160000160009054906101000a900473ffffffffffffffffffffffffffffffffffffffff1673ffffffffffffffffffffffffffffffffffffffff161415611592576040517f08c379a000000000000000000000000000000000000000000000000000000000815260040161158990612579565b60405180910390fd5b806001018054905081600101808054806020026020016040519081016040528092919081815260200182805480156115e957602002820191906000526020600020905b8154815260200190600101908083116115d5575b505050505090509250925050915091565b60005b82518110156116585761164583828151811061161c5761161b6126a8565b5b6020026020010151838381518110611637576116366126a8565b5b602002602001015133611780565b8080611650906127d5565b9150506115fd565b505050565b600080600080858152602001908152602001600020905060038160000160016101000a81548160ff021916908360ff160217905550600060018260000160009054906101000a900460ff1660ff16426116b691906124bc565b6116c091906124bc565b90506000816040516020016116d59190612512565b6040516020818303038152906040528051906020012090506000600260008381526020019081526020016000209050858160000160006101000a81548173ffffffffffffffffffffffffffffffffffffffff021916908373ffffffffffffffffffffffffffffffffffffffff16021790555080600101879080600181540180825580915050600190039060005260206000200160009091909190915055600194505050505092915050565b600080600084815260200190815260200160002090508060030160009054906101000a900473ffffffffffffffffffffffffffffffffffffffff1673ffffffffffffffffffffffffffffffffffffffff168273ffffffffffffffffffffffffffffffffffffffff1614611828576040517f08c379a000000000000000000000000000000000000000000000000000000000815260040161181f906122b2565b60405180910390fd5b60028160000160019054906101000a900460ff1660ff161461187f576040517f08c379a00000000000000000000000000000000000000000000000000000000081526004016118769061231e565b60405180910390fd5b600081600401600083600501600081819054906101000a900460ff16809291906118a89061236d565b91906101000a81548160ff021916908360ff16021790555060ff1660ff16815260200190815260200160002090508160000160039054906101000a900473ffffffffffffffffffffffffffffffffffffffff168160000160006101000a81548173ffffffffffffffffffffffffffffffffffffffff021916908373ffffffffffffffffffffffffffffffffffffffff160217905550428160010181905550338260000160036101000a81548173ffffffffffffffffffffffffffffffffffffffff021916908373ffffffffffffffffffffffffffffffffffffffff16021790555060008260030160006101000a81548173ffffffffffffffffffffffffffffffffffffffff021916908373ffffffffffffffffffffffffffffffffffffffff16021790555060018260000160016101000a81548160ff021916908360ff16021790555083600160003373ffffffffffffffffffffffffffffffffffffffff1673ffffffffffffffffffffffffffffffffffffffff168152602001908152602001600020819055507f28c2fc82a315964355e85116aa4efe05be832fe8508d813e582bf94e9b826e9b843387604051611a6293929190612397565b60405180910390a15050505050565b6000604051905090565b600080fd5b600080fd5b600073ffffffffffffffffffffffffffffffffffffffff82169050919050565b6000611ab082611a85565b9050919050565b611ac081611aa5565b8114611acb57600080fd5b50565b600081359050611add81611ab7565b92915050565b600060208284031215611af957611af8611a7b565b5b6000611b0784828501611ace565b91505092915050565b600060ff82169050919050565b611b2681611b10565b8114611b3157600080fd5b50565b600081359050611b4381611b1d565b92915050565b6000819050919050565b611b5c81611b49565b8114611b6757600080fd5b50565b600081359050611b7981611b53565b92915050565b60008060408385031215611b9657611b95611a7b565b5b6000611ba485828601611b34565b9250506020611bb585828601611b6a565b9150509250929050565b60008115159050919050565b611bd481611bbf565b82525050565b6000602082019050611bef6000830184611bcb565b92915050565b60008060408385031215611c0c57611c0b611a7b565b5b6000611c1a85828601611b34565b9250506020611c2b85828601611b34565b9150509250929050565b611c3e81611b49565b82525050565b6000602082019050611c596000830184611c35565b92915050565b611c6881611aa5565b82525050565b6000602082019050611c836000830184611c5f565b92915050565b600080600060608486031215611ca257611ca1611a7b565b5b6000611cb086828701611b34565b9350506020611cc186828701611b6a565b9250506040611cd286828701611ace565b9150509250925092565b600080fd5b6000601f19601f8301169050919050565b7f4e487b7100000000000000000000000000000000000000000000000000000000600052604160045260246000fd5b611d2a82611ce1565b810181811067ffffffffffffffff82111715611d4957611d48611cf2565b5b80604052505050565b6000611d5c611a71565b9050611d688282611d21565b919050565b600067ffffffffffffffff821115611d8857611d87611cf2565b5b602082029050602081019050919050565b600080fd5b6000611db1611dac84611d6d565b611d52565b90508083825260208201905060208402830185811115611dd457611dd3611d99565b5b835b81811015611dfd5780611de98882611b6a565b845260208401935050602081019050611dd6565b5050509392505050565b600082601f830112611e1c57611e1b611cdc565b5b8135611e2c848260208601611d9e565b91505092915050565b60008060408385031215611e4c57611e4b611a7b565b5b600083013567ffffffffffffffff811115611e6a57611e69611a80565b5b611e7685828601611e07565b9250506020611e8785828601611ace565b9150509250929050565b600080600060608486031215611eaa57611ea9611a7b565b5b6000611eb886828701611b34565b9350506020611ec986828701611b6a565b9250506040611eda86828701611b34565b9150509250925092565b611eed81611b10565b82525050565b600060c082019050611f086000830189611ee4565b611f156020830188611ee4565b611f226040830187611ee4565b611f2f6060830186611c5f565b611f3c6080830185611c5f565b611f4960a0830184611ee4565b979650505050505050565b600060208284031215611f6a57611f69611a7b565b5b6000611f7884828501611b6a565b91505092915050565b6000819050919050565b611f9481611f81565b82525050565b600081519050919050565b600082825260208201905092915050565b6000819050602082019050919050565b611fcf81611b49565b82525050565b6000611fe18383611fc6565b60208301905092915050565b6000602082019050919050565b600061200582611f9a565b61200f8185611fa5565b935061201a83611fb6565b8060005b8381101561204b5781516120328882611fd5565b975061203d83611fed565b92505060018101905061201e565b5085935050505092915050565b600060408201905061206d6000830185611f8b565b818103602083015261207f8184611ffa565b90509392505050565b600067ffffffffffffffff8211156120a3576120a2611cf2565b5b602082029050602081019050919050565b60006120c76120c284612088565b611d52565b905080838252602082019050602084028301858111156120ea576120e9611d99565b5b835b8181101561211357806120ff8882611b34565b8452602084019350506020810190506120ec565b5050509392505050565b600082601f83011261213257612131611cdc565b5b81356121428482602086016120b4565b91505092915050565b6000806040838503121561216257612161611a7b565b5b600083013567ffffffffffffffff8111156121805761217f611a80565b5b61218c8582860161211d565b925050602083013567ffffffffffffffff8111156121ad576121ac611a80565b5b6121b985828601611e07565b9150509250929050565b600082825260208201905092915050565b7f4f6e6c792061646d696e2063616e20736574207065726d730000000000000000600082015250565b600061220a6018836121c3565b9150612215826121d4565b602082019050919050565b60006020820190508181036000830152612239816121fd565b9050919050565b7f596f7520617265206e6f7420616c6c6f7765642c20646966666572656e74207360008201527f656e646572207468616e20686f6c646572000000000000000000000000000000602082015250565b600061229c6031836121c3565b91506122a782612240565b604082019050919050565b600060208201905081810360008301526122cb8161228f565b9050919050565b7f546f6b656e20616c726561647920726563656976656400000000000000000000600082015250565b60006123086016836121c3565b9150612313826122d2565b602082019050919050565b60006020820190508181036000830152612337816122fb565b9050919050565b7f4e487b7100000000000000000000000000000000000000000000000000000000600052601160045260246000fd5b600061237882611b10565b915060ff82141561238c5761238b61233e565b5b600182019050919050565b60006060820190506123ac6000830186611c35565b6123b96020830185611c5f565b6123c66040830184611ee4565b949350505050565b60006040820190506123e36000830185611c5f565b6123f06020830184611ee4565b9392505050565b61240081611bbf565b811461240b57600080fd5b50565b60008151905061241d816123f7565b92915050565b60006020828403121561243957612438611a7b565b5b60006124478482850161240e565b91505092915050565b7f4e6f207065726d20746f206d696e740000000000000000000000000000000000600082015250565b6000612486600f836121c3565b915061249182612450565b602082019050919050565b600060208201905081810360008301526124b581612479565b9050919050565b60006124c782611f81565b91506124d283611f81565b9250827fffffffffffffffffffffffffffffffffffffffffffffffffffffffffffffffff038211156125075761250661233e565b5b828201905092915050565b60006020820190506125276000830184611f8b565b92915050565b7f4e6f6e206578697374656e7420746f6b656e0000000000000000000000000000600082015250565b60006125636012836121c3565b915061256e8261252d565b602082019050919050565b6000602082019050818103600083015261259281612556565b9050919050565b7f596f7520617265206e6f7420616c6c6f77656400000000000000000000000000600082015250565b60006125cf6013836121c3565b91506125da82612599565b602082019050919050565b600060208201905081810360008301526125fe816125c2565b9050919050565b7f546f6b656e20737461747573206e6f7420726561647900000000000000000000600082015250565b600061263b6016836121c3565b915061264682612605565b602082019050919050565b6000602082019050818103600083015261266a8161262e565b9050919050565b60006060820190506126866000830186611ee4565b6126936020830185611c35565b6126a06040830184611c5f565b949350505050565b7f4e487b7100000000000000000000000000000000000000000000000000000000600052603260045260246000fd5b7f596f7520617265206e6f7420616c6c6f7765642c20646966666572656e74206860008201527f6f6c646572000000000000000000000000000000000000000000000000000000602082015250565b60006127336025836121c3565b915061273e826126d7565b604082019050919050565b6000602082019050818103600083015261276281612726565b9050919050565b7f546f6b656e20616c7265616479207061636b6564000000000000000000000000600082015250565b600061279f6014836121c3565b91506127aa82612769565b602082019050919050565b600060208201905081810360008301526127ce81612792565b9050919050565b60006127e082611f81565b91507fffffffffffffffffffffffffffffffffffffffffffffffffffffffffffffffff8214156128135761281261233e565b5b600182019050919050565b7f4e6f207065726d20746f2073706c697400000000000000000000000000000000600082015250565b60006128546010836121c3565b915061285f8261281e565b602082019050919050565b6000602082019050818103600083015261288381612847565b9050919050565b7f596f7520617265206e6f7720616c6c6f77656400000000000000000000000000600082015250565b60006128c06013836121c3565b91506128cb8261288a565b602082019050919050565b600060208201905081810360008301526128ef816128b3565b9050919050565b7f496e76616c69642073706c697420616d6f756e74000000000000000000000000600082015250565b600061292c6014836121c3565b9150612937826128f6565b602082019050919050565b6000602082019050818103600083015261295b8161291f565b9050919050565b600061296d82611b10565b915061297883611b10565b92508282101561298b5761298a61233e565b5b82820390509291505056fea26469706673582212200587656c8e25e67dcfbc174f416ca37572f47fc41ca8a221e9b821a6d2c4966864736f6c634300080a0033",
  "immutableReferences": {},
  "source": "// SPDX-License-Identifier: GPL-3.0\n\npragma solidity >=0.7.0 <0.9.0;\n\nimport \"./Management.sol\";\nimport \"./Database.sol\";\n\n/**\n * @title FoodChainMonitoring\n * @dev Store & retrieve value in a variable\n */\ncontract Tracking {\n    // debug\n    event test_value(address indexed value1);\n    event test_uint8(uint8 indexed value1);\n    event _eTransferToken(\n        uint8 _ingridientID,\n        bytes32 _tokenHash,\n        address _receiver\n    );\n    event _exposeMintedTokenHash(\n        bytes32 tokenhash,\n        address owner,\n        uint8 _ingridientID\n    );\n\n    struct HoldersMapping {\n        address holderAddress;\n        uint256 timestamp;\n    }\n\n    struct FinalProductsMapping {\n        // bytes32 _productAddress;\n        address _producer;\n        bytes32[] _tokens;\n        // uint8 _tokensLength;\n    }\n\n    struct FCToken {\n        uint8 ingridientID;\n        uint8 status; // packed?\n        uint8 amount;\n        address holder;\n        uint256 minted_on;\n        uint256 transfered_on;\n        address pending_holder;\n        mapping(uint8 => HoldersMapping) past_holders;\n        uint8 past_holders_length;\n    }\n\n    mapping(bytes32 => FCToken) _universeTokens;\n    mapping(address => bytes32) _userTokens;\n\n    // mapping(uint256 => mapping(bytes32 => FCToken)) public tokens;\n\n    // address of the Final Product -> struct of the product\n    mapping(bytes32 => FinalProductsMapping) _finalProducts;\n\n\n    address management_sc;\n    address database_sc;\n    address admin;\n\n    constructor() {\n        admin = msg.sender;\n    }\n\n    function set_management_sc(address _msc) public {\n        require(msg.sender == admin, \"Only admin can set perms\");\n        management_sc = _msc;\n    }\n\n    function get_management_sc() public view returns (address) {\n        return management_sc;\n    }\n\n    function set_database_sc(address _msc) public {\n        require(msg.sender == admin, \"Only admin can set perms\");\n        database_sc = _msc;\n    }\n\n    function get_database_sc() public view returns (address) {\n        return database_sc;\n    }\n\n    function mint_token(uint8 _ingridientID, uint8 _amount)\n        public\n        returns (bytes32)\n    {\n        // create check method to verify the generation is valid\n        Management m = Management(management_sc);\n        require(\n            m.get_perm_mint(msg.sender, _ingridientID) == true,\n            \"No perm to mint\"\n        );\n\n        uint256 toHash = block.timestamp + _ingridientID;\n        bytes32 tokenHash = keccak256(abi.encode(toHash));\n        // FCToken storage theToken = tokens[_ingridientID][tokenHash];\n        FCToken storage theToken = _universeTokens[tokenHash];\n\n        theToken.amount = _amount;\n        theToken.ingridientID = _ingridientID;\n        theToken.holder = msg.sender;\n        theToken.status = 1; // 1 = ready, 2 = transfer_pending, 3 = packed\n        theToken.minted_on = block.timestamp;\n        theToken.past_holders_length = 0;\n\n        _userTokens[msg.sender] = tokenHash;\n        // ingridient_tokens[_ingridientID] = tokenHash;\n        // token_hashes[tokenHash] = theToken; while the init is on memory\n\n        emit test_value(theToken.holder);\n        emit _exposeMintedTokenHash(tokenHash, theToken.holder, _ingridientID);\n\n        return tokenHash; // hash has to be generated by ingridient ID, first holder and timestamp\n    }\n\n    function transfer_token(\n        uint8 _ingridientID,\n        bytes32 _tokenHash,\n        address _receiver\n    ) public returns (bool) {\n        // FCToken storage tkn = tokens[_ingridientID][_tokenHash];\n        FCToken storage tkn = _universeTokens[_tokenHash];\n        require(tkn.status > 0, \"Non existent token\");\n        emit test_value(tkn.holder);\n        require(msg.sender == tkn.holder, \"You are not allowed\"); // Check that the tx.sender is the owner of the token\n        require(msg.sender != _receiver, \"You are not allowed\"); // Check that the tx.sender is the owner of the token\n        require(tkn.status == 1, \"Token status not ready\"); // check the state of the token (it has to be ready)\n        // check that the tx.sender can transfer such ingridient\n\n        // set pending_holder to receiver\n        tkn.pending_holder = _receiver;\n        tkn.transfered_on = block.timestamp;\n        // set the status -> transfer_pending\n        tkn.status = 2;\n\n        // emit event to receiver\n        emit _eTransferToken(_ingridientID, _tokenHash, _receiver);\n\n        return true;\n    }\n\n    function receive_token(uint8 _ingridientID, bytes32 _tokenHash)\n        public\n        returns (bool)\n    {\n        // FCToken storage tkn = tokens[_ingridientID][_tokenHash];\n        FCToken storage tkn = _universeTokens[_tokenHash];\n        require(\n            msg.sender == tkn.pending_holder,\n            \"You are not allowed, different sender than holder\"\n        );\n        require(tkn.status == 2, \"Token already received\");\n\n        HoldersMapping storage hmap = tkn.past_holders[\n            tkn.past_holders_length++\n        ]; // stupid syntax -> https://ethereum.stackexchange.com/questions/87451/solidity-error-struct-containing-a-nested-mapping-cannot-be-constructed\n        hmap.holderAddress = tkn.holder;\n        hmap.timestamp = block.timestamp;\n        tkn.holder = msg.sender;\n        tkn.pending_holder = address(0);\n        tkn.status = 1;\n\n        emit _exposeMintedTokenHash(_tokenHash, msg.sender, _ingridientID);\n\n        return true;\n    }\n\n    function private_receive_token(\n        uint8 _ingridientID,\n        bytes32 _tokenHash,\n        address _sender\n    ) private {\n        // FCToken storage tkn = tokens[_ingridientID][_tokenHash];\n        FCToken storage tkn = _universeTokens[_tokenHash];\n        require(\n            _sender == tkn.pending_holder,\n            \"You are not allowed, different sender than holder\"\n        );\n        require(tkn.status == 2, \"Token already received\");\n\n        HoldersMapping storage hmap = tkn.past_holders[\n            tkn.past_holders_length++\n        ]; // stupid syntax -> https://ethereum.stackexchange.com/questions/87451/solidity-error-struct-containing-a-nested-mapping-cannot-be-constructed\n\n        // address currentHolder = tkn.holder;\n        hmap.holderAddress = tkn.holder;\n        hmap.timestamp = block.timestamp;\n        tkn.holder = msg.sender;\n        tkn.pending_holder = address(0);\n        tkn.status = 1;\n        // _userTokens[currentHolder][_tokenHash] = 0;\n        _userTokens[msg.sender] = _tokenHash;\n        emit _exposeMintedTokenHash(_tokenHash, msg.sender, _ingridientID);\n    }\n\n    function receive_tokens(\n        uint8[] memory _ingridientID,\n        bytes32[] memory _tokenHash\n    ) public payable {\n        for (uint256 i = 0; i < _ingridientID.length; i++) {\n            private_receive_token(_ingridientID[i], _tokenHash[i], msg.sender);\n        }\n    }\n\n    function split_token(\n        uint8 _ingridientID,\n        bytes32 _tokenHash,\n        uint8 _amount\n    ) public returns (bytes32) {\n        Management m = Management(management_sc);\n        require(\n            m.get_perm_split(msg.sender, _ingridientID) == true,\n            \"No perm to split\"\n        ); // to be implemented\n        // FCToken storage tkn = tokens[_ingridientID][_tokenHash];\n        FCToken storage tkn = _universeTokens[_tokenHash];\n        require(tkn.status > 0, \"Non existent token\");\n        //emit test_value(tkn.holder);\n        require(msg.sender == tkn.holder, \"You are now allowed\"); // Check that the tx.sender is the owner of the token\n        require(tkn.status == 1, \"Token status not ready\"); // check the state of the token (it has to be ready)\n        require(_amount > 0, \"Invalid split amount\");\n        require(_amount < tkn.amount, \"Invalid split amount\");\n        tkn.amount = tkn.amount - _amount;\n\n        uint256 toHash = block.timestamp + _ingridientID + 1; //block.timestamp + _ingridientID is the same in the same block\n        bytes32 tokenHash = keccak256(abi.encode(toHash));\n        // FCToken storage ntkn = tokens[_ingridientID][tokenHash];\n        FCToken storage ntkn = _universeTokens[tokenHash];\n\n        ntkn.amount = _amount;\n        ntkn.ingridientID = _ingridientID;\n        ntkn.holder = msg.sender;\n        ntkn.status = 1; // 1 = ready, 2 = transfer_pending, 3 = packed\n        ntkn.minted_on = block.timestamp;\n        ntkn.past_holders_length = tkn.past_holders_length;\n        //ntkn.past_holders = tkn.past_holders;\n        _userTokens[msg.sender] = tokenHash;\n\n        return tokenHash;\n    }\n\n    function getTokenData(uint8 _ingridientID, bytes32 _tokenHash)\n        public\n        view\n        returns (\n            uint8,\n            uint8,\n            uint8,\n            address,\n            address,\n            uint8\n        )\n    {\n        // FCToken storage tkn = tokens[_ingridientID][_tokenHash];\n        FCToken storage tkn = _universeTokens[_tokenHash];\n        require(tkn.status > 0, \"Non existent token\");\n\n        return (\n            tkn.ingridientID,\n            tkn.status,\n            tkn.amount,\n            tkn.holder,\n            tkn.pending_holder,\n            tkn.past_holders_length\n        );\n    }\n\n    function pack(\n        bytes32[] memory _tokenHash,\n        address _sender\n    ) public payable {\n        // maybe dummy, but 2 loops, one to check permissions the other to alter the tokens\n        for (uint256 i = 0; i < _tokenHash.length; i++) {\n            // check for permissions and the status of the token\n            FCToken storage tkn = _universeTokens[_tokenHash[i]];\n\n            require(\n                _sender == tkn.holder,\n                \"You are not allowed, different holder\"\n            );\n            require(tkn.status == 3, \"Token already packed\");\n        }\n\n        for (uint256 i = 0; i < _tokenHash.length; i++) {\n            _pack(_tokenHash[i], _sender);\n        }\n    }\n\n    function _pack(\n        bytes32 _tokenHash,\n        address _sender\n    ) private returns (uint8) {\n        FCToken storage tkn = _universeTokens[_tokenHash];\n        tkn.status = 3;\n\n        uint256 toHash = block.timestamp + tkn.ingridientID + 1; //block.timestamp + _ingridientID is the same in the same block\n        bytes32 packHash = keccak256(abi.encode(toHash));\n        FinalProductsMapping storage product = _finalProducts[packHash];\n\n        product._producer = _sender;\n        product._tokens.push(_tokenHash);\n\n        return 1;\n    }\n\n    function viewPack(bytes32 _packAddress)\n        view\n        public\n        returns (\n            uint256,\n            bytes32[] memory\n        )\n    {\n        FinalProductsMapping storage product = _finalProducts[_packAddress];\n        require(product._producer != address(0), \"Non existent token\");\n\n        return (product._tokens.length,product._tokens);\n    }\n}\n",
  "sourcePath": "E:\\MyWork\\AETHER\\blockchain_spathoulas_2021\\smartcontract\\contracts\\Tracking.sol",
  "compiler": {
    "name": "solc",
    "version": "0.8.10+commit.fc410830.Emscripten.clang"
  },
  "schemaVersion": "3.4.3",
  "updatedAt": "2022-02-22T12:51:03.861Z",
  "networkType": "ethereum",
  "devdoc": {
    "details": "Store & retrieve value in a variable",
    "kind": "dev",
    "methods": {},
    "title": "FoodChainMonitoring",
    "version": 1
  },
  "userdoc": {
    "kind": "user",
    "methods": {},
    "version": 1
  }
}