{
  "contractName": "Tracking",
  "abi": [
    {
      "inputs": [],
      "stateMutability": "nonpayable",
      "type": "constructor"
    },
    {
      "anonymous": false,
      "inputs": [
        {
          "indexed": false,
          "internalType": "bytes32",
          "name": "packHash",
          "type": "bytes32"
        },
        {
          "indexed": false,
          "internalType": "address",
          "name": "owner",
          "type": "address"
        },
        {
          "indexed": false,
          "internalType": "bytes32[]",
          "name": "ingredients",
          "type": "bytes32[]"
        }
      ],
      "name": "_exposePackHash",
      "type": "event"
    },
    {
      "inputs": [
        {
          "internalType": "address",
          "name": "_msc",
          "type": "address"
        }
      ],
      "name": "set_management_sc",
      "outputs": [],
      "stateMutability": "nonpayable",
      "type": "function"
    },
    {
      "inputs": [],
      "name": "get_management_sc",
      "outputs": [
        {
          "internalType": "address",
          "name": "",
          "type": "address"
        }
      ],
      "stateMutability": "view",
      "type": "function",
      "constant": true
    },
    {
      "inputs": [
        {
          "internalType": "address",
          "name": "_msc",
          "type": "address"
        }
      ],
      "name": "set_database_sc",
      "outputs": [],
      "stateMutability": "nonpayable",
      "type": "function"
    },
    {
      "inputs": [],
      "name": "get_database_sc",
      "outputs": [
        {
          "internalType": "address",
          "name": "",
          "type": "address"
        }
      ],
      "stateMutability": "view",
      "type": "function",
      "constant": true
    },
    {
      "inputs": [
        {
          "internalType": "uint8",
          "name": "_ingridientID",
          "type": "uint8"
        },
        {
          "internalType": "uint8",
          "name": "_amount",
          "type": "uint8"
        }
      ],
      "name": "mint_token",
      "outputs": [
        {
          "internalType": "bytes32",
          "name": "",
          "type": "bytes32"
        }
      ],
      "stateMutability": "nonpayable",
      "type": "function"
    },
    {
      "inputs": [
        {
          "internalType": "uint8",
          "name": "_ingridientID",
          "type": "uint8"
        },
        {
          "internalType": "bytes32",
          "name": "_tokenHash",
          "type": "bytes32"
        },
        {
          "internalType": "address",
          "name": "_receiver",
          "type": "address"
        }
      ],
      "name": "transfer_token",
      "outputs": [
        {
          "internalType": "bool",
          "name": "",
          "type": "bool"
        }
      ],
      "stateMutability": "nonpayable",
      "type": "function"
    },
    {
      "inputs": [
        {
          "internalType": "uint8",
          "name": "_ingridientID",
          "type": "uint8"
        },
        {
          "internalType": "bytes32",
          "name": "_tokenHash",
          "type": "bytes32"
        }
      ],
      "name": "receive_token",
      "outputs": [
        {
          "internalType": "bool",
          "name": "",
          "type": "bool"
        }
      ],
      "stateMutability": "nonpayable",
      "type": "function"
    },
    {
      "inputs": [
        {
          "internalType": "bytes32[]",
          "name": "_tokenHash",
          "type": "bytes32[]"
        }
      ],
      "name": "receive_tokens",
      "outputs": [],
      "stateMutability": "payable",
      "type": "function",
      "payable": true
    },
    {
      "inputs": [
        {
          "internalType": "uint8",
          "name": "_ingridientID",
          "type": "uint8"
        },
        {
          "internalType": "bytes32",
          "name": "_tokenHash",
          "type": "bytes32"
        },
        {
          "internalType": "uint8",
          "name": "_amount",
          "type": "uint8"
        }
      ],
      "name": "split_token",
      "outputs": [
        {
          "internalType": "bytes32",
          "name": "",
          "type": "bytes32"
        }
      ],
      "stateMutability": "nonpayable",
      "type": "function"
    },
    {
      "inputs": [
        {
          "internalType": "bytes32",
          "name": "_tokenHash",
          "type": "bytes32"
        }
      ],
      "name": "getTokenData",
      "outputs": [
        {
          "internalType": "uint8",
          "name": "",
          "type": "uint8"
        },
        {
          "internalType": "uint8",
          "name": "",
          "type": "uint8"
        },
        {
          "internalType": "uint8",
          "name": "",
          "type": "uint8"
        },
        {
          "internalType": "address",
          "name": "",
          "type": "address"
        },
        {
          "internalType": "address",
          "name": "",
          "type": "address"
        },
        {
          "internalType": "uint8",
          "name": "",
          "type": "uint8"
        },
        {
          "internalType": "uint256",
          "name": "",
          "type": "uint256"
        }
      ],
      "stateMutability": "view",
      "type": "function",
      "constant": true
    },
    {
      "inputs": [
        {
          "internalType": "bytes32[]",
          "name": "_tokenHash",
          "type": "bytes32[]"
        },
        {
          "internalType": "address",
          "name": "_sender",
          "type": "address"
        }
      ],
      "name": "pack",
      "outputs": [
        {
          "internalType": "bytes32",
          "name": "",
          "type": "bytes32"
        }
      ],
      "stateMutability": "payable",
      "type": "function",
      "payable": true
    },
    {
      "inputs": [
        {
          "internalType": "bytes32",
          "name": "_packAddress",
          "type": "bytes32"
        }
      ],
      "name": "viewPack",
      "outputs": [
        {
          "internalType": "uint256",
          "name": "",
          "type": "uint256"
        },
        {
          "internalType": "bytes32[]",
          "name": "",
          "type": "bytes32[]"
        }
      ],
      "stateMutability": "view",
      "type": "function",
      "constant": true
    },
    {
      "inputs": [
        {
          "internalType": "address",
          "name": "_owner",
          "type": "address"
        }
      ],
      "name": "getUserPendingTokens",
      "outputs": [
        {
          "internalType": "bytes32[]",
          "name": "",
          "type": "bytes32[]"
        }
      ],
      "stateMutability": "view",
      "type": "function",
      "constant": true
    },
    {
      "inputs": [
        {
          "internalType": "address",
          "name": "_owner",
          "type": "address"
        }
      ],
      "name": "getUserTokens",
      "outputs": [
        {
          "internalType": "bytes32[]",
          "name": "",
          "type": "bytes32[]"
        }
      ],
      "stateMutability": "view",
      "type": "function",
      "constant": true
    }
  ],
  "bytecode": "0x608060405234801561001057600080fd5b5033600760006101000a81548173ffffffffffffffffffffffffffffffffffffffff021916908373ffffffffffffffffffffffffffffffffffffffff1602179055506130ee806100616000396000f3fe6080604052600436106100dd5760003560e01c806356e432b41161007f57806396277669116100595780639627766914610317578063aaabc4e814610340578063c75eb8391461036b578063e4b49bba14610387576100dd565b806356e432b41461025a57806389ead6e21461029d5780638f2fec08146102da576100dd565b806321073597116100bb57806321073597146101855780632aedd4c9146101b0578063509a7399146101ed578063519dc8d21461021d576100dd565b806306dbcfad146100e25780630cfac7391461010b5780630fb65c0f14610148575b600080fd5b3480156100ee57600080fd5b5061010960048036038101906101049190612221565b6103c5565b005b34801561011757600080fd5b50610132600480360381019061012d91906122bd565b610499565b60405161013f9190612318565b60405180910390f35b34801561015457600080fd5b5061016f600480360381019061016a9190612333565b610a33565b60405161017c9190612382565b60405180910390f35b34801561019157600080fd5b5061019a610ca6565b6040516101a791906123ac565b60405180910390f35b3480156101bc57600080fd5b506101d760048036038101906101d291906123c7565b610cd0565b6040516101e49190612318565b60405180910390f35b61020760048036038101906102029190612573565b610f72565b6040516102149190612382565b60405180910390f35b34801561022957600080fd5b50610244600480360381019061023f9190612221565b6112ab565b604051610251919061268d565b60405180910390f35b34801561026657600080fd5b50610281600480360381019061027c91906126af565b611342565b6040516102949796959493929190612704565b60405180910390f35b3480156102a957600080fd5b506102c460048036038101906102bf9190612773565b61146a565b6040516102d19190612382565b60405180910390f35b3480156102e657600080fd5b5061030160048036038101906102fc9190612221565b611929565b60405161030e919061268d565b60405180910390f35b34801561032357600080fd5b5061033e60048036038101906103399190612221565b6119c0565b005b34801561034c57600080fd5b50610355611a94565b60405161036291906123ac565b60405180910390f35b610385600480360381019061038091906127c6565b611abe565b005b34801561039357600080fd5b506103ae60048036038101906103a991906126af565b611b05565b6040516103bc92919061280f565b60405180910390f35b600760009054906101000a900473ffffffffffffffffffffffffffffffffffffffff1673ffffffffffffffffffffffffffffffffffffffff163373ffffffffffffffffffffffffffffffffffffffff1614610455576040517f08c379a000000000000000000000000000000000000000000000000000000000815260040161044c9061289c565b60405180910390fd5b80600660006101000a81548173ffffffffffffffffffffffffffffffffffffffff021916908373ffffffffffffffffffffffffffffffffffffffff16021790555050565b60008060008084815260200190815260200160002090508060030160009054906101000a900473ffffffffffffffffffffffffffffffffffffffff1673ffffffffffffffffffffffffffffffffffffffff163373ffffffffffffffffffffffffffffffffffffffff1614610542576040517f08c379a00000000000000000000000000000000000000000000000000000000081526004016105399061292e565b60405180910390fd5b60028160000160019054906101000a900460ff1660ff1614610599576040517f08c379a00000000000000000000000000000000000000000000000000000000081526004016105909061299a565b60405180910390fd5b600081600401600083600501600081819054906101000a900460ff16809291906105c2906129e9565b91906101000a81548160ff021916908360ff16021790555060ff1660ff16815260200190815260200160002090508160000160039054906101000a900473ffffffffffffffffffffffffffffffffffffffff168160000160006101000a81548173ffffffffffffffffffffffffffffffffffffffff021916908373ffffffffffffffffffffffffffffffffffffffff160217905550428160010181905550338260000160036101000a81548173ffffffffffffffffffffffffffffffffffffffff021916908373ffffffffffffffffffffffffffffffffffffffff16021790555060008260030160006101000a81548173ffffffffffffffffffffffffffffffffffffffff021916908373ffffffffffffffffffffffffffffffffffffffff16021790555060018260000160016101000a81548160ff021916908360ff16021790555060005b600260003373ffffffffffffffffffffffffffffffffffffffff1673ffffffffffffffffffffffffffffffffffffffff1681526020019081526020016000208054905081101561082c5784600260003373ffffffffffffffffffffffffffffffffffffffff1673ffffffffffffffffffffffffffffffffffffffff16815260200190815260200160002082815481106107a4576107a3612a13565b5b9060005260206000200154141561081957600260003373ffffffffffffffffffffffffffffffffffffffff1673ffffffffffffffffffffffffffffffffffffffff168152602001908152602001600020818154811061080657610805612a13565b5b906000526020600020016000905561082c565b808061082490612a42565b915050610708565b5060005b600160008360000160009054906101000a900473ffffffffffffffffffffffffffffffffffffffff1673ffffffffffffffffffffffffffffffffffffffff1673ffffffffffffffffffffffffffffffffffffffff168152602001908152602001600020805490508110156109c05784600160008460000160009054906101000a900473ffffffffffffffffffffffffffffffffffffffff1673ffffffffffffffffffffffffffffffffffffffff1673ffffffffffffffffffffffffffffffffffffffff168152602001908152602001600020828154811061091457610913612a13565b5b906000526020600020015414156109ad57600160008360000160009054906101000a900473ffffffffffffffffffffffffffffffffffffffff1673ffffffffffffffffffffffffffffffffffffffff1673ffffffffffffffffffffffffffffffffffffffff168152602001908152602001600020818154811061099a57610999612a13565b5b90600052602060002001600090556109c0565b80806109b890612a42565b915050610830565b50600160003373ffffffffffffffffffffffffffffffffffffffff1673ffffffffffffffffffffffffffffffffffffffff16815260200190815260200160002084908060018154018082558091505060019003906000526020600020016000909190919091505560019250505092915050565b600080600560009054906101000a900473ffffffffffffffffffffffffffffffffffffffff169050600115158173ffffffffffffffffffffffffffffffffffffffff1663a859e61433876040518363ffffffff1660e01b8152600401610a9a929190612a8b565b602060405180830381865afa158015610ab7573d6000803e3d6000fd5b505050506040513d601f19601f82011682018060405250810190610adb9190612ae0565b151514610b1d576040517f08c379a0000000000000000000000000000000000000000000000000000000008152600401610b1490612b59565b60405180910390fd5b60008460ff1642610b2e9190612b79565b9050600081604051602001610b439190612bcf565b60405160208183030381529060405280519060200120905060008060008381526020019081526020016000209050858160000160026101000a81548160ff021916908360ff160217905550868160000160006101000a81548160ff021916908360ff160217905550338160000160036101000a81548173ffffffffffffffffffffffffffffffffffffffff021916908373ffffffffffffffffffffffffffffffffffffffff16021790555060018160000160016101000a81548160ff021916908360ff16021790555042816001018190555060008160050160006101000a81548160ff021916908360ff160217905550600160003373ffffffffffffffffffffffffffffffffffffffff1673ffffffffffffffffffffffffffffffffffffffff1681526020019081526020016000208290806001815401808255809150506001900390600052602060002001600090919091909150558194505050505092915050565b6000600560009054906101000a900473ffffffffffffffffffffffffffffffffffffffff16905090565b600080600080858152602001908152602001600020905060008160000160019054906101000a900460ff1660ff1611610d3e576040517f08c379a0000000000000000000000000000000000000000000000000000000008152600401610d3590612c36565b60405180910390fd5b8060000160039054906101000a900473ffffffffffffffffffffffffffffffffffffffff1673ffffffffffffffffffffffffffffffffffffffff163373ffffffffffffffffffffffffffffffffffffffff1614610dd0576040517f08c379a0000000000000000000000000000000000000000000000000000000008152600401610dc790612ca2565b60405180910390fd5b8273ffffffffffffffffffffffffffffffffffffffff163373ffffffffffffffffffffffffffffffffffffffff161415610e3f576040517f08c379a0000000000000000000000000000000000000000000000000000000008152600401610e3690612ca2565b60405180910390fd5b60018160000160019054906101000a900460ff1660ff1614610e96576040517f08c379a0000000000000000000000000000000000000000000000000000000008152600401610e8d90612d0e565b60405180910390fd5b828160030160006101000a81548173ffffffffffffffffffffffffffffffffffffffff021916908373ffffffffffffffffffffffffffffffffffffffff16021790555042816002018190555060028160000160016101000a81548160ff021916908360ff160217905550600260008473ffffffffffffffffffffffffffffffffffffffff1673ffffffffffffffffffffffffffffffffffffffff16815260200190815260200160002084908060018154018082558091505060019003906000526020600020016000909190919091505560019150509392505050565b600080600090505b83518110156110b0576000806000868481518110610f9b57610f9a612a13565b5b6020026020010151815260200190815260200160002090508060000160039054906101000a900473ffffffffffffffffffffffffffffffffffffffff1673ffffffffffffffffffffffffffffffffffffffff168473ffffffffffffffffffffffffffffffffffffffff1614611045576040517f08c379a000000000000000000000000000000000000000000000000000000000815260040161103c90612da0565b60405180910390fd5b60018160000160019054906101000a900460ff1660ff161461109c576040517f08c379a000000000000000000000000000000000000000000000000000000000815260040161109390612e0c565b60405180910390fd5b5080806110a890612a42565b915050610f7a565b5060006001426110c09190612b79565b90506000816040516020016110d59190612bcf565b6040516020818303038152906040528051906020012090506000600360008381526020019081526020016000209050848160000160006101000a81548173ffffffffffffffffffffffffffffffffffffffff021916908373ffffffffffffffffffffffffffffffffffffffff16021790555060005b86518110156111fa57600080600089848151811061116b5761116a612a13565b5b60200260200101518152602001908152602001600020905060038160000160016101000a81548160ff021916908360ff160217905550826001018883815181106111b8576111b7612a13565b5b602002602001015190806001815401808255809150506001900390600052602060002001600090919091909150555080806111f290612a42565b91505061114a565b507ffb33afd887d48bd78fb1c5cc7796db9a8a71354c3e12e91f7c397dff2fa2b43f82868360010160405161123193929190612f02565b60405180910390a1600460003373ffffffffffffffffffffffffffffffffffffffff1673ffffffffffffffffffffffffffffffffffffffff16815260200190815260200160002082908060018154018082558091505060019003906000526020600020016000909190919091505581935050505092915050565b6060600160008373ffffffffffffffffffffffffffffffffffffffff1673ffffffffffffffffffffffffffffffffffffffff16815260200190815260200160002080548060200260200160405190810160405280929190818152602001828054801561133657602002820191906000526020600020905b815481526020019060010190808311611322575b50505050509050919050565b6000806000806000806000806000808a8152602001908152602001600020905060008160000160019054906101000a900460ff1660ff16116113b9576040517f08c379a00000000000000000000000000000000000000000000000000000000081526004016113b090612c36565b60405180910390fd5b8060000160009054906101000a900460ff168160000160019054906101000a900460ff168260000160029054906101000a900460ff168360000160039054906101000a900473ffffffffffffffffffffffffffffffffffffffff168460030160009054906101000a900473ffffffffffffffffffffffffffffffffffffffff168560050160009054906101000a900460ff168660010154975097509750975097509750975050919395979092949650565b600080600560009054906101000a900473ffffffffffffffffffffffffffffffffffffffff169050600115158173ffffffffffffffffffffffffffffffffffffffff166323ba78fe33886040518363ffffffff1660e01b81526004016114d1929190612a8b565b602060405180830381865afa1580156114ee573d6000803e3d6000fd5b505050506040513d601f19601f820116820180604052508101906115129190612ae0565b151514611554576040517f08c379a000000000000000000000000000000000000000000000000000000000815260040161154b90612f8c565b60405180910390fd5b6000806000868152602001908152602001600020905060008160000160019054906101000a900460ff1660ff16116115c1576040517f08c379a00000000000000000000000000000000000000000000000000000000081526004016115b890612c36565b60405180910390fd5b8060000160039054906101000a900473ffffffffffffffffffffffffffffffffffffffff1673ffffffffffffffffffffffffffffffffffffffff163373ffffffffffffffffffffffffffffffffffffffff1614611653576040517f08c379a000000000000000000000000000000000000000000000000000000000815260040161164a90612ff8565b60405180910390fd5b60018160000160019054906101000a900460ff1660ff16146116aa576040517f08c379a00000000000000000000000000000000000000000000000000000000081526004016116a190612d0e565b60405180910390fd5b60008460ff16116116f0576040517f08c379a00000000000000000000000000000000000000000000000000000000081526004016116e790613064565b60405180910390fd5b8060000160029054906101000a900460ff1660ff168460ff1610611749576040517f08c379a000000000000000000000000000000000000000000000000000000000815260040161174090613064565b60405180910390fd5b838160000160029054906101000a900460ff166117669190613084565b8160000160026101000a81548160ff021916908360ff160217905550600060018760ff16426117959190612b79565b61179f9190612b79565b90506000816040516020016117b49190612bcf565b60405160208183030381529060405280519060200120905060008060008381526020019081526020016000209050868160000160026101000a81548160ff021916908360ff160217905550888160000160006101000a81548160ff021916908360ff160217905550338160000160036101000a81548173ffffffffffffffffffffffffffffffffffffffff021916908373ffffffffffffffffffffffffffffffffffffffff16021790555060018160000160016101000a81548160ff021916908360ff1602179055504281600101819055508360050160009054906101000a900460ff168160050160006101000a81548160ff021916908360ff160217905550600160003373ffffffffffffffffffffffffffffffffffffffff1673ffffffffffffffffffffffffffffffffffffffff16815260200190815260200160002082908060018154018082558091505060019003906000526020600020016000909190919091505581955050505050509392505050565b6060600260008373ffffffffffffffffffffffffffffffffffffffff1673ffffffffffffffffffffffffffffffffffffffff1681526020019081526020016000208054806020026020016040519081016040528092919081815260200182805480156119b457602002820191906000526020600020905b8154815260200190600101908083116119a0575b50505050509050919050565b600760009054906101000a900473ffffffffffffffffffffffffffffffffffffffff1673ffffffffffffffffffffffffffffffffffffffff163373ffffffffffffffffffffffffffffffffffffffff1614611a50576040517f08c379a0000000000000000000000000000000000000000000000000000000008152600401611a479061289c565b60405180910390fd5b80600560006101000a81548173ffffffffffffffffffffffffffffffffffffffff021916908373ffffffffffffffffffffffffffffffffffffffff16021790555050565b6000600660009054906101000a900473ffffffffffffffffffffffffffffffffffffffff16905090565b60005b8151811015611b0157611aee828281518110611ae057611adf612a13565b5b602002602001015133611c1c565b8080611af990612a42565b915050611ac1565b5050565b600060606000600360008581526020019081526020016000209050600073ffffffffffffffffffffffffffffffffffffffff168160000160009054906101000a900473ffffffffffffffffffffffffffffffffffffffff1673ffffffffffffffffffffffffffffffffffffffff161415611bb4576040517f08c379a0000000000000000000000000000000000000000000000000000000008152600401611bab90612c36565b60405180910390fd5b80600101805490508160010180805480602002602001604051908101604052809291908181526020018280548015611c0b57602002820191906000526020600020905b815481526020019060010190808311611bf7575b505050505090509250925050915091565b600080600084815260200190815260200160002090508060030160009054906101000a900473ffffffffffffffffffffffffffffffffffffffff1673ffffffffffffffffffffffffffffffffffffffff168273ffffffffffffffffffffffffffffffffffffffff1614611cc4576040517f08c379a0000000000000000000000000000000000000000000000000000000008152600401611cbb9061292e565b60405180910390fd5b60028160000160019054906101000a900460ff1660ff1614611d1b576040517f08c379a0000000000000000000000000000000000000000000000000000000008152600401611d129061299a565b60405180910390fd5b600081600401600083600501600081819054906101000a900460ff1680929190611d44906129e9565b91906101000a81548160ff021916908360ff16021790555060ff1660ff16815260200190815260200160002090508160000160039054906101000a900473ffffffffffffffffffffffffffffffffffffffff168160000160006101000a81548173ffffffffffffffffffffffffffffffffffffffff021916908373ffffffffffffffffffffffffffffffffffffffff160217905550428160010181905550338260000160036101000a81548173ffffffffffffffffffffffffffffffffffffffff021916908373ffffffffffffffffffffffffffffffffffffffff16021790555060008260030160006101000a81548173ffffffffffffffffffffffffffffffffffffffff021916908373ffffffffffffffffffffffffffffffffffffffff16021790555060018260000160016101000a81548160ff021916908360ff16021790555060005b600260003373ffffffffffffffffffffffffffffffffffffffff1673ffffffffffffffffffffffffffffffffffffffff16815260200190815260200160002080549050811015611fae5784600260003373ffffffffffffffffffffffffffffffffffffffff1673ffffffffffffffffffffffffffffffffffffffff1681526020019081526020016000208281548110611f2657611f25612a13565b5b90600052602060002001541415611f9b57600260003373ffffffffffffffffffffffffffffffffffffffff1673ffffffffffffffffffffffffffffffffffffffff1681526020019081526020016000208181548110611f8857611f87612a13565b5b9060005260206000200160009055611fae565b8080611fa690612a42565b915050611e8a565b5060005b600160008360000160009054906101000a900473ffffffffffffffffffffffffffffffffffffffff1673ffffffffffffffffffffffffffffffffffffffff1673ffffffffffffffffffffffffffffffffffffffff168152602001908152602001600020805490508110156121425784600160008460000160009054906101000a900473ffffffffffffffffffffffffffffffffffffffff1673ffffffffffffffffffffffffffffffffffffffff1673ffffffffffffffffffffffffffffffffffffffff168152602001908152602001600020828154811061209657612095612a13565b5b9060005260206000200154141561212f57600160008360000160009054906101000a900473ffffffffffffffffffffffffffffffffffffffff1673ffffffffffffffffffffffffffffffffffffffff1673ffffffffffffffffffffffffffffffffffffffff168152602001908152602001600020818154811061211c5761211b612a13565b5b9060005260206000200160009055612142565b808061213a90612a42565b915050611fb2565b50600160003373ffffffffffffffffffffffffffffffffffffffff1673ffffffffffffffffffffffffffffffffffffffff16815260200190815260200160002084908060018154018082558091505060019003906000526020600020016000909190919091505550505050565b6000604051905090565b600080fd5b600080fd5b600073ffffffffffffffffffffffffffffffffffffffff82169050919050565b60006121ee826121c3565b9050919050565b6121fe816121e3565b811461220957600080fd5b50565b60008135905061221b816121f5565b92915050565b600060208284031215612237576122366121b9565b5b60006122458482850161220c565b91505092915050565b600060ff82169050919050565b6122648161224e565b811461226f57600080fd5b50565b6000813590506122818161225b565b92915050565b6000819050919050565b61229a81612287565b81146122a557600080fd5b50565b6000813590506122b781612291565b92915050565b600080604083850312156122d4576122d36121b9565b5b60006122e285828601612272565b92505060206122f3858286016122a8565b9150509250929050565b60008115159050919050565b612312816122fd565b82525050565b600060208201905061232d6000830184612309565b92915050565b6000806040838503121561234a576123496121b9565b5b600061235885828601612272565b925050602061236985828601612272565b9150509250929050565b61237c81612287565b82525050565b60006020820190506123976000830184612373565b92915050565b6123a6816121e3565b82525050565b60006020820190506123c1600083018461239d565b92915050565b6000806000606084860312156123e0576123df6121b9565b5b60006123ee86828701612272565b93505060206123ff868287016122a8565b92505060406124108682870161220c565b9150509250925092565b600080fd5b6000601f19601f8301169050919050565b7f4e487b7100000000000000000000000000000000000000000000000000000000600052604160045260246000fd5b6124688261241f565b810181811067ffffffffffffffff8211171561248757612486612430565b5b80604052505050565b600061249a6121af565b90506124a6828261245f565b919050565b600067ffffffffffffffff8211156124c6576124c5612430565b5b602082029050602081019050919050565b600080fd5b60006124ef6124ea846124ab565b612490565b90508083825260208201905060208402830185811115612512576125116124d7565b5b835b8181101561253b578061252788826122a8565b845260208401935050602081019050612514565b5050509392505050565b600082601f83011261255a5761255961241a565b5b813561256a8482602086016124dc565b91505092915050565b6000806040838503121561258a576125896121b9565b5b600083013567ffffffffffffffff8111156125a8576125a76121be565b5b6125b485828601612545565b92505060206125c58582860161220c565b9150509250929050565b600081519050919050565b600082825260208201905092915050565b6000819050602082019050919050565b61260481612287565b82525050565b600061261683836125fb565b60208301905092915050565b6000602082019050919050565b600061263a826125cf565b61264481856125da565b935061264f836125eb565b8060005b83811015612680578151612667888261260a565b975061267283612622565b925050600181019050612653565b5085935050505092915050565b600060208201905081810360008301526126a7818461262f565b905092915050565b6000602082840312156126c5576126c46121b9565b5b60006126d3848285016122a8565b91505092915050565b6126e58161224e565b82525050565b6000819050919050565b6126fe816126eb565b82525050565b600060e082019050612719600083018a6126dc565b61272660208301896126dc565b61273360408301886126dc565b612740606083018761239d565b61274d608083018661239d565b61275a60a08301856126dc565b61276760c08301846126f5565b98975050505050505050565b60008060006060848603121561278c5761278b6121b9565b5b600061279a86828701612272565b93505060206127ab868287016122a8565b92505060406127bc86828701612272565b9150509250925092565b6000602082840312156127dc576127db6121b9565b5b600082013567ffffffffffffffff8111156127fa576127f96121be565b5b61280684828501612545565b91505092915050565b600060408201905061282460008301856126f5565b8181036020830152612836818461262f565b90509392505050565b600082825260208201905092915050565b7f4f6e6c792061646d696e2063616e20736574207065726d730000000000000000600082015250565b600061288660188361283f565b915061289182612850565b602082019050919050565b600060208201905081810360008301526128b581612879565b9050919050565b7f596f7520617265206e6f7420616c6c6f7765642c20646966666572656e74207360008201527f656e646572207468616e20686f6c646572000000000000000000000000000000602082015250565b600061291860318361283f565b9150612923826128bc565b604082019050919050565b600060208201905081810360008301526129478161290b565b9050919050565b7f546f6b656e20616c726561647920726563656976656400000000000000000000600082015250565b600061298460168361283f565b915061298f8261294e565b602082019050919050565b600060208201905081810360008301526129b381612977565b9050919050565b7f4e487b7100000000000000000000000000000000000000000000000000000000600052601160045260246000fd5b60006129f48261224e565b915060ff821415612a0857612a076129ba565b5b600182019050919050565b7f4e487b7100000000000000000000000000000000000000000000000000000000600052603260045260246000fd5b6000612a4d826126eb565b91507fffffffffffffffffffffffffffffffffffffffffffffffffffffffffffffffff821415612a8057612a7f6129ba565b5b600182019050919050565b6000604082019050612aa0600083018561239d565b612aad60208301846126dc565b9392505050565b612abd816122fd565b8114612ac857600080fd5b50565b600081519050612ada81612ab4565b92915050565b600060208284031215612af657612af56121b9565b5b6000612b0484828501612acb565b91505092915050565b7f4e6f207065726d20746f206d696e740000000000000000000000000000000000600082015250565b6000612b43600f8361283f565b9150612b4e82612b0d565b602082019050919050565b60006020820190508181036000830152612b7281612b36565b9050919050565b6000612b84826126eb565b9150612b8f836126eb565b9250827fffffffffffffffffffffffffffffffffffffffffffffffffffffffffffffffff03821115612bc457612bc36129ba565b5b828201905092915050565b6000602082019050612be460008301846126f5565b92915050565b7f4e6f6e206578697374656e7420746f6b656e0000000000000000000000000000600082015250565b6000612c2060128361283f565b9150612c2b82612bea565b602082019050919050565b60006020820190508181036000830152612c4f81612c13565b9050919050565b7f596f7520617265206e6f7420616c6c6f77656400000000000000000000000000600082015250565b6000612c8c60138361283f565b9150612c9782612c56565b602082019050919050565b60006020820190508181036000830152612cbb81612c7f565b9050919050565b7f546f6b656e20737461747573206e6f7420726561647900000000000000000000600082015250565b6000612cf860168361283f565b9150612d0382612cc2565b602082019050919050565b60006020820190508181036000830152612d2781612ceb565b9050919050565b7f596f7520617265206e6f7420616c6c6f7765642c20646966666572656e74206860008201527f6f6c646572000000000000000000000000000000000000000000000000000000602082015250565b6000612d8a60258361283f565b9150612d9582612d2e565b604082019050919050565b60006020820190508181036000830152612db981612d7d565b9050919050565b7f546f6b656e2068617320746f20626520617661696c61626c6500000000000000600082015250565b6000612df660198361283f565b9150612e0182612dc0565b602082019050919050565b60006020820190508181036000830152612e2581612de9565b9050919050565b600081549050919050565b60008190508160005260206000209050919050565b60008160001c9050919050565b6000819050919050565b6000612e76612e7183612e4c565b612e59565b9050919050565b6000612e898254612e63565b9050919050565b6000600182019050919050565b6000612ea882612e2c565b612eb281856125da565b9350612ebd83612e37565b8060005b83811015612ef557612ed282612e7d565b612edc888261260a565b9750612ee783612e90565b925050600181019050612ec1565b5085935050505092915050565b6000606082019050612f176000830186612373565b612f24602083018561239d565b8181036040830152612f368184612e9d565b9050949350505050565b7f4e6f207065726d20746f2073706c697400000000000000000000000000000000600082015250565b6000612f7660108361283f565b9150612f8182612f40565b602082019050919050565b60006020820190508181036000830152612fa581612f69565b9050919050565b7f596f7520617265206e6f7720616c6c6f77656400000000000000000000000000600082015250565b6000612fe260138361283f565b9150612fed82612fac565b602082019050919050565b6000602082019050818103600083015261301181612fd5565b9050919050565b7f496e76616c69642073706c697420616d6f756e74000000000000000000000000600082015250565b600061304e60148361283f565b915061305982613018565b602082019050919050565b6000602082019050818103600083015261307d81613041565b9050919050565b600061308f8261224e565b915061309a8361224e565b9250828210156130ad576130ac6129ba565b5b82820390509291505056fea264697066735822122011738e4b5bc89c94db9219f96fb445483b94543e9b7d0e66fc1c923aac1fabbd64736f6c634300080a0033",
  "immutableReferences": {},
  "source": "// SPDX-License-Identifier: GPL-3.0\n\npragma solidity >=0.7.0 <0.9.0;\n\nimport \"./Management.sol\";\nimport \"./Database.sol\";\n\n/**\n * @title FoodChainMonitoring\n * @dev Store & retrieve value in a variable\n */\ncontract Tracking {\n    // debug\n    event _exposePackHash(\n        bytes32 packHash,\n        address owner,\n        bytes32[] ingredients\n    );\n\n    struct HoldersMapping {\n        address holderAddress;\n        uint256 timestamp;\n    }\n\n    struct FinalProductsMapping {\n        // bytes32 _productAddress;\n        address _producer;\n        bytes32[] _tokens;\n        // uint8 _tokensLength;\n    }\n\n    struct FCToken {\n        uint8 ingridientID;\n        uint8 status; // packed?\n        uint8 amount;\n        address holder;\n        uint256 minted_on;\n        uint256 transfered_on;\n        address pending_holder;\n        mapping(uint8 => HoldersMapping) past_holders;\n        uint8 past_holders_length;\n    }\n\n    mapping(bytes32 => FCToken) _universeTokens;\n    mapping(address => bytes32[]) _userTokens;\n    mapping(address => bytes32[]) _userPendingTokens;\n\n    // address of the Final Product -> struct of the product\n    mapping(bytes32 => FinalProductsMapping) _finalProducts;\n    mapping(address => bytes32[]) _userPacks;\n\n    address management_sc;\n    address database_sc;\n    address admin;\n\n    constructor() {\n        admin = msg.sender;\n    }\n\n    function set_management_sc(address _msc) public {\n        require(msg.sender == admin, \"Only admin can set perms\");\n        management_sc = _msc;\n    }\n\n    function get_management_sc() public view returns (address) {\n        return management_sc;\n    }\n\n    function set_database_sc(address _msc) public {\n        require(msg.sender == admin, \"Only admin can set perms\");\n        database_sc = _msc;\n    }\n\n    function get_database_sc() public view returns (address) {\n        return database_sc;\n    }\n\n    function mint_token(uint8 _ingridientID, uint8 _amount)\n        public\n        returns (bytes32)\n    {\n        // create check method to verify the generation is valid\n        Management m = Management(management_sc);\n        require(\n            m.get_perm_mint(msg.sender, _ingridientID) == true,\n            \"No perm to mint\"\n        );\n\n        uint256 toHash = block.timestamp + _ingridientID;\n        bytes32 tokenHash = keccak256(abi.encode(toHash));\n        // FCToken storage theToken = tokens[_ingridientID][tokenHash];\n        FCToken storage theToken = _universeTokens[tokenHash];\n\n        theToken.amount = _amount;\n        theToken.ingridientID = _ingridientID;\n        theToken.holder = msg.sender;\n        theToken.status = 1; // 1 = ready, 2 = transfer_pending, 3 = packed\n        theToken.minted_on = block.timestamp;\n        theToken.past_holders_length = 0;\n\n        _userTokens[msg.sender].push(tokenHash);\n        // ingridient_tokens[_ingridientID] = tokenHash;\n        // token_hashes[tokenHash] = theToken; while the init is on memory\n        return tokenHash; // hash has to be generated by ingridient ID, first holder and timestamp\n    }\n\n    function transfer_token(\n        uint8 _ingridientID,\n        bytes32 _tokenHash,\n        address _receiver\n    ) public returns (bool) {\n        // FCToken storage tkn = tokens[_ingridientID][_tokenHash];\n        FCToken storage tkn = _universeTokens[_tokenHash];\n        require(tkn.status > 0, \"Non existent token\");\n        require(msg.sender == tkn.holder, \"You are not allowed\"); // Check that the tx.sender is the owner of the token\n        require(msg.sender != _receiver, \"You are not allowed\"); // Check that the tx.sender is the owner of the token\n        require(tkn.status == 1, \"Token status not ready\"); // check the state of the token (it has to be ready)\n        // check that the tx.sender can transfer such ingridient\n        // check that the tx.receiver can accept such ingridient\n\n        // set pending_holder to receiver\n        tkn.pending_holder = _receiver;\n        tkn.transfered_on = block.timestamp;\n        // set the status -> transfer_pending\n        tkn.status = 2;\n\n        _userPendingTokens[_receiver].push(_tokenHash);\n\n        return true;\n    }\n\n    function receive_token(uint8 _ingridientID, bytes32 _tokenHash)\n        public\n        returns (bool)\n    {\n        // FCToken storage tkn = tokens[_ingridientID][_tokenHash];\n        FCToken storage tkn = _universeTokens[_tokenHash];\n        require(\n            msg.sender == tkn.pending_holder,\n            \"You are not allowed, different sender than holder\"\n        );\n        require(tkn.status == 2, \"Token already received\");\n\n        HoldersMapping storage hmap = tkn.past_holders[\n            tkn.past_holders_length++\n        ]; // stupid syntax -> https://ethereum.stackexchange.com/questions/87451/solidity-error-struct-containing-a-nested-mapping-cannot-be-constructed\n        hmap.holderAddress = tkn.holder;\n        hmap.timestamp = block.timestamp;\n        tkn.holder = msg.sender;\n        tkn.pending_holder = address(0);\n        tkn.status = 1;\n\n        for (\n            uint256 index = 0;\n            index < _userPendingTokens[msg.sender].length;\n            index++\n        ) {\n            if (_userPendingTokens[msg.sender][index] == _tokenHash) {\n                delete _userPendingTokens[msg.sender][index];\n                break;\n            }\n        }\n\n        for (\n            uint256 index = 0;\n            index < _userTokens[hmap.holderAddress].length;\n            index++\n        ) {\n            if (_userTokens[hmap.holderAddress][index] == _tokenHash) {\n                delete _userTokens[hmap.holderAddress][index];\n                break;\n            }\n        }\n        _userTokens[msg.sender].push(_tokenHash);\n\n        return true;\n    }\n\n    function private_receive_token(\n        bytes32 _tokenHash,\n        address _sender\n    ) private {\n        // FCToken storage tkn = tokens[_ingridientID][_tokenHash];\n        FCToken storage tkn = _universeTokens[_tokenHash];\n        require(\n            _sender == tkn.pending_holder,\n            \"You are not allowed, different sender than holder\"\n        );\n        require(tkn.status == 2, \"Token already received\");\n\n        HoldersMapping storage hmap = tkn.past_holders[\n            tkn.past_holders_length++\n        ]; // stupid syntax -> https://ethereum.stackexchange.com/questions/87451/solidity-error-struct-containing-a-nested-mapping-cannot-be-constructed\n\n        // address currentHolder = tkn.holder;\n        hmap.holderAddress = tkn.holder;\n        hmap.timestamp = block.timestamp;\n        tkn.holder = msg.sender;\n        tkn.pending_holder = address(0);\n        tkn.status = 1;\n        // _userTokens[currentHolder][_tokenHash] = 0;\n        for (\n            uint256 index = 0;\n            index < _userPendingTokens[msg.sender].length;\n            index++\n        ) {\n            if (_userPendingTokens[msg.sender][index] == _tokenHash) {\n                delete _userPendingTokens[msg.sender][index];\n                break;\n            }\n        }\n\n        for (\n            uint256 index = 0;\n            index < _userTokens[hmap.holderAddress].length;\n            index++\n        ) {\n            if (_userTokens[hmap.holderAddress][index] == _tokenHash) {\n                delete _userTokens[hmap.holderAddress][index];\n                break;\n            }\n        }\n        _userTokens[msg.sender].push(_tokenHash);\n    }\n\n    function receive_tokens(\n        bytes32[] memory _tokenHash\n    ) public payable {\n        for (uint256 i = 0; i < _tokenHash.length; i++) {\n            private_receive_token(_tokenHash[i], msg.sender);\n        }\n    }\n\n    function split_token(\n        uint8 _ingridientID,\n        bytes32 _tokenHash,\n        uint8 _amount\n    ) public returns (bytes32) {\n        Management m = Management(management_sc);\n        require(\n            m.get_perm_split(msg.sender, _ingridientID) == true,\n            \"No perm to split\"\n        ); // to be implemented\n        // FCToken storage tkn = tokens[_ingridientID][_tokenHash];\n        FCToken storage tkn = _universeTokens[_tokenHash];\n        require(tkn.status > 0, \"Non existent token\");\n        require(msg.sender == tkn.holder, \"You are now allowed\"); // Check that the tx.sender is the owner of the token\n        require(tkn.status == 1, \"Token status not ready\"); // check the state of the token (it has to be ready)\n        require(_amount > 0, \"Invalid split amount\");\n        require(_amount < tkn.amount, \"Invalid split amount\");\n        tkn.amount = tkn.amount - _amount;\n\n        uint256 toHash = block.timestamp + _ingridientID + 1; //block.timestamp + _ingridientID is the same in the same block\n        bytes32 tokenHash = keccak256(abi.encode(toHash));\n        // FCToken storage ntkn = tokens[_ingridientID][tokenHash];\n        FCToken storage ntkn = _universeTokens[tokenHash];\n\n        ntkn.amount = _amount;\n        ntkn.ingridientID = _ingridientID;\n        ntkn.holder = msg.sender;\n        ntkn.status = 1; // 1 = ready, 2 = transfer_pending, 3 = packed\n        ntkn.minted_on = block.timestamp;\n        ntkn.past_holders_length = tkn.past_holders_length;\n        //ntkn.past_holders = tkn.past_holders;\n        _userTokens[msg.sender].push(tokenHash);\n\n        return tokenHash;\n    }\n\n    function getTokenData(bytes32 _tokenHash)\n        public\n        view\n        returns (\n            uint8,\n            uint8,\n            uint8,\n            address,\n            address,\n            uint8,\n            uint256\n        )\n    {\n        // FCToken storage tkn = tokens[_ingridientID][_tokenHash];\n        FCToken storage tkn = _universeTokens[_tokenHash];\n        require(tkn.status > 0, \"Non existent token\");\n\n        return (\n            tkn.ingridientID,\n            tkn.status,\n            tkn.amount,\n            tkn.holder,\n            tkn.pending_holder,\n            tkn.past_holders_length,\n            tkn.minted_on\n        );\n    }\n\n    function pack(bytes32[] memory _tokenHash, address _sender)\n        public\n        payable\n        returns (bytes32)\n    {\n        // maybe dummy, but 2 loops, one to check permissions the other to alter the tokens\n        for (uint256 i = 0; i < _tokenHash.length; i++) {\n            // check for permissions and the status of the token\n            FCToken storage tkn = _universeTokens[_tokenHash[i]];\n\n            require(\n                _sender == tkn.holder,\n                \"You are not allowed, different holder\"\n            );\n            require(tkn.status == 1, \"Token has to be available\");\n        }\n\n        uint256 toHash = block.timestamp + 1; //block.timestamp + _ingridientID is the same in the same block\n        bytes32 packHash = keccak256(abi.encode(toHash));\n        FinalProductsMapping storage product = _finalProducts[packHash];\n\n        product._producer = _sender;\n        for (uint256 i = 0; i < _tokenHash.length; i++) {\n            FCToken storage tkn = _universeTokens[_tokenHash[i]];\n            tkn.status = 3;\n            product._tokens.push(_tokenHash[i]);\n        }\n        emit _exposePackHash(packHash, _sender, product._tokens);\n        _userPacks[msg.sender].push(packHash);\n\n        return packHash;\n    }\n\n    function viewPack(bytes32 _packAddress)\n        public\n        view\n        returns (uint256, bytes32[] memory)\n    {\n        FinalProductsMapping storage product = _finalProducts[_packAddress];\n        require(product._producer != address(0), \"Non existent token\");\n\n        return (product._tokens.length, product._tokens);\n    }\n\n    function getUserPendingTokens(address _owner)\n        public\n        view\n        returns (bytes32[] memory)\n    {\n        return _userPendingTokens[_owner];\n    }\n\n    function getUserTokens(address _owner)\n        public\n        view\n        returns (bytes32[] memory)\n    {\n        return _userTokens[_owner];\n    }\n}\n",
  "sourcePath": "C:\\Users\\Brion\\Documents\\work\\research\\Blockchain Agrifood\\smartcontract\\contracts\\Tracking.sol",
  "compiler": {
    "name": "solc",
    "version": "0.8.10+commit.fc410830.Emscripten.clang"
  },
  "schemaVersion": "3.4.10",
  "updatedAt": "2022-11-01T13:23:38.524Z",
  "networkType": "ethereum",
  "devdoc": {
    "details": "Store & retrieve value in a variable",
    "kind": "dev",
    "methods": {},
    "title": "FoodChainMonitoring",
    "version": 1
  },
  "userdoc": {
    "kind": "user",
    "methods": {},
    "version": 1
  }
}